{
	"contracts/MedicalHistory.sol": {
		"MedicalHistory": {
			"abi": [
				{
					"inputs": [],
					"name": "consultDiag",
					"outputs": [
						{
							"internalType": "string",
							"name": "",
							"type": "string"
						}
					],
					"stateMutability": "view",
					"type": "function"
				},
				{
					"inputs": [],
					"name": "owner",
					"outputs": [
						{
							"internalType": "address",
							"name": "",
							"type": "address"
						}
					],
					"stateMutability": "view",
					"type": "function"
				},
				{
					"inputs": [],
					"name": "recomendations",
					"outputs": [
						{
							"internalType": "string",
							"name": "",
							"type": "string"
						}
					],
					"stateMutability": "view",
					"type": "function"
				},
				{
					"inputs": [],
					"name": "treatment",
					"outputs": [
						{
							"internalType": "string",
							"name": "",
							"type": "string"
						}
					],
					"stateMutability": "view",
					"type": "function"
				}
			],
			"devdoc": {
				"kind": "dev",
				"methods": {},
				"title": "A interface with the data of medical history",
				"version": 1
			},
			"evm": {
				"assembly": "    /* \"contracts/MedicalHistory.sol\":123:277  contract MedicalHistory {\r... */\n  mstore(0x40, 0x80)\n  callvalue\n  dup1\n  iszero\n  tag_1\n  jumpi\n  0x00\n  dup1\n  revert\ntag_1:\n  pop\n  dataSize(sub_0)\n  dup1\n  dataOffset(sub_0)\n  0x00\n  codecopy\n  0x00\n  return\nstop\n\nsub_0: assembly {\n        /* \"contracts/MedicalHistory.sol\":123:277  contract MedicalHistory {\r... */\n      mstore(0x40, 0x80)\n      callvalue\n      dup1\n      iszero\n      tag_1\n      jumpi\n      0x00\n      dup1\n      revert\n    tag_1:\n      pop\n      jumpi(tag_2, lt(calldatasize, 0x04))\n      shr(0xe0, calldataload(0x00))\n      dup1\n      0x40fe8d40\n      eq\n      tag_3\n      jumpi\n      dup1\n      0x8da5cb5b\n      eq\n      tag_4\n      jumpi\n      dup1\n      0xb58a79c5\n      eq\n      tag_5\n      jumpi\n      dup1\n      0xca310670\n      eq\n      tag_6\n      jumpi\n    tag_2:\n      0x00\n      dup1\n      revert\n        /* \"contracts/MedicalHistory.sol\":245:273  string public recomendations */\n    tag_3:\n      tag_7\n      tag_8\n      jump\t// in\n    tag_7:\n      mload(0x40)\n      tag_9\n      swap2\n      swap1\n      tag_10\n      jump\t// in\n    tag_9:\n      mload(0x40)\n      dup1\n      swap2\n      sub\n      swap1\n      return\n        /* \"contracts/MedicalHistory.sol\":156:176  address public owner */\n    tag_4:\n      tag_11\n      tag_12\n      jump\t// in\n    tag_11:\n      mload(0x40)\n      tag_13\n      swap2\n      swap1\n      tag_14\n      jump\t// in\n    tag_13:\n      mload(0x40)\n      dup1\n      swap2\n      sub\n      swap1\n      return\n        /* \"contracts/MedicalHistory.sol\":183:208  string public consultDiag */\n    tag_5:\n      tag_15\n      tag_16\n      jump\t// in\n    tag_15:\n      mload(0x40)\n      tag_17\n      swap2\n      swap1\n      tag_10\n      jump\t// in\n    tag_17:\n      mload(0x40)\n      dup1\n      swap2\n      sub\n      swap1\n      return\n        /* \"contracts/MedicalHistory.sol\":215:238  string public treatment */\n    tag_6:\n      tag_18\n      tag_19\n      jump\t// in\n    tag_18:\n      mload(0x40)\n      tag_20\n      swap2\n      swap1\n      tag_10\n      jump\t// in\n    tag_20:\n      mload(0x40)\n      dup1\n      swap2\n      sub\n      swap1\n      return\n        /* \"contracts/MedicalHistory.sol\":245:273  string public recomendations */\n    tag_8:\n      0x03\n      dup1\n      sload\n      tag_21\n      swap1\n      tag_22\n      jump\t// in\n    tag_21:\n      dup1\n      0x1f\n      add\n      0x20\n      dup1\n      swap2\n      div\n      mul\n      0x20\n      add\n      mload(0x40)\n      swap1\n      dup2\n      add\n      0x40\n      mstore\n      dup1\n      swap3\n      swap2\n      swap1\n      dup2\n      dup2\n      mstore\n      0x20\n      add\n      dup3\n      dup1\n      sload\n      tag_23\n      swap1\n      tag_22\n      jump\t// in\n    tag_23:\n      dup1\n      iszero\n      tag_24\n      jumpi\n      dup1\n      0x1f\n      lt\n      tag_25\n      jumpi\n      0x0100\n      dup1\n      dup4\n      sload\n      div\n      mul\n      dup4\n      mstore\n      swap2\n      0x20\n      add\n      swap2\n      jump(tag_24)\n    tag_25:\n      dup3\n      add\n      swap2\n      swap1\n      0x00\n      mstore\n      keccak256(0x00, 0x20)\n      swap1\n    tag_26:\n      dup2\n      sload\n      dup2\n      mstore\n      swap1\n      0x01\n      add\n      swap1\n      0x20\n      add\n      dup1\n      dup4\n      gt\n      tag_26\n      jumpi\n      dup3\n      swap1\n      sub\n      0x1f\n      and\n      dup3\n      add\n      swap2\n    tag_24:\n      pop\n      pop\n      pop\n      pop\n      pop\n      dup2\n      jump\t// out\n        /* \"contracts/MedicalHistory.sol\":156:176  address public owner */\n    tag_12:\n      0x00\n      dup1\n      sload\n      swap1\n      0x0100\n      exp\n      swap1\n      div\n      0xffffffffffffffffffffffffffffffffffffffff\n      and\n      dup2\n      jump\t// out\n        /* \"contracts/MedicalHistory.sol\":183:208  string public consultDiag */\n    tag_16:\n      0x01\n      dup1\n      sload\n      tag_27\n      swap1\n      tag_22\n      jump\t// in\n    tag_27:\n      dup1\n      0x1f\n      add\n      0x20\n      dup1\n      swap2\n      div\n      mul\n      0x20\n      add\n      mload(0x40)\n      swap1\n      dup2\n      add\n      0x40\n      mstore\n      dup1\n      swap3\n      swap2\n      swap1\n      dup2\n      dup2\n      mstore\n      0x20\n      add\n      dup3\n      dup1\n      sload\n      tag_28\n      swap1\n      tag_22\n      jump\t// in\n    tag_28:\n      dup1\n      iszero\n      tag_29\n      jumpi\n      dup1\n      0x1f\n      lt\n      tag_30\n      jumpi\n      0x0100\n      dup1\n      dup4\n      sload\n      div\n      mul\n      dup4\n      mstore\n      swap2\n      0x20\n      add\n      swap2\n      jump(tag_29)\n    tag_30:\n      dup3\n      add\n      swap2\n      swap1\n      0x00\n      mstore\n      keccak256(0x00, 0x20)\n      swap1\n    tag_31:\n      dup2\n      sload\n      dup2\n      mstore\n      swap1\n      0x01\n      add\n      swap1\n      0x20\n      add\n      dup1\n      dup4\n      gt\n      tag_31\n      jumpi\n      dup3\n      swap1\n      sub\n      0x1f\n      and\n      dup3\n      add\n      swap2\n    tag_29:\n      pop\n      pop\n      pop\n      pop\n      pop\n      dup2\n      jump\t// out\n        /* \"contracts/MedicalHistory.sol\":215:238  string public treatment */\n    tag_19:\n      0x02\n      dup1\n      sload\n      tag_32\n      swap1\n      tag_22\n      jump\t// in\n    tag_32:\n      dup1\n      0x1f\n      add\n      0x20\n      dup1\n      swap2\n      div\n      mul\n      0x20\n      add\n      mload(0x40)\n      swap1\n      dup2\n      add\n      0x40\n      mstore\n      dup1\n      swap3\n      swap2\n      swap1\n      dup2\n      dup2\n      mstore\n      0x20\n      add\n      dup3\n      dup1\n      sload\n      tag_33\n      swap1\n      tag_22\n      jump\t// in\n    tag_33:\n      dup1\n      iszero\n      tag_34\n      jumpi\n      dup1\n      0x1f\n      lt\n      tag_35\n      jumpi\n      0x0100\n      dup1\n      dup4\n      sload\n      div\n      mul\n      dup4\n      mstore\n      swap2\n      0x20\n      add\n      swap2\n      jump(tag_34)\n    tag_35:\n      dup3\n      add\n      swap2\n      swap1\n      0x00\n      mstore\n      keccak256(0x00, 0x20)\n      swap1\n    tag_36:\n      dup2\n      sload\n      dup2\n      mstore\n      swap1\n      0x01\n      add\n      swap1\n      0x20\n      add\n      dup1\n      dup4\n      gt\n      tag_36\n      jumpi\n      dup3\n      swap1\n      sub\n      0x1f\n      and\n      dup3\n      add\n      swap2\n    tag_34:\n      pop\n      pop\n      pop\n      pop\n      pop\n      dup2\n      jump\t// out\n        /* \"#utility.yul\":7:125   */\n    tag_38:\n        /* \"#utility.yul\":94:118   */\n      tag_40\n        /* \"#utility.yul\":112:117   */\n      dup2\n        /* \"#utility.yul\":94:118   */\n      tag_41\n      jump\t// in\n    tag_40:\n        /* \"#utility.yul\":89:92   */\n      dup3\n        /* \"#utility.yul\":82:119   */\n      mstore\n        /* \"#utility.yul\":7:125   */\n      pop\n      pop\n      jump\t// out\n        /* \"#utility.yul\":131:495   */\n    tag_42:\n        /* \"#utility.yul\":219:222   */\n      0x00\n        /* \"#utility.yul\":247:286   */\n      tag_44\n        /* \"#utility.yul\":280:285   */\n      dup3\n        /* \"#utility.yul\":247:286   */\n      tag_45\n      jump\t// in\n    tag_44:\n        /* \"#utility.yul\":302:373   */\n      tag_46\n        /* \"#utility.yul\":366:372   */\n      dup2\n        /* \"#utility.yul\":361:364   */\n      dup6\n        /* \"#utility.yul\":302:373   */\n      tag_47\n      jump\t// in\n    tag_46:\n        /* \"#utility.yul\":295:373   */\n      swap4\n      pop\n        /* \"#utility.yul\":382:434   */\n      tag_48\n        /* \"#utility.yul\":427:433   */\n      dup2\n        /* \"#utility.yul\":422:425   */\n      dup6\n        /* \"#utility.yul\":415:419   */\n      0x20\n        /* \"#utility.yul\":408:413   */\n      dup7\n        /* \"#utility.yul\":404:420   */\n      add\n        /* \"#utility.yul\":382:434   */\n      tag_49\n      jump\t// in\n    tag_48:\n        /* \"#utility.yul\":459:488   */\n      tag_50\n        /* \"#utility.yul\":481:487   */\n      dup2\n        /* \"#utility.yul\":459:488   */\n      tag_51\n      jump\t// in\n    tag_50:\n        /* \"#utility.yul\":454:457   */\n      dup5\n        /* \"#utility.yul\":450:489   */\n      add\n        /* \"#utility.yul\":443:489   */\n      swap2\n      pop\n        /* \"#utility.yul\":223:495   */\n      pop\n        /* \"#utility.yul\":131:495   */\n      swap3\n      swap2\n      pop\n      pop\n      jump\t// out\n        /* \"#utility.yul\":501:723   */\n    tag_14:\n        /* \"#utility.yul\":594:598   */\n      0x00\n        /* \"#utility.yul\":632:634   */\n      0x20\n        /* \"#utility.yul\":621:630   */\n      dup3\n        /* \"#utility.yul\":617:635   */\n      add\n        /* \"#utility.yul\":609:635   */\n      swap1\n      pop\n        /* \"#utility.yul\":645:716   */\n      tag_53\n        /* \"#utility.yul\":713:714   */\n      0x00\n        /* \"#utility.yul\":702:711   */\n      dup4\n        /* \"#utility.yul\":698:715   */\n      add\n        /* \"#utility.yul\":689:695   */\n      dup5\n        /* \"#utility.yul\":645:716   */\n      tag_38\n      jump\t// in\n    tag_53:\n        /* \"#utility.yul\":501:723   */\n      swap3\n      swap2\n      pop\n      pop\n      jump\t// out\n        /* \"#utility.yul\":729:1042   */\n    tag_10:\n        /* \"#utility.yul\":842:846   */\n      0x00\n        /* \"#utility.yul\":880:882   */\n      0x20\n        /* \"#utility.yul\":869:878   */\n      dup3\n        /* \"#utility.yul\":865:883   */\n      add\n        /* \"#utility.yul\":857:883   */\n      swap1\n      pop\n        /* \"#utility.yul\":929:938   */\n      dup2\n        /* \"#utility.yul\":923:927   */\n      dup2\n        /* \"#utility.yul\":919:939   */\n      sub\n        /* \"#utility.yul\":915:916   */\n      0x00\n        /* \"#utility.yul\":904:913   */\n      dup4\n        /* \"#utility.yul\":900:917   */\n      add\n        /* \"#utility.yul\":893:940   */\n      mstore\n        /* \"#utility.yul\":957:1035   */\n      tag_55\n        /* \"#utility.yul\":1030:1034   */\n      dup2\n        /* \"#utility.yul\":1021:1027   */\n      dup5\n        /* \"#utility.yul\":957:1035   */\n      tag_42\n      jump\t// in\n    tag_55:\n        /* \"#utility.yul\":949:1035   */\n      swap1\n      pop\n        /* \"#utility.yul\":729:1042   */\n      swap3\n      swap2\n      pop\n      pop\n      jump\t// out\n        /* \"#utility.yul\":1048:1147   */\n    tag_45:\n        /* \"#utility.yul\":1100:1106   */\n      0x00\n        /* \"#utility.yul\":1134:1139   */\n      dup2\n        /* \"#utility.yul\":1128:1140   */\n      mload\n        /* \"#utility.yul\":1118:1140   */\n      swap1\n      pop\n        /* \"#utility.yul\":1048:1147   */\n      swap2\n      swap1\n      pop\n      jump\t// out\n        /* \"#utility.yul\":1153:1322   */\n    tag_47:\n        /* \"#utility.yul\":1237:1248   */\n      0x00\n        /* \"#utility.yul\":1271:1277   */\n      dup3\n        /* \"#utility.yul\":1266:1269   */\n      dup3\n        /* \"#utility.yul\":1259:1278   */\n      mstore\n        /* \"#utility.yul\":1311:1315   */\n      0x20\n        /* \"#utility.yul\":1306:1309   */\n      dup3\n        /* \"#utility.yul\":1302:1316   */\n      add\n        /* \"#utility.yul\":1287:1316   */\n      swap1\n      pop\n        /* \"#utility.yul\":1153:1322   */\n      swap3\n      swap2\n      pop\n      pop\n      jump\t// out\n        /* \"#utility.yul\":1328:1424   */\n    tag_41:\n        /* \"#utility.yul\":1365:1372   */\n      0x00\n        /* \"#utility.yul\":1394:1418   */\n      tag_59\n        /* \"#utility.yul\":1412:1417   */\n      dup3\n        /* \"#utility.yul\":1394:1418   */\n      tag_60\n      jump\t// in\n    tag_59:\n        /* \"#utility.yul\":1383:1418   */\n      swap1\n      pop\n        /* \"#utility.yul\":1328:1424   */\n      swap2\n      swap1\n      pop\n      jump\t// out\n        /* \"#utility.yul\":1430:1556   */\n    tag_60:\n        /* \"#utility.yul\":1467:1474   */\n      0x00\n        /* \"#utility.yul\":1507:1549   */\n      0xffffffffffffffffffffffffffffffffffffffff\n        /* \"#utility.yul\":1500:1505   */\n      dup3\n        /* \"#utility.yul\":1496:1550   */\n      and\n        /* \"#utility.yul\":1485:1550   */\n      swap1\n      pop\n        /* \"#utility.yul\":1430:1556   */\n      swap2\n      swap1\n      pop\n      jump\t// out\n        /* \"#utility.yul\":1562:1869   */\n    tag_49:\n        /* \"#utility.yul\":1630:1631   */\n      0x00\n        /* \"#utility.yul\":1640:1753   */\n    tag_63:\n        /* \"#utility.yul\":1654:1660   */\n      dup4\n        /* \"#utility.yul\":1651:1652   */\n      dup2\n        /* \"#utility.yul\":1648:1661   */\n      lt\n        /* \"#utility.yul\":1640:1753   */\n      iszero\n      tag_65\n      jumpi\n        /* \"#utility.yul\":1739:1740   */\n      dup1\n        /* \"#utility.yul\":1734:1737   */\n      dup3\n        /* \"#utility.yul\":1730:1741   */\n      add\n        /* \"#utility.yul\":1724:1742   */\n      mload\n        /* \"#utility.yul\":1720:1721   */\n      dup2\n        /* \"#utility.yul\":1715:1718   */\n      dup5\n        /* \"#utility.yul\":1711:1722   */\n      add\n        /* \"#utility.yul\":1704:1743   */\n      mstore\n        /* \"#utility.yul\":1676:1678   */\n      0x20\n        /* \"#utility.yul\":1673:1674   */\n      dup2\n        /* \"#utility.yul\":1669:1679   */\n      add\n        /* \"#utility.yul\":1664:1679   */\n      swap1\n      pop\n        /* \"#utility.yul\":1640:1753   */\n      jump(tag_63)\n    tag_65:\n        /* \"#utility.yul\":1771:1777   */\n      dup4\n        /* \"#utility.yul\":1768:1769   */\n      dup2\n        /* \"#utility.yul\":1765:1778   */\n      gt\n        /* \"#utility.yul\":1762:1863   */\n      iszero\n      tag_66\n      jumpi\n        /* \"#utility.yul\":1851:1852   */\n      0x00\n        /* \"#utility.yul\":1842:1848   */\n      dup5\n        /* \"#utility.yul\":1837:1840   */\n      dup5\n        /* \"#utility.yul\":1833:1849   */\n      add\n        /* \"#utility.yul\":1826:1853   */\n      mstore\n        /* \"#utility.yul\":1762:1863   */\n    tag_66:\n        /* \"#utility.yul\":1611:1869   */\n      pop\n        /* \"#utility.yul\":1562:1869   */\n      pop\n      pop\n      pop\n      jump\t// out\n        /* \"#utility.yul\":1875:2195   */\n    tag_22:\n        /* \"#utility.yul\":1919:1925   */\n      0x00\n        /* \"#utility.yul\":1956:1957   */\n      0x02\n        /* \"#utility.yul\":1950:1954   */\n      dup3\n        /* \"#utility.yul\":1946:1958   */\n      div\n        /* \"#utility.yul\":1936:1958   */\n      swap1\n      pop\n        /* \"#utility.yul\":2003:2004   */\n      0x01\n        /* \"#utility.yul\":1997:2001   */\n      dup3\n        /* \"#utility.yul\":1993:2005   */\n      and\n        /* \"#utility.yul\":2024:2042   */\n      dup1\n        /* \"#utility.yul\":2014:2095   */\n      tag_68\n      jumpi\n        /* \"#utility.yul\":2080:2084   */\n      0x7f\n        /* \"#utility.yul\":2072:2078   */\n      dup3\n        /* \"#utility.yul\":2068:2085   */\n      and\n        /* \"#utility.yul\":2058:2085   */\n      swap2\n      pop\n        /* \"#utility.yul\":2014:2095   */\n    tag_68:\n        /* \"#utility.yul\":2142:2144   */\n      0x20\n        /* \"#utility.yul\":2134:2140   */\n      dup3\n        /* \"#utility.yul\":2131:2145   */\n      lt\n        /* \"#utility.yul\":2111:2129   */\n      dup2\n        /* \"#utility.yul\":2108:2146   */\n      eq\n        /* \"#utility.yul\":2105:2189   */\n      iszero\n      tag_69\n      jumpi\n        /* \"#utility.yul\":2161:2179   */\n      tag_70\n      tag_71\n      jump\t// in\n    tag_70:\n        /* \"#utility.yul\":2105:2189   */\n    tag_69:\n        /* \"#utility.yul\":1926:2195   */\n      pop\n        /* \"#utility.yul\":1875:2195   */\n      swap2\n      swap1\n      pop\n      jump\t// out\n        /* \"#utility.yul\":2201:2381   */\n    tag_71:\n        /* \"#utility.yul\":2249:2326   */\n      0x4e487b7100000000000000000000000000000000000000000000000000000000\n        /* \"#utility.yul\":2246:2247   */\n      0x00\n        /* \"#utility.yul\":2239:2327   */\n      mstore\n        /* \"#utility.yul\":2346:2350   */\n      0x22\n        /* \"#utility.yul\":2343:2344   */\n      0x04\n        /* \"#utility.yul\":2336:2351   */\n      mstore\n        /* \"#utility.yul\":2370:2374   */\n      0x24\n        /* \"#utility.yul\":2367:2368   */\n      0x00\n        /* \"#utility.yul\":2360:2375   */\n      revert\n        /* \"#utility.yul\":2387:2489   */\n    tag_51:\n        /* \"#utility.yul\":2428:2434   */\n      0x00\n        /* \"#utility.yul\":2479:2481   */\n      0x1f\n        /* \"#utility.yul\":2475:2482   */\n      not\n        /* \"#utility.yul\":2470:2472   */\n      0x1f\n        /* \"#utility.yul\":2463:2468   */\n      dup4\n        /* \"#utility.yul\":2459:2473   */\n      add\n        /* \"#utility.yul\":2455:2483   */\n      and\n        /* \"#utility.yul\":2445:2483   */\n      swap1\n      pop\n        /* \"#utility.yul\":2387:2489   */\n      swap2\n      swap1\n      pop\n      jump\t// out\n\n    auxdata: 0xa26469706673582212205dbf209f6c5f6d2ed15c850b929bca47ea32322eefc3a851df767b5515edeb0264736f6c63430008070033\n}\n",
				"bytecode": {
					"linkReferences": {},
					"object": "608060405234801561001057600080fd5b50610445806100206000396000f3fe608060405234801561001057600080fd5b506004361061004c5760003560e01c806340fe8d40146100515780638da5cb5b1461006f578063b58a79c51461008d578063ca310670146100ab575b600080fd5b6100596100c9565b60405161006691906102fa565b60405180910390f35b610077610157565b60405161008491906102df565b60405180910390f35b61009561017b565b6040516100a291906102fa565b60405180910390f35b6100b3610209565b6040516100c091906102fa565b60405180910390f35b600380546100d69061039d565b80601f01602080910402602001604051908101604052809291908181526020018280546101029061039d565b801561014f5780601f106101245761010080835404028352916020019161014f565b820191906000526020600020905b81548152906001019060200180831161013257829003601f168201915b505050505081565b60008054906101000a900473ffffffffffffffffffffffffffffffffffffffff1681565b600180546101889061039d565b80601f01602080910402602001604051908101604052809291908181526020018280546101b49061039d565b80156102015780601f106101d657610100808354040283529160200191610201565b820191906000526020600020905b8154815290600101906020018083116101e457829003601f168201915b505050505081565b600280546102169061039d565b80601f01602080910402602001604051908101604052809291908181526020018280546102429061039d565b801561028f5780601f106102645761010080835404028352916020019161028f565b820191906000526020600020905b81548152906001019060200180831161027257829003601f168201915b505050505081565b6102a081610338565b82525050565b60006102b18261031c565b6102bb8185610327565b93506102cb81856020860161036a565b6102d4816103fe565b840191505092915050565b60006020820190506102f46000830184610297565b92915050565b6000602082019050818103600083015261031481846102a6565b905092915050565b600081519050919050565b600082825260208201905092915050565b60006103438261034a565b9050919050565b600073ffffffffffffffffffffffffffffffffffffffff82169050919050565b60005b8381101561038857808201518184015260208101905061036d565b83811115610397576000848401525b50505050565b600060028204905060018216806103b557607f821691505b602082108114156103c9576103c86103cf565b5b50919050565b7f4e487b7100000000000000000000000000000000000000000000000000000000600052602260045260246000fd5b6000601f19601f830116905091905056fea26469706673582212205dbf209f6c5f6d2ed15c850b929bca47ea32322eefc3a851df767b5515edeb0264736f6c63430008070033",
					"opcodes": "PUSH1 0x80 PUSH1 0x40 MSTORE CALLVALUE DUP1 ISZERO PUSH2 0x10 JUMPI PUSH1 0x0 DUP1 REVERT JUMPDEST POP PUSH2 0x445 DUP1 PUSH2 0x20 PUSH1 0x0 CODECOPY PUSH1 0x0 RETURN INVALID PUSH1 0x80 PUSH1 0x40 MSTORE CALLVALUE DUP1 ISZERO PUSH2 0x10 JUMPI PUSH1 0x0 DUP1 REVERT JUMPDEST POP PUSH1 0x4 CALLDATASIZE LT PUSH2 0x4C JUMPI PUSH1 0x0 CALLDATALOAD PUSH1 0xE0 SHR DUP1 PUSH4 0x40FE8D40 EQ PUSH2 0x51 JUMPI DUP1 PUSH4 0x8DA5CB5B EQ PUSH2 0x6F JUMPI DUP1 PUSH4 0xB58A79C5 EQ PUSH2 0x8D JUMPI DUP1 PUSH4 0xCA310670 EQ PUSH2 0xAB JUMPI JUMPDEST PUSH1 0x0 DUP1 REVERT JUMPDEST PUSH2 0x59 PUSH2 0xC9 JUMP JUMPDEST PUSH1 0x40 MLOAD PUSH2 0x66 SWAP2 SWAP1 PUSH2 0x2FA JUMP JUMPDEST PUSH1 0x40 MLOAD DUP1 SWAP2 SUB SWAP1 RETURN JUMPDEST PUSH2 0x77 PUSH2 0x157 JUMP JUMPDEST PUSH1 0x40 MLOAD PUSH2 0x84 SWAP2 SWAP1 PUSH2 0x2DF JUMP JUMPDEST PUSH1 0x40 MLOAD DUP1 SWAP2 SUB SWAP1 RETURN JUMPDEST PUSH2 0x95 PUSH2 0x17B JUMP JUMPDEST PUSH1 0x40 MLOAD PUSH2 0xA2 SWAP2 SWAP1 PUSH2 0x2FA JUMP JUMPDEST PUSH1 0x40 MLOAD DUP1 SWAP2 SUB SWAP1 RETURN JUMPDEST PUSH2 0xB3 PUSH2 0x209 JUMP JUMPDEST PUSH1 0x40 MLOAD PUSH2 0xC0 SWAP2 SWAP1 PUSH2 0x2FA JUMP JUMPDEST PUSH1 0x40 MLOAD DUP1 SWAP2 SUB SWAP1 RETURN JUMPDEST PUSH1 0x3 DUP1 SLOAD PUSH2 0xD6 SWAP1 PUSH2 0x39D JUMP JUMPDEST DUP1 PUSH1 0x1F ADD PUSH1 0x20 DUP1 SWAP2 DIV MUL PUSH1 0x20 ADD PUSH1 0x40 MLOAD SWAP1 DUP2 ADD PUSH1 0x40 MSTORE DUP1 SWAP3 SWAP2 SWAP1 DUP2 DUP2 MSTORE PUSH1 0x20 ADD DUP3 DUP1 SLOAD PUSH2 0x102 SWAP1 PUSH2 0x39D JUMP JUMPDEST DUP1 ISZERO PUSH2 0x14F JUMPI DUP1 PUSH1 0x1F LT PUSH2 0x124 JUMPI PUSH2 0x100 DUP1 DUP4 SLOAD DIV MUL DUP4 MSTORE SWAP2 PUSH1 0x20 ADD SWAP2 PUSH2 0x14F JUMP JUMPDEST DUP3 ADD SWAP2 SWAP1 PUSH1 0x0 MSTORE PUSH1 0x20 PUSH1 0x0 KECCAK256 SWAP1 JUMPDEST DUP2 SLOAD DUP2 MSTORE SWAP1 PUSH1 0x1 ADD SWAP1 PUSH1 0x20 ADD DUP1 DUP4 GT PUSH2 0x132 JUMPI DUP3 SWAP1 SUB PUSH1 0x1F AND DUP3 ADD SWAP2 JUMPDEST POP POP POP POP POP DUP2 JUMP JUMPDEST PUSH1 0x0 DUP1 SLOAD SWAP1 PUSH2 0x100 EXP SWAP1 DIV PUSH20 0xFFFFFFFFFFFFFFFFFFFFFFFFFFFFFFFFFFFFFFFF AND DUP2 JUMP JUMPDEST PUSH1 0x1 DUP1 SLOAD PUSH2 0x188 SWAP1 PUSH2 0x39D JUMP JUMPDEST DUP1 PUSH1 0x1F ADD PUSH1 0x20 DUP1 SWAP2 DIV MUL PUSH1 0x20 ADD PUSH1 0x40 MLOAD SWAP1 DUP2 ADD PUSH1 0x40 MSTORE DUP1 SWAP3 SWAP2 SWAP1 DUP2 DUP2 MSTORE PUSH1 0x20 ADD DUP3 DUP1 SLOAD PUSH2 0x1B4 SWAP1 PUSH2 0x39D JUMP JUMPDEST DUP1 ISZERO PUSH2 0x201 JUMPI DUP1 PUSH1 0x1F LT PUSH2 0x1D6 JUMPI PUSH2 0x100 DUP1 DUP4 SLOAD DIV MUL DUP4 MSTORE SWAP2 PUSH1 0x20 ADD SWAP2 PUSH2 0x201 JUMP JUMPDEST DUP3 ADD SWAP2 SWAP1 PUSH1 0x0 MSTORE PUSH1 0x20 PUSH1 0x0 KECCAK256 SWAP1 JUMPDEST DUP2 SLOAD DUP2 MSTORE SWAP1 PUSH1 0x1 ADD SWAP1 PUSH1 0x20 ADD DUP1 DUP4 GT PUSH2 0x1E4 JUMPI DUP3 SWAP1 SUB PUSH1 0x1F AND DUP3 ADD SWAP2 JUMPDEST POP POP POP POP POP DUP2 JUMP JUMPDEST PUSH1 0x2 DUP1 SLOAD PUSH2 0x216 SWAP1 PUSH2 0x39D JUMP JUMPDEST DUP1 PUSH1 0x1F ADD PUSH1 0x20 DUP1 SWAP2 DIV MUL PUSH1 0x20 ADD PUSH1 0x40 MLOAD SWAP1 DUP2 ADD PUSH1 0x40 MSTORE DUP1 SWAP3 SWAP2 SWAP1 DUP2 DUP2 MSTORE PUSH1 0x20 ADD DUP3 DUP1 SLOAD PUSH2 0x242 SWAP1 PUSH2 0x39D JUMP JUMPDEST DUP1 ISZERO PUSH2 0x28F JUMPI DUP1 PUSH1 0x1F LT PUSH2 0x264 JUMPI PUSH2 0x100 DUP1 DUP4 SLOAD DIV MUL DUP4 MSTORE SWAP2 PUSH1 0x20 ADD SWAP2 PUSH2 0x28F JUMP JUMPDEST DUP3 ADD SWAP2 SWAP1 PUSH1 0x0 MSTORE PUSH1 0x20 PUSH1 0x0 KECCAK256 SWAP1 JUMPDEST DUP2 SLOAD DUP2 MSTORE SWAP1 PUSH1 0x1 ADD SWAP1 PUSH1 0x20 ADD DUP1 DUP4 GT PUSH2 0x272 JUMPI DUP3 SWAP1 SUB PUSH1 0x1F AND DUP3 ADD SWAP2 JUMPDEST POP POP POP POP POP DUP2 JUMP JUMPDEST PUSH2 0x2A0 DUP2 PUSH2 0x338 JUMP JUMPDEST DUP3 MSTORE POP POP JUMP JUMPDEST PUSH1 0x0 PUSH2 0x2B1 DUP3 PUSH2 0x31C JUMP JUMPDEST PUSH2 0x2BB DUP2 DUP6 PUSH2 0x327 JUMP JUMPDEST SWAP4 POP PUSH2 0x2CB DUP2 DUP6 PUSH1 0x20 DUP7 ADD PUSH2 0x36A JUMP JUMPDEST PUSH2 0x2D4 DUP2 PUSH2 0x3FE JUMP JUMPDEST DUP5 ADD SWAP2 POP POP SWAP3 SWAP2 POP POP JUMP JUMPDEST PUSH1 0x0 PUSH1 0x20 DUP3 ADD SWAP1 POP PUSH2 0x2F4 PUSH1 0x0 DUP4 ADD DUP5 PUSH2 0x297 JUMP JUMPDEST SWAP3 SWAP2 POP POP JUMP JUMPDEST PUSH1 0x0 PUSH1 0x20 DUP3 ADD SWAP1 POP DUP2 DUP2 SUB PUSH1 0x0 DUP4 ADD MSTORE PUSH2 0x314 DUP2 DUP5 PUSH2 0x2A6 JUMP JUMPDEST SWAP1 POP SWAP3 SWAP2 POP POP JUMP JUMPDEST PUSH1 0x0 DUP2 MLOAD SWAP1 POP SWAP2 SWAP1 POP JUMP JUMPDEST PUSH1 0x0 DUP3 DUP3 MSTORE PUSH1 0x20 DUP3 ADD SWAP1 POP SWAP3 SWAP2 POP POP JUMP JUMPDEST PUSH1 0x0 PUSH2 0x343 DUP3 PUSH2 0x34A JUMP JUMPDEST SWAP1 POP SWAP2 SWAP1 POP JUMP JUMPDEST PUSH1 0x0 PUSH20 0xFFFFFFFFFFFFFFFFFFFFFFFFFFFFFFFFFFFFFFFF DUP3 AND SWAP1 POP SWAP2 SWAP1 POP JUMP JUMPDEST PUSH1 0x0 JUMPDEST DUP4 DUP2 LT ISZERO PUSH2 0x388 JUMPI DUP1 DUP3 ADD MLOAD DUP2 DUP5 ADD MSTORE PUSH1 0x20 DUP2 ADD SWAP1 POP PUSH2 0x36D JUMP JUMPDEST DUP4 DUP2 GT ISZERO PUSH2 0x397 JUMPI PUSH1 0x0 DUP5 DUP5 ADD MSTORE JUMPDEST POP POP POP POP JUMP JUMPDEST PUSH1 0x0 PUSH1 0x2 DUP3 DIV SWAP1 POP PUSH1 0x1 DUP3 AND DUP1 PUSH2 0x3B5 JUMPI PUSH1 0x7F DUP3 AND SWAP2 POP JUMPDEST PUSH1 0x20 DUP3 LT DUP2 EQ ISZERO PUSH2 0x3C9 JUMPI PUSH2 0x3C8 PUSH2 0x3CF JUMP JUMPDEST JUMPDEST POP SWAP2 SWAP1 POP JUMP JUMPDEST PUSH32 0x4E487B7100000000000000000000000000000000000000000000000000000000 PUSH1 0x0 MSTORE PUSH1 0x22 PUSH1 0x4 MSTORE PUSH1 0x24 PUSH1 0x0 REVERT JUMPDEST PUSH1 0x0 PUSH1 0x1F NOT PUSH1 0x1F DUP4 ADD AND SWAP1 POP SWAP2 SWAP1 POP JUMP INVALID LOG2 PUSH5 0x6970667358 0x22 SLT KECCAK256 0x5D 0xBF KECCAK256 SWAP16 PUSH13 0x5F6D2ED15C850B929BCA47EA32 ORIGIN 0x2E 0xEF 0xC3 0xA8 MLOAD 0xDF PUSH23 0x7B5515EDEB0264736F6C63430008070033000000000000 "
				},
				"gasEstimates": {
					"creation": {
						"codeDepositCost": "218600",
						"executionCost": "263",
						"totalCost": "218863"
					},
					"external": {
						"consultDiag()": "infinite",
						"owner()": "2511",
						"recomendations()": "infinite",
						"treatment()": "infinite"
					}
				},
				"methodIdentifiers": {
					"consultDiag()": "b58a79c5",
					"owner()": "8da5cb5b",
					"recomendations()": "40fe8d40",
					"treatment()": "ca310670"
				}
			},
			"storageLayout": {
				"storage": [
					{
						"astId": 16,
						"contract": "contracts/MedicalHistory.sol:MedicalHistory",
						"label": "owner",
						"offset": 0,
						"slot": "0",
						"type": "t_address"
					},
					{
						"astId": 18,
						"contract": "contracts/MedicalHistory.sol:MedicalHistory",
						"label": "consultDiag",
						"offset": 0,
						"slot": "1",
						"type": "t_string_storage"
					},
					{
						"astId": 20,
						"contract": "contracts/MedicalHistory.sol:MedicalHistory",
						"label": "treatment",
						"offset": 0,
						"slot": "2",
						"type": "t_string_storage"
					},
					{
						"astId": 22,
						"contract": "contracts/MedicalHistory.sol:MedicalHistory",
						"label": "recomendations",
						"offset": 0,
						"slot": "3",
						"type": "t_string_storage"
					}
				],
				"types": {
					"t_address": {
						"encoding": "inplace",
						"label": "address",
						"numberOfBytes": "20"
					},
					"t_string_storage": {
						"encoding": "bytes",
						"label": "string",
						"numberOfBytes": "32"
					}
				}
			},
			"userdoc": {
				"kind": "user",
				"methods": {},
				"version": 1
			}
		}
	}
}