{
	"contracts/Patient.sol": {
		"Patient": {
			"abi": [
				{
					"inputs": [],
					"name": "age",
					"outputs": [
						{
							"internalType": "string",
							"name": "",
							"type": "string"
						}
					],
					"stateMutability": "view",
					"type": "function"
				},
				{
					"inputs": [],
					"name": "civilState",
					"outputs": [
						{
							"internalType": "string",
							"name": "",
							"type": "string"
						}
					],
					"stateMutability": "view",
					"type": "function"
				},
				{
					"inputs": [],
					"name": "date",
					"outputs": [
						{
							"internalType": "uint256",
							"name": "",
							"type": "uint256"
						}
					],
					"stateMutability": "view",
					"type": "function"
				},
				{
					"inputs": [],
					"name": "home",
					"outputs": [
						{
							"internalType": "address",
							"name": "",
							"type": "address"
						}
					],
					"stateMutability": "view",
					"type": "function"
				},
				{
					"inputs": [],
					"name": "lname",
					"outputs": [
						{
							"internalType": "string",
							"name": "",
							"type": "string"
						}
					],
					"stateMutability": "view",
					"type": "function"
				},
				{
					"inputs": [],
					"name": "name",
					"outputs": [
						{
							"internalType": "string",
							"name": "",
							"type": "string"
						}
					],
					"stateMutability": "view",
					"type": "function"
				},
				{
					"inputs": [],
					"name": "occupation",
					"outputs": [
						{
							"internalType": "string",
							"name": "",
							"type": "string"
						}
					],
					"stateMutability": "view",
					"type": "function"
				},
				{
					"inputs": [],
					"name": "origin",
					"outputs": [
						{
							"internalType": "string",
							"name": "",
							"type": "string"
						}
					],
					"stateMutability": "view",
					"type": "function"
				},
				{
					"inputs": [],
					"name": "owner",
					"outputs": [
						{
							"internalType": "address",
							"name": "",
							"type": "address"
						}
					],
					"stateMutability": "view",
					"type": "function"
				},
				{
					"inputs": [],
					"name": "sex",
					"outputs": [
						{
							"internalType": "string",
							"name": "",
							"type": "string"
						}
					],
					"stateMutability": "view",
					"type": "function"
				}
			],
			"devdoc": {
				"kind": "dev",
				"methods": {},
				"version": 1
			},
			"evm": {
				"assembly": "    /* \"contracts/Patient.sol\":66:384  contract Patient {\r... */\n  mstore(0x40, 0x80)\n  callvalue\n  dup1\n  iszero\n  tag_1\n  jumpi\n  0x00\n  dup1\n  revert\ntag_1:\n  pop\n  dataSize(sub_0)\n  dup1\n  dataOffset(sub_0)\n  0x00\n  codecopy\n  0x00\n  return\nstop\n\nsub_0: assembly {\n        /* \"contracts/Patient.sol\":66:384  contract Patient {\r... */\n      mstore(0x40, 0x80)\n      callvalue\n      dup1\n      iszero\n      tag_1\n      jumpi\n      0x00\n      dup1\n      revert\n    tag_1:\n      pop\n      jumpi(tag_2, lt(calldatasize, 0x04))\n      shr(0xe0, calldataload(0x00))\n      dup1\n      0x8da5cb5b\n      gt\n      tag_13\n      jumpi\n      dup1\n      0x8da5cb5b\n      eq\n      tag_8\n      jumpi\n      dup1\n      0x938b5f32\n      eq\n      tag_9\n      jumpi\n      dup1\n      0x9fa92f9d\n      eq\n      tag_10\n      jumpi\n      dup1\n      0xf57fcab1\n      eq\n      tag_11\n      jumpi\n      dup1\n      0xf758ceab\n      eq\n      tag_12\n      jumpi\n      jump(tag_2)\n    tag_13:\n      dup1\n      0x06fdde03\n      eq\n      tag_3\n      jumpi\n      dup1\n      0x1f797b11\n      eq\n      tag_4\n      jumpi\n      dup1\n      0x262a9dff\n      eq\n      tag_5\n      jumpi\n      dup1\n      0x323046b1\n      eq\n      tag_6\n      jumpi\n      dup1\n      0x6f5ad999\n      eq\n      tag_7\n      jumpi\n    tag_2:\n      0x00\n      dup1\n      revert\n        /* \"contracts/Patient.sol\":147:165  string public name */\n    tag_3:\n      tag_14\n      tag_15\n      jump\t// in\n    tag_14:\n      mload(0x40)\n      tag_16\n      swap2\n      swap1\n      tag_17\n      jump\t// in\n    tag_16:\n      mload(0x40)\n      dup1\n      swap2\n      sub\n      swap1\n      return\n        /* \"contracts/Patient.sol\":172:191  string public lname */\n    tag_4:\n      tag_18\n      tag_19\n      jump\t// in\n    tag_18:\n      mload(0x40)\n      tag_20\n      swap2\n      swap1\n      tag_17\n      jump\t// in\n    tag_20:\n      mload(0x40)\n      dup1\n      swap2\n      sub\n      swap1\n      return\n        /* \"contracts/Patient.sol\":198:215  string public age */\n    tag_5:\n      tag_21\n      tag_22\n      jump\t// in\n    tag_21:\n      mload(0x40)\n      tag_23\n      swap2\n      swap1\n      tag_17\n      jump\t// in\n    tag_23:\n      mload(0x40)\n      dup1\n      swap2\n      sub\n      swap1\n      return\n        /* \"contracts/Patient.sol\":273:292  uint256 public date */\n    tag_6:\n      tag_24\n      tag_25\n      jump\t// in\n    tag_24:\n      mload(0x40)\n      tag_26\n      swap2\n      swap1\n      tag_27\n      jump\t// in\n    tag_26:\n      mload(0x40)\n      dup1\n      swap2\n      sub\n      swap1\n      return\n        /* \"contracts/Patient.sol\":330:354  string public occupation */\n    tag_7:\n      tag_28\n      tag_29\n      jump\t// in\n    tag_28:\n      mload(0x40)\n      tag_30\n      swap2\n      swap1\n      tag_17\n      jump\t// in\n    tag_30:\n      mload(0x40)\n      dup1\n      swap2\n      sub\n      swap1\n      return\n        /* \"contracts/Patient.sol\":120:140  address public owner */\n    tag_8:\n      tag_31\n      tag_32\n      jump\t// in\n    tag_31:\n      mload(0x40)\n      tag_33\n      swap2\n      swap1\n      tag_34\n      jump\t// in\n    tag_33:\n      mload(0x40)\n      dup1\n      swap2\n      sub\n      swap1\n      return\n        /* \"contracts/Patient.sol\":246:266  string public origin */\n    tag_9:\n      tag_35\n      tag_36\n      jump\t// in\n    tag_35:\n      mload(0x40)\n      tag_37\n      swap2\n      swap1\n      tag_17\n      jump\t// in\n    tag_37:\n      mload(0x40)\n      dup1\n      swap2\n      sub\n      swap1\n      return\n        /* \"contracts/Patient.sol\":361:380  address public home */\n    tag_10:\n      tag_38\n      tag_39\n      jump\t// in\n    tag_38:\n      mload(0x40)\n      tag_40\n      swap2\n      swap1\n      tag_34\n      jump\t// in\n    tag_40:\n      mload(0x40)\n      dup1\n      swap2\n      sub\n      swap1\n      return\n        /* \"contracts/Patient.sol\":299:323  string public civilState */\n    tag_11:\n      tag_41\n      tag_42\n      jump\t// in\n    tag_41:\n      mload(0x40)\n      tag_43\n      swap2\n      swap1\n      tag_17\n      jump\t// in\n    tag_43:\n      mload(0x40)\n      dup1\n      swap2\n      sub\n      swap1\n      return\n        /* \"contracts/Patient.sol\":222:239  string public sex */\n    tag_12:\n      tag_44\n      tag_45\n      jump\t// in\n    tag_44:\n      mload(0x40)\n      tag_46\n      swap2\n      swap1\n      tag_17\n      jump\t// in\n    tag_46:\n      mload(0x40)\n      dup1\n      swap2\n      sub\n      swap1\n      return\n        /* \"contracts/Patient.sol\":147:165  string public name */\n    tag_15:\n      0x01\n      dup1\n      sload\n      tag_47\n      swap1\n      tag_48\n      jump\t// in\n    tag_47:\n      dup1\n      0x1f\n      add\n      0x20\n      dup1\n      swap2\n      div\n      mul\n      0x20\n      add\n      mload(0x40)\n      swap1\n      dup2\n      add\n      0x40\n      mstore\n      dup1\n      swap3\n      swap2\n      swap1\n      dup2\n      dup2\n      mstore\n      0x20\n      add\n      dup3\n      dup1\n      sload\n      tag_49\n      swap1\n      tag_48\n      jump\t// in\n    tag_49:\n      dup1\n      iszero\n      tag_50\n      jumpi\n      dup1\n      0x1f\n      lt\n      tag_51\n      jumpi\n      0x0100\n      dup1\n      dup4\n      sload\n      div\n      mul\n      dup4\n      mstore\n      swap2\n      0x20\n      add\n      swap2\n      jump(tag_50)\n    tag_51:\n      dup3\n      add\n      swap2\n      swap1\n      0x00\n      mstore\n      keccak256(0x00, 0x20)\n      swap1\n    tag_52:\n      dup2\n      sload\n      dup2\n      mstore\n      swap1\n      0x01\n      add\n      swap1\n      0x20\n      add\n      dup1\n      dup4\n      gt\n      tag_52\n      jumpi\n      dup3\n      swap1\n      sub\n      0x1f\n      and\n      dup3\n      add\n      swap2\n    tag_50:\n      pop\n      pop\n      pop\n      pop\n      pop\n      dup2\n      jump\t// out\n        /* \"contracts/Patient.sol\":172:191  string public lname */\n    tag_19:\n      0x02\n      dup1\n      sload\n      tag_53\n      swap1\n      tag_48\n      jump\t// in\n    tag_53:\n      dup1\n      0x1f\n      add\n      0x20\n      dup1\n      swap2\n      div\n      mul\n      0x20\n      add\n      mload(0x40)\n      swap1\n      dup2\n      add\n      0x40\n      mstore\n      dup1\n      swap3\n      swap2\n      swap1\n      dup2\n      dup2\n      mstore\n      0x20\n      add\n      dup3\n      dup1\n      sload\n      tag_54\n      swap1\n      tag_48\n      jump\t// in\n    tag_54:\n      dup1\n      iszero\n      tag_55\n      jumpi\n      dup1\n      0x1f\n      lt\n      tag_56\n      jumpi\n      0x0100\n      dup1\n      dup4\n      sload\n      div\n      mul\n      dup4\n      mstore\n      swap2\n      0x20\n      add\n      swap2\n      jump(tag_55)\n    tag_56:\n      dup3\n      add\n      swap2\n      swap1\n      0x00\n      mstore\n      keccak256(0x00, 0x20)\n      swap1\n    tag_57:\n      dup2\n      sload\n      dup2\n      mstore\n      swap1\n      0x01\n      add\n      swap1\n      0x20\n      add\n      dup1\n      dup4\n      gt\n      tag_57\n      jumpi\n      dup3\n      swap1\n      sub\n      0x1f\n      and\n      dup3\n      add\n      swap2\n    tag_55:\n      pop\n      pop\n      pop\n      pop\n      pop\n      dup2\n      jump\t// out\n        /* \"contracts/Patient.sol\":198:215  string public age */\n    tag_22:\n      0x03\n      dup1\n      sload\n      tag_58\n      swap1\n      tag_48\n      jump\t// in\n    tag_58:\n      dup1\n      0x1f\n      add\n      0x20\n      dup1\n      swap2\n      div\n      mul\n      0x20\n      add\n      mload(0x40)\n      swap1\n      dup2\n      add\n      0x40\n      mstore\n      dup1\n      swap3\n      swap2\n      swap1\n      dup2\n      dup2\n      mstore\n      0x20\n      add\n      dup3\n      dup1\n      sload\n      tag_59\n      swap1\n      tag_48\n      jump\t// in\n    tag_59:\n      dup1\n      iszero\n      tag_60\n      jumpi\n      dup1\n      0x1f\n      lt\n      tag_61\n      jumpi\n      0x0100\n      dup1\n      dup4\n      sload\n      div\n      mul\n      dup4\n      mstore\n      swap2\n      0x20\n      add\n      swap2\n      jump(tag_60)\n    tag_61:\n      dup3\n      add\n      swap2\n      swap1\n      0x00\n      mstore\n      keccak256(0x00, 0x20)\n      swap1\n    tag_62:\n      dup2\n      sload\n      dup2\n      mstore\n      swap1\n      0x01\n      add\n      swap1\n      0x20\n      add\n      dup1\n      dup4\n      gt\n      tag_62\n      jumpi\n      dup3\n      swap1\n      sub\n      0x1f\n      and\n      dup3\n      add\n      swap2\n    tag_60:\n      pop\n      pop\n      pop\n      pop\n      pop\n      dup2\n      jump\t// out\n        /* \"contracts/Patient.sol\":273:292  uint256 public date */\n    tag_25:\n      sload(0x06)\n      dup2\n      jump\t// out\n        /* \"contracts/Patient.sol\":330:354  string public occupation */\n    tag_29:\n      0x08\n      dup1\n      sload\n      tag_63\n      swap1\n      tag_48\n      jump\t// in\n    tag_63:\n      dup1\n      0x1f\n      add\n      0x20\n      dup1\n      swap2\n      div\n      mul\n      0x20\n      add\n      mload(0x40)\n      swap1\n      dup2\n      add\n      0x40\n      mstore\n      dup1\n      swap3\n      swap2\n      swap1\n      dup2\n      dup2\n      mstore\n      0x20\n      add\n      dup3\n      dup1\n      sload\n      tag_64\n      swap1\n      tag_48\n      jump\t// in\n    tag_64:\n      dup1\n      iszero\n      tag_65\n      jumpi\n      dup1\n      0x1f\n      lt\n      tag_66\n      jumpi\n      0x0100\n      dup1\n      dup4\n      sload\n      div\n      mul\n      dup4\n      mstore\n      swap2\n      0x20\n      add\n      swap2\n      jump(tag_65)\n    tag_66:\n      dup3\n      add\n      swap2\n      swap1\n      0x00\n      mstore\n      keccak256(0x00, 0x20)\n      swap1\n    tag_67:\n      dup2\n      sload\n      dup2\n      mstore\n      swap1\n      0x01\n      add\n      swap1\n      0x20\n      add\n      dup1\n      dup4\n      gt\n      tag_67\n      jumpi\n      dup3\n      swap1\n      sub\n      0x1f\n      and\n      dup3\n      add\n      swap2\n    tag_65:\n      pop\n      pop\n      pop\n      pop\n      pop\n      dup2\n      jump\t// out\n        /* \"contracts/Patient.sol\":120:140  address public owner */\n    tag_32:\n      0x00\n      dup1\n      sload\n      swap1\n      0x0100\n      exp\n      swap1\n      div\n      0xffffffffffffffffffffffffffffffffffffffff\n      and\n      dup2\n      jump\t// out\n        /* \"contracts/Patient.sol\":246:266  string public origin */\n    tag_36:\n      0x05\n      dup1\n      sload\n      tag_68\n      swap1\n      tag_48\n      jump\t// in\n    tag_68:\n      dup1\n      0x1f\n      add\n      0x20\n      dup1\n      swap2\n      div\n      mul\n      0x20\n      add\n      mload(0x40)\n      swap1\n      dup2\n      add\n      0x40\n      mstore\n      dup1\n      swap3\n      swap2\n      swap1\n      dup2\n      dup2\n      mstore\n      0x20\n      add\n      dup3\n      dup1\n      sload\n      tag_69\n      swap1\n      tag_48\n      jump\t// in\n    tag_69:\n      dup1\n      iszero\n      tag_70\n      jumpi\n      dup1\n      0x1f\n      lt\n      tag_71\n      jumpi\n      0x0100\n      dup1\n      dup4\n      sload\n      div\n      mul\n      dup4\n      mstore\n      swap2\n      0x20\n      add\n      swap2\n      jump(tag_70)\n    tag_71:\n      dup3\n      add\n      swap2\n      swap1\n      0x00\n      mstore\n      keccak256(0x00, 0x20)\n      swap1\n    tag_72:\n      dup2\n      sload\n      dup2\n      mstore\n      swap1\n      0x01\n      add\n      swap1\n      0x20\n      add\n      dup1\n      dup4\n      gt\n      tag_72\n      jumpi\n      dup3\n      swap1\n      sub\n      0x1f\n      and\n      dup3\n      add\n      swap2\n    tag_70:\n      pop\n      pop\n      pop\n      pop\n      pop\n      dup2\n      jump\t// out\n        /* \"contracts/Patient.sol\":361:380  address public home */\n    tag_39:\n      0x09\n      0x00\n      swap1\n      sload\n      swap1\n      0x0100\n      exp\n      swap1\n      div\n      0xffffffffffffffffffffffffffffffffffffffff\n      and\n      dup2\n      jump\t// out\n        /* \"contracts/Patient.sol\":299:323  string public civilState */\n    tag_42:\n      0x07\n      dup1\n      sload\n      tag_73\n      swap1\n      tag_48\n      jump\t// in\n    tag_73:\n      dup1\n      0x1f\n      add\n      0x20\n      dup1\n      swap2\n      div\n      mul\n      0x20\n      add\n      mload(0x40)\n      swap1\n      dup2\n      add\n      0x40\n      mstore\n      dup1\n      swap3\n      swap2\n      swap1\n      dup2\n      dup2\n      mstore\n      0x20\n      add\n      dup3\n      dup1\n      sload\n      tag_74\n      swap1\n      tag_48\n      jump\t// in\n    tag_74:\n      dup1\n      iszero\n      tag_75\n      jumpi\n      dup1\n      0x1f\n      lt\n      tag_76\n      jumpi\n      0x0100\n      dup1\n      dup4\n      sload\n      div\n      mul\n      dup4\n      mstore\n      swap2\n      0x20\n      add\n      swap2\n      jump(tag_75)\n    tag_76:\n      dup3\n      add\n      swap2\n      swap1\n      0x00\n      mstore\n      keccak256(0x00, 0x20)\n      swap1\n    tag_77:\n      dup2\n      sload\n      dup2\n      mstore\n      swap1\n      0x01\n      add\n      swap1\n      0x20\n      add\n      dup1\n      dup4\n      gt\n      tag_77\n      jumpi\n      dup3\n      swap1\n      sub\n      0x1f\n      and\n      dup3\n      add\n      swap2\n    tag_75:\n      pop\n      pop\n      pop\n      pop\n      pop\n      dup2\n      jump\t// out\n        /* \"contracts/Patient.sol\":222:239  string public sex */\n    tag_45:\n      0x04\n      dup1\n      sload\n      tag_78\n      swap1\n      tag_48\n      jump\t// in\n    tag_78:\n      dup1\n      0x1f\n      add\n      0x20\n      dup1\n      swap2\n      div\n      mul\n      0x20\n      add\n      mload(0x40)\n      swap1\n      dup2\n      add\n      0x40\n      mstore\n      dup1\n      swap3\n      swap2\n      swap1\n      dup2\n      dup2\n      mstore\n      0x20\n      add\n      dup3\n      dup1\n      sload\n      tag_79\n      swap1\n      tag_48\n      jump\t// in\n    tag_79:\n      dup1\n      iszero\n      tag_80\n      jumpi\n      dup1\n      0x1f\n      lt\n      tag_81\n      jumpi\n      0x0100\n      dup1\n      dup4\n      sload\n      div\n      mul\n      dup4\n      mstore\n      swap2\n      0x20\n      add\n      swap2\n      jump(tag_80)\n    tag_81:\n      dup3\n      add\n      swap2\n      swap1\n      0x00\n      mstore\n      keccak256(0x00, 0x20)\n      swap1\n    tag_82:\n      dup2\n      sload\n      dup2\n      mstore\n      swap1\n      0x01\n      add\n      swap1\n      0x20\n      add\n      dup1\n      dup4\n      gt\n      tag_82\n      jumpi\n      dup3\n      swap1\n      sub\n      0x1f\n      and\n      dup3\n      add\n      swap2\n    tag_80:\n      pop\n      pop\n      pop\n      pop\n      pop\n      dup2\n      jump\t// out\n        /* \"#utility.yul\":7:125   */\n    tag_84:\n        /* \"#utility.yul\":94:118   */\n      tag_86\n        /* \"#utility.yul\":112:117   */\n      dup2\n        /* \"#utility.yul\":94:118   */\n      tag_87\n      jump\t// in\n    tag_86:\n        /* \"#utility.yul\":89:92   */\n      dup3\n        /* \"#utility.yul\":82:119   */\n      mstore\n        /* \"#utility.yul\":7:125   */\n      pop\n      pop\n      jump\t// out\n        /* \"#utility.yul\":131:495   */\n    tag_88:\n        /* \"#utility.yul\":219:222   */\n      0x00\n        /* \"#utility.yul\":247:286   */\n      tag_90\n        /* \"#utility.yul\":280:285   */\n      dup3\n        /* \"#utility.yul\":247:286   */\n      tag_91\n      jump\t// in\n    tag_90:\n        /* \"#utility.yul\":302:373   */\n      tag_92\n        /* \"#utility.yul\":366:372   */\n      dup2\n        /* \"#utility.yul\":361:364   */\n      dup6\n        /* \"#utility.yul\":302:373   */\n      tag_93\n      jump\t// in\n    tag_92:\n        /* \"#utility.yul\":295:373   */\n      swap4\n      pop\n        /* \"#utility.yul\":382:434   */\n      tag_94\n        /* \"#utility.yul\":427:433   */\n      dup2\n        /* \"#utility.yul\":422:425   */\n      dup6\n        /* \"#utility.yul\":415:419   */\n      0x20\n        /* \"#utility.yul\":408:413   */\n      dup7\n        /* \"#utility.yul\":404:420   */\n      add\n        /* \"#utility.yul\":382:434   */\n      tag_95\n      jump\t// in\n    tag_94:\n        /* \"#utility.yul\":459:488   */\n      tag_96\n        /* \"#utility.yul\":481:487   */\n      dup2\n        /* \"#utility.yul\":459:488   */\n      tag_97\n      jump\t// in\n    tag_96:\n        /* \"#utility.yul\":454:457   */\n      dup5\n        /* \"#utility.yul\":450:489   */\n      add\n        /* \"#utility.yul\":443:489   */\n      swap2\n      pop\n        /* \"#utility.yul\":223:495   */\n      pop\n        /* \"#utility.yul\":131:495   */\n      swap3\n      swap2\n      pop\n      pop\n      jump\t// out\n        /* \"#utility.yul\":501:619   */\n    tag_98:\n        /* \"#utility.yul\":588:612   */\n      tag_100\n        /* \"#utility.yul\":606:611   */\n      dup2\n        /* \"#utility.yul\":588:612   */\n      tag_101\n      jump\t// in\n    tag_100:\n        /* \"#utility.yul\":583:586   */\n      dup3\n        /* \"#utility.yul\":576:613   */\n      mstore\n        /* \"#utility.yul\":501:619   */\n      pop\n      pop\n      jump\t// out\n        /* \"#utility.yul\":625:847   */\n    tag_34:\n        /* \"#utility.yul\":718:722   */\n      0x00\n        /* \"#utility.yul\":756:758   */\n      0x20\n        /* \"#utility.yul\":745:754   */\n      dup3\n        /* \"#utility.yul\":741:759   */\n      add\n        /* \"#utility.yul\":733:759   */\n      swap1\n      pop\n        /* \"#utility.yul\":769:840   */\n      tag_103\n        /* \"#utility.yul\":837:838   */\n      0x00\n        /* \"#utility.yul\":826:835   */\n      dup4\n        /* \"#utility.yul\":822:839   */\n      add\n        /* \"#utility.yul\":813:819   */\n      dup5\n        /* \"#utility.yul\":769:840   */\n      tag_84\n      jump\t// in\n    tag_103:\n        /* \"#utility.yul\":625:847   */\n      swap3\n      swap2\n      pop\n      pop\n      jump\t// out\n        /* \"#utility.yul\":853:1166   */\n    tag_17:\n        /* \"#utility.yul\":966:970   */\n      0x00\n        /* \"#utility.yul\":1004:1006   */\n      0x20\n        /* \"#utility.yul\":993:1002   */\n      dup3\n        /* \"#utility.yul\":989:1007   */\n      add\n        /* \"#utility.yul\":981:1007   */\n      swap1\n      pop\n        /* \"#utility.yul\":1053:1062   */\n      dup2\n        /* \"#utility.yul\":1047:1051   */\n      dup2\n        /* \"#utility.yul\":1043:1063   */\n      sub\n        /* \"#utility.yul\":1039:1040   */\n      0x00\n        /* \"#utility.yul\":1028:1037   */\n      dup4\n        /* \"#utility.yul\":1024:1041   */\n      add\n        /* \"#utility.yul\":1017:1064   */\n      mstore\n        /* \"#utility.yul\":1081:1159   */\n      tag_105\n        /* \"#utility.yul\":1154:1158   */\n      dup2\n        /* \"#utility.yul\":1145:1151   */\n      dup5\n        /* \"#utility.yul\":1081:1159   */\n      tag_88\n      jump\t// in\n    tag_105:\n        /* \"#utility.yul\":1073:1159   */\n      swap1\n      pop\n        /* \"#utility.yul\":853:1166   */\n      swap3\n      swap2\n      pop\n      pop\n      jump\t// out\n        /* \"#utility.yul\":1172:1394   */\n    tag_27:\n        /* \"#utility.yul\":1265:1269   */\n      0x00\n        /* \"#utility.yul\":1303:1305   */\n      0x20\n        /* \"#utility.yul\":1292:1301   */\n      dup3\n        /* \"#utility.yul\":1288:1306   */\n      add\n        /* \"#utility.yul\":1280:1306   */\n      swap1\n      pop\n        /* \"#utility.yul\":1316:1387   */\n      tag_107\n        /* \"#utility.yul\":1384:1385   */\n      0x00\n        /* \"#utility.yul\":1373:1382   */\n      dup4\n        /* \"#utility.yul\":1369:1386   */\n      add\n        /* \"#utility.yul\":1360:1366   */\n      dup5\n        /* \"#utility.yul\":1316:1387   */\n      tag_98\n      jump\t// in\n    tag_107:\n        /* \"#utility.yul\":1172:1394   */\n      swap3\n      swap2\n      pop\n      pop\n      jump\t// out\n        /* \"#utility.yul\":1400:1499   */\n    tag_91:\n        /* \"#utility.yul\":1452:1458   */\n      0x00\n        /* \"#utility.yul\":1486:1491   */\n      dup2\n        /* \"#utility.yul\":1480:1492   */\n      mload\n        /* \"#utility.yul\":1470:1492   */\n      swap1\n      pop\n        /* \"#utility.yul\":1400:1499   */\n      swap2\n      swap1\n      pop\n      jump\t// out\n        /* \"#utility.yul\":1505:1674   */\n    tag_93:\n        /* \"#utility.yul\":1589:1600   */\n      0x00\n        /* \"#utility.yul\":1623:1629   */\n      dup3\n        /* \"#utility.yul\":1618:1621   */\n      dup3\n        /* \"#utility.yul\":1611:1630   */\n      mstore\n        /* \"#utility.yul\":1663:1667   */\n      0x20\n        /* \"#utility.yul\":1658:1661   */\n      dup3\n        /* \"#utility.yul\":1654:1668   */\n      add\n        /* \"#utility.yul\":1639:1668   */\n      swap1\n      pop\n        /* \"#utility.yul\":1505:1674   */\n      swap3\n      swap2\n      pop\n      pop\n      jump\t// out\n        /* \"#utility.yul\":1680:1776   */\n    tag_87:\n        /* \"#utility.yul\":1717:1724   */\n      0x00\n        /* \"#utility.yul\":1746:1770   */\n      tag_111\n        /* \"#utility.yul\":1764:1769   */\n      dup3\n        /* \"#utility.yul\":1746:1770   */\n      tag_112\n      jump\t// in\n    tag_111:\n        /* \"#utility.yul\":1735:1770   */\n      swap1\n      pop\n        /* \"#utility.yul\":1680:1776   */\n      swap2\n      swap1\n      pop\n      jump\t// out\n        /* \"#utility.yul\":1782:1908   */\n    tag_112:\n        /* \"#utility.yul\":1819:1826   */\n      0x00\n        /* \"#utility.yul\":1859:1901   */\n      0xffffffffffffffffffffffffffffffffffffffff\n        /* \"#utility.yul\":1852:1857   */\n      dup3\n        /* \"#utility.yul\":1848:1902   */\n      and\n        /* \"#utility.yul\":1837:1902   */\n      swap1\n      pop\n        /* \"#utility.yul\":1782:1908   */\n      swap2\n      swap1\n      pop\n      jump\t// out\n        /* \"#utility.yul\":1914:1991   */\n    tag_101:\n        /* \"#utility.yul\":1951:1958   */\n      0x00\n        /* \"#utility.yul\":1980:1985   */\n      dup2\n        /* \"#utility.yul\":1969:1985   */\n      swap1\n      pop\n        /* \"#utility.yul\":1914:1991   */\n      swap2\n      swap1\n      pop\n      jump\t// out\n        /* \"#utility.yul\":1997:2304   */\n    tag_95:\n        /* \"#utility.yul\":2065:2066   */\n      0x00\n        /* \"#utility.yul\":2075:2188   */\n    tag_116:\n        /* \"#utility.yul\":2089:2095   */\n      dup4\n        /* \"#utility.yul\":2086:2087   */\n      dup2\n        /* \"#utility.yul\":2083:2096   */\n      lt\n        /* \"#utility.yul\":2075:2188   */\n      iszero\n      tag_118\n      jumpi\n        /* \"#utility.yul\":2174:2175   */\n      dup1\n        /* \"#utility.yul\":2169:2172   */\n      dup3\n        /* \"#utility.yul\":2165:2176   */\n      add\n        /* \"#utility.yul\":2159:2177   */\n      mload\n        /* \"#utility.yul\":2155:2156   */\n      dup2\n        /* \"#utility.yul\":2150:2153   */\n      dup5\n        /* \"#utility.yul\":2146:2157   */\n      add\n        /* \"#utility.yul\":2139:2178   */\n      mstore\n        /* \"#utility.yul\":2111:2113   */\n      0x20\n        /* \"#utility.yul\":2108:2109   */\n      dup2\n        /* \"#utility.yul\":2104:2114   */\n      add\n        /* \"#utility.yul\":2099:2114   */\n      swap1\n      pop\n        /* \"#utility.yul\":2075:2188   */\n      jump(tag_116)\n    tag_118:\n        /* \"#utility.yul\":2206:2212   */\n      dup4\n        /* \"#utility.yul\":2203:2204   */\n      dup2\n        /* \"#utility.yul\":2200:2213   */\n      gt\n        /* \"#utility.yul\":2197:2298   */\n      iszero\n      tag_119\n      jumpi\n        /* \"#utility.yul\":2286:2287   */\n      0x00\n        /* \"#utility.yul\":2277:2283   */\n      dup5\n        /* \"#utility.yul\":2272:2275   */\n      dup5\n        /* \"#utility.yul\":2268:2284   */\n      add\n        /* \"#utility.yul\":2261:2288   */\n      mstore\n        /* \"#utility.yul\":2197:2298   */\n    tag_119:\n        /* \"#utility.yul\":2046:2304   */\n      pop\n        /* \"#utility.yul\":1997:2304   */\n      pop\n      pop\n      pop\n      jump\t// out\n        /* \"#utility.yul\":2310:2630   */\n    tag_48:\n        /* \"#utility.yul\":2354:2360   */\n      0x00\n        /* \"#utility.yul\":2391:2392   */\n      0x02\n        /* \"#utility.yul\":2385:2389   */\n      dup3\n        /* \"#utility.yul\":2381:2393   */\n      div\n        /* \"#utility.yul\":2371:2393   */\n      swap1\n      pop\n        /* \"#utility.yul\":2438:2439   */\n      0x01\n        /* \"#utility.yul\":2432:2436   */\n      dup3\n        /* \"#utility.yul\":2428:2440   */\n      and\n        /* \"#utility.yul\":2459:2477   */\n      dup1\n        /* \"#utility.yul\":2449:2530   */\n      tag_121\n      jumpi\n        /* \"#utility.yul\":2515:2519   */\n      0x7f\n        /* \"#utility.yul\":2507:2513   */\n      dup3\n        /* \"#utility.yul\":2503:2520   */\n      and\n        /* \"#utility.yul\":2493:2520   */\n      swap2\n      pop\n        /* \"#utility.yul\":2449:2530   */\n    tag_121:\n        /* \"#utility.yul\":2577:2579   */\n      0x20\n        /* \"#utility.yul\":2569:2575   */\n      dup3\n        /* \"#utility.yul\":2566:2580   */\n      lt\n        /* \"#utility.yul\":2546:2564   */\n      dup2\n        /* \"#utility.yul\":2543:2581   */\n      eq\n        /* \"#utility.yul\":2540:2624   */\n      iszero\n      tag_122\n      jumpi\n        /* \"#utility.yul\":2596:2614   */\n      tag_123\n      tag_124\n      jump\t// in\n    tag_123:\n        /* \"#utility.yul\":2540:2624   */\n    tag_122:\n        /* \"#utility.yul\":2361:2630   */\n      pop\n        /* \"#utility.yul\":2310:2630   */\n      swap2\n      swap1\n      pop\n      jump\t// out\n        /* \"#utility.yul\":2636:2816   */\n    tag_124:\n        /* \"#utility.yul\":2684:2761   */\n      0x4e487b7100000000000000000000000000000000000000000000000000000000\n        /* \"#utility.yul\":2681:2682   */\n      0x00\n        /* \"#utility.yul\":2674:2762   */\n      mstore\n        /* \"#utility.yul\":2781:2785   */\n      0x22\n        /* \"#utility.yul\":2778:2779   */\n      0x04\n        /* \"#utility.yul\":2771:2786   */\n      mstore\n        /* \"#utility.yul\":2805:2809   */\n      0x24\n        /* \"#utility.yul\":2802:2803   */\n      0x00\n        /* \"#utility.yul\":2795:2810   */\n      revert\n        /* \"#utility.yul\":2822:2924   */\n    tag_97:\n        /* \"#utility.yul\":2863:2869   */\n      0x00\n        /* \"#utility.yul\":2914:2916   */\n      0x1f\n        /* \"#utility.yul\":2910:2917   */\n      not\n        /* \"#utility.yul\":2905:2907   */\n      0x1f\n        /* \"#utility.yul\":2898:2903   */\n      dup4\n        /* \"#utility.yul\":2894:2908   */\n      add\n        /* \"#utility.yul\":2890:2918   */\n      and\n        /* \"#utility.yul\":2880:2918   */\n      swap1\n      pop\n        /* \"#utility.yul\":2822:2924   */\n      swap2\n      swap1\n      pop\n      jump\t// out\n\n    auxdata: 0xa2646970667358221220d1eddb6d795f856481e2eb2e7fd45ba3585b5966667fd499195f02882d3eb4d964736f6c63430008070033\n}\n",
				"bytecode": {
					"linkReferences": {},
					"object": "608060405234801561001057600080fd5b506107e3806100206000396000f3fe608060405234801561001057600080fd5b506004361061009e5760003560e01c80638da5cb5b116100665780638da5cb5b14610139578063938b5f32146101575780639fa92f9d14610175578063f57fcab114610193578063f758ceab146101b15761009e565b806306fdde03146100a35780631f797b11146100c1578063262a9dff146100df578063323046b1146100fd5780636f5ad9991461011b575b600080fd5b6100ab6101cf565b6040516100b89190610673565b60405180910390f35b6100c961025d565b6040516100d69190610673565b60405180910390f35b6100e76102eb565b6040516100f49190610673565b60405180910390f35b610105610379565b6040516101129190610695565b60405180910390f35b61012361037f565b6040516101309190610673565b60405180910390f35b61014161040d565b60405161014e9190610658565b60405180910390f35b61015f610431565b60405161016c9190610673565b60405180910390f35b61017d6104bf565b60405161018a9190610658565b60405180910390f35b61019b6104e5565b6040516101a89190610673565b60405180910390f35b6101b9610573565b6040516101c69190610673565b60405180910390f35b600180546101dc9061073b565b80601f01602080910402602001604051908101604052809291908181526020018280546102089061073b565b80156102555780601f1061022a57610100808354040283529160200191610255565b820191906000526020600020905b81548152906001019060200180831161023857829003601f168201915b505050505081565b6002805461026a9061073b565b80601f01602080910402602001604051908101604052809291908181526020018280546102969061073b565b80156102e35780601f106102b8576101008083540402835291602001916102e3565b820191906000526020600020905b8154815290600101906020018083116102c657829003601f168201915b505050505081565b600380546102f89061073b565b80601f01602080910402602001604051908101604052809291908181526020018280546103249061073b565b80156103715780601f1061034657610100808354040283529160200191610371565b820191906000526020600020905b81548152906001019060200180831161035457829003601f168201915b505050505081565b60065481565b6008805461038c9061073b565b80601f01602080910402602001604051908101604052809291908181526020018280546103b89061073b565b80156104055780601f106103da57610100808354040283529160200191610405565b820191906000526020600020905b8154815290600101906020018083116103e857829003601f168201915b505050505081565b60008054906101000a900473ffffffffffffffffffffffffffffffffffffffff1681565b6005805461043e9061073b565b80601f016020809104026020016040519081016040528092919081815260200182805461046a9061073b565b80156104b75780601f1061048c576101008083540402835291602001916104b7565b820191906000526020600020905b81548152906001019060200180831161049a57829003601f168201915b505050505081565b600960009054906101000a900473ffffffffffffffffffffffffffffffffffffffff1681565b600780546104f29061073b565b80601f016020809104026020016040519081016040528092919081815260200182805461051e9061073b565b801561056b5780601f106105405761010080835404028352916020019161056b565b820191906000526020600020905b81548152906001019060200180831161054e57829003601f168201915b505050505081565b600480546105809061073b565b80601f01602080910402602001604051908101604052809291908181526020018280546105ac9061073b565b80156105f95780601f106105ce576101008083540402835291602001916105f9565b820191906000526020600020905b8154815290600101906020018083116105dc57829003601f168201915b505050505081565b61060a816106cc565b82525050565b600061061b826106b0565b61062581856106bb565b9350610635818560208601610708565b61063e8161079c565b840191505092915050565b610652816106fe565b82525050565b600060208201905061066d6000830184610601565b92915050565b6000602082019050818103600083015261068d8184610610565b905092915050565b60006020820190506106aa6000830184610649565b92915050565b600081519050919050565b600082825260208201905092915050565b60006106d7826106de565b9050919050565b600073ffffffffffffffffffffffffffffffffffffffff82169050919050565b6000819050919050565b60005b8381101561072657808201518184015260208101905061070b565b83811115610735576000848401525b50505050565b6000600282049050600182168061075357607f821691505b602082108114156107675761076661076d565b5b50919050565b7f4e487b7100000000000000000000000000000000000000000000000000000000600052602260045260246000fd5b6000601f19601f830116905091905056fea2646970667358221220d1eddb6d795f856481e2eb2e7fd45ba3585b5966667fd499195f02882d3eb4d964736f6c63430008070033",
					"opcodes": "PUSH1 0x80 PUSH1 0x40 MSTORE CALLVALUE DUP1 ISZERO PUSH2 0x10 JUMPI PUSH1 0x0 DUP1 REVERT JUMPDEST POP PUSH2 0x7E3 DUP1 PUSH2 0x20 PUSH1 0x0 CODECOPY PUSH1 0x0 RETURN INVALID PUSH1 0x80 PUSH1 0x40 MSTORE CALLVALUE DUP1 ISZERO PUSH2 0x10 JUMPI PUSH1 0x0 DUP1 REVERT JUMPDEST POP PUSH1 0x4 CALLDATASIZE LT PUSH2 0x9E JUMPI PUSH1 0x0 CALLDATALOAD PUSH1 0xE0 SHR DUP1 PUSH4 0x8DA5CB5B GT PUSH2 0x66 JUMPI DUP1 PUSH4 0x8DA5CB5B EQ PUSH2 0x139 JUMPI DUP1 PUSH4 0x938B5F32 EQ PUSH2 0x157 JUMPI DUP1 PUSH4 0x9FA92F9D EQ PUSH2 0x175 JUMPI DUP1 PUSH4 0xF57FCAB1 EQ PUSH2 0x193 JUMPI DUP1 PUSH4 0xF758CEAB EQ PUSH2 0x1B1 JUMPI PUSH2 0x9E JUMP JUMPDEST DUP1 PUSH4 0x6FDDE03 EQ PUSH2 0xA3 JUMPI DUP1 PUSH4 0x1F797B11 EQ PUSH2 0xC1 JUMPI DUP1 PUSH4 0x262A9DFF EQ PUSH2 0xDF JUMPI DUP1 PUSH4 0x323046B1 EQ PUSH2 0xFD JUMPI DUP1 PUSH4 0x6F5AD999 EQ PUSH2 0x11B JUMPI JUMPDEST PUSH1 0x0 DUP1 REVERT JUMPDEST PUSH2 0xAB PUSH2 0x1CF JUMP JUMPDEST PUSH1 0x40 MLOAD PUSH2 0xB8 SWAP2 SWAP1 PUSH2 0x673 JUMP JUMPDEST PUSH1 0x40 MLOAD DUP1 SWAP2 SUB SWAP1 RETURN JUMPDEST PUSH2 0xC9 PUSH2 0x25D JUMP JUMPDEST PUSH1 0x40 MLOAD PUSH2 0xD6 SWAP2 SWAP1 PUSH2 0x673 JUMP JUMPDEST PUSH1 0x40 MLOAD DUP1 SWAP2 SUB SWAP1 RETURN JUMPDEST PUSH2 0xE7 PUSH2 0x2EB JUMP JUMPDEST PUSH1 0x40 MLOAD PUSH2 0xF4 SWAP2 SWAP1 PUSH2 0x673 JUMP JUMPDEST PUSH1 0x40 MLOAD DUP1 SWAP2 SUB SWAP1 RETURN JUMPDEST PUSH2 0x105 PUSH2 0x379 JUMP JUMPDEST PUSH1 0x40 MLOAD PUSH2 0x112 SWAP2 SWAP1 PUSH2 0x695 JUMP JUMPDEST PUSH1 0x40 MLOAD DUP1 SWAP2 SUB SWAP1 RETURN JUMPDEST PUSH2 0x123 PUSH2 0x37F JUMP JUMPDEST PUSH1 0x40 MLOAD PUSH2 0x130 SWAP2 SWAP1 PUSH2 0x673 JUMP JUMPDEST PUSH1 0x40 MLOAD DUP1 SWAP2 SUB SWAP1 RETURN JUMPDEST PUSH2 0x141 PUSH2 0x40D JUMP JUMPDEST PUSH1 0x40 MLOAD PUSH2 0x14E SWAP2 SWAP1 PUSH2 0x658 JUMP JUMPDEST PUSH1 0x40 MLOAD DUP1 SWAP2 SUB SWAP1 RETURN JUMPDEST PUSH2 0x15F PUSH2 0x431 JUMP JUMPDEST PUSH1 0x40 MLOAD PUSH2 0x16C SWAP2 SWAP1 PUSH2 0x673 JUMP JUMPDEST PUSH1 0x40 MLOAD DUP1 SWAP2 SUB SWAP1 RETURN JUMPDEST PUSH2 0x17D PUSH2 0x4BF JUMP JUMPDEST PUSH1 0x40 MLOAD PUSH2 0x18A SWAP2 SWAP1 PUSH2 0x658 JUMP JUMPDEST PUSH1 0x40 MLOAD DUP1 SWAP2 SUB SWAP1 RETURN JUMPDEST PUSH2 0x19B PUSH2 0x4E5 JUMP JUMPDEST PUSH1 0x40 MLOAD PUSH2 0x1A8 SWAP2 SWAP1 PUSH2 0x673 JUMP JUMPDEST PUSH1 0x40 MLOAD DUP1 SWAP2 SUB SWAP1 RETURN JUMPDEST PUSH2 0x1B9 PUSH2 0x573 JUMP JUMPDEST PUSH1 0x40 MLOAD PUSH2 0x1C6 SWAP2 SWAP1 PUSH2 0x673 JUMP JUMPDEST PUSH1 0x40 MLOAD DUP1 SWAP2 SUB SWAP1 RETURN JUMPDEST PUSH1 0x1 DUP1 SLOAD PUSH2 0x1DC SWAP1 PUSH2 0x73B JUMP JUMPDEST DUP1 PUSH1 0x1F ADD PUSH1 0x20 DUP1 SWAP2 DIV MUL PUSH1 0x20 ADD PUSH1 0x40 MLOAD SWAP1 DUP2 ADD PUSH1 0x40 MSTORE DUP1 SWAP3 SWAP2 SWAP1 DUP2 DUP2 MSTORE PUSH1 0x20 ADD DUP3 DUP1 SLOAD PUSH2 0x208 SWAP1 PUSH2 0x73B JUMP JUMPDEST DUP1 ISZERO PUSH2 0x255 JUMPI DUP1 PUSH1 0x1F LT PUSH2 0x22A JUMPI PUSH2 0x100 DUP1 DUP4 SLOAD DIV MUL DUP4 MSTORE SWAP2 PUSH1 0x20 ADD SWAP2 PUSH2 0x255 JUMP JUMPDEST DUP3 ADD SWAP2 SWAP1 PUSH1 0x0 MSTORE PUSH1 0x20 PUSH1 0x0 KECCAK256 SWAP1 JUMPDEST DUP2 SLOAD DUP2 MSTORE SWAP1 PUSH1 0x1 ADD SWAP1 PUSH1 0x20 ADD DUP1 DUP4 GT PUSH2 0x238 JUMPI DUP3 SWAP1 SUB PUSH1 0x1F AND DUP3 ADD SWAP2 JUMPDEST POP POP POP POP POP DUP2 JUMP JUMPDEST PUSH1 0x2 DUP1 SLOAD PUSH2 0x26A SWAP1 PUSH2 0x73B JUMP JUMPDEST DUP1 PUSH1 0x1F ADD PUSH1 0x20 DUP1 SWAP2 DIV MUL PUSH1 0x20 ADD PUSH1 0x40 MLOAD SWAP1 DUP2 ADD PUSH1 0x40 MSTORE DUP1 SWAP3 SWAP2 SWAP1 DUP2 DUP2 MSTORE PUSH1 0x20 ADD DUP3 DUP1 SLOAD PUSH2 0x296 SWAP1 PUSH2 0x73B JUMP JUMPDEST DUP1 ISZERO PUSH2 0x2E3 JUMPI DUP1 PUSH1 0x1F LT PUSH2 0x2B8 JUMPI PUSH2 0x100 DUP1 DUP4 SLOAD DIV MUL DUP4 MSTORE SWAP2 PUSH1 0x20 ADD SWAP2 PUSH2 0x2E3 JUMP JUMPDEST DUP3 ADD SWAP2 SWAP1 PUSH1 0x0 MSTORE PUSH1 0x20 PUSH1 0x0 KECCAK256 SWAP1 JUMPDEST DUP2 SLOAD DUP2 MSTORE SWAP1 PUSH1 0x1 ADD SWAP1 PUSH1 0x20 ADD DUP1 DUP4 GT PUSH2 0x2C6 JUMPI DUP3 SWAP1 SUB PUSH1 0x1F AND DUP3 ADD SWAP2 JUMPDEST POP POP POP POP POP DUP2 JUMP JUMPDEST PUSH1 0x3 DUP1 SLOAD PUSH2 0x2F8 SWAP1 PUSH2 0x73B JUMP JUMPDEST DUP1 PUSH1 0x1F ADD PUSH1 0x20 DUP1 SWAP2 DIV MUL PUSH1 0x20 ADD PUSH1 0x40 MLOAD SWAP1 DUP2 ADD PUSH1 0x40 MSTORE DUP1 SWAP3 SWAP2 SWAP1 DUP2 DUP2 MSTORE PUSH1 0x20 ADD DUP3 DUP1 SLOAD PUSH2 0x324 SWAP1 PUSH2 0x73B JUMP JUMPDEST DUP1 ISZERO PUSH2 0x371 JUMPI DUP1 PUSH1 0x1F LT PUSH2 0x346 JUMPI PUSH2 0x100 DUP1 DUP4 SLOAD DIV MUL DUP4 MSTORE SWAP2 PUSH1 0x20 ADD SWAP2 PUSH2 0x371 JUMP JUMPDEST DUP3 ADD SWAP2 SWAP1 PUSH1 0x0 MSTORE PUSH1 0x20 PUSH1 0x0 KECCAK256 SWAP1 JUMPDEST DUP2 SLOAD DUP2 MSTORE SWAP1 PUSH1 0x1 ADD SWAP1 PUSH1 0x20 ADD DUP1 DUP4 GT PUSH2 0x354 JUMPI DUP3 SWAP1 SUB PUSH1 0x1F AND DUP3 ADD SWAP2 JUMPDEST POP POP POP POP POP DUP2 JUMP JUMPDEST PUSH1 0x6 SLOAD DUP2 JUMP JUMPDEST PUSH1 0x8 DUP1 SLOAD PUSH2 0x38C SWAP1 PUSH2 0x73B JUMP JUMPDEST DUP1 PUSH1 0x1F ADD PUSH1 0x20 DUP1 SWAP2 DIV MUL PUSH1 0x20 ADD PUSH1 0x40 MLOAD SWAP1 DUP2 ADD PUSH1 0x40 MSTORE DUP1 SWAP3 SWAP2 SWAP1 DUP2 DUP2 MSTORE PUSH1 0x20 ADD DUP3 DUP1 SLOAD PUSH2 0x3B8 SWAP1 PUSH2 0x73B JUMP JUMPDEST DUP1 ISZERO PUSH2 0x405 JUMPI DUP1 PUSH1 0x1F LT PUSH2 0x3DA JUMPI PUSH2 0x100 DUP1 DUP4 SLOAD DIV MUL DUP4 MSTORE SWAP2 PUSH1 0x20 ADD SWAP2 PUSH2 0x405 JUMP JUMPDEST DUP3 ADD SWAP2 SWAP1 PUSH1 0x0 MSTORE PUSH1 0x20 PUSH1 0x0 KECCAK256 SWAP1 JUMPDEST DUP2 SLOAD DUP2 MSTORE SWAP1 PUSH1 0x1 ADD SWAP1 PUSH1 0x20 ADD DUP1 DUP4 GT PUSH2 0x3E8 JUMPI DUP3 SWAP1 SUB PUSH1 0x1F AND DUP3 ADD SWAP2 JUMPDEST POP POP POP POP POP DUP2 JUMP JUMPDEST PUSH1 0x0 DUP1 SLOAD SWAP1 PUSH2 0x100 EXP SWAP1 DIV PUSH20 0xFFFFFFFFFFFFFFFFFFFFFFFFFFFFFFFFFFFFFFFF AND DUP2 JUMP JUMPDEST PUSH1 0x5 DUP1 SLOAD PUSH2 0x43E SWAP1 PUSH2 0x73B JUMP JUMPDEST DUP1 PUSH1 0x1F ADD PUSH1 0x20 DUP1 SWAP2 DIV MUL PUSH1 0x20 ADD PUSH1 0x40 MLOAD SWAP1 DUP2 ADD PUSH1 0x40 MSTORE DUP1 SWAP3 SWAP2 SWAP1 DUP2 DUP2 MSTORE PUSH1 0x20 ADD DUP3 DUP1 SLOAD PUSH2 0x46A SWAP1 PUSH2 0x73B JUMP JUMPDEST DUP1 ISZERO PUSH2 0x4B7 JUMPI DUP1 PUSH1 0x1F LT PUSH2 0x48C JUMPI PUSH2 0x100 DUP1 DUP4 SLOAD DIV MUL DUP4 MSTORE SWAP2 PUSH1 0x20 ADD SWAP2 PUSH2 0x4B7 JUMP JUMPDEST DUP3 ADD SWAP2 SWAP1 PUSH1 0x0 MSTORE PUSH1 0x20 PUSH1 0x0 KECCAK256 SWAP1 JUMPDEST DUP2 SLOAD DUP2 MSTORE SWAP1 PUSH1 0x1 ADD SWAP1 PUSH1 0x20 ADD DUP1 DUP4 GT PUSH2 0x49A JUMPI DUP3 SWAP1 SUB PUSH1 0x1F AND DUP3 ADD SWAP2 JUMPDEST POP POP POP POP POP DUP2 JUMP JUMPDEST PUSH1 0x9 PUSH1 0x0 SWAP1 SLOAD SWAP1 PUSH2 0x100 EXP SWAP1 DIV PUSH20 0xFFFFFFFFFFFFFFFFFFFFFFFFFFFFFFFFFFFFFFFF AND DUP2 JUMP JUMPDEST PUSH1 0x7 DUP1 SLOAD PUSH2 0x4F2 SWAP1 PUSH2 0x73B JUMP JUMPDEST DUP1 PUSH1 0x1F ADD PUSH1 0x20 DUP1 SWAP2 DIV MUL PUSH1 0x20 ADD PUSH1 0x40 MLOAD SWAP1 DUP2 ADD PUSH1 0x40 MSTORE DUP1 SWAP3 SWAP2 SWAP1 DUP2 DUP2 MSTORE PUSH1 0x20 ADD DUP3 DUP1 SLOAD PUSH2 0x51E SWAP1 PUSH2 0x73B JUMP JUMPDEST DUP1 ISZERO PUSH2 0x56B JUMPI DUP1 PUSH1 0x1F LT PUSH2 0x540 JUMPI PUSH2 0x100 DUP1 DUP4 SLOAD DIV MUL DUP4 MSTORE SWAP2 PUSH1 0x20 ADD SWAP2 PUSH2 0x56B JUMP JUMPDEST DUP3 ADD SWAP2 SWAP1 PUSH1 0x0 MSTORE PUSH1 0x20 PUSH1 0x0 KECCAK256 SWAP1 JUMPDEST DUP2 SLOAD DUP2 MSTORE SWAP1 PUSH1 0x1 ADD SWAP1 PUSH1 0x20 ADD DUP1 DUP4 GT PUSH2 0x54E JUMPI DUP3 SWAP1 SUB PUSH1 0x1F AND DUP3 ADD SWAP2 JUMPDEST POP POP POP POP POP DUP2 JUMP JUMPDEST PUSH1 0x4 DUP1 SLOAD PUSH2 0x580 SWAP1 PUSH2 0x73B JUMP JUMPDEST DUP1 PUSH1 0x1F ADD PUSH1 0x20 DUP1 SWAP2 DIV MUL PUSH1 0x20 ADD PUSH1 0x40 MLOAD SWAP1 DUP2 ADD PUSH1 0x40 MSTORE DUP1 SWAP3 SWAP2 SWAP1 DUP2 DUP2 MSTORE PUSH1 0x20 ADD DUP3 DUP1 SLOAD PUSH2 0x5AC SWAP1 PUSH2 0x73B JUMP JUMPDEST DUP1 ISZERO PUSH2 0x5F9 JUMPI DUP1 PUSH1 0x1F LT PUSH2 0x5CE JUMPI PUSH2 0x100 DUP1 DUP4 SLOAD DIV MUL DUP4 MSTORE SWAP2 PUSH1 0x20 ADD SWAP2 PUSH2 0x5F9 JUMP JUMPDEST DUP3 ADD SWAP2 SWAP1 PUSH1 0x0 MSTORE PUSH1 0x20 PUSH1 0x0 KECCAK256 SWAP1 JUMPDEST DUP2 SLOAD DUP2 MSTORE SWAP1 PUSH1 0x1 ADD SWAP1 PUSH1 0x20 ADD DUP1 DUP4 GT PUSH2 0x5DC JUMPI DUP3 SWAP1 SUB PUSH1 0x1F AND DUP3 ADD SWAP2 JUMPDEST POP POP POP POP POP DUP2 JUMP JUMPDEST PUSH2 0x60A DUP2 PUSH2 0x6CC JUMP JUMPDEST DUP3 MSTORE POP POP JUMP JUMPDEST PUSH1 0x0 PUSH2 0x61B DUP3 PUSH2 0x6B0 JUMP JUMPDEST PUSH2 0x625 DUP2 DUP6 PUSH2 0x6BB JUMP JUMPDEST SWAP4 POP PUSH2 0x635 DUP2 DUP6 PUSH1 0x20 DUP7 ADD PUSH2 0x708 JUMP JUMPDEST PUSH2 0x63E DUP2 PUSH2 0x79C JUMP JUMPDEST DUP5 ADD SWAP2 POP POP SWAP3 SWAP2 POP POP JUMP JUMPDEST PUSH2 0x652 DUP2 PUSH2 0x6FE JUMP JUMPDEST DUP3 MSTORE POP POP JUMP JUMPDEST PUSH1 0x0 PUSH1 0x20 DUP3 ADD SWAP1 POP PUSH2 0x66D PUSH1 0x0 DUP4 ADD DUP5 PUSH2 0x601 JUMP JUMPDEST SWAP3 SWAP2 POP POP JUMP JUMPDEST PUSH1 0x0 PUSH1 0x20 DUP3 ADD SWAP1 POP DUP2 DUP2 SUB PUSH1 0x0 DUP4 ADD MSTORE PUSH2 0x68D DUP2 DUP5 PUSH2 0x610 JUMP JUMPDEST SWAP1 POP SWAP3 SWAP2 POP POP JUMP JUMPDEST PUSH1 0x0 PUSH1 0x20 DUP3 ADD SWAP1 POP PUSH2 0x6AA PUSH1 0x0 DUP4 ADD DUP5 PUSH2 0x649 JUMP JUMPDEST SWAP3 SWAP2 POP POP JUMP JUMPDEST PUSH1 0x0 DUP2 MLOAD SWAP1 POP SWAP2 SWAP1 POP JUMP JUMPDEST PUSH1 0x0 DUP3 DUP3 MSTORE PUSH1 0x20 DUP3 ADD SWAP1 POP SWAP3 SWAP2 POP POP JUMP JUMPDEST PUSH1 0x0 PUSH2 0x6D7 DUP3 PUSH2 0x6DE JUMP JUMPDEST SWAP1 POP SWAP2 SWAP1 POP JUMP JUMPDEST PUSH1 0x0 PUSH20 0xFFFFFFFFFFFFFFFFFFFFFFFFFFFFFFFFFFFFFFFF DUP3 AND SWAP1 POP SWAP2 SWAP1 POP JUMP JUMPDEST PUSH1 0x0 DUP2 SWAP1 POP SWAP2 SWAP1 POP JUMP JUMPDEST PUSH1 0x0 JUMPDEST DUP4 DUP2 LT ISZERO PUSH2 0x726 JUMPI DUP1 DUP3 ADD MLOAD DUP2 DUP5 ADD MSTORE PUSH1 0x20 DUP2 ADD SWAP1 POP PUSH2 0x70B JUMP JUMPDEST DUP4 DUP2 GT ISZERO PUSH2 0x735 JUMPI PUSH1 0x0 DUP5 DUP5 ADD MSTORE JUMPDEST POP POP POP POP JUMP JUMPDEST PUSH1 0x0 PUSH1 0x2 DUP3 DIV SWAP1 POP PUSH1 0x1 DUP3 AND DUP1 PUSH2 0x753 JUMPI PUSH1 0x7F DUP3 AND SWAP2 POP JUMPDEST PUSH1 0x20 DUP3 LT DUP2 EQ ISZERO PUSH2 0x767 JUMPI PUSH2 0x766 PUSH2 0x76D JUMP JUMPDEST JUMPDEST POP SWAP2 SWAP1 POP JUMP JUMPDEST PUSH32 0x4E487B7100000000000000000000000000000000000000000000000000000000 PUSH1 0x0 MSTORE PUSH1 0x22 PUSH1 0x4 MSTORE PUSH1 0x24 PUSH1 0x0 REVERT JUMPDEST PUSH1 0x0 PUSH1 0x1F NOT PUSH1 0x1F DUP4 ADD AND SWAP1 POP SWAP2 SWAP1 POP JUMP INVALID LOG2 PUSH5 0x6970667358 0x22 SLT KECCAK256 0xD1 0xED 0xDB PUSH14 0x795F856481E2EB2E7FD45BA3585B MSIZE PUSH7 0x667FD499195F02 DUP9 0x2D RETURNDATACOPY 0xB4 0xD9 PUSH5 0x736F6C6343 STOP ADDMOD SMOD STOP CALLER "
				},
				"gasEstimates": {
					"creation": {
						"codeDepositCost": "403800",
						"executionCost": "443",
						"totalCost": "404243"
					},
					"external": {
						"age()": "infinite",
						"civilState()": "infinite",
						"date()": "2496",
						"home()": "2558",
						"lname()": "infinite",
						"name()": "infinite",
						"occupation()": "infinite",
						"origin()": "infinite",
						"owner()": "2511",
						"sex()": "infinite"
					}
				},
				"methodIdentifiers": {
					"age()": "262a9dff",
					"civilState()": "f57fcab1",
					"date()": "323046b1",
					"home()": "9fa92f9d",
					"lname()": "1f797b11",
					"name()": "06fdde03",
					"occupation()": "6f5ad999",
					"origin()": "938b5f32",
					"owner()": "8da5cb5b",
					"sex()": "f758ceab"
				}
			},
			"storageLayout": {
				"storage": [
					{
						"astId": 3,
						"contract": "contracts/Patient.sol:Patient",
						"label": "owner",
						"offset": 0,
						"slot": "0",
						"type": "t_address"
					},
					{
						"astId": 5,
						"contract": "contracts/Patient.sol:Patient",
						"label": "name",
						"offset": 0,
						"slot": "1",
						"type": "t_string_storage"
					},
					{
						"astId": 7,
						"contract": "contracts/Patient.sol:Patient",
						"label": "lname",
						"offset": 0,
						"slot": "2",
						"type": "t_string_storage"
					},
					{
						"astId": 9,
						"contract": "contracts/Patient.sol:Patient",
						"label": "age",
						"offset": 0,
						"slot": "3",
						"type": "t_string_storage"
					},
					{
						"astId": 11,
						"contract": "contracts/Patient.sol:Patient",
						"label": "sex",
						"offset": 0,
						"slot": "4",
						"type": "t_string_storage"
					},
					{
						"astId": 13,
						"contract": "contracts/Patient.sol:Patient",
						"label": "origin",
						"offset": 0,
						"slot": "5",
						"type": "t_string_storage"
					},
					{
						"astId": 15,
						"contract": "contracts/Patient.sol:Patient",
						"label": "date",
						"offset": 0,
						"slot": "6",
						"type": "t_uint256"
					},
					{
						"astId": 17,
						"contract": "contracts/Patient.sol:Patient",
						"label": "civilState",
						"offset": 0,
						"slot": "7",
						"type": "t_string_storage"
					},
					{
						"astId": 19,
						"contract": "contracts/Patient.sol:Patient",
						"label": "occupation",
						"offset": 0,
						"slot": "8",
						"type": "t_string_storage"
					},
					{
						"astId": 21,
						"contract": "contracts/Patient.sol:Patient",
						"label": "home",
						"offset": 0,
						"slot": "9",
						"type": "t_address"
					}
				],
				"types": {
					"t_address": {
						"encoding": "inplace",
						"label": "address",
						"numberOfBytes": "20"
					},
					"t_string_storage": {
						"encoding": "bytes",
						"label": "string",
						"numberOfBytes": "32"
					},
					"t_uint256": {
						"encoding": "inplace",
						"label": "uint256",
						"numberOfBytes": "32"
					}
				}
			},
			"userdoc": {
				"kind": "user",
				"methods": {},
				"version": 1
			}
		}
	}
}