{
	"contracts/BitcoinPrice.sol": {
		"BitcoinPrice": {
			"abi": [
				{
					"inputs": [],
					"payable": true,
					"stateMutability": "payable",
					"type": "constructor"
				},
				{
					"anonymous": false,
					"inputs": [
						{
							"indexed": false,
							"internalType": "string",
							"name": "description",
							"type": "string"
						}
					],
					"name": "LogNewProvableQuery",
					"type": "event"
				},
				{
					"anonymous": false,
					"inputs": [
						{
							"indexed": false,
							"internalType": "string",
							"name": "result",
							"type": "string"
						}
					],
					"name": "LogNewProvableResult",
					"type": "event"
				},
				{
					"constant": true,
					"inputs": [],
					"name": "GET_BITCOIN_PRICE_QUERY",
					"outputs": [
						{
							"internalType": "string",
							"name": "",
							"type": "string"
						}
					],
					"payable": false,
					"stateMutability": "view",
					"type": "function"
				},
				{
					"constant": false,
					"inputs": [
						{
							"internalType": "bytes32",
							"name": "_myid",
							"type": "bytes32"
						},
						{
							"internalType": "string",
							"name": "_result",
							"type": "string"
						}
					],
					"name": "__callback",
					"outputs": [],
					"payable": false,
					"stateMutability": "nonpayable",
					"type": "function"
				},
				{
					"constant": false,
					"inputs": [
						{
							"internalType": "bytes32",
							"name": "_myid",
							"type": "bytes32"
						},
						{
							"internalType": "string",
							"name": "_result",
							"type": "string"
						},
						{
							"internalType": "bytes",
							"name": "_proof",
							"type": "bytes"
						}
					],
					"name": "__callback",
					"outputs": [],
					"payable": false,
					"stateMutability": "nonpayable",
					"type": "function"
				},
				{
					"constant": true,
					"inputs": [
						{
							"internalType": "bytes32",
							"name": "",
							"type": "bytes32"
						}
					],
					"name": "pendingQueries",
					"outputs": [
						{
							"internalType": "bool",
							"name": "",
							"type": "bool"
						}
					],
					"payable": false,
					"stateMutability": "view",
					"type": "function"
				},
				{
					"constant": true,
					"inputs": [],
					"name": "result",
					"outputs": [
						{
							"internalType": "string",
							"name": "",
							"type": "string"
						}
					],
					"payable": false,
					"stateMutability": "view",
					"type": "function"
				},
				{
					"constant": false,
					"inputs": [],
					"name": "retrieveBitcoinPrice",
					"outputs": [],
					"payable": true,
					"stateMutability": "payable",
					"type": "function"
				}
			],
			"devdoc": {
				"methods": {}
			},
			"evm": {
				"assembly": "    /* \"contracts/BitcoinPrice.sol\":118:1347  contract BitcoinPrice is usingProvable {\r... */\n  mstore(0x40, 0x80)\n    /* \"contracts/BitcoinPrice.sol\":164:346  string public GET_BITCOIN_PRICE_QUERY = \"json(https://api.coingecko.com/api/v3/coins/markets?vs_currency=usd&order=market_cap_desc&per_page=1&page=1&sparkline=false).0.current_price\" */\n  mload(0x40)\n  dup1\n  0xc0\n  add\n  0x40\n  mstore\n  dup1\n  0x8c\n  dup2\n  mstore\n  0x20\n  add\n  data_a9aaa4fb4f706caa5547c375e67ad83284a13b18d1cb3d16b21f03557a314d45\n  0x8c\n  swap2\n  codecopy\n  0x05\n  swap1\n  dup1\n  mload\n  swap1\n  0x20\n  add\n  swap1\n  tag_1\n  swap3\n  swap2\n  swap1\n  tag_2\n  jump\t// in\ntag_1:\n  pop\n    /* \"contracts/BitcoinPrice.sol\":118:1347  contract BitcoinPrice is usingProvable {\r... */\n  jump(tag_5)\ntag_2:\n  dup3\n  dup1\n  sload\n  0x01\n  dup2\n  0x01\n  and\n  iszero\n  0x0100\n  mul\n  sub\n  and\n  0x02\n  swap1\n  div\n  swap1\n  0x00\n  mstore\n  keccak256(0x00, 0x20)\n  swap1\n  0x1f\n  add\n  0x20\n  swap1\n  div\n  dup2\n  add\n  swap3\n  dup3\n  0x1f\n  lt\n  tag_7\n  jumpi\n  dup1\n  mload\n  not(0xff)\n  and\n  dup4\n  dup1\n  add\n  or\n  dup6\n  sstore\n  jump(tag_6)\ntag_7:\n  dup3\n  dup1\n  add\n  0x01\n  add\n  dup6\n  sstore\n  dup3\n  iszero\n  tag_6\n  jumpi\n  swap2\n  dup3\n  add\ntag_8:\n  dup3\n  dup2\n  gt\n  iszero\n  tag_9\n  jumpi\n  dup3\n  mload\n  dup3\n  sstore\n  swap2\n  0x20\n  add\n  swap2\n  swap1\n  0x01\n  add\n  swap1\n  jump(tag_8)\ntag_9:\ntag_6:\n  pop\n  swap1\n  pop\n  tag_10\n  swap2\n  swap1\n  tag_11\n  jump\t// in\ntag_10:\n  pop\n  swap1\n  jump\t// out\ntag_11:\n  tag_12\n  swap2\n  swap1\ntag_13:\n  dup1\n  dup3\n  gt\n  iszero\n  tag_14\n  jumpi\n  0x00\n  dup2\n  0x00\n  swap1\n  sstore\n  pop\n  0x01\n  add\n  jump(tag_13)\ntag_14:\n  pop\n  swap1\n  jump\ntag_12:\n  swap1\n  jump\t// out\ntag_5:\n  dataSize(sub_0)\n  dup1\n  dataOffset(sub_0)\n  0x00\n  codecopy\n  0x00\n  return\nstop\ndata_a9aaa4fb4f706caa5547c375e67ad83284a13b18d1cb3d16b21f03557a314d45 6a736f6e2868747470733a2f2f6170692e636f696e6765636b6f2e636f6d2f6170692f76332f636f696e732f6d61726b6574733f76735f63757272656e63793d757364266f726465723d6d61726b65745f6361705f64657363267065725f706167653d3126706167653d3126737061726b6c696e653d66616c7365292e302e63757272656e745f7072696365\n\nsub_0: assembly {\n        /* \"contracts/BitcoinPrice.sol\":118:1347  contract BitcoinPrice is usingProvable {\r... */\n      mstore(0x40, 0x80)\n      jumpi(tag_1, lt(calldatasize, 0x04))\n      shr(0xe0, calldataload(0x00))\n      dup1\n      0x27dc297e\n      eq\n      tag_2\n      jumpi\n      dup1\n      0x32b39327\n      eq\n      tag_3\n      jumpi\n      dup1\n      0x38bbfa50\n      eq\n      tag_4\n      jumpi\n      dup1\n      0x65372147\n      eq\n      tag_5\n      jumpi\n      dup1\n      0x89a2cdcb\n      eq\n      tag_6\n      jumpi\n      dup1\n      0xdbab89b6\n      eq\n      tag_7\n      jumpi\n    tag_1:\n      0x00\n      dup1\n      revert\n        /* \"contracts/BitcoinPrice.sol\":585:877  function __callback(bytes32 _myid, string memory _result) public {\r... */\n    tag_2:\n      callvalue\n        /* \"--CODEGEN--\":8:17   */\n      dup1\n        /* \"--CODEGEN--\":5:7   */\n      iszero\n      tag_8\n      jumpi\n        /* \"--CODEGEN--\":30:31   */\n      0x00\n        /* \"--CODEGEN--\":27:28   */\n      dup1\n        /* \"--CODEGEN--\":20:32   */\n      revert\n        /* \"--CODEGEN--\":5:7   */\n    tag_8:\n        /* \"contracts/BitcoinPrice.sol\":585:877  function __callback(bytes32 _myid, string memory _result) public {\r... */\n      pop\n      tag_9\n      0x04\n      dup1\n      calldatasize\n      sub\n        /* \"--CODEGEN--\":13:15   */\n      0x40\n        /* \"--CODEGEN--\":8:11   */\n      dup2\n        /* \"--CODEGEN--\":5:16   */\n      lt\n        /* \"--CODEGEN--\":2:4   */\n      iszero\n      tag_10\n      jumpi\n        /* \"--CODEGEN--\":29:30   */\n      0x00\n        /* \"--CODEGEN--\":26:27   */\n      dup1\n        /* \"--CODEGEN--\":19:31   */\n      revert\n        /* \"--CODEGEN--\":2:4   */\n    tag_10:\n        /* \"contracts/BitcoinPrice.sol\":585:877  function __callback(bytes32 _myid, string memory _result) public {\r... */\n      dup2\n      add\n      swap1\n      dup1\n      dup1\n      calldataload\n      swap1\n      0x20\n      add\n      swap1\n      swap3\n      swap2\n      swap1\n      dup1\n      calldataload\n      swap1\n      0x20\n      add\n      swap1\n        /* \"--CODEGEN--\":21:32   */\n      0x0100000000\n        /* \"--CODEGEN--\":8:19   */\n      dup2\n        /* \"--CODEGEN--\":5:33   */\n      gt\n        /* \"--CODEGEN--\":2:4   */\n      iszero\n      tag_11\n      jumpi\n        /* \"--CODEGEN--\":46:47   */\n      0x00\n        /* \"--CODEGEN--\":43:44   */\n      dup1\n        /* \"--CODEGEN--\":36:48   */\n      revert\n        /* \"--CODEGEN--\":2:4   */\n    tag_11:\n        /* \"contracts/BitcoinPrice.sol\":585:877  function __callback(bytes32 _myid, string memory _result) public {\r... */\n      dup3\n      add\n        /* \"--CODEGEN--\":35:44   */\n      dup4\n        /* \"--CODEGEN--\":28:32   */\n      0x20\n        /* \"--CODEGEN--\":12:26   */\n      dup3\n        /* \"--CODEGEN--\":8:33   */\n      add\n        /* \"--CODEGEN--\":5:45   */\n      gt\n        /* \"--CODEGEN--\":2:4   */\n      iszero\n      tag_12\n      jumpi\n        /* \"--CODEGEN--\":58:59   */\n      0x00\n        /* \"--CODEGEN--\":55:56   */\n      dup1\n        /* \"--CODEGEN--\":48:60   */\n      revert\n        /* \"--CODEGEN--\":2:4   */\n    tag_12:\n        /* \"contracts/BitcoinPrice.sol\":585:877  function __callback(bytes32 _myid, string memory _result) public {\r... */\n      dup1\n      calldataload\n      swap1\n      0x20\n      add\n      swap2\n        /* \"--CODEGEN--\":100:109   */\n      dup5\n        /* \"--CODEGEN--\":95:96   */\n      0x01\n        /* \"--CODEGEN--\":81:93   */\n      dup4\n        /* \"--CODEGEN--\":77:97   */\n      mul\n        /* \"--CODEGEN--\":67:75   */\n      dup5\n        /* \"--CODEGEN--\":63:98   */\n      add\n        /* \"--CODEGEN--\":60:110   */\n      gt\n        /* \"--CODEGEN--\":39:50   */\n      0x0100000000\n        /* \"--CODEGEN--\":25:37   */\n      dup4\n        /* \"--CODEGEN--\":22:51   */\n      gt\n        /* \"--CODEGEN--\":11:118   */\n      or\n        /* \"--CODEGEN--\":8:10   */\n      iszero\n      tag_13\n      jumpi\n        /* \"--CODEGEN--\":131:132   */\n      0x00\n        /* \"--CODEGEN--\":128:129   */\n      dup1\n        /* \"--CODEGEN--\":121:133   */\n      revert\n        /* \"--CODEGEN--\":8:10   */\n    tag_13:\n        /* \"contracts/BitcoinPrice.sol\":585:877  function __callback(bytes32 _myid, string memory _result) public {\r... */\n      swap2\n      swap1\n      dup1\n      dup1\n      0x1f\n      add\n      0x20\n      dup1\n      swap2\n      div\n      mul\n      0x20\n      add\n      mload(0x40)\n      swap1\n      dup2\n      add\n      0x40\n      mstore\n      dup1\n      swap4\n      swap3\n      swap2\n      swap1\n      dup2\n      dup2\n      mstore\n      0x20\n      add\n      dup4\n      dup4\n        /* \"--CODEGEN--\":30:33   */\n      dup1\n        /* \"--CODEGEN--\":22:28   */\n      dup3\n        /* \"--CODEGEN--\":14:20   */\n      dup5\n        /* \"--CODEGEN--\":1:34   */\n      calldatacopy\n        /* \"--CODEGEN--\":99:100   */\n      0x00\n        /* \"--CODEGEN--\":93:96   */\n      dup2\n        /* \"--CODEGEN--\":85:91   */\n      dup5\n        /* \"--CODEGEN--\":81:97   */\n      add\n        /* \"--CODEGEN--\":74:101   */\n      mstore\n        /* \"--CODEGEN--\":137:141   */\n      0x1f\n        /* \"--CODEGEN--\":133:142   */\n      not\n        /* \"--CODEGEN--\":126:130   */\n      0x1f\n        /* \"--CODEGEN--\":121:124   */\n      dup3\n        /* \"--CODEGEN--\":117:131   */\n      add\n        /* \"--CODEGEN--\":113:143   */\n      and\n        /* \"--CODEGEN--\":106:143   */\n      swap1\n      pop\n        /* \"--CODEGEN--\":169:172   */\n      dup1\n        /* \"--CODEGEN--\":161:167   */\n      dup4\n        /* \"--CODEGEN--\":157:173   */\n      add\n        /* \"--CODEGEN--\":147:173   */\n      swap3\n      pop\n        /* \"contracts/BitcoinPrice.sol\":585:877  function __callback(bytes32 _myid, string memory _result) public {\r... */\n      pop\n      pop\n      pop\n      pop\n      pop\n      pop\n      swap2\n      swap3\n      swap2\n      swap3\n      swap1\n      pop\n      pop\n      pop\n      tag_14\n      jump\t// in\n    tag_9:\n      stop\n        /* \"contracts/BitcoinPrice.sol\":885:1344  function retrieveBitcoinPrice() public payable {\r... */\n    tag_3:\n      tag_15\n      tag_16\n      jump\t// in\n    tag_15:\n      stop\n        /* \"github.com/provable-things/ethereum-api/contracts/solc-v0.5.x/provableAPI.sol\":16384:16565  function __callback(bytes32 _myid, string memory _result, bytes memory _proof) public {\r... */\n    tag_4:\n      callvalue\n        /* \"--CODEGEN--\":8:17   */\n      dup1\n        /* \"--CODEGEN--\":5:7   */\n      iszero\n      tag_17\n      jumpi\n        /* \"--CODEGEN--\":30:31   */\n      0x00\n        /* \"--CODEGEN--\":27:28   */\n      dup1\n        /* \"--CODEGEN--\":20:32   */\n      revert\n        /* \"--CODEGEN--\":5:7   */\n    tag_17:\n        /* \"github.com/provable-things/ethereum-api/contracts/solc-v0.5.x/provableAPI.sol\":16384:16565  function __callback(bytes32 _myid, string memory _result, bytes memory _proof) public {\r... */\n      pop\n      tag_18\n      0x04\n      dup1\n      calldatasize\n      sub\n        /* \"--CODEGEN--\":13:15   */\n      0x60\n        /* \"--CODEGEN--\":8:11   */\n      dup2\n        /* \"--CODEGEN--\":5:16   */\n      lt\n        /* \"--CODEGEN--\":2:4   */\n      iszero\n      tag_19\n      jumpi\n        /* \"--CODEGEN--\":29:30   */\n      0x00\n        /* \"--CODEGEN--\":26:27   */\n      dup1\n        /* \"--CODEGEN--\":19:31   */\n      revert\n        /* \"--CODEGEN--\":2:4   */\n    tag_19:\n        /* \"github.com/provable-things/ethereum-api/contracts/solc-v0.5.x/provableAPI.sol\":16384:16565  function __callback(bytes32 _myid, string memory _result, bytes memory _proof) public {\r... */\n      dup2\n      add\n      swap1\n      dup1\n      dup1\n      calldataload\n      swap1\n      0x20\n      add\n      swap1\n      swap3\n      swap2\n      swap1\n      dup1\n      calldataload\n      swap1\n      0x20\n      add\n      swap1\n        /* \"--CODEGEN--\":21:32   */\n      0x0100000000\n        /* \"--CODEGEN--\":8:19   */\n      dup2\n        /* \"--CODEGEN--\":5:33   */\n      gt\n        /* \"--CODEGEN--\":2:4   */\n      iszero\n      tag_20\n      jumpi\n        /* \"--CODEGEN--\":46:47   */\n      0x00\n        /* \"--CODEGEN--\":43:44   */\n      dup1\n        /* \"--CODEGEN--\":36:48   */\n      revert\n        /* \"--CODEGEN--\":2:4   */\n    tag_20:\n        /* \"github.com/provable-things/ethereum-api/contracts/solc-v0.5.x/provableAPI.sol\":16384:16565  function __callback(bytes32 _myid, string memory _result, bytes memory _proof) public {\r... */\n      dup3\n      add\n        /* \"--CODEGEN--\":35:44   */\n      dup4\n        /* \"--CODEGEN--\":28:32   */\n      0x20\n        /* \"--CODEGEN--\":12:26   */\n      dup3\n        /* \"--CODEGEN--\":8:33   */\n      add\n        /* \"--CODEGEN--\":5:45   */\n      gt\n        /* \"--CODEGEN--\":2:4   */\n      iszero\n      tag_21\n      jumpi\n        /* \"--CODEGEN--\":58:59   */\n      0x00\n        /* \"--CODEGEN--\":55:56   */\n      dup1\n        /* \"--CODEGEN--\":48:60   */\n      revert\n        /* \"--CODEGEN--\":2:4   */\n    tag_21:\n        /* \"github.com/provable-things/ethereum-api/contracts/solc-v0.5.x/provableAPI.sol\":16384:16565  function __callback(bytes32 _myid, string memory _result, bytes memory _proof) public {\r... */\n      dup1\n      calldataload\n      swap1\n      0x20\n      add\n      swap2\n        /* \"--CODEGEN--\":100:109   */\n      dup5\n        /* \"--CODEGEN--\":95:96   */\n      0x01\n        /* \"--CODEGEN--\":81:93   */\n      dup4\n        /* \"--CODEGEN--\":77:97   */\n      mul\n        /* \"--CODEGEN--\":67:75   */\n      dup5\n        /* \"--CODEGEN--\":63:98   */\n      add\n        /* \"--CODEGEN--\":60:110   */\n      gt\n        /* \"--CODEGEN--\":39:50   */\n      0x0100000000\n        /* \"--CODEGEN--\":25:37   */\n      dup4\n        /* \"--CODEGEN--\":22:51   */\n      gt\n        /* \"--CODEGEN--\":11:118   */\n      or\n        /* \"--CODEGEN--\":8:10   */\n      iszero\n      tag_22\n      jumpi\n        /* \"--CODEGEN--\":131:132   */\n      0x00\n        /* \"--CODEGEN--\":128:129   */\n      dup1\n        /* \"--CODEGEN--\":121:133   */\n      revert\n        /* \"--CODEGEN--\":8:10   */\n    tag_22:\n        /* \"github.com/provable-things/ethereum-api/contracts/solc-v0.5.x/provableAPI.sol\":16384:16565  function __callback(bytes32 _myid, string memory _result, bytes memory _proof) public {\r... */\n      swap2\n      swap1\n      dup1\n      dup1\n      0x1f\n      add\n      0x20\n      dup1\n      swap2\n      div\n      mul\n      0x20\n      add\n      mload(0x40)\n      swap1\n      dup2\n      add\n      0x40\n      mstore\n      dup1\n      swap4\n      swap3\n      swap2\n      swap1\n      dup2\n      dup2\n      mstore\n      0x20\n      add\n      dup4\n      dup4\n        /* \"--CODEGEN--\":30:33   */\n      dup1\n        /* \"--CODEGEN--\":22:28   */\n      dup3\n        /* \"--CODEGEN--\":14:20   */\n      dup5\n        /* \"--CODEGEN--\":1:34   */\n      calldatacopy\n        /* \"--CODEGEN--\":99:100   */\n      0x00\n        /* \"--CODEGEN--\":93:96   */\n      dup2\n        /* \"--CODEGEN--\":85:91   */\n      dup5\n        /* \"--CODEGEN--\":81:97   */\n      add\n        /* \"--CODEGEN--\":74:101   */\n      mstore\n        /* \"--CODEGEN--\":137:141   */\n      0x1f\n        /* \"--CODEGEN--\":133:142   */\n      not\n        /* \"--CODEGEN--\":126:130   */\n      0x1f\n        /* \"--CODEGEN--\":121:124   */\n      dup3\n        /* \"--CODEGEN--\":117:131   */\n      add\n        /* \"--CODEGEN--\":113:143   */\n      and\n        /* \"--CODEGEN--\":106:143   */\n      swap1\n      pop\n        /* \"--CODEGEN--\":169:172   */\n      dup1\n        /* \"--CODEGEN--\":161:167   */\n      dup4\n        /* \"--CODEGEN--\":157:173   */\n      add\n        /* \"--CODEGEN--\":147:173   */\n      swap3\n      pop\n        /* \"github.com/provable-things/ethereum-api/contracts/solc-v0.5.x/provableAPI.sol\":16384:16565  function __callback(bytes32 _myid, string memory _result, bytes memory _proof) public {\r... */\n      pop\n      pop\n      pop\n      pop\n      pop\n      pop\n      swap2\n      swap3\n      swap2\n      swap3\n      swap1\n      dup1\n      calldataload\n      swap1\n      0x20\n      add\n      swap1\n        /* \"--CODEGEN--\":21:32   */\n      0x0100000000\n        /* \"--CODEGEN--\":8:19   */\n      dup2\n        /* \"--CODEGEN--\":5:33   */\n      gt\n        /* \"--CODEGEN--\":2:4   */\n      iszero\n      tag_23\n      jumpi\n        /* \"--CODEGEN--\":46:47   */\n      0x00\n        /* \"--CODEGEN--\":43:44   */\n      dup1\n        /* \"--CODEGEN--\":36:48   */\n      revert\n        /* \"--CODEGEN--\":2:4   */\n    tag_23:\n        /* \"github.com/provable-things/ethereum-api/contracts/solc-v0.5.x/provableAPI.sol\":16384:16565  function __callback(bytes32 _myid, string memory _result, bytes memory _proof) public {\r... */\n      dup3\n      add\n        /* \"--CODEGEN--\":35:44   */\n      dup4\n        /* \"--CODEGEN--\":28:32   */\n      0x20\n        /* \"--CODEGEN--\":12:26   */\n      dup3\n        /* \"--CODEGEN--\":8:33   */\n      add\n        /* \"--CODEGEN--\":5:45   */\n      gt\n        /* \"--CODEGEN--\":2:4   */\n      iszero\n      tag_24\n      jumpi\n        /* \"--CODEGEN--\":58:59   */\n      0x00\n        /* \"--CODEGEN--\":55:56   */\n      dup1\n        /* \"--CODEGEN--\":48:60   */\n      revert\n        /* \"--CODEGEN--\":2:4   */\n    tag_24:\n        /* \"github.com/provable-things/ethereum-api/contracts/solc-v0.5.x/provableAPI.sol\":16384:16565  function __callback(bytes32 _myid, string memory _result, bytes memory _proof) public {\r... */\n      dup1\n      calldataload\n      swap1\n      0x20\n      add\n      swap2\n        /* \"--CODEGEN--\":100:109   */\n      dup5\n        /* \"--CODEGEN--\":95:96   */\n      0x01\n        /* \"--CODEGEN--\":81:93   */\n      dup4\n        /* \"--CODEGEN--\":77:97   */\n      mul\n        /* \"--CODEGEN--\":67:75   */\n      dup5\n        /* \"--CODEGEN--\":63:98   */\n      add\n        /* \"--CODEGEN--\":60:110   */\n      gt\n        /* \"--CODEGEN--\":39:50   */\n      0x0100000000\n        /* \"--CODEGEN--\":25:37   */\n      dup4\n        /* \"--CODEGEN--\":22:51   */\n      gt\n        /* \"--CODEGEN--\":11:118   */\n      or\n        /* \"--CODEGEN--\":8:10   */\n      iszero\n      tag_25\n      jumpi\n        /* \"--CODEGEN--\":131:132   */\n      0x00\n        /* \"--CODEGEN--\":128:129   */\n      dup1\n        /* \"--CODEGEN--\":121:133   */\n      revert\n        /* \"--CODEGEN--\":8:10   */\n    tag_25:\n        /* \"github.com/provable-things/ethereum-api/contracts/solc-v0.5.x/provableAPI.sol\":16384:16565  function __callback(bytes32 _myid, string memory _result, bytes memory _proof) public {\r... */\n      swap2\n      swap1\n      dup1\n      dup1\n      0x1f\n      add\n      0x20\n      dup1\n      swap2\n      div\n      mul\n      0x20\n      add\n      mload(0x40)\n      swap1\n      dup2\n      add\n      0x40\n      mstore\n      dup1\n      swap4\n      swap3\n      swap2\n      swap1\n      dup2\n      dup2\n      mstore\n      0x20\n      add\n      dup4\n      dup4\n        /* \"--CODEGEN--\":30:33   */\n      dup1\n        /* \"--CODEGEN--\":22:28   */\n      dup3\n        /* \"--CODEGEN--\":14:20   */\n      dup5\n        /* \"--CODEGEN--\":1:34   */\n      calldatacopy\n        /* \"--CODEGEN--\":99:100   */\n      0x00\n        /* \"--CODEGEN--\":93:96   */\n      dup2\n        /* \"--CODEGEN--\":85:91   */\n      dup5\n        /* \"--CODEGEN--\":81:97   */\n      add\n        /* \"--CODEGEN--\":74:101   */\n      mstore\n        /* \"--CODEGEN--\":137:141   */\n      0x1f\n        /* \"--CODEGEN--\":133:142   */\n      not\n        /* \"--CODEGEN--\":126:130   */\n      0x1f\n        /* \"--CODEGEN--\":121:124   */\n      dup3\n        /* \"--CODEGEN--\":117:131   */\n      add\n        /* \"--CODEGEN--\":113:143   */\n      and\n        /* \"--CODEGEN--\":106:143   */\n      swap1\n      pop\n        /* \"--CODEGEN--\":169:172   */\n      dup1\n        /* \"--CODEGEN--\":161:167   */\n      dup4\n        /* \"--CODEGEN--\":157:173   */\n      add\n        /* \"--CODEGEN--\":147:173   */\n      swap3\n      pop\n        /* \"github.com/provable-things/ethereum-api/contracts/solc-v0.5.x/provableAPI.sol\":16384:16565  function __callback(bytes32 _myid, string memory _result, bytes memory _proof) public {\r... */\n      pop\n      pop\n      pop\n      pop\n      pop\n      pop\n      swap2\n      swap3\n      swap2\n      swap3\n      swap1\n      pop\n      pop\n      pop\n      tag_26\n      jump\t// in\n    tag_18:\n      stop\n        /* \"contracts/BitcoinPrice.sol\":511:531  string public result */\n    tag_5:\n      callvalue\n        /* \"--CODEGEN--\":8:17   */\n      dup1\n        /* \"--CODEGEN--\":5:7   */\n      iszero\n      tag_27\n      jumpi\n        /* \"--CODEGEN--\":30:31   */\n      0x00\n        /* \"--CODEGEN--\":27:28   */\n      dup1\n        /* \"--CODEGEN--\":20:32   */\n      revert\n        /* \"--CODEGEN--\":5:7   */\n    tag_27:\n        /* \"contracts/BitcoinPrice.sol\":511:531  string public result */\n      pop\n      tag_28\n      tag_29\n      jump\t// in\n    tag_28:\n      mload(0x40)\n      dup1\n      dup1\n      0x20\n      add\n      dup3\n      dup2\n      sub\n      dup3\n      mstore\n      dup4\n      dup2\n      dup2\n      mload\n      dup2\n      mstore\n      0x20\n      add\n      swap2\n      pop\n      dup1\n      mload\n      swap1\n      0x20\n      add\n      swap1\n      dup1\n      dup4\n      dup4\n        /* \"--CODEGEN--\":23:24   */\n      0x00\n        /* \"--CODEGEN--\":8:108   */\n    tag_30:\n        /* \"--CODEGEN--\":33:36   */\n      dup4\n        /* \"--CODEGEN--\":30:31   */\n      dup2\n        /* \"--CODEGEN--\":27:37   */\n      lt\n        /* \"--CODEGEN--\":8:108   */\n      iszero\n      tag_32\n      jumpi\n        /* \"--CODEGEN--\":99:100   */\n      dup1\n        /* \"--CODEGEN--\":94:97   */\n      dup3\n        /* \"--CODEGEN--\":90:101   */\n      add\n        /* \"--CODEGEN--\":84:102   */\n      mload\n        /* \"--CODEGEN--\":80:81   */\n      dup2\n        /* \"--CODEGEN--\":75:78   */\n      dup5\n        /* \"--CODEGEN--\":71:82   */\n      add\n        /* \"--CODEGEN--\":64:103   */\n      mstore\n        /* \"--CODEGEN--\":52:54   */\n      0x20\n        /* \"--CODEGEN--\":49:50   */\n      dup2\n        /* \"--CODEGEN--\":45:55   */\n      add\n        /* \"--CODEGEN--\":40:55   */\n      swap1\n      pop\n        /* \"--CODEGEN--\":8:108   */\n      jump(tag_30)\n    tag_32:\n        /* \"--CODEGEN--\":12:26   */\n      pop\n        /* \"contracts/BitcoinPrice.sol\":511:531  string public result */\n      pop\n      pop\n      pop\n      swap1\n      pop\n      swap1\n      dup2\n      add\n      swap1\n      0x1f\n      and\n      dup1\n      iszero\n      tag_33\n      jumpi\n      dup1\n      dup3\n      sub\n      dup1\n      mload\n      0x01\n      dup4\n      0x20\n      sub\n      0x0100\n      exp\n      sub\n      not\n      and\n      dup2\n      mstore\n      0x20\n      add\n      swap2\n      pop\n    tag_33:\n      pop\n      swap3\n      pop\n      pop\n      pop\n      mload(0x40)\n      dup1\n      swap2\n      sub\n      swap1\n      return\n        /* \"contracts/BitcoinPrice.sol\":457:504  mapping (bytes32 => bool) public pendingQueries */\n    tag_6:\n      callvalue\n        /* \"--CODEGEN--\":8:17   */\n      dup1\n        /* \"--CODEGEN--\":5:7   */\n      iszero\n      tag_34\n      jumpi\n        /* \"--CODEGEN--\":30:31   */\n      0x00\n        /* \"--CODEGEN--\":27:28   */\n      dup1\n        /* \"--CODEGEN--\":20:32   */\n      revert\n        /* \"--CODEGEN--\":5:7   */\n    tag_34:\n        /* \"contracts/BitcoinPrice.sol\":457:504  mapping (bytes32 => bool) public pendingQueries */\n      pop\n      tag_35\n      0x04\n      dup1\n      calldatasize\n      sub\n        /* \"--CODEGEN--\":13:15   */\n      0x20\n        /* \"--CODEGEN--\":8:11   */\n      dup2\n        /* \"--CODEGEN--\":5:16   */\n      lt\n        /* \"--CODEGEN--\":2:4   */\n      iszero\n      tag_36\n      jumpi\n        /* \"--CODEGEN--\":29:30   */\n      0x00\n        /* \"--CODEGEN--\":26:27   */\n      dup1\n        /* \"--CODEGEN--\":19:31   */\n      revert\n        /* \"--CODEGEN--\":2:4   */\n    tag_36:\n        /* \"contracts/BitcoinPrice.sol\":457:504  mapping (bytes32 => bool) public pendingQueries */\n      dup2\n      add\n      swap1\n      dup1\n      dup1\n      calldataload\n      swap1\n      0x20\n      add\n      swap1\n      swap3\n      swap2\n      swap1\n      pop\n      pop\n      pop\n      tag_37\n      jump\t// in\n    tag_35:\n      mload(0x40)\n      dup1\n      dup3\n      iszero\n      iszero\n      iszero\n      iszero\n      dup2\n      mstore\n      0x20\n      add\n      swap2\n      pop\n      pop\n      mload(0x40)\n      dup1\n      swap2\n      sub\n      swap1\n      return\n        /* \"contracts/BitcoinPrice.sol\":164:346  string public GET_BITCOIN_PRICE_QUERY = \"json(https://api.coingecko.com/api/v3/coins/markets?vs_currency=usd&order=market_cap_desc&per_page=1&page=1&sparkline=false).0.current_price\" */\n    tag_7:\n      callvalue\n        /* \"--CODEGEN--\":8:17   */\n      dup1\n        /* \"--CODEGEN--\":5:7   */\n      iszero\n      tag_38\n      jumpi\n        /* \"--CODEGEN--\":30:31   */\n      0x00\n        /* \"--CODEGEN--\":27:28   */\n      dup1\n        /* \"--CODEGEN--\":20:32   */\n      revert\n        /* \"--CODEGEN--\":5:7   */\n    tag_38:\n        /* \"contracts/BitcoinPrice.sol\":164:346  string public GET_BITCOIN_PRICE_QUERY = \"json(https://api.coingecko.com/api/v3/coins/markets?vs_currency=usd&order=market_cap_desc&per_page=1&page=1&sparkline=false).0.current_price\" */\n      pop\n      tag_39\n      tag_40\n      jump\t// in\n    tag_39:\n      mload(0x40)\n      dup1\n      dup1\n      0x20\n      add\n      dup3\n      dup2\n      sub\n      dup3\n      mstore\n      dup4\n      dup2\n      dup2\n      mload\n      dup2\n      mstore\n      0x20\n      add\n      swap2\n      pop\n      dup1\n      mload\n      swap1\n      0x20\n      add\n      swap1\n      dup1\n      dup4\n      dup4\n        /* \"--CODEGEN--\":23:24   */\n      0x00\n        /* \"--CODEGEN--\":8:108   */\n    tag_41:\n        /* \"--CODEGEN--\":33:36   */\n      dup4\n        /* \"--CODEGEN--\":30:31   */\n      dup2\n        /* \"--CODEGEN--\":27:37   */\n      lt\n        /* \"--CODEGEN--\":8:108   */\n      iszero\n      tag_43\n      jumpi\n        /* \"--CODEGEN--\":99:100   */\n      dup1\n        /* \"--CODEGEN--\":94:97   */\n      dup3\n        /* \"--CODEGEN--\":90:101   */\n      add\n        /* \"--CODEGEN--\":84:102   */\n      mload\n        /* \"--CODEGEN--\":80:81   */\n      dup2\n        /* \"--CODEGEN--\":75:78   */\n      dup5\n        /* \"--CODEGEN--\":71:82   */\n      add\n        /* \"--CODEGEN--\":64:103   */\n      mstore\n        /* \"--CODEGEN--\":52:54   */\n      0x20\n        /* \"--CODEGEN--\":49:50   */\n      dup2\n        /* \"--CODEGEN--\":45:55   */\n      add\n        /* \"--CODEGEN--\":40:55   */\n      swap1\n      pop\n        /* \"--CODEGEN--\":8:108   */\n      jump(tag_41)\n    tag_43:\n        /* \"--CODEGEN--\":12:26   */\n      pop\n        /* \"contracts/BitcoinPrice.sol\":164:346  string public GET_BITCOIN_PRICE_QUERY = \"json(https://api.coingecko.com/api/v3/coins/markets?vs_currency=usd&order=market_cap_desc&per_page=1&page=1&sparkline=false).0.current_price\" */\n      pop\n      pop\n      pop\n      swap1\n      pop\n      swap1\n      dup2\n      add\n      swap1\n      0x1f\n      and\n      dup1\n      iszero\n      tag_44\n      jumpi\n      dup1\n      dup3\n      sub\n      dup1\n      mload\n      0x01\n      dup4\n      0x20\n      sub\n      0x0100\n      exp\n      sub\n      not\n      and\n      dup2\n      mstore\n      0x20\n      add\n      swap2\n      pop\n    tag_44:\n      pop\n      swap3\n      pop\n      pop\n      pop\n      mload(0x40)\n      dup1\n      swap2\n      sub\n      swap1\n      return\n        /* \"contracts/BitcoinPrice.sol\":585:877  function __callback(bytes32 _myid, string memory _result) public {\r... */\n    tag_14:\n        /* \"contracts/BitcoinPrice.sol\":683:703  provable_cbAddress() */\n      tag_46\n        /* \"contracts/BitcoinPrice.sol\":683:701  provable_cbAddress */\n      tag_47\n        /* \"contracts/BitcoinPrice.sol\":683:703  provable_cbAddress() */\n      jump\t// in\n    tag_46:\n        /* \"contracts/BitcoinPrice.sol\":669:703  msg.sender == provable_cbAddress() */\n      0xffffffffffffffffffffffffffffffffffffffff\n      and\n        /* \"contracts/BitcoinPrice.sol\":669:679  msg.sender */\n      caller\n        /* \"contracts/BitcoinPrice.sol\":669:703  msg.sender == provable_cbAddress() */\n      0xffffffffffffffffffffffffffffffffffffffff\n      and\n      eq\n        /* \"contracts/BitcoinPrice.sol\":661:704  require(msg.sender == provable_cbAddress()) */\n      tag_48\n      jumpi\n      0x00\n      dup1\n      revert\n    tag_48:\n        /* \"contracts/BitcoinPrice.sol\":749:753  true */\n      0x01\n        /* \"contracts/BitcoinPrice.sol\":724:753  pendingQueries[_myid] == true */\n      iszero\n      iszero\n        /* \"contracts/BitcoinPrice.sol\":724:738  pendingQueries */\n      0x06\n        /* \"contracts/BitcoinPrice.sol\":724:745  pendingQueries[_myid] */\n      0x00\n        /* \"contracts/BitcoinPrice.sol\":739:744  _myid */\n      dup5\n        /* \"contracts/BitcoinPrice.sol\":724:745  pendingQueries[_myid] */\n      dup2\n      mstore\n      0x20\n      add\n      swap1\n      dup2\n      mstore\n      0x20\n      add\n      0x00\n      keccak256\n      0x00\n      swap1\n      sload\n      swap1\n      0x0100\n      exp\n      swap1\n      div\n      0xff\n      and\n        /* \"contracts/BitcoinPrice.sol\":724:753  pendingQueries[_myid] == true */\n      iszero\n      iszero\n      eq\n        /* \"contracts/BitcoinPrice.sol\":715:754  require (pendingQueries[_myid] == true) */\n      tag_49\n      jumpi\n      0x00\n      dup1\n      revert\n    tag_49:\n        /* \"contracts/BitcoinPrice.sol\":776:783  _result */\n      dup1\n        /* \"contracts/BitcoinPrice.sol\":767:773  result */\n      0x07\n        /* \"contracts/BitcoinPrice.sol\":767:783  result = _result */\n      swap1\n      dup1\n      mload\n      swap1\n      0x20\n      add\n      swap1\n      tag_50\n      swap3\n      swap2\n      swap1\n      tag_51\n      jump\t// in\n    tag_50:\n      pop\n        /* \"contracts/BitcoinPrice.sol\":799:828  LogNewProvableResult(_result) */\n      0xcac2586df91c62ddda7f015012690c8634c9c91408cae421456c6352cf8aa42e\n        /* \"contracts/BitcoinPrice.sol\":820:827  _result */\n      dup2\n        /* \"contracts/BitcoinPrice.sol\":799:828  LogNewProvableResult(_result) */\n      mload(0x40)\n      dup1\n      dup1\n      0x20\n      add\n      dup3\n      dup2\n      sub\n      dup3\n      mstore\n      dup4\n      dup2\n      dup2\n      mload\n      dup2\n      mstore\n      0x20\n      add\n      swap2\n      pop\n      dup1\n      mload\n      swap1\n      0x20\n      add\n      swap1\n      dup1\n      dup4\n      dup4\n        /* \"--CODEGEN--\":23:24   */\n      0x00\n        /* \"--CODEGEN--\":8:108   */\n    tag_52:\n        /* \"--CODEGEN--\":33:36   */\n      dup4\n        /* \"--CODEGEN--\":30:31   */\n      dup2\n        /* \"--CODEGEN--\":27:37   */\n      lt\n        /* \"--CODEGEN--\":8:108   */\n      iszero\n      tag_54\n      jumpi\n        /* \"--CODEGEN--\":99:100   */\n      dup1\n        /* \"--CODEGEN--\":94:97   */\n      dup3\n        /* \"--CODEGEN--\":90:101   */\n      add\n        /* \"--CODEGEN--\":84:102   */\n      mload\n        /* \"--CODEGEN--\":80:81   */\n      dup2\n        /* \"--CODEGEN--\":75:78   */\n      dup5\n        /* \"--CODEGEN--\":71:82   */\n      add\n        /* \"--CODEGEN--\":64:103   */\n      mstore\n        /* \"--CODEGEN--\":52:54   */\n      0x20\n        /* \"--CODEGEN--\":49:50   */\n      dup2\n        /* \"--CODEGEN--\":45:55   */\n      add\n        /* \"--CODEGEN--\":40:55   */\n      swap1\n      pop\n        /* \"--CODEGEN--\":8:108   */\n      jump(tag_52)\n    tag_54:\n        /* \"--CODEGEN--\":12:26   */\n      pop\n        /* \"contracts/BitcoinPrice.sol\":799:828  LogNewProvableResult(_result) */\n      pop\n      pop\n      pop\n      swap1\n      pop\n      swap1\n      dup2\n      add\n      swap1\n      0x1f\n      and\n      dup1\n      iszero\n      tag_55\n      jumpi\n      dup1\n      dup3\n      sub\n      dup1\n      mload\n      0x01\n      dup4\n      0x20\n      sub\n      0x0100\n      exp\n      sub\n      not\n      and\n      dup2\n      mstore\n      0x20\n      add\n      swap2\n      pop\n    tag_55:\n      pop\n      swap3\n      pop\n      pop\n      pop\n      mload(0x40)\n      dup1\n      swap2\n      sub\n      swap1\n      log1\n        /* \"contracts/BitcoinPrice.sol\":848:862  pendingQueries */\n      0x06\n        /* \"contracts/BitcoinPrice.sol\":848:869  pendingQueries[_myid] */\n      0x00\n        /* \"contracts/BitcoinPrice.sol\":863:868  _myid */\n      dup4\n        /* \"contracts/BitcoinPrice.sol\":848:869  pendingQueries[_myid] */\n      dup2\n      mstore\n      0x20\n      add\n      swap1\n      dup2\n      mstore\n      0x20\n      add\n      0x00\n      keccak256\n      0x00\n        /* \"contracts/BitcoinPrice.sol\":841:869  delete pendingQueries[_myid] */\n      0x0100\n      exp\n      dup2\n      sload\n      swap1\n      0xff\n      mul\n      not\n      and\n      swap1\n      sstore\n        /* \"contracts/BitcoinPrice.sol\":585:877  function __callback(bytes32 _myid, string memory _result) public {\r... */\n      pop\n      pop\n      jump\t// out\n        /* \"contracts/BitcoinPrice.sol\":885:1344  function retrieveBitcoinPrice() public payable {\r... */\n    tag_16:\n        /* \"contracts/BitcoinPrice.sol\":974:983  msg.value */\n      callvalue\n        /* \"contracts/BitcoinPrice.sol\":947:971  provable_getPrice(\"URL\") */\n      tag_57\n      mload(0x40)\n      dup1\n      0x40\n      add\n      0x40\n      mstore\n      dup1\n      0x03\n      dup2\n      mstore\n      0x20\n      add\n      0x55524c0000000000000000000000000000000000000000000000000000000000\n      dup2\n      mstore\n      pop\n        /* \"contracts/BitcoinPrice.sol\":947:964  provable_getPrice */\n      tag_58\n        /* \"contracts/BitcoinPrice.sol\":947:971  provable_getPrice(\"URL\") */\n      jump\t// in\n    tag_57:\n        /* \"contracts/BitcoinPrice.sol\":947:983  provable_getPrice(\"URL\") > msg.value */\n      gt\n        /* \"contracts/BitcoinPrice.sol\":943:1337  if (provable_getPrice(\"URL\") > msg.value) {\r... */\n      iszero\n      tag_59\n      jumpi\n        /* \"contracts/BitcoinPrice.sol\":1000:1086  revert(\"Provable query was NOT sent, please add some ETH to cover for the query fee!\") */\n      mload(0x40)\n      0x08c379a000000000000000000000000000000000000000000000000000000000\n      dup2\n      mstore\n      0x04\n      add\n      dup1\n      dup1\n      0x20\n      add\n      dup3\n      dup2\n      sub\n      dup3\n      mstore\n      0x4c\n      dup2\n      mstore\n      0x20\n      add\n      dup1\n      data_02fa47ce39d2d0fa6e29aead92a30e937a41327dbf96d559c775a839ad4f510e\n      0x4c\n      swap2\n      codecopy\n      0x60\n      add\n      swap2\n      pop\n      pop\n      mload(0x40)\n      dup1\n      swap2\n      sub\n      swap1\n      revert\n        /* \"contracts/BitcoinPrice.sol\":943:1337  if (provable_getPrice(\"URL\") > msg.value) {\r... */\n    tag_59:\n        /* \"contracts/BitcoinPrice.sol\":1124:1201  LogNewProvableQuery(\"Provable query was sent, standing by for the answer...\") */\n      0xc4dc360d0a9c0677a3379ae0a3d81e887f761e65fdf3d7e00859d1bcd3c47389\n      mload(0x40)\n      dup1\n      dup1\n      0x20\n      add\n      dup3\n      dup2\n      sub\n      dup3\n      mstore\n      0x36\n      dup2\n      mstore\n      0x20\n      add\n      dup1\n      data_c6f2f0f13c6598abf8ee9fb17c87715e017f2ad977035fd635642d8acb7e90c5\n      0x36\n      swap2\n      codecopy\n      0x40\n      add\n      swap2\n      pop\n      pop\n      mload(0x40)\n      dup1\n      swap2\n      sub\n      swap1\n      log1\n        /* \"contracts/BitcoinPrice.sol\":1216:1231  bytes32 queryId */\n      0x00\n        /* \"contracts/BitcoinPrice.sol\":1234:1280  provable_query(\"URL\", GET_BITCOIN_PRICE_QUERY) */\n      tag_61\n      mload(0x40)\n      dup1\n      0x40\n      add\n      0x40\n      mstore\n      dup1\n      0x03\n      dup2\n      mstore\n      0x20\n      add\n      0x55524c0000000000000000000000000000000000000000000000000000000000\n      dup2\n      mstore\n      pop\n        /* \"contracts/BitcoinPrice.sol\":1256:1279  GET_BITCOIN_PRICE_QUERY */\n      0x05\n        /* \"contracts/BitcoinPrice.sol\":1234:1280  provable_query(\"URL\", GET_BITCOIN_PRICE_QUERY) */\n      dup1\n      sload\n      0x01\n      dup2\n      0x01\n      and\n      iszero\n      0x0100\n      mul\n      sub\n      and\n      0x02\n      swap1\n      div\n      dup1\n      0x1f\n      add\n      0x20\n      dup1\n      swap2\n      div\n      mul\n      0x20\n      add\n      mload(0x40)\n      swap1\n      dup2\n      add\n      0x40\n      mstore\n      dup1\n      swap3\n      swap2\n      swap1\n      dup2\n      dup2\n      mstore\n      0x20\n      add\n      dup3\n      dup1\n      sload\n      0x01\n      dup2\n      0x01\n      and\n      iszero\n      0x0100\n      mul\n      sub\n      and\n      0x02\n      swap1\n      div\n      dup1\n      iszero\n      tag_62\n      jumpi\n      dup1\n      0x1f\n      lt\n      tag_63\n      jumpi\n      0x0100\n      dup1\n      dup4\n      sload\n      div\n      mul\n      dup4\n      mstore\n      swap2\n      0x20\n      add\n      swap2\n      jump(tag_62)\n    tag_63:\n      dup3\n      add\n      swap2\n      swap1\n      0x00\n      mstore\n      keccak256(0x00, 0x20)\n      swap1\n    tag_64:\n      dup2\n      sload\n      dup2\n      mstore\n      swap1\n      0x01\n      add\n      swap1\n      0x20\n      add\n      dup1\n      dup4\n      gt\n      tag_64\n      jumpi\n      dup3\n      swap1\n      sub\n      0x1f\n      and\n      dup3\n      add\n      swap2\n    tag_62:\n      pop\n      pop\n      pop\n      pop\n      pop\n        /* \"contracts/BitcoinPrice.sol\":1234:1248  provable_query */\n      tag_65\n        /* \"contracts/BitcoinPrice.sol\":1234:1280  provable_query(\"URL\", GET_BITCOIN_PRICE_QUERY) */\n      jump\t// in\n    tag_61:\n        /* \"contracts/BitcoinPrice.sol\":1216:1280  bytes32 queryId = provable_query(\"URL\", GET_BITCOIN_PRICE_QUERY) */\n      swap1\n      pop\n        /* \"contracts/BitcoinPrice.sol\":1321:1325  true */\n      0x01\n        /* \"contracts/BitcoinPrice.sol\":1295:1309  pendingQueries */\n      0x06\n        /* \"contracts/BitcoinPrice.sol\":1295:1318  pendingQueries[queryId] */\n      0x00\n        /* \"contracts/BitcoinPrice.sol\":1310:1317  queryId */\n      dup4\n        /* \"contracts/BitcoinPrice.sol\":1295:1318  pendingQueries[queryId] */\n      dup2\n      mstore\n      0x20\n      add\n      swap1\n      dup2\n      mstore\n      0x20\n      add\n      0x00\n      keccak256\n      0x00\n        /* \"contracts/BitcoinPrice.sol\":1295:1325  pendingQueries[queryId] = true */\n      0x0100\n      exp\n      dup2\n      sload\n      dup2\n      0xff\n      mul\n      not\n      and\n      swap1\n      dup4\n      iszero\n      iszero\n      mul\n      or\n      swap1\n      sstore\n      pop\n        /* \"contracts/BitcoinPrice.sol\":943:1337  if (provable_getPrice(\"URL\") > msg.value) {\r... */\n      pop\n        /* \"contracts/BitcoinPrice.sol\":885:1344  function retrieveBitcoinPrice() public payable {\r... */\n      jump\t// out\n        /* \"github.com/provable-things/ethereum-api/contracts/solc-v0.5.x/provableAPI.sol\":16384:16565  function __callback(bytes32 _myid, string memory _result, bytes memory _proof) public {\r... */\n    tag_26:\n        /* \"github.com/provable-things/ethereum-api/contracts/solc-v0.5.x/provableAPI.sol\":16555:16556  0 */\n      0x00\n        /* \"github.com/provable-things/ethereum-api/contracts/solc-v0.5.x/provableAPI.sol\":16547:16557  bytes32(0) */\n      dup1\n      shl\n        /* \"github.com/provable-things/ethereum-api/contracts/solc-v0.5.x/provableAPI.sol\":16510:16532  provable_randomDS_args */\n      0x03\n        /* \"github.com/provable-things/ethereum-api/contracts/solc-v0.5.x/provableAPI.sol\":16510:16544  provable_randomDS_args[bytes32(0)] */\n      0x00\n        /* \"github.com/provable-things/ethereum-api/contracts/solc-v0.5.x/provableAPI.sol\":16541:16542  0 */\n      dup1\n        /* \"github.com/provable-things/ethereum-api/contracts/solc-v0.5.x/provableAPI.sol\":16533:16543  bytes32(0) */\n      0x00\n      shl\n        /* \"github.com/provable-things/ethereum-api/contracts/solc-v0.5.x/provableAPI.sol\":16510:16544  provable_randomDS_args[bytes32(0)] */\n      dup2\n      mstore\n      0x20\n      add\n      swap1\n      dup2\n      mstore\n      0x20\n      add\n      0x00\n      keccak256\n        /* \"github.com/provable-things/ethereum-api/contracts/solc-v0.5.x/provableAPI.sol\":16510:16557  provable_randomDS_args[bytes32(0)] = bytes32(0) */\n      dup2\n      swap1\n      sstore\n      pop\n        /* \"github.com/provable-things/ethereum-api/contracts/solc-v0.5.x/provableAPI.sol\":16384:16565  function __callback(bytes32 _myid, string memory _result, bytes memory _proof) public {\r... */\n      pop\n      pop\n      pop\n      jump\t// out\n        /* \"contracts/BitcoinPrice.sol\":511:531  string public result */\n    tag_29:\n      0x07\n      dup1\n      sload\n      0x01\n      dup2\n      0x01\n      and\n      iszero\n      0x0100\n      mul\n      sub\n      and\n      0x02\n      swap1\n      div\n      dup1\n      0x1f\n      add\n      0x20\n      dup1\n      swap2\n      div\n      mul\n      0x20\n      add\n      mload(0x40)\n      swap1\n      dup2\n      add\n      0x40\n      mstore\n      dup1\n      swap3\n      swap2\n      swap1\n      dup2\n      dup2\n      mstore\n      0x20\n      add\n      dup3\n      dup1\n      sload\n      0x01\n      dup2\n      0x01\n      and\n      iszero\n      0x0100\n      mul\n      sub\n      and\n      0x02\n      swap1\n      div\n      dup1\n      iszero\n      tag_67\n      jumpi\n      dup1\n      0x1f\n      lt\n      tag_68\n      jumpi\n      0x0100\n      dup1\n      dup4\n      sload\n      div\n      mul\n      dup4\n      mstore\n      swap2\n      0x20\n      add\n      swap2\n      jump(tag_67)\n    tag_68:\n      dup3\n      add\n      swap2\n      swap1\n      0x00\n      mstore\n      keccak256(0x00, 0x20)\n      swap1\n    tag_69:\n      dup2\n      sload\n      dup2\n      mstore\n      swap1\n      0x01\n      add\n      swap1\n      0x20\n      add\n      dup1\n      dup4\n      gt\n      tag_69\n      jumpi\n      dup3\n      swap1\n      sub\n      0x1f\n      and\n      dup3\n      add\n      swap2\n    tag_67:\n      pop\n      pop\n      pop\n      pop\n      pop\n      dup2\n      jump\t// out\n        /* \"contracts/BitcoinPrice.sol\":457:504  mapping (bytes32 => bool) public pendingQueries */\n    tag_37:\n      mstore(0x20, 0x06)\n      dup1\n      0x00\n      mstore\n      keccak256(0x00, 0x40)\n      0x00\n      swap2\n      pop\n      sload\n      swap1\n      0x0100\n      exp\n      swap1\n      div\n      0xff\n      and\n      dup2\n      jump\t// out\n        /* \"contracts/BitcoinPrice.sol\":164:346  string public GET_BITCOIN_PRICE_QUERY = \"json(https://api.coingecko.com/api/v3/coins/markets?vs_currency=usd&order=market_cap_desc&per_page=1&page=1&sparkline=false).0.current_price\" */\n    tag_40:\n      0x05\n      dup1\n      sload\n      0x01\n      dup2\n      0x01\n      and\n      iszero\n      0x0100\n      mul\n      sub\n      and\n      0x02\n      swap1\n      div\n      dup1\n      0x1f\n      add\n      0x20\n      dup1\n      swap2\n      div\n      mul\n      0x20\n      add\n      mload(0x40)\n      swap1\n      dup2\n      add\n      0x40\n      mstore\n      dup1\n      swap3\n      swap2\n      swap1\n      dup2\n      dup2\n      mstore\n      0x20\n      add\n      dup3\n      dup1\n      sload\n      0x01\n      dup2\n      0x01\n      and\n      iszero\n      0x0100\n      mul\n      sub\n      and\n      0x02\n      swap1\n      div\n      dup1\n      iszero\n      tag_70\n      jumpi\n      dup1\n      0x1f\n      lt\n      tag_71\n      jumpi\n      0x0100\n      dup1\n      dup4\n      sload\n      div\n      mul\n      dup4\n      mstore\n      swap2\n      0x20\n      add\n      swap2\n      jump(tag_70)\n    tag_71:\n      dup3\n      add\n      swap2\n      swap1\n      0x00\n      mstore\n      keccak256(0x00, 0x20)\n      swap1\n    tag_72:\n      dup2\n      sload\n      dup2\n      mstore\n      swap1\n      0x01\n      add\n      swap1\n      0x20\n      add\n      dup1\n      dup4\n      gt\n      tag_72\n      jumpi\n      dup3\n      swap1\n      sub\n      0x1f\n      and\n      dup3\n      add\n      swap2\n    tag_70:\n      pop\n      pop\n      pop\n      pop\n      pop\n      dup2\n      jump\t// out\n        /* \"github.com/provable-things/ethereum-api/contracts/solc-v0.5.x/provableAPI.sol\":38590:38722  function provable_cbAddress() provableAPI internal returns (address _callbackAddress) {\r... */\n    tag_47:\n        /* \"github.com/provable-things/ethereum-api/contracts/solc-v0.5.x/provableAPI.sol\":38650:38674  address _callbackAddress */\n      0x00\n        /* \"github.com/provable-things/ethereum-api/contracts/solc-v0.5.x/provableAPI.sol\":12187:12188  0 */\n      dup1\n        /* \"github.com/provable-things/ethereum-api/contracts/solc-v0.5.x/provableAPI.sol\":12163:12189  address(OAR) == address(0) */\n      0xffffffffffffffffffffffffffffffffffffffff\n      and\n        /* \"github.com/provable-things/ethereum-api/contracts/solc-v0.5.x/provableAPI.sol\":12171:12174  OAR */\n      0x01\n      0x00\n      swap1\n      sload\n      swap1\n      0x0100\n      exp\n      swap1\n      div\n      0xffffffffffffffffffffffffffffffffffffffff\n      and\n        /* \"github.com/provable-things/ethereum-api/contracts/solc-v0.5.x/provableAPI.sol\":12163:12189  address(OAR) == address(0) */\n      0xffffffffffffffffffffffffffffffffffffffff\n      and\n      eq\n        /* \"github.com/provable-things/ethereum-api/contracts/solc-v0.5.x/provableAPI.sol\":12162:12226  (address(OAR) == address(0)) || (getCodeSize(address(OAR)) == 0) */\n      dup1\n      tag_74\n      jumpi\n      pop\n        /* \"github.com/provable-things/ethereum-api/contracts/solc-v0.5.x/provableAPI.sol\":12224:12225  0 */\n      0x00\n        /* \"github.com/provable-things/ethereum-api/contracts/solc-v0.5.x/provableAPI.sol\":12195:12220  getCodeSize(address(OAR)) */\n      tag_75\n        /* \"github.com/provable-things/ethereum-api/contracts/solc-v0.5.x/provableAPI.sol\":12215:12218  OAR */\n      0x01\n      0x00\n      swap1\n      sload\n      swap1\n      0x0100\n      exp\n      swap1\n      div\n      0xffffffffffffffffffffffffffffffffffffffff\n      and\n        /* \"github.com/provable-things/ethereum-api/contracts/solc-v0.5.x/provableAPI.sol\":12195:12206  getCodeSize */\n      tag_76\n        /* \"github.com/provable-things/ethereum-api/contracts/solc-v0.5.x/provableAPI.sol\":12195:12220  getCodeSize(address(OAR)) */\n      jump\t// in\n    tag_75:\n        /* \"github.com/provable-things/ethereum-api/contracts/solc-v0.5.x/provableAPI.sol\":12195:12225  getCodeSize(address(OAR)) == 0 */\n      eq\n        /* \"github.com/provable-things/ethereum-api/contracts/solc-v0.5.x/provableAPI.sol\":12162:12226  (address(OAR) == address(0)) || (getCodeSize(address(OAR)) == 0) */\n    tag_74:\n        /* \"github.com/provable-things/ethereum-api/contracts/solc-v0.5.x/provableAPI.sol\":12158:12290  if ((address(OAR) == address(0)) || (getCodeSize(address(OAR)) == 0)) {\r... */\n      iszero\n      tag_77\n      jumpi\n        /* \"github.com/provable-things/ethereum-api/contracts/solc-v0.5.x/provableAPI.sol\":12243:12278  provable_setNetwork(networkID_auto) */\n      tag_78\n        /* \"github.com/provable-things/ethereum-api/contracts/solc-v0.5.x/provableAPI.sol\":11809:11810  0 */\n      0x00\n        /* \"github.com/provable-things/ethereum-api/contracts/solc-v0.5.x/provableAPI.sol\":12243:12262  provable_setNetwork */\n      tag_79\n        /* \"github.com/provable-things/ethereum-api/contracts/solc-v0.5.x/provableAPI.sol\":12243:12278  provable_setNetwork(networkID_auto) */\n      jump\t// in\n    tag_78:\n      pop\n        /* \"github.com/provable-things/ethereum-api/contracts/solc-v0.5.x/provableAPI.sol\":12158:12290  if ((address(OAR) == address(0)) || (getCodeSize(address(OAR)) == 0)) {\r... */\n    tag_77:\n        /* \"github.com/provable-things/ethereum-api/contracts/solc-v0.5.x/provableAPI.sol\":12325:12328  OAR */\n      0x01\n      0x00\n      swap1\n      sload\n      swap1\n      0x0100\n      exp\n      swap1\n      div\n      0xffffffffffffffffffffffffffffffffffffffff\n      and\n        /* \"github.com/provable-things/ethereum-api/contracts/solc-v0.5.x/provableAPI.sol\":12325:12339  OAR.getAddress */\n      0xffffffffffffffffffffffffffffffffffffffff\n      and\n      0x38cc4831\n        /* \"github.com/provable-things/ethereum-api/contracts/solc-v0.5.x/provableAPI.sol\":12325:12341  OAR.getAddress() */\n      mload(0x40)\n      dup2\n      0xffffffff\n      and\n      0xe0\n      shl\n      dup2\n      mstore\n      0x04\n      add\n      0x20\n      mload(0x40)\n      dup1\n      dup4\n      sub\n      dup2\n      0x00\n      dup8\n      dup1\n      extcodesize\n      iszero\n        /* \"--CODEGEN--\":8:17   */\n      dup1\n        /* \"--CODEGEN--\":5:7   */\n      iszero\n      tag_80\n      jumpi\n        /* \"--CODEGEN--\":30:31   */\n      0x00\n        /* \"--CODEGEN--\":27:28   */\n      dup1\n        /* \"--CODEGEN--\":20:32   */\n      revert\n        /* \"--CODEGEN--\":5:7   */\n    tag_80:\n        /* \"github.com/provable-things/ethereum-api/contracts/solc-v0.5.x/provableAPI.sol\":12325:12341  OAR.getAddress() */\n      pop\n      gas\n      call\n      iszero\n        /* \"--CODEGEN--\":8:17   */\n      dup1\n        /* \"--CODEGEN--\":5:7   */\n      iszero\n      tag_81\n      jumpi\n        /* \"--CODEGEN--\":45:61   */\n      returndatasize\n        /* \"--CODEGEN--\":42:43   */\n      0x00\n        /* \"--CODEGEN--\":39:40   */\n      dup1\n        /* \"--CODEGEN--\":24:62   */\n      returndatacopy\n        /* \"--CODEGEN--\":77:93   */\n      returndatasize\n        /* \"--CODEGEN--\":74:75   */\n      0x00\n        /* \"--CODEGEN--\":67:94   */\n      revert\n        /* \"--CODEGEN--\":5:7   */\n    tag_81:\n        /* \"github.com/provable-things/ethereum-api/contracts/solc-v0.5.x/provableAPI.sol\":12325:12341  OAR.getAddress() */\n      pop\n      pop\n      pop\n      pop\n      mload(0x40)\n      returndatasize\n        /* \"--CODEGEN--\":13:15   */\n      0x20\n        /* \"--CODEGEN--\":8:11   */\n      dup2\n        /* \"--CODEGEN--\":5:16   */\n      lt\n        /* \"--CODEGEN--\":2:4   */\n      iszero\n      tag_82\n      jumpi\n        /* \"--CODEGEN--\":29:30   */\n      0x00\n        /* \"--CODEGEN--\":26:27   */\n      dup1\n        /* \"--CODEGEN--\":19:31   */\n      revert\n        /* \"--CODEGEN--\":2:4   */\n    tag_82:\n        /* \"github.com/provable-things/ethereum-api/contracts/solc-v0.5.x/provableAPI.sol\":12325:12341  OAR.getAddress() */\n      dup2\n      add\n      swap1\n      dup1\n      dup1\n      mload\n      swap1\n      0x20\n      add\n      swap1\n      swap3\n      swap2\n      swap1\n      pop\n      pop\n      pop\n        /* \"github.com/provable-things/ethereum-api/contracts/solc-v0.5.x/provableAPI.sol\":12304:12341  address(provable) != OAR.getAddress() */\n      0xffffffffffffffffffffffffffffffffffffffff\n      and\n        /* \"github.com/provable-things/ethereum-api/contracts/solc-v0.5.x/provableAPI.sol\":12312:12320  provable */\n      0x00\n      dup1\n      swap1\n      sload\n      swap1\n      0x0100\n      exp\n      swap1\n      div\n      0xffffffffffffffffffffffffffffffffffffffff\n      and\n        /* \"github.com/provable-things/ethereum-api/contracts/solc-v0.5.x/provableAPI.sol\":12304:12341  address(provable) != OAR.getAddress() */\n      0xffffffffffffffffffffffffffffffffffffffff\n      and\n      eq\n        /* \"github.com/provable-things/ethereum-api/contracts/solc-v0.5.x/provableAPI.sol\":12300:12408  if (address(provable) != OAR.getAddress()) {\r... */\n      tag_83\n      jumpi\n        /* \"github.com/provable-things/ethereum-api/contracts/solc-v0.5.x/provableAPI.sol\":12379:12382  OAR */\n      0x01\n      0x00\n      swap1\n      sload\n      swap1\n      0x0100\n      exp\n      swap1\n      div\n      0xffffffffffffffffffffffffffffffffffffffff\n      and\n        /* \"github.com/provable-things/ethereum-api/contracts/solc-v0.5.x/provableAPI.sol\":12379:12393  OAR.getAddress */\n      0xffffffffffffffffffffffffffffffffffffffff\n      and\n      0x38cc4831\n        /* \"github.com/provable-things/ethereum-api/contracts/solc-v0.5.x/provableAPI.sol\":12379:12395  OAR.getAddress() */\n      mload(0x40)\n      dup2\n      0xffffffff\n      and\n      0xe0\n      shl\n      dup2\n      mstore\n      0x04\n      add\n      0x20\n      mload(0x40)\n      dup1\n      dup4\n      sub\n      dup2\n      0x00\n      dup8\n      dup1\n      extcodesize\n      iszero\n        /* \"--CODEGEN--\":8:17   */\n      dup1\n        /* \"--CODEGEN--\":5:7   */\n      iszero\n      tag_84\n      jumpi\n        /* \"--CODEGEN--\":30:31   */\n      0x00\n        /* \"--CODEGEN--\":27:28   */\n      dup1\n        /* \"--CODEGEN--\":20:32   */\n      revert\n        /* \"--CODEGEN--\":5:7   */\n    tag_84:\n        /* \"github.com/provable-things/ethereum-api/contracts/solc-v0.5.x/provableAPI.sol\":12379:12395  OAR.getAddress() */\n      pop\n      gas\n      call\n      iszero\n        /* \"--CODEGEN--\":8:17   */\n      dup1\n        /* \"--CODEGEN--\":5:7   */\n      iszero\n      tag_85\n      jumpi\n        /* \"--CODEGEN--\":45:61   */\n      returndatasize\n        /* \"--CODEGEN--\":42:43   */\n      0x00\n        /* \"--CODEGEN--\":39:40   */\n      dup1\n        /* \"--CODEGEN--\":24:62   */\n      returndatacopy\n        /* \"--CODEGEN--\":77:93   */\n      returndatasize\n        /* \"--CODEGEN--\":74:75   */\n      0x00\n        /* \"--CODEGEN--\":67:94   */\n      revert\n        /* \"--CODEGEN--\":5:7   */\n    tag_85:\n        /* \"github.com/provable-things/ethereum-api/contracts/solc-v0.5.x/provableAPI.sol\":12379:12395  OAR.getAddress() */\n      pop\n      pop\n      pop\n      pop\n      mload(0x40)\n      returndatasize\n        /* \"--CODEGEN--\":13:15   */\n      0x20\n        /* \"--CODEGEN--\":8:11   */\n      dup2\n        /* \"--CODEGEN--\":5:16   */\n      lt\n        /* \"--CODEGEN--\":2:4   */\n      iszero\n      tag_86\n      jumpi\n        /* \"--CODEGEN--\":29:30   */\n      0x00\n        /* \"--CODEGEN--\":26:27   */\n      dup1\n        /* \"--CODEGEN--\":19:31   */\n      revert\n        /* \"--CODEGEN--\":2:4   */\n    tag_86:\n        /* \"github.com/provable-things/ethereum-api/contracts/solc-v0.5.x/provableAPI.sol\":12379:12395  OAR.getAddress() */\n      dup2\n      add\n      swap1\n      dup1\n      dup1\n      mload\n      swap1\n      0x20\n      add\n      swap1\n      swap3\n      swap2\n      swap1\n      pop\n      pop\n      pop\n        /* \"github.com/provable-things/ethereum-api/contracts/solc-v0.5.x/provableAPI.sol\":12358:12366  provable */\n      0x00\n      dup1\n        /* \"github.com/provable-things/ethereum-api/contracts/solc-v0.5.x/provableAPI.sol\":12358:12396  provable = ProvableI(OAR.getAddress()) */\n      0x0100\n      exp\n      dup2\n      sload\n      dup2\n      0xffffffffffffffffffffffffffffffffffffffff\n      mul\n      not\n      and\n      swap1\n      dup4\n      0xffffffffffffffffffffffffffffffffffffffff\n      and\n      mul\n      or\n      swap1\n      sstore\n      pop\n        /* \"github.com/provable-things/ethereum-api/contracts/solc-v0.5.x/provableAPI.sol\":12300:12408  if (address(provable) != OAR.getAddress()) {\r... */\n    tag_83:\n        /* \"github.com/provable-things/ethereum-api/contracts/solc-v0.5.x/provableAPI.sol\":38694:38702  provable */\n      0x00\n      dup1\n      swap1\n      sload\n      swap1\n      0x0100\n      exp\n      swap1\n      div\n      0xffffffffffffffffffffffffffffffffffffffff\n      and\n        /* \"github.com/provable-things/ethereum-api/contracts/solc-v0.5.x/provableAPI.sol\":38694:38712  provable.cbAddress */\n      0xffffffffffffffffffffffffffffffffffffffff\n      and\n      0xc281d19e\n        /* \"github.com/provable-things/ethereum-api/contracts/solc-v0.5.x/provableAPI.sol\":38694:38714  provable.cbAddress() */\n      mload(0x40)\n      dup2\n      0xffffffff\n      and\n      0xe0\n      shl\n      dup2\n      mstore\n      0x04\n      add\n      0x20\n      mload(0x40)\n      dup1\n      dup4\n      sub\n      dup2\n      dup7\n      dup1\n      extcodesize\n      iszero\n        /* \"--CODEGEN--\":8:17   */\n      dup1\n        /* \"--CODEGEN--\":5:7   */\n      iszero\n      tag_88\n      jumpi\n        /* \"--CODEGEN--\":30:31   */\n      0x00\n        /* \"--CODEGEN--\":27:28   */\n      dup1\n        /* \"--CODEGEN--\":20:32   */\n      revert\n        /* \"--CODEGEN--\":5:7   */\n    tag_88:\n        /* \"github.com/provable-things/ethereum-api/contracts/solc-v0.5.x/provableAPI.sol\":38694:38714  provable.cbAddress() */\n      pop\n      gas\n      staticcall\n      iszero\n        /* \"--CODEGEN--\":8:17   */\n      dup1\n        /* \"--CODEGEN--\":5:7   */\n      iszero\n      tag_89\n      jumpi\n        /* \"--CODEGEN--\":45:61   */\n      returndatasize\n        /* \"--CODEGEN--\":42:43   */\n      0x00\n        /* \"--CODEGEN--\":39:40   */\n      dup1\n        /* \"--CODEGEN--\":24:62   */\n      returndatacopy\n        /* \"--CODEGEN--\":77:93   */\n      returndatasize\n        /* \"--CODEGEN--\":74:75   */\n      0x00\n        /* \"--CODEGEN--\":67:94   */\n      revert\n        /* \"--CODEGEN--\":5:7   */\n    tag_89:\n        /* \"github.com/provable-things/ethereum-api/contracts/solc-v0.5.x/provableAPI.sol\":38694:38714  provable.cbAddress() */\n      pop\n      pop\n      pop\n      pop\n      mload(0x40)\n      returndatasize\n        /* \"--CODEGEN--\":13:15   */\n      0x20\n        /* \"--CODEGEN--\":8:11   */\n      dup2\n        /* \"--CODEGEN--\":5:16   */\n      lt\n        /* \"--CODEGEN--\":2:4   */\n      iszero\n      tag_90\n      jumpi\n        /* \"--CODEGEN--\":29:30   */\n      0x00\n        /* \"--CODEGEN--\":26:27   */\n      dup1\n        /* \"--CODEGEN--\":19:31   */\n      revert\n        /* \"--CODEGEN--\":2:4   */\n    tag_90:\n        /* \"github.com/provable-things/ethereum-api/contracts/solc-v0.5.x/provableAPI.sol\":38694:38714  provable.cbAddress() */\n      dup2\n      add\n      swap1\n      dup1\n      dup1\n      mload\n      swap1\n      0x20\n      add\n      swap1\n      swap3\n      swap2\n      swap1\n      pop\n      pop\n      pop\n        /* \"github.com/provable-things/ethereum-api/contracts/solc-v0.5.x/provableAPI.sol\":38687:38714  return provable.cbAddress() */\n      swap1\n      pop\n        /* \"github.com/provable-things/ethereum-api/contracts/solc-v0.5.x/provableAPI.sol\":38590:38722  function provable_cbAddress() provableAPI internal returns (address _callbackAddress) {\r... */\n      swap1\n      jump\t// out\n        /* \"github.com/provable-things/ethereum-api/contracts/solc-v0.5.x/provableAPI.sol\":16573:16731  function provable_getPrice(string memory _datasource) provableAPI internal returns (uint _queryPrice) {\r... */\n    tag_58:\n        /* \"github.com/provable-things/ethereum-api/contracts/solc-v0.5.x/provableAPI.sol\":16657:16673  uint _queryPrice */\n      0x00\n        /* \"github.com/provable-things/ethereum-api/contracts/solc-v0.5.x/provableAPI.sol\":12187:12188  0 */\n      dup1\n        /* \"github.com/provable-things/ethereum-api/contracts/solc-v0.5.x/provableAPI.sol\":12163:12189  address(OAR) == address(0) */\n      0xffffffffffffffffffffffffffffffffffffffff\n      and\n        /* \"github.com/provable-things/ethereum-api/contracts/solc-v0.5.x/provableAPI.sol\":12171:12174  OAR */\n      0x01\n      0x00\n      swap1\n      sload\n      swap1\n      0x0100\n      exp\n      swap1\n      div\n      0xffffffffffffffffffffffffffffffffffffffff\n      and\n        /* \"github.com/provable-things/ethereum-api/contracts/solc-v0.5.x/provableAPI.sol\":12163:12189  address(OAR) == address(0) */\n      0xffffffffffffffffffffffffffffffffffffffff\n      and\n      eq\n        /* \"github.com/provable-things/ethereum-api/contracts/solc-v0.5.x/provableAPI.sol\":12162:12226  (address(OAR) == address(0)) || (getCodeSize(address(OAR)) == 0) */\n      dup1\n      tag_92\n      jumpi\n      pop\n        /* \"github.com/provable-things/ethereum-api/contracts/solc-v0.5.x/provableAPI.sol\":12224:12225  0 */\n      0x00\n        /* \"github.com/provable-things/ethereum-api/contracts/solc-v0.5.x/provableAPI.sol\":12195:12220  getCodeSize(address(OAR)) */\n      tag_93\n        /* \"github.com/provable-things/ethereum-api/contracts/solc-v0.5.x/provableAPI.sol\":12215:12218  OAR */\n      0x01\n      0x00\n      swap1\n      sload\n      swap1\n      0x0100\n      exp\n      swap1\n      div\n      0xffffffffffffffffffffffffffffffffffffffff\n      and\n        /* \"github.com/provable-things/ethereum-api/contracts/solc-v0.5.x/provableAPI.sol\":12195:12206  getCodeSize */\n      tag_76\n        /* \"github.com/provable-things/ethereum-api/contracts/solc-v0.5.x/provableAPI.sol\":12195:12220  getCodeSize(address(OAR)) */\n      jump\t// in\n    tag_93:\n        /* \"github.com/provable-things/ethereum-api/contracts/solc-v0.5.x/provableAPI.sol\":12195:12225  getCodeSize(address(OAR)) == 0 */\n      eq\n        /* \"github.com/provable-things/ethereum-api/contracts/solc-v0.5.x/provableAPI.sol\":12162:12226  (address(OAR) == address(0)) || (getCodeSize(address(OAR)) == 0) */\n    tag_92:\n        /* \"github.com/provable-things/ethereum-api/contracts/solc-v0.5.x/provableAPI.sol\":12158:12290  if ((address(OAR) == address(0)) || (getCodeSize(address(OAR)) == 0)) {\r... */\n      iszero\n      tag_94\n      jumpi\n        /* \"github.com/provable-things/ethereum-api/contracts/solc-v0.5.x/provableAPI.sol\":12243:12278  provable_setNetwork(networkID_auto) */\n      tag_95\n        /* \"github.com/provable-things/ethereum-api/contracts/solc-v0.5.x/provableAPI.sol\":11809:11810  0 */\n      0x00\n        /* \"github.com/provable-things/ethereum-api/contracts/solc-v0.5.x/provableAPI.sol\":12243:12262  provable_setNetwork */\n      tag_79\n        /* \"github.com/provable-things/ethereum-api/contracts/solc-v0.5.x/provableAPI.sol\":12243:12278  provable_setNetwork(networkID_auto) */\n      jump\t// in\n    tag_95:\n      pop\n        /* \"github.com/provable-things/ethereum-api/contracts/solc-v0.5.x/provableAPI.sol\":12158:12290  if ((address(OAR) == address(0)) || (getCodeSize(address(OAR)) == 0)) {\r... */\n    tag_94:\n        /* \"github.com/provable-things/ethereum-api/contracts/solc-v0.5.x/provableAPI.sol\":12325:12328  OAR */\n      0x01\n      0x00\n      swap1\n      sload\n      swap1\n      0x0100\n      exp\n      swap1\n      div\n      0xffffffffffffffffffffffffffffffffffffffff\n      and\n        /* \"github.com/provable-things/ethereum-api/contracts/solc-v0.5.x/provableAPI.sol\":12325:12339  OAR.getAddress */\n      0xffffffffffffffffffffffffffffffffffffffff\n      and\n      0x38cc4831\n        /* \"github.com/provable-things/ethereum-api/contracts/solc-v0.5.x/provableAPI.sol\":12325:12341  OAR.getAddress() */\n      mload(0x40)\n      dup2\n      0xffffffff\n      and\n      0xe0\n      shl\n      dup2\n      mstore\n      0x04\n      add\n      0x20\n      mload(0x40)\n      dup1\n      dup4\n      sub\n      dup2\n      0x00\n      dup8\n      dup1\n      extcodesize\n      iszero\n        /* \"--CODEGEN--\":8:17   */\n      dup1\n        /* \"--CODEGEN--\":5:7   */\n      iszero\n      tag_96\n      jumpi\n        /* \"--CODEGEN--\":30:31   */\n      0x00\n        /* \"--CODEGEN--\":27:28   */\n      dup1\n        /* \"--CODEGEN--\":20:32   */\n      revert\n        /* \"--CODEGEN--\":5:7   */\n    tag_96:\n        /* \"github.com/provable-things/ethereum-api/contracts/solc-v0.5.x/provableAPI.sol\":12325:12341  OAR.getAddress() */\n      pop\n      gas\n      call\n      iszero\n        /* \"--CODEGEN--\":8:17   */\n      dup1\n        /* \"--CODEGEN--\":5:7   */\n      iszero\n      tag_97\n      jumpi\n        /* \"--CODEGEN--\":45:61   */\n      returndatasize\n        /* \"--CODEGEN--\":42:43   */\n      0x00\n        /* \"--CODEGEN--\":39:40   */\n      dup1\n        /* \"--CODEGEN--\":24:62   */\n      returndatacopy\n        /* \"--CODEGEN--\":77:93   */\n      returndatasize\n        /* \"--CODEGEN--\":74:75   */\n      0x00\n        /* \"--CODEGEN--\":67:94   */\n      revert\n        /* \"--CODEGEN--\":5:7   */\n    tag_97:\n        /* \"github.com/provable-things/ethereum-api/contracts/solc-v0.5.x/provableAPI.sol\":12325:12341  OAR.getAddress() */\n      pop\n      pop\n      pop\n      pop\n      mload(0x40)\n      returndatasize\n        /* \"--CODEGEN--\":13:15   */\n      0x20\n        /* \"--CODEGEN--\":8:11   */\n      dup2\n        /* \"--CODEGEN--\":5:16   */\n      lt\n        /* \"--CODEGEN--\":2:4   */\n      iszero\n      tag_98\n      jumpi\n        /* \"--CODEGEN--\":29:30   */\n      0x00\n        /* \"--CODEGEN--\":26:27   */\n      dup1\n        /* \"--CODEGEN--\":19:31   */\n      revert\n        /* \"--CODEGEN--\":2:4   */\n    tag_98:\n        /* \"github.com/provable-things/ethereum-api/contracts/solc-v0.5.x/provableAPI.sol\":12325:12341  OAR.getAddress() */\n      dup2\n      add\n      swap1\n      dup1\n      dup1\n      mload\n      swap1\n      0x20\n      add\n      swap1\n      swap3\n      swap2\n      swap1\n      pop\n      pop\n      pop\n        /* \"github.com/provable-things/ethereum-api/contracts/solc-v0.5.x/provableAPI.sol\":12304:12341  address(provable) != OAR.getAddress() */\n      0xffffffffffffffffffffffffffffffffffffffff\n      and\n        /* \"github.com/provable-things/ethereum-api/contracts/solc-v0.5.x/provableAPI.sol\":12312:12320  provable */\n      0x00\n      dup1\n      swap1\n      sload\n      swap1\n      0x0100\n      exp\n      swap1\n      div\n      0xffffffffffffffffffffffffffffffffffffffff\n      and\n        /* \"github.com/provable-things/ethereum-api/contracts/solc-v0.5.x/provableAPI.sol\":12304:12341  address(provable) != OAR.getAddress() */\n      0xffffffffffffffffffffffffffffffffffffffff\n      and\n      eq\n        /* \"github.com/provable-things/ethereum-api/contracts/solc-v0.5.x/provableAPI.sol\":12300:12408  if (address(provable) != OAR.getAddress()) {\r... */\n      tag_99\n      jumpi\n        /* \"github.com/provable-things/ethereum-api/contracts/solc-v0.5.x/provableAPI.sol\":12379:12382  OAR */\n      0x01\n      0x00\n      swap1\n      sload\n      swap1\n      0x0100\n      exp\n      swap1\n      div\n      0xffffffffffffffffffffffffffffffffffffffff\n      and\n        /* \"github.com/provable-things/ethereum-api/contracts/solc-v0.5.x/provableAPI.sol\":12379:12393  OAR.getAddress */\n      0xffffffffffffffffffffffffffffffffffffffff\n      and\n      0x38cc4831\n        /* \"github.com/provable-things/ethereum-api/contracts/solc-v0.5.x/provableAPI.sol\":12379:12395  OAR.getAddress() */\n      mload(0x40)\n      dup2\n      0xffffffff\n      and\n      0xe0\n      shl\n      dup2\n      mstore\n      0x04\n      add\n      0x20\n      mload(0x40)\n      dup1\n      dup4\n      sub\n      dup2\n      0x00\n      dup8\n      dup1\n      extcodesize\n      iszero\n        /* \"--CODEGEN--\":8:17   */\n      dup1\n        /* \"--CODEGEN--\":5:7   */\n      iszero\n      tag_100\n      jumpi\n        /* \"--CODEGEN--\":30:31   */\n      0x00\n        /* \"--CODEGEN--\":27:28   */\n      dup1\n        /* \"--CODEGEN--\":20:32   */\n      revert\n        /* \"--CODEGEN--\":5:7   */\n    tag_100:\n        /* \"github.com/provable-things/ethereum-api/contracts/solc-v0.5.x/provableAPI.sol\":12379:12395  OAR.getAddress() */\n      pop\n      gas\n      call\n      iszero\n        /* \"--CODEGEN--\":8:17   */\n      dup1\n        /* \"--CODEGEN--\":5:7   */\n      iszero\n      tag_101\n      jumpi\n        /* \"--CODEGEN--\":45:61   */\n      returndatasize\n        /* \"--CODEGEN--\":42:43   */\n      0x00\n        /* \"--CODEGEN--\":39:40   */\n      dup1\n        /* \"--CODEGEN--\":24:62   */\n      returndatacopy\n        /* \"--CODEGEN--\":77:93   */\n      returndatasize\n        /* \"--CODEGEN--\":74:75   */\n      0x00\n        /* \"--CODEGEN--\":67:94   */\n      revert\n        /* \"--CODEGEN--\":5:7   */\n    tag_101:\n        /* \"github.com/provable-things/ethereum-api/contracts/solc-v0.5.x/provableAPI.sol\":12379:12395  OAR.getAddress() */\n      pop\n      pop\n      pop\n      pop\n      mload(0x40)\n      returndatasize\n        /* \"--CODEGEN--\":13:15   */\n      0x20\n        /* \"--CODEGEN--\":8:11   */\n      dup2\n        /* \"--CODEGEN--\":5:16   */\n      lt\n        /* \"--CODEGEN--\":2:4   */\n      iszero\n      tag_102\n      jumpi\n        /* \"--CODEGEN--\":29:30   */\n      0x00\n        /* \"--CODEGEN--\":26:27   */\n      dup1\n        /* \"--CODEGEN--\":19:31   */\n      revert\n        /* \"--CODEGEN--\":2:4   */\n    tag_102:\n        /* \"github.com/provable-things/ethereum-api/contracts/solc-v0.5.x/provableAPI.sol\":12379:12395  OAR.getAddress() */\n      dup2\n      add\n      swap1\n      dup1\n      dup1\n      mload\n      swap1\n      0x20\n      add\n      swap1\n      swap3\n      swap2\n      swap1\n      pop\n      pop\n      pop\n        /* \"github.com/provable-things/ethereum-api/contracts/solc-v0.5.x/provableAPI.sol\":12358:12366  provable */\n      0x00\n      dup1\n        /* \"github.com/provable-things/ethereum-api/contracts/solc-v0.5.x/provableAPI.sol\":12358:12396  provable = ProvableI(OAR.getAddress()) */\n      0x0100\n      exp\n      dup2\n      sload\n      dup2\n      0xffffffffffffffffffffffffffffffffffffffff\n      mul\n      not\n      and\n      swap1\n      dup4\n      0xffffffffffffffffffffffffffffffffffffffff\n      and\n      mul\n      or\n      swap1\n      sstore\n      pop\n        /* \"github.com/provable-things/ethereum-api/contracts/solc-v0.5.x/provableAPI.sol\":12300:12408  if (address(provable) != OAR.getAddress()) {\r... */\n    tag_99:\n        /* \"github.com/provable-things/ethereum-api/contracts/solc-v0.5.x/provableAPI.sol\":16693:16701  provable */\n      0x00\n      dup1\n      swap1\n      sload\n      swap1\n      0x0100\n      exp\n      swap1\n      div\n      0xffffffffffffffffffffffffffffffffffffffff\n      and\n        /* \"github.com/provable-things/ethereum-api/contracts/solc-v0.5.x/provableAPI.sol\":16693:16710  provable.getPrice */\n      0xffffffffffffffffffffffffffffffffffffffff\n      and\n      0x524f3889\n        /* \"github.com/provable-things/ethereum-api/contracts/solc-v0.5.x/provableAPI.sol\":16711:16722  _datasource */\n      dup4\n        /* \"github.com/provable-things/ethereum-api/contracts/solc-v0.5.x/provableAPI.sol\":16693:16723  provable.getPrice(_datasource) */\n      mload(0x40)\n      dup3\n      0xffffffff\n      and\n      0xe0\n      shl\n      dup2\n      mstore\n      0x04\n      add\n      dup1\n      dup1\n      0x20\n      add\n      dup3\n      dup2\n      sub\n      dup3\n      mstore\n      dup4\n      dup2\n      dup2\n      mload\n      dup2\n      mstore\n      0x20\n      add\n      swap2\n      pop\n      dup1\n      mload\n      swap1\n      0x20\n      add\n      swap1\n      dup1\n      dup4\n      dup4\n        /* \"--CODEGEN--\":23:24   */\n      0x00\n        /* \"--CODEGEN--\":8:108   */\n    tag_104:\n        /* \"--CODEGEN--\":33:36   */\n      dup4\n        /* \"--CODEGEN--\":30:31   */\n      dup2\n        /* \"--CODEGEN--\":27:37   */\n      lt\n        /* \"--CODEGEN--\":8:108   */\n      iszero\n      tag_106\n      jumpi\n        /* \"--CODEGEN--\":99:100   */\n      dup1\n        /* \"--CODEGEN--\":94:97   */\n      dup3\n        /* \"--CODEGEN--\":90:101   */\n      add\n        /* \"--CODEGEN--\":84:102   */\n      mload\n        /* \"--CODEGEN--\":80:81   */\n      dup2\n        /* \"--CODEGEN--\":75:78   */\n      dup5\n        /* \"--CODEGEN--\":71:82   */\n      add\n        /* \"--CODEGEN--\":64:103   */\n      mstore\n        /* \"--CODEGEN--\":52:54   */\n      0x20\n        /* \"--CODEGEN--\":49:50   */\n      dup2\n        /* \"--CODEGEN--\":45:55   */\n      add\n        /* \"--CODEGEN--\":40:55   */\n      swap1\n      pop\n        /* \"--CODEGEN--\":8:108   */\n      jump(tag_104)\n    tag_106:\n        /* \"--CODEGEN--\":12:26   */\n      pop\n        /* \"github.com/provable-things/ethereum-api/contracts/solc-v0.5.x/provableAPI.sol\":16693:16723  provable.getPrice(_datasource) */\n      pop\n      pop\n      pop\n      swap1\n      pop\n      swap1\n      dup2\n      add\n      swap1\n      0x1f\n      and\n      dup1\n      iszero\n      tag_107\n      jumpi\n      dup1\n      dup3\n      sub\n      dup1\n      mload\n      0x01\n      dup4\n      0x20\n      sub\n      0x0100\n      exp\n      sub\n      not\n      and\n      dup2\n      mstore\n      0x20\n      add\n      swap2\n      pop\n    tag_107:\n      pop\n      swap3\n      pop\n      pop\n      pop\n      0x20\n      mload(0x40)\n      dup1\n      dup4\n      sub\n      dup2\n      0x00\n      dup8\n      dup1\n      extcodesize\n      iszero\n        /* \"--CODEGEN--\":8:17   */\n      dup1\n        /* \"--CODEGEN--\":5:7   */\n      iszero\n      tag_108\n      jumpi\n        /* \"--CODEGEN--\":30:31   */\n      0x00\n        /* \"--CODEGEN--\":27:28   */\n      dup1\n        /* \"--CODEGEN--\":20:32   */\n      revert\n        /* \"--CODEGEN--\":5:7   */\n    tag_108:\n        /* \"github.com/provable-things/ethereum-api/contracts/solc-v0.5.x/provableAPI.sol\":16693:16723  provable.getPrice(_datasource) */\n      pop\n      gas\n      call\n      iszero\n        /* \"--CODEGEN--\":8:17   */\n      dup1\n        /* \"--CODEGEN--\":5:7   */\n      iszero\n      tag_109\n      jumpi\n        /* \"--CODEGEN--\":45:61   */\n      returndatasize\n        /* \"--CODEGEN--\":42:43   */\n      0x00\n        /* \"--CODEGEN--\":39:40   */\n      dup1\n        /* \"--CODEGEN--\":24:62   */\n      returndatacopy\n        /* \"--CODEGEN--\":77:93   */\n      returndatasize\n        /* \"--CODEGEN--\":74:75   */\n      0x00\n        /* \"--CODEGEN--\":67:94   */\n      revert\n        /* \"--CODEGEN--\":5:7   */\n    tag_109:\n        /* \"github.com/provable-things/ethereum-api/contracts/solc-v0.5.x/provableAPI.sol\":16693:16723  provable.getPrice(_datasource) */\n      pop\n      pop\n      pop\n      pop\n      mload(0x40)\n      returndatasize\n        /* \"--CODEGEN--\":13:15   */\n      0x20\n        /* \"--CODEGEN--\":8:11   */\n      dup2\n        /* \"--CODEGEN--\":5:16   */\n      lt\n        /* \"--CODEGEN--\":2:4   */\n      iszero\n      tag_110\n      jumpi\n        /* \"--CODEGEN--\":29:30   */\n      0x00\n        /* \"--CODEGEN--\":26:27   */\n      dup1\n        /* \"--CODEGEN--\":19:31   */\n      revert\n        /* \"--CODEGEN--\":2:4   */\n    tag_110:\n        /* \"github.com/provable-things/ethereum-api/contracts/solc-v0.5.x/provableAPI.sol\":16693:16723  provable.getPrice(_datasource) */\n      dup2\n      add\n      swap1\n      dup1\n      dup1\n      mload\n      swap1\n      0x20\n      add\n      swap1\n      swap3\n      swap2\n      swap1\n      pop\n      pop\n      pop\n        /* \"github.com/provable-things/ethereum-api/contracts/solc-v0.5.x/provableAPI.sol\":16686:16723  return provable.getPrice(_datasource) */\n      swap1\n      pop\n        /* \"github.com/provable-things/ethereum-api/contracts/solc-v0.5.x/provableAPI.sol\":16573:16731  function provable_getPrice(string memory _datasource) provableAPI internal returns (uint _queryPrice) {\r... */\n      swap2\n      swap1\n      pop\n      jump\t// out\n        /* \"github.com/provable-things/ethereum-api/contracts/solc-v0.5.x/provableAPI.sol\":16932:17291  function provable_query(string memory _datasource, string memory _arg) provableAPI internal returns (bytes32 _id) {\r... */\n    tag_65:\n        /* \"github.com/provable-things/ethereum-api/contracts/solc-v0.5.x/provableAPI.sol\":17033:17044  bytes32 _id */\n      0x00\n        /* \"github.com/provable-things/ethereum-api/contracts/solc-v0.5.x/provableAPI.sol\":12187:12188  0 */\n      dup1\n        /* \"github.com/provable-things/ethereum-api/contracts/solc-v0.5.x/provableAPI.sol\":12163:12189  address(OAR) == address(0) */\n      0xffffffffffffffffffffffffffffffffffffffff\n      and\n        /* \"github.com/provable-things/ethereum-api/contracts/solc-v0.5.x/provableAPI.sol\":12171:12174  OAR */\n      0x01\n      0x00\n      swap1\n      sload\n      swap1\n      0x0100\n      exp\n      swap1\n      div\n      0xffffffffffffffffffffffffffffffffffffffff\n      and\n        /* \"github.com/provable-things/ethereum-api/contracts/solc-v0.5.x/provableAPI.sol\":12163:12189  address(OAR) == address(0) */\n      0xffffffffffffffffffffffffffffffffffffffff\n      and\n      eq\n        /* \"github.com/provable-things/ethereum-api/contracts/solc-v0.5.x/provableAPI.sol\":12162:12226  (address(OAR) == address(0)) || (getCodeSize(address(OAR)) == 0) */\n      dup1\n      tag_112\n      jumpi\n      pop\n        /* \"github.com/provable-things/ethereum-api/contracts/solc-v0.5.x/provableAPI.sol\":12224:12225  0 */\n      0x00\n        /* \"github.com/provable-things/ethereum-api/contracts/solc-v0.5.x/provableAPI.sol\":12195:12220  getCodeSize(address(OAR)) */\n      tag_113\n        /* \"github.com/provable-things/ethereum-api/contracts/solc-v0.5.x/provableAPI.sol\":12215:12218  OAR */\n      0x01\n      0x00\n      swap1\n      sload\n      swap1\n      0x0100\n      exp\n      swap1\n      div\n      0xffffffffffffffffffffffffffffffffffffffff\n      and\n        /* \"github.com/provable-things/ethereum-api/contracts/solc-v0.5.x/provableAPI.sol\":12195:12206  getCodeSize */\n      tag_76\n        /* \"github.com/provable-things/ethereum-api/contracts/solc-v0.5.x/provableAPI.sol\":12195:12220  getCodeSize(address(OAR)) */\n      jump\t// in\n    tag_113:\n        /* \"github.com/provable-things/ethereum-api/contracts/solc-v0.5.x/provableAPI.sol\":12195:12225  getCodeSize(address(OAR)) == 0 */\n      eq\n        /* \"github.com/provable-things/ethereum-api/contracts/solc-v0.5.x/provableAPI.sol\":12162:12226  (address(OAR) == address(0)) || (getCodeSize(address(OAR)) == 0) */\n    tag_112:\n        /* \"github.com/provable-things/ethereum-api/contracts/solc-v0.5.x/provableAPI.sol\":12158:12290  if ((address(OAR) == address(0)) || (getCodeSize(address(OAR)) == 0)) {\r... */\n      iszero\n      tag_114\n      jumpi\n        /* \"github.com/provable-things/ethereum-api/contracts/solc-v0.5.x/provableAPI.sol\":12243:12278  provable_setNetwork(networkID_auto) */\n      tag_115\n        /* \"github.com/provable-things/ethereum-api/contracts/solc-v0.5.x/provableAPI.sol\":11809:11810  0 */\n      0x00\n        /* \"github.com/provable-things/ethereum-api/contracts/solc-v0.5.x/provableAPI.sol\":12243:12262  provable_setNetwork */\n      tag_79\n        /* \"github.com/provable-things/ethereum-api/contracts/solc-v0.5.x/provableAPI.sol\":12243:12278  provable_setNetwork(networkID_auto) */\n      jump\t// in\n    tag_115:\n      pop\n        /* \"github.com/provable-things/ethereum-api/contracts/solc-v0.5.x/provableAPI.sol\":12158:12290  if ((address(OAR) == address(0)) || (getCodeSize(address(OAR)) == 0)) {\r... */\n    tag_114:\n        /* \"github.com/provable-things/ethereum-api/contracts/solc-v0.5.x/provableAPI.sol\":12325:12328  OAR */\n      0x01\n      0x00\n      swap1\n      sload\n      swap1\n      0x0100\n      exp\n      swap1\n      div\n      0xffffffffffffffffffffffffffffffffffffffff\n      and\n        /* \"github.com/provable-things/ethereum-api/contracts/solc-v0.5.x/provableAPI.sol\":12325:12339  OAR.getAddress */\n      0xffffffffffffffffffffffffffffffffffffffff\n      and\n      0x38cc4831\n        /* \"github.com/provable-things/ethereum-api/contracts/solc-v0.5.x/provableAPI.sol\":12325:12341  OAR.getAddress() */\n      mload(0x40)\n      dup2\n      0xffffffff\n      and\n      0xe0\n      shl\n      dup2\n      mstore\n      0x04\n      add\n      0x20\n      mload(0x40)\n      dup1\n      dup4\n      sub\n      dup2\n      0x00\n      dup8\n      dup1\n      extcodesize\n      iszero\n        /* \"--CODEGEN--\":8:17   */\n      dup1\n        /* \"--CODEGEN--\":5:7   */\n      iszero\n      tag_116\n      jumpi\n        /* \"--CODEGEN--\":30:31   */\n      0x00\n        /* \"--CODEGEN--\":27:28   */\n      dup1\n        /* \"--CODEGEN--\":20:32   */\n      revert\n        /* \"--CODEGEN--\":5:7   */\n    tag_116:\n        /* \"github.com/provable-things/ethereum-api/contracts/solc-v0.5.x/provableAPI.sol\":12325:12341  OAR.getAddress() */\n      pop\n      gas\n      call\n      iszero\n        /* \"--CODEGEN--\":8:17   */\n      dup1\n        /* \"--CODEGEN--\":5:7   */\n      iszero\n      tag_117\n      jumpi\n        /* \"--CODEGEN--\":45:61   */\n      returndatasize\n        /* \"--CODEGEN--\":42:43   */\n      0x00\n        /* \"--CODEGEN--\":39:40   */\n      dup1\n        /* \"--CODEGEN--\":24:62   */\n      returndatacopy\n        /* \"--CODEGEN--\":77:93   */\n      returndatasize\n        /* \"--CODEGEN--\":74:75   */\n      0x00\n        /* \"--CODEGEN--\":67:94   */\n      revert\n        /* \"--CODEGEN--\":5:7   */\n    tag_117:\n        /* \"github.com/provable-things/ethereum-api/contracts/solc-v0.5.x/provableAPI.sol\":12325:12341  OAR.getAddress() */\n      pop\n      pop\n      pop\n      pop\n      mload(0x40)\n      returndatasize\n        /* \"--CODEGEN--\":13:15   */\n      0x20\n        /* \"--CODEGEN--\":8:11   */\n      dup2\n        /* \"--CODEGEN--\":5:16   */\n      lt\n        /* \"--CODEGEN--\":2:4   */\n      iszero\n      tag_118\n      jumpi\n        /* \"--CODEGEN--\":29:30   */\n      0x00\n        /* \"--CODEGEN--\":26:27   */\n      dup1\n        /* \"--CODEGEN--\":19:31   */\n      revert\n        /* \"--CODEGEN--\":2:4   */\n    tag_118:\n        /* \"github.com/provable-things/ethereum-api/contracts/solc-v0.5.x/provableAPI.sol\":12325:12341  OAR.getAddress() */\n      dup2\n      add\n      swap1\n      dup1\n      dup1\n      mload\n      swap1\n      0x20\n      add\n      swap1\n      swap3\n      swap2\n      swap1\n      pop\n      pop\n      pop\n        /* \"github.com/provable-things/ethereum-api/contracts/solc-v0.5.x/provableAPI.sol\":12304:12341  address(provable) != OAR.getAddress() */\n      0xffffffffffffffffffffffffffffffffffffffff\n      and\n        /* \"github.com/provable-things/ethereum-api/contracts/solc-v0.5.x/provableAPI.sol\":12312:12320  provable */\n      0x00\n      dup1\n      swap1\n      sload\n      swap1\n      0x0100\n      exp\n      swap1\n      div\n      0xffffffffffffffffffffffffffffffffffffffff\n      and\n        /* \"github.com/provable-things/ethereum-api/contracts/solc-v0.5.x/provableAPI.sol\":12304:12341  address(provable) != OAR.getAddress() */\n      0xffffffffffffffffffffffffffffffffffffffff\n      and\n      eq\n        /* \"github.com/provable-things/ethereum-api/contracts/solc-v0.5.x/provableAPI.sol\":12300:12408  if (address(provable) != OAR.getAddress()) {\r... */\n      tag_119\n      jumpi\n        /* \"github.com/provable-things/ethereum-api/contracts/solc-v0.5.x/provableAPI.sol\":12379:12382  OAR */\n      0x01\n      0x00\n      swap1\n      sload\n      swap1\n      0x0100\n      exp\n      swap1\n      div\n      0xffffffffffffffffffffffffffffffffffffffff\n      and\n        /* \"github.com/provable-things/ethereum-api/contracts/solc-v0.5.x/provableAPI.sol\":12379:12393  OAR.getAddress */\n      0xffffffffffffffffffffffffffffffffffffffff\n      and\n      0x38cc4831\n        /* \"github.com/provable-things/ethereum-api/contracts/solc-v0.5.x/provableAPI.sol\":12379:12395  OAR.getAddress() */\n      mload(0x40)\n      dup2\n      0xffffffff\n      and\n      0xe0\n      shl\n      dup2\n      mstore\n      0x04\n      add\n      0x20\n      mload(0x40)\n      dup1\n      dup4\n      sub\n      dup2\n      0x00\n      dup8\n      dup1\n      extcodesize\n      iszero\n        /* \"--CODEGEN--\":8:17   */\n      dup1\n        /* \"--CODEGEN--\":5:7   */\n      iszero\n      tag_120\n      jumpi\n        /* \"--CODEGEN--\":30:31   */\n      0x00\n        /* \"--CODEGEN--\":27:28   */\n      dup1\n        /* \"--CODEGEN--\":20:32   */\n      revert\n        /* \"--CODEGEN--\":5:7   */\n    tag_120:\n        /* \"github.com/provable-things/ethereum-api/contracts/solc-v0.5.x/provableAPI.sol\":12379:12395  OAR.getAddress() */\n      pop\n      gas\n      call\n      iszero\n        /* \"--CODEGEN--\":8:17   */\n      dup1\n        /* \"--CODEGEN--\":5:7   */\n      iszero\n      tag_121\n      jumpi\n        /* \"--CODEGEN--\":45:61   */\n      returndatasize\n        /* \"--CODEGEN--\":42:43   */\n      0x00\n        /* \"--CODEGEN--\":39:40   */\n      dup1\n        /* \"--CODEGEN--\":24:62   */\n      returndatacopy\n        /* \"--CODEGEN--\":77:93   */\n      returndatasize\n        /* \"--CODEGEN--\":74:75   */\n      0x00\n        /* \"--CODEGEN--\":67:94   */\n      revert\n        /* \"--CODEGEN--\":5:7   */\n    tag_121:\n        /* \"github.com/provable-things/ethereum-api/contracts/solc-v0.5.x/provableAPI.sol\":12379:12395  OAR.getAddress() */\n      pop\n      pop\n      pop\n      pop\n      mload(0x40)\n      returndatasize\n        /* \"--CODEGEN--\":13:15   */\n      0x20\n        /* \"--CODEGEN--\":8:11   */\n      dup2\n        /* \"--CODEGEN--\":5:16   */\n      lt\n        /* \"--CODEGEN--\":2:4   */\n      iszero\n      tag_122\n      jumpi\n        /* \"--CODEGEN--\":29:30   */\n      0x00\n        /* \"--CODEGEN--\":26:27   */\n      dup1\n        /* \"--CODEGEN--\":19:31   */\n      revert\n        /* \"--CODEGEN--\":2:4   */\n    tag_122:\n        /* \"github.com/provable-things/ethereum-api/contracts/solc-v0.5.x/provableAPI.sol\":12379:12395  OAR.getAddress() */\n      dup2\n      add\n      swap1\n      dup1\n      dup1\n      mload\n      swap1\n      0x20\n      add\n      swap1\n      swap3\n      swap2\n      swap1\n      pop\n      pop\n      pop\n        /* \"github.com/provable-things/ethereum-api/contracts/solc-v0.5.x/provableAPI.sol\":12358:12366  provable */\n      0x00\n      dup1\n        /* \"github.com/provable-things/ethereum-api/contracts/solc-v0.5.x/provableAPI.sol\":12358:12396  provable = ProvableI(OAR.getAddress()) */\n      0x0100\n      exp\n      dup2\n      sload\n      dup2\n      0xffffffffffffffffffffffffffffffffffffffff\n      mul\n      not\n      and\n      swap1\n      dup4\n      0xffffffffffffffffffffffffffffffffffffffff\n      and\n      mul\n      or\n      swap1\n      sstore\n      pop\n        /* \"github.com/provable-things/ethereum-api/contracts/solc-v0.5.x/provableAPI.sol\":12300:12408  if (address(provable) != OAR.getAddress()) {\r... */\n    tag_119:\n        /* \"github.com/provable-things/ethereum-api/contracts/solc-v0.5.x/provableAPI.sol\":17057:17067  uint price */\n      0x00\n        /* \"github.com/provable-things/ethereum-api/contracts/solc-v0.5.x/provableAPI.sol\":17070:17078  provable */\n      dup1\n      0x00\n      swap1\n      sload\n      swap1\n      0x0100\n      exp\n      swap1\n      div\n      0xffffffffffffffffffffffffffffffffffffffff\n      and\n        /* \"github.com/provable-things/ethereum-api/contracts/solc-v0.5.x/provableAPI.sol\":17070:17087  provable.getPrice */\n      0xffffffffffffffffffffffffffffffffffffffff\n      and\n      0x524f3889\n        /* \"github.com/provable-things/ethereum-api/contracts/solc-v0.5.x/provableAPI.sol\":17088:17099  _datasource */\n      dup6\n        /* \"github.com/provable-things/ethereum-api/contracts/solc-v0.5.x/provableAPI.sol\":17070:17100  provable.getPrice(_datasource) */\n      mload(0x40)\n      dup3\n      0xffffffff\n      and\n      0xe0\n      shl\n      dup2\n      mstore\n      0x04\n      add\n      dup1\n      dup1\n      0x20\n      add\n      dup3\n      dup2\n      sub\n      dup3\n      mstore\n      dup4\n      dup2\n      dup2\n      mload\n      dup2\n      mstore\n      0x20\n      add\n      swap2\n      pop\n      dup1\n      mload\n      swap1\n      0x20\n      add\n      swap1\n      dup1\n      dup4\n      dup4\n        /* \"--CODEGEN--\":23:24   */\n      0x00\n        /* \"--CODEGEN--\":8:108   */\n    tag_124:\n        /* \"--CODEGEN--\":33:36   */\n      dup4\n        /* \"--CODEGEN--\":30:31   */\n      dup2\n        /* \"--CODEGEN--\":27:37   */\n      lt\n        /* \"--CODEGEN--\":8:108   */\n      iszero\n      tag_126\n      jumpi\n        /* \"--CODEGEN--\":99:100   */\n      dup1\n        /* \"--CODEGEN--\":94:97   */\n      dup3\n        /* \"--CODEGEN--\":90:101   */\n      add\n        /* \"--CODEGEN--\":84:102   */\n      mload\n        /* \"--CODEGEN--\":80:81   */\n      dup2\n        /* \"--CODEGEN--\":75:78   */\n      dup5\n        /* \"--CODEGEN--\":71:82   */\n      add\n        /* \"--CODEGEN--\":64:103   */\n      mstore\n        /* \"--CODEGEN--\":52:54   */\n      0x20\n        /* \"--CODEGEN--\":49:50   */\n      dup2\n        /* \"--CODEGEN--\":45:55   */\n      add\n        /* \"--CODEGEN--\":40:55   */\n      swap1\n      pop\n        /* \"--CODEGEN--\":8:108   */\n      jump(tag_124)\n    tag_126:\n        /* \"--CODEGEN--\":12:26   */\n      pop\n        /* \"github.com/provable-things/ethereum-api/contracts/solc-v0.5.x/provableAPI.sol\":17070:17100  provable.getPrice(_datasource) */\n      pop\n      pop\n      pop\n      swap1\n      pop\n      swap1\n      dup2\n      add\n      swap1\n      0x1f\n      and\n      dup1\n      iszero\n      tag_127\n      jumpi\n      dup1\n      dup3\n      sub\n      dup1\n      mload\n      0x01\n      dup4\n      0x20\n      sub\n      0x0100\n      exp\n      sub\n      not\n      and\n      dup2\n      mstore\n      0x20\n      add\n      swap2\n      pop\n    tag_127:\n      pop\n      swap3\n      pop\n      pop\n      pop\n      0x20\n      mload(0x40)\n      dup1\n      dup4\n      sub\n      dup2\n      0x00\n      dup8\n      dup1\n      extcodesize\n      iszero\n        /* \"--CODEGEN--\":8:17   */\n      dup1\n        /* \"--CODEGEN--\":5:7   */\n      iszero\n      tag_128\n      jumpi\n        /* \"--CODEGEN--\":30:31   */\n      0x00\n        /* \"--CODEGEN--\":27:28   */\n      dup1\n        /* \"--CODEGEN--\":20:32   */\n      revert\n        /* \"--CODEGEN--\":5:7   */\n    tag_128:\n        /* \"github.com/provable-things/ethereum-api/contracts/solc-v0.5.x/provableAPI.sol\":17070:17100  provable.getPrice(_datasource) */\n      pop\n      gas\n      call\n      iszero\n        /* \"--CODEGEN--\":8:17   */\n      dup1\n        /* \"--CODEGEN--\":5:7   */\n      iszero\n      tag_129\n      jumpi\n        /* \"--CODEGEN--\":45:61   */\n      returndatasize\n        /* \"--CODEGEN--\":42:43   */\n      0x00\n        /* \"--CODEGEN--\":39:40   */\n      dup1\n        /* \"--CODEGEN--\":24:62   */\n      returndatacopy\n        /* \"--CODEGEN--\":77:93   */\n      returndatasize\n        /* \"--CODEGEN--\":74:75   */\n      0x00\n        /* \"--CODEGEN--\":67:94   */\n      revert\n        /* \"--CODEGEN--\":5:7   */\n    tag_129:\n        /* \"github.com/provable-things/ethereum-api/contracts/solc-v0.5.x/provableAPI.sol\":17070:17100  provable.getPrice(_datasource) */\n      pop\n      pop\n      pop\n      pop\n      mload(0x40)\n      returndatasize\n        /* \"--CODEGEN--\":13:15   */\n      0x20\n        /* \"--CODEGEN--\":8:11   */\n      dup2\n        /* \"--CODEGEN--\":5:16   */\n      lt\n        /* \"--CODEGEN--\":2:4   */\n      iszero\n      tag_130\n      jumpi\n        /* \"--CODEGEN--\":29:30   */\n      0x00\n        /* \"--CODEGEN--\":26:27   */\n      dup1\n        /* \"--CODEGEN--\":19:31   */\n      revert\n        /* \"--CODEGEN--\":2:4   */\n    tag_130:\n        /* \"github.com/provable-things/ethereum-api/contracts/solc-v0.5.x/provableAPI.sol\":17070:17100  provable.getPrice(_datasource) */\n      dup2\n      add\n      swap1\n      dup1\n      dup1\n      mload\n      swap1\n      0x20\n      add\n      swap1\n      swap3\n      swap2\n      swap1\n      pop\n      pop\n      pop\n        /* \"github.com/provable-things/ethereum-api/contracts/solc-v0.5.x/provableAPI.sol\":17057:17100  uint price = provable.getPrice(_datasource) */\n      swap1\n      pop\n        /* \"github.com/provable-things/ethereum-api/contracts/solc-v0.5.x/provableAPI.sol\":17147:17153  200000 */\n      0x030d40\n        /* \"github.com/provable-things/ethereum-api/contracts/solc-v0.5.x/provableAPI.sol\":17133:17144  tx.gasprice */\n      gasprice\n        /* \"github.com/provable-things/ethereum-api/contracts/solc-v0.5.x/provableAPI.sol\":17133:17153  tx.gasprice * 200000 */\n      mul\n        /* \"github.com/provable-things/ethereum-api/contracts/solc-v0.5.x/provableAPI.sol\":17123:17130  1 ether */\n      0x0de0b6b3a7640000\n        /* \"github.com/provable-things/ethereum-api/contracts/solc-v0.5.x/provableAPI.sol\":17123:17153  1 ether + tx.gasprice * 200000 */\n      add\n        /* \"github.com/provable-things/ethereum-api/contracts/solc-v0.5.x/provableAPI.sol\":17115:17120  price */\n      dup2\n        /* \"github.com/provable-things/ethereum-api/contracts/solc-v0.5.x/provableAPI.sol\":17115:17153  price > 1 ether + tx.gasprice * 200000 */\n      gt\n        /* \"github.com/provable-things/ethereum-api/contracts/solc-v0.5.x/provableAPI.sol\":17111:17217  if (price > 1 ether + tx.gasprice * 200000) {\r... */\n      iszero\n      tag_131\n      jumpi\n        /* \"github.com/provable-things/ethereum-api/contracts/solc-v0.5.x/provableAPI.sol\":17177:17178  0 */\n      0x00\n        /* \"github.com/provable-things/ethereum-api/contracts/solc-v0.5.x/provableAPI.sol\":17170:17178  return 0 */\n      dup1\n      shl\n      swap2\n      pop\n      pop\n      jump(tag_123)\n        /* \"github.com/provable-things/ethereum-api/contracts/solc-v0.5.x/provableAPI.sol\":17111:17217  if (price > 1 ether + tx.gasprice * 200000) {\r... */\n    tag_131:\n        /* \"github.com/provable-things/ethereum-api/contracts/solc-v0.5.x/provableAPI.sol\":17234:17242  provable */\n      0x00\n      dup1\n      swap1\n      sload\n      swap1\n      0x0100\n      exp\n      swap1\n      div\n      0xffffffffffffffffffffffffffffffffffffffff\n      and\n        /* \"github.com/provable-things/ethereum-api/contracts/solc-v0.5.x/provableAPI.sol\":17234:17248  provable.query */\n      0xffffffffffffffffffffffffffffffffffffffff\n      and\n      0xadf59f99\n        /* \"github.com/provable-things/ethereum-api/contracts/solc-v0.5.x/provableAPI.sol\":17255:17260  price */\n      dup3\n        /* \"github.com/provable-things/ethereum-api/contracts/solc-v0.5.x/provableAPI.sol\":17262:17263  0 */\n      0x00\n        /* \"github.com/provable-things/ethereum-api/contracts/solc-v0.5.x/provableAPI.sol\":17265:17276  _datasource */\n      dup8\n        /* \"github.com/provable-things/ethereum-api/contracts/solc-v0.5.x/provableAPI.sol\":17278:17282  _arg */\n      dup8\n        /* \"github.com/provable-things/ethereum-api/contracts/solc-v0.5.x/provableAPI.sol\":17234:17283  provable.query.value(price)(0, _datasource, _arg) */\n      mload(0x40)\n      dup6\n      0xffffffff\n      and\n      0xe0\n      shl\n      dup2\n      mstore\n      0x04\n      add\n      dup1\n      dup5\n      dup2\n      mstore\n      0x20\n      add\n      dup1\n      0x20\n      add\n      dup1\n      0x20\n      add\n      dup4\n      dup2\n      sub\n      dup4\n      mstore\n      dup6\n      dup2\n      dup2\n      mload\n      dup2\n      mstore\n      0x20\n      add\n      swap2\n      pop\n      dup1\n      mload\n      swap1\n      0x20\n      add\n      swap1\n      dup1\n      dup4\n      dup4\n        /* \"--CODEGEN--\":23:24   */\n      0x00\n        /* \"--CODEGEN--\":8:108   */\n    tag_132:\n        /* \"--CODEGEN--\":33:36   */\n      dup4\n        /* \"--CODEGEN--\":30:31   */\n      dup2\n        /* \"--CODEGEN--\":27:37   */\n      lt\n        /* \"--CODEGEN--\":8:108   */\n      iszero\n      tag_134\n      jumpi\n        /* \"--CODEGEN--\":99:100   */\n      dup1\n        /* \"--CODEGEN--\":94:97   */\n      dup3\n        /* \"--CODEGEN--\":90:101   */\n      add\n        /* \"--CODEGEN--\":84:102   */\n      mload\n        /* \"--CODEGEN--\":80:81   */\n      dup2\n        /* \"--CODEGEN--\":75:78   */\n      dup5\n        /* \"--CODEGEN--\":71:82   */\n      add\n        /* \"--CODEGEN--\":64:103   */\n      mstore\n        /* \"--CODEGEN--\":52:54   */\n      0x20\n        /* \"--CODEGEN--\":49:50   */\n      dup2\n        /* \"--CODEGEN--\":45:55   */\n      add\n        /* \"--CODEGEN--\":40:55   */\n      swap1\n      pop\n        /* \"--CODEGEN--\":8:108   */\n      jump(tag_132)\n    tag_134:\n        /* \"--CODEGEN--\":12:26   */\n      pop\n        /* \"github.com/provable-things/ethereum-api/contracts/solc-v0.5.x/provableAPI.sol\":17234:17283  provable.query.value(price)(0, _datasource, _arg) */\n      pop\n      pop\n      pop\n      swap1\n      pop\n      swap1\n      dup2\n      add\n      swap1\n      0x1f\n      and\n      dup1\n      iszero\n      tag_135\n      jumpi\n      dup1\n      dup3\n      sub\n      dup1\n      mload\n      0x01\n      dup4\n      0x20\n      sub\n      0x0100\n      exp\n      sub\n      not\n      and\n      dup2\n      mstore\n      0x20\n      add\n      swap2\n      pop\n    tag_135:\n      pop\n      dup4\n      dup2\n      sub\n      dup3\n      mstore\n      dup5\n      dup2\n      dup2\n      mload\n      dup2\n      mstore\n      0x20\n      add\n      swap2\n      pop\n      dup1\n      mload\n      swap1\n      0x20\n      add\n      swap1\n      dup1\n      dup4\n      dup4\n        /* \"--CODEGEN--\":23:24   */\n      0x00\n        /* \"--CODEGEN--\":8:108   */\n    tag_136:\n        /* \"--CODEGEN--\":33:36   */\n      dup4\n        /* \"--CODEGEN--\":30:31   */\n      dup2\n        /* \"--CODEGEN--\":27:37   */\n      lt\n        /* \"--CODEGEN--\":8:108   */\n      iszero\n      tag_138\n      jumpi\n        /* \"--CODEGEN--\":99:100   */\n      dup1\n        /* \"--CODEGEN--\":94:97   */\n      dup3\n        /* \"--CODEGEN--\":90:101   */\n      add\n        /* \"--CODEGEN--\":84:102   */\n      mload\n        /* \"--CODEGEN--\":80:81   */\n      dup2\n        /* \"--CODEGEN--\":75:78   */\n      dup5\n        /* \"--CODEGEN--\":71:82   */\n      add\n        /* \"--CODEGEN--\":64:103   */\n      mstore\n        /* \"--CODEGEN--\":52:54   */\n      0x20\n        /* \"--CODEGEN--\":49:50   */\n      dup2\n        /* \"--CODEGEN--\":45:55   */\n      add\n        /* \"--CODEGEN--\":40:55   */\n      swap1\n      pop\n        /* \"--CODEGEN--\":8:108   */\n      jump(tag_136)\n    tag_138:\n        /* \"--CODEGEN--\":12:26   */\n      pop\n        /* \"github.com/provable-things/ethereum-api/contracts/solc-v0.5.x/provableAPI.sol\":17234:17283  provable.query.value(price)(0, _datasource, _arg) */\n      pop\n      pop\n      pop\n      swap1\n      pop\n      swap1\n      dup2\n      add\n      swap1\n      0x1f\n      and\n      dup1\n      iszero\n      tag_139\n      jumpi\n      dup1\n      dup3\n      sub\n      dup1\n      mload\n      0x01\n      dup4\n      0x20\n      sub\n      0x0100\n      exp\n      sub\n      not\n      and\n      dup2\n      mstore\n      0x20\n      add\n      swap2\n      pop\n    tag_139:\n      pop\n      swap6\n      pop\n      pop\n      pop\n      pop\n      pop\n      pop\n      0x20\n      mload(0x40)\n      dup1\n      dup4\n      sub\n      dup2\n      dup6\n      dup9\n      dup1\n      extcodesize\n      iszero\n        /* \"--CODEGEN--\":8:17   */\n      dup1\n        /* \"--CODEGEN--\":5:7   */\n      iszero\n      tag_140\n      jumpi\n        /* \"--CODEGEN--\":30:31   */\n      0x00\n        /* \"--CODEGEN--\":27:28   */\n      dup1\n        /* \"--CODEGEN--\":20:32   */\n      revert\n        /* \"--CODEGEN--\":5:7   */\n    tag_140:\n        /* \"github.com/provable-things/ethereum-api/contracts/solc-v0.5.x/provableAPI.sol\":17234:17283  provable.query.value(price)(0, _datasource, _arg) */\n      pop\n      gas\n      call\n      iszero\n        /* \"--CODEGEN--\":8:17   */\n      dup1\n        /* \"--CODEGEN--\":5:7   */\n      iszero\n      tag_141\n      jumpi\n        /* \"--CODEGEN--\":45:61   */\n      returndatasize\n        /* \"--CODEGEN--\":42:43   */\n      0x00\n        /* \"--CODEGEN--\":39:40   */\n      dup1\n        /* \"--CODEGEN--\":24:62   */\n      returndatacopy\n        /* \"--CODEGEN--\":77:93   */\n      returndatasize\n        /* \"--CODEGEN--\":74:75   */\n      0x00\n        /* \"--CODEGEN--\":67:94   */\n      revert\n        /* \"--CODEGEN--\":5:7   */\n    tag_141:\n        /* \"github.com/provable-things/ethereum-api/contracts/solc-v0.5.x/provableAPI.sol\":17234:17283  provable.query.value(price)(0, _datasource, _arg) */\n      pop\n      pop\n      pop\n      pop\n      pop\n      mload(0x40)\n      returndatasize\n        /* \"--CODEGEN--\":13:15   */\n      0x20\n        /* \"--CODEGEN--\":8:11   */\n      dup2\n        /* \"--CODEGEN--\":5:16   */\n      lt\n        /* \"--CODEGEN--\":2:4   */\n      iszero\n      tag_142\n      jumpi\n        /* \"--CODEGEN--\":29:30   */\n      0x00\n        /* \"--CODEGEN--\":26:27   */\n      dup1\n        /* \"--CODEGEN--\":19:31   */\n      revert\n        /* \"--CODEGEN--\":2:4   */\n    tag_142:\n        /* \"github.com/provable-things/ethereum-api/contracts/solc-v0.5.x/provableAPI.sol\":17234:17283  provable.query.value(price)(0, _datasource, _arg) */\n      dup2\n      add\n      swap1\n      dup1\n      dup1\n      mload\n      swap1\n      0x20\n      add\n      swap1\n      swap3\n      swap2\n      swap1\n      pop\n      pop\n      pop\n        /* \"github.com/provable-things/ethereum-api/contracts/solc-v0.5.x/provableAPI.sol\":17227:17283  return provable.query.value(price)(0, _datasource, _arg) */\n      swap2\n      pop\n      pop\n        /* \"github.com/provable-things/ethereum-api/contracts/solc-v0.5.x/provableAPI.sol\":12418:12419  _ */\n    tag_123:\n        /* \"github.com/provable-things/ethereum-api/contracts/solc-v0.5.x/provableAPI.sol\":16932:17291  function provable_query(string memory _datasource, string memory _arg) provableAPI internal returns (bytes32 _id) {\r... */\n      swap3\n      swap2\n      pop\n      pop\n      jump\t// out\n        /* \"github.com/provable-things/ethereum-api/contracts/solc-v0.5.x/provableAPI.sol\":38730:38881  function getCodeSize(address _addr) view internal returns (uint _size) {\r... */\n    tag_76:\n        /* \"github.com/provable-things/ethereum-api/contracts/solc-v0.5.x/provableAPI.sol\":38789:38799  uint _size */\n      0x00\n        /* \"github.com/provable-things/ethereum-api/contracts/solc-v0.5.x/provableAPI.sol\":38857:38862  _addr */\n      dup2\n        /* \"github.com/provable-things/ethereum-api/contracts/solc-v0.5.x/provableAPI.sol\":38845:38863  extcodesize(_addr) */\n      extcodesize\n        /* \"github.com/provable-things/ethereum-api/contracts/solc-v0.5.x/provableAPI.sol\":38836:38863  _size := extcodesize(_addr) */\n      swap1\n      pop\n        /* \"github.com/provable-things/ethereum-api/contracts/solc-v0.5.x/provableAPI.sol\":38821:38874  {\r... */\n      swap2\n      swap1\n      pop\n      jump\t// out\n        /* \"github.com/provable-things/ethereum-api/contracts/solc-v0.5.x/provableAPI.sol\":12912:13120  function provable_setNetwork(uint8 _networkID) internal returns (bool _networkSet) {\r... */\n    tag_79:\n        /* \"github.com/provable-things/ethereum-api/contracts/solc-v0.5.x/provableAPI.sol\":12977:12993  bool _networkSet */\n      0x00\n        /* \"github.com/provable-things/ethereum-api/contracts/solc-v0.5.x/provableAPI.sol\":13091:13112  provable_setNetwork() */\n      tag_145\n        /* \"github.com/provable-things/ethereum-api/contracts/solc-v0.5.x/provableAPI.sol\":13091:13110  provable_setNetwork */\n      tag_146\n        /* \"github.com/provable-things/ethereum-api/contracts/solc-v0.5.x/provableAPI.sol\":13091:13112  provable_setNetwork() */\n      jump\t// in\n    tag_145:\n        /* \"github.com/provable-things/ethereum-api/contracts/solc-v0.5.x/provableAPI.sol\":13084:13112  return provable_setNetwork() */\n      swap1\n      pop\n        /* \"github.com/provable-things/ethereum-api/contracts/solc-v0.5.x/provableAPI.sol\":12912:13120  function provable_setNetwork(uint8 _networkID) internal returns (bool _networkSet) {\r... */\n      swap2\n      swap1\n      pop\n      jump\t// out\n        /* \"github.com/provable-things/ethereum-api/contracts/solc-v0.5.x/provableAPI.sol\":13404:16008  function provable_setNetwork() internal returns (bool _networkSet) {\r... */\n    tag_146:\n        /* \"github.com/provable-things/ethereum-api/contracts/solc-v0.5.x/provableAPI.sol\":13453:13469  bool _networkSet */\n      0x00\n        /* \"github.com/provable-things/ethereum-api/contracts/solc-v0.5.x/provableAPI.sol\":13544:13545  0 */\n      dup1\n        /* \"github.com/provable-things/ethereum-api/contracts/solc-v0.5.x/provableAPI.sol\":13486:13541  getCodeSize(0x1d3B2638a7cC9f2CB3D298A3DA7a90B67E5506ed) */\n      tag_148\n        /* \"github.com/provable-things/ethereum-api/contracts/solc-v0.5.x/provableAPI.sol\":13498:13540  0x1d3B2638a7cC9f2CB3D298A3DA7a90B67E5506ed */\n      0x1d3b2638a7cc9f2cb3d298a3da7a90b67e5506ed\n        /* \"github.com/provable-things/ethereum-api/contracts/solc-v0.5.x/provableAPI.sol\":13486:13497  getCodeSize */\n      tag_76\n        /* \"github.com/provable-things/ethereum-api/contracts/solc-v0.5.x/provableAPI.sol\":13486:13541  getCodeSize(0x1d3B2638a7cC9f2CB3D298A3DA7a90B67E5506ed) */\n      jump\t// in\n    tag_148:\n        /* \"github.com/provable-things/ethereum-api/contracts/solc-v0.5.x/provableAPI.sol\":13486:13545  getCodeSize(0x1d3B2638a7cC9f2CB3D298A3DA7a90B67E5506ed) > 0 */\n      gt\n        /* \"github.com/provable-things/ethereum-api/contracts/solc-v0.5.x/provableAPI.sol\":13482:13732  if (getCodeSize(0x1d3B2638a7cC9f2CB3D298A3DA7a90B67E5506ed) > 0) { //mainnet\r... */\n      iszero\n      tag_149\n      jumpi\n        /* \"github.com/provable-things/ethereum-api/contracts/solc-v0.5.x/provableAPI.sol\":13598:13640  0x1d3B2638a7cC9f2CB3D298A3DA7a90B67E5506ed */\n      0x1d3b2638a7cc9f2cb3d298a3da7a90b67e5506ed\n        /* \"github.com/provable-things/ethereum-api/contracts/solc-v0.5.x/provableAPI.sol\":13572:13575  OAR */\n      0x01\n      0x00\n        /* \"github.com/provable-things/ethereum-api/contracts/solc-v0.5.x/provableAPI.sol\":13572:13641  OAR = OracleAddrResolverI(0x1d3B2638a7cC9f2CB3D298A3DA7a90B67E5506ed) */\n      0x0100\n      exp\n      dup2\n      sload\n      dup2\n      0xffffffffffffffffffffffffffffffffffffffff\n      mul\n      not\n      and\n      swap1\n      dup4\n      0xffffffffffffffffffffffffffffffffffffffff\n      and\n      mul\n      or\n      swap1\n      sstore\n      pop\n        /* \"github.com/provable-things/ethereum-api/contracts/solc-v0.5.x/provableAPI.sol\":13656:13694  provable_setNetworkName(\"eth_mainnet\") */\n      tag_150\n      mload(0x40)\n      dup1\n      0x40\n      add\n      0x40\n      mstore\n      dup1\n      0x0b\n      dup2\n      mstore\n      0x20\n      add\n      0x6574685f6d61696e6e6574000000000000000000000000000000000000000000\n      dup2\n      mstore\n      pop\n        /* \"github.com/provable-things/ethereum-api/contracts/solc-v0.5.x/provableAPI.sol\":13656:13679  provable_setNetworkName */\n      tag_151\n        /* \"github.com/provable-things/ethereum-api/contracts/solc-v0.5.x/provableAPI.sol\":13656:13694  provable_setNetworkName(\"eth_mainnet\") */\n      jump\t// in\n    tag_150:\n        /* \"github.com/provable-things/ethereum-api/contracts/solc-v0.5.x/provableAPI.sol\":13716:13720  true */\n      0x01\n        /* \"github.com/provable-things/ethereum-api/contracts/solc-v0.5.x/provableAPI.sol\":13709:13720  return true */\n      swap1\n      pop\n      jump(tag_147)\n        /* \"github.com/provable-things/ethereum-api/contracts/solc-v0.5.x/provableAPI.sol\":13482:13732  if (getCodeSize(0x1d3B2638a7cC9f2CB3D298A3DA7a90B67E5506ed) > 0) { //mainnet\r... */\n    tag_149:\n        /* \"github.com/provable-things/ethereum-api/contracts/solc-v0.5.x/provableAPI.sol\":13804:13805  0 */\n      0x00\n        /* \"github.com/provable-things/ethereum-api/contracts/solc-v0.5.x/provableAPI.sol\":13746:13801  getCodeSize(0xc03A2615D5efaf5F49F60B7BB6583eaec212fdf1) */\n      tag_152\n        /* \"github.com/provable-things/ethereum-api/contracts/solc-v0.5.x/provableAPI.sol\":13758:13800  0xc03A2615D5efaf5F49F60B7BB6583eaec212fdf1 */\n      0xc03a2615d5efaf5f49f60b7bb6583eaec212fdf1\n        /* \"github.com/provable-things/ethereum-api/contracts/solc-v0.5.x/provableAPI.sol\":13746:13757  getCodeSize */\n      tag_76\n        /* \"github.com/provable-things/ethereum-api/contracts/solc-v0.5.x/provableAPI.sol\":13746:13801  getCodeSize(0xc03A2615D5efaf5F49F60B7BB6583eaec212fdf1) */\n      jump\t// in\n    tag_152:\n        /* \"github.com/provable-things/ethereum-api/contracts/solc-v0.5.x/provableAPI.sol\":13746:13805  getCodeSize(0xc03A2615D5efaf5F49F60B7BB6583eaec212fdf1) > 0 */\n      gt\n        /* \"github.com/provable-things/ethereum-api/contracts/solc-v0.5.x/provableAPI.sol\":13742:14001  if (getCodeSize(0xc03A2615D5efaf5F49F60B7BB6583eaec212fdf1) > 0) { //ropsten testnet\r... */\n      iszero\n      tag_153\n      jumpi\n        /* \"github.com/provable-things/ethereum-api/contracts/solc-v0.5.x/provableAPI.sol\":13866:13908  0xc03A2615D5efaf5F49F60B7BB6583eaec212fdf1 */\n      0xc03a2615d5efaf5f49f60b7bb6583eaec212fdf1\n        /* \"github.com/provable-things/ethereum-api/contracts/solc-v0.5.x/provableAPI.sol\":13840:13843  OAR */\n      0x01\n      0x00\n        /* \"github.com/provable-things/ethereum-api/contracts/solc-v0.5.x/provableAPI.sol\":13840:13909  OAR = OracleAddrResolverI(0xc03A2615D5efaf5F49F60B7BB6583eaec212fdf1) */\n      0x0100\n      exp\n      dup2\n      sload\n      dup2\n      0xffffffffffffffffffffffffffffffffffffffff\n      mul\n      not\n      and\n      swap1\n      dup4\n      0xffffffffffffffffffffffffffffffffffffffff\n      and\n      mul\n      or\n      swap1\n      sstore\n      pop\n        /* \"github.com/provable-things/ethereum-api/contracts/solc-v0.5.x/provableAPI.sol\":13924:13963  provable_setNetworkName(\"eth_ropsten3\") */\n      tag_154\n      mload(0x40)\n      dup1\n      0x40\n      add\n      0x40\n      mstore\n      dup1\n      0x0c\n      dup2\n      mstore\n      0x20\n      add\n      0x6574685f726f707374656e330000000000000000000000000000000000000000\n      dup2\n      mstore\n      pop\n        /* \"github.com/provable-things/ethereum-api/contracts/solc-v0.5.x/provableAPI.sol\":13924:13947  provable_setNetworkName */\n      tag_151\n        /* \"github.com/provable-things/ethereum-api/contracts/solc-v0.5.x/provableAPI.sol\":13924:13963  provable_setNetworkName(\"eth_ropsten3\") */\n      jump\t// in\n    tag_154:\n        /* \"github.com/provable-things/ethereum-api/contracts/solc-v0.5.x/provableAPI.sol\":13985:13989  true */\n      0x01\n        /* \"github.com/provable-things/ethereum-api/contracts/solc-v0.5.x/provableAPI.sol\":13978:13989  return true */\n      swap1\n      pop\n      jump(tag_147)\n        /* \"github.com/provable-things/ethereum-api/contracts/solc-v0.5.x/provableAPI.sol\":13742:14001  if (getCodeSize(0xc03A2615D5efaf5F49F60B7BB6583eaec212fdf1) > 0) { //ropsten testnet\r... */\n    tag_153:\n        /* \"github.com/provable-things/ethereum-api/contracts/solc-v0.5.x/provableAPI.sol\":14073:14074  0 */\n      0x00\n        /* \"github.com/provable-things/ethereum-api/contracts/solc-v0.5.x/provableAPI.sol\":14015:14070  getCodeSize(0xB7A07BcF2Ba2f2703b24C0691b5278999C59AC7e) */\n      tag_155\n        /* \"github.com/provable-things/ethereum-api/contracts/solc-v0.5.x/provableAPI.sol\":14027:14069  0xB7A07BcF2Ba2f2703b24C0691b5278999C59AC7e */\n      0xb7a07bcf2ba2f2703b24c0691b5278999c59ac7e\n        /* \"github.com/provable-things/ethereum-api/contracts/solc-v0.5.x/provableAPI.sol\":14015:14026  getCodeSize */\n      tag_76\n        /* \"github.com/provable-things/ethereum-api/contracts/solc-v0.5.x/provableAPI.sol\":14015:14070  getCodeSize(0xB7A07BcF2Ba2f2703b24C0691b5278999C59AC7e) */\n      jump\t// in\n    tag_155:\n        /* \"github.com/provable-things/ethereum-api/contracts/solc-v0.5.x/provableAPI.sol\":14015:14074  getCodeSize(0xB7A07BcF2Ba2f2703b24C0691b5278999C59AC7e) > 0 */\n      gt\n        /* \"github.com/provable-things/ethereum-api/contracts/solc-v0.5.x/provableAPI.sol\":14011:14265  if (getCodeSize(0xB7A07BcF2Ba2f2703b24C0691b5278999C59AC7e) > 0) { //kovan testnet\r... */\n      iszero\n      tag_156\n      jumpi\n        /* \"github.com/provable-things/ethereum-api/contracts/solc-v0.5.x/provableAPI.sol\":14133:14175  0xB7A07BcF2Ba2f2703b24C0691b5278999C59AC7e */\n      0xb7a07bcf2ba2f2703b24c0691b5278999c59ac7e\n        /* \"github.com/provable-things/ethereum-api/contracts/solc-v0.5.x/provableAPI.sol\":14107:14110  OAR */\n      0x01\n      0x00\n        /* \"github.com/provable-things/ethereum-api/contracts/solc-v0.5.x/provableAPI.sol\":14107:14176  OAR = OracleAddrResolverI(0xB7A07BcF2Ba2f2703b24C0691b5278999C59AC7e) */\n      0x0100\n      exp\n      dup2\n      sload\n      dup2\n      0xffffffffffffffffffffffffffffffffffffffff\n      mul\n      not\n      and\n      swap1\n      dup4\n      0xffffffffffffffffffffffffffffffffffffffff\n      and\n      mul\n      or\n      swap1\n      sstore\n      pop\n        /* \"github.com/provable-things/ethereum-api/contracts/solc-v0.5.x/provableAPI.sol\":14191:14227  provable_setNetworkName(\"eth_kovan\") */\n      tag_157\n      mload(0x40)\n      dup1\n      0x40\n      add\n      0x40\n      mstore\n      dup1\n      0x09\n      dup2\n      mstore\n      0x20\n      add\n      0x6574685f6b6f76616e0000000000000000000000000000000000000000000000\n      dup2\n      mstore\n      pop\n        /* \"github.com/provable-things/ethereum-api/contracts/solc-v0.5.x/provableAPI.sol\":14191:14214  provable_setNetworkName */\n      tag_151\n        /* \"github.com/provable-things/ethereum-api/contracts/solc-v0.5.x/provableAPI.sol\":14191:14227  provable_setNetworkName(\"eth_kovan\") */\n      jump\t// in\n    tag_157:\n        /* \"github.com/provable-things/ethereum-api/contracts/solc-v0.5.x/provableAPI.sol\":14249:14253  true */\n      0x01\n        /* \"github.com/provable-things/ethereum-api/contracts/solc-v0.5.x/provableAPI.sol\":14242:14253  return true */\n      swap1\n      pop\n      jump(tag_147)\n        /* \"github.com/provable-things/ethereum-api/contracts/solc-v0.5.x/provableAPI.sol\":14011:14265  if (getCodeSize(0xB7A07BcF2Ba2f2703b24C0691b5278999C59AC7e) > 0) { //kovan testnet\r... */\n    tag_156:\n        /* \"github.com/provable-things/ethereum-api/contracts/solc-v0.5.x/provableAPI.sol\":14337:14338  0 */\n      0x00\n        /* \"github.com/provable-things/ethereum-api/contracts/solc-v0.5.x/provableAPI.sol\":14279:14334  getCodeSize(0x146500cfd35B22E4A392Fe0aDc06De1a1368Ed48) */\n      tag_158\n        /* \"github.com/provable-things/ethereum-api/contracts/solc-v0.5.x/provableAPI.sol\":14291:14333  0x146500cfd35B22E4A392Fe0aDc06De1a1368Ed48 */\n      0x146500cfd35b22e4a392fe0adc06de1a1368ed48\n        /* \"github.com/provable-things/ethereum-api/contracts/solc-v0.5.x/provableAPI.sol\":14279:14290  getCodeSize */\n      tag_76\n        /* \"github.com/provable-things/ethereum-api/contracts/solc-v0.5.x/provableAPI.sol\":14279:14334  getCodeSize(0x146500cfd35B22E4A392Fe0aDc06De1a1368Ed48) */\n      jump\t// in\n    tag_158:\n        /* \"github.com/provable-things/ethereum-api/contracts/solc-v0.5.x/provableAPI.sol\":14279:14338  getCodeSize(0x146500cfd35B22E4A392Fe0aDc06De1a1368Ed48) > 0 */\n      gt\n        /* \"github.com/provable-things/ethereum-api/contracts/solc-v0.5.x/provableAPI.sol\":14275:14533  if (getCodeSize(0x146500cfd35B22E4A392Fe0aDc06De1a1368Ed48) > 0) { //rinkeby testnet\r... */\n      iszero\n      tag_159\n      jumpi\n        /* \"github.com/provable-things/ethereum-api/contracts/solc-v0.5.x/provableAPI.sol\":14399:14441  0x146500cfd35B22E4A392Fe0aDc06De1a1368Ed48 */\n      0x146500cfd35b22e4a392fe0adc06de1a1368ed48\n        /* \"github.com/provable-things/ethereum-api/contracts/solc-v0.5.x/provableAPI.sol\":14373:14376  OAR */\n      0x01\n      0x00\n        /* \"github.com/provable-things/ethereum-api/contracts/solc-v0.5.x/provableAPI.sol\":14373:14442  OAR = OracleAddrResolverI(0x146500cfd35B22E4A392Fe0aDc06De1a1368Ed48) */\n      0x0100\n      exp\n      dup2\n      sload\n      dup2\n      0xffffffffffffffffffffffffffffffffffffffff\n      mul\n      not\n      and\n      swap1\n      dup4\n      0xffffffffffffffffffffffffffffffffffffffff\n      and\n      mul\n      or\n      swap1\n      sstore\n      pop\n        /* \"github.com/provable-things/ethereum-api/contracts/solc-v0.5.x/provableAPI.sol\":14457:14495  provable_setNetworkName(\"eth_rinkeby\") */\n      tag_160\n      mload(0x40)\n      dup1\n      0x40\n      add\n      0x40\n      mstore\n      dup1\n      0x0b\n      dup2\n      mstore\n      0x20\n      add\n      0x6574685f72696e6b656279000000000000000000000000000000000000000000\n      dup2\n      mstore\n      pop\n        /* \"github.com/provable-things/ethereum-api/contracts/solc-v0.5.x/provableAPI.sol\":14457:14480  provable_setNetworkName */\n      tag_151\n        /* \"github.com/provable-things/ethereum-api/contracts/solc-v0.5.x/provableAPI.sol\":14457:14495  provable_setNetworkName(\"eth_rinkeby\") */\n      jump\t// in\n    tag_160:\n        /* \"github.com/provable-things/ethereum-api/contracts/solc-v0.5.x/provableAPI.sol\":14517:14521  true */\n      0x01\n        /* \"github.com/provable-things/ethereum-api/contracts/solc-v0.5.x/provableAPI.sol\":14510:14521  return true */\n      swap1\n      pop\n      jump(tag_147)\n        /* \"github.com/provable-things/ethereum-api/contracts/solc-v0.5.x/provableAPI.sol\":14275:14533  if (getCodeSize(0x146500cfd35B22E4A392Fe0aDc06De1a1368Ed48) > 0) { //rinkeby testnet\r... */\n    tag_159:\n        /* \"github.com/provable-things/ethereum-api/contracts/solc-v0.5.x/provableAPI.sol\":14605:14606  0 */\n      0x00\n        /* \"github.com/provable-things/ethereum-api/contracts/solc-v0.5.x/provableAPI.sol\":14547:14602  getCodeSize(0xa2998EFD205FB9D4B4963aFb70778D6354ad3A41) */\n      tag_161\n        /* \"github.com/provable-things/ethereum-api/contracts/solc-v0.5.x/provableAPI.sol\":14559:14601  0xa2998EFD205FB9D4B4963aFb70778D6354ad3A41 */\n      0xa2998efd205fb9d4b4963afb70778d6354ad3a41\n        /* \"github.com/provable-things/ethereum-api/contracts/solc-v0.5.x/provableAPI.sol\":14547:14558  getCodeSize */\n      tag_76\n        /* \"github.com/provable-things/ethereum-api/contracts/solc-v0.5.x/provableAPI.sol\":14547:14602  getCodeSize(0xa2998EFD205FB9D4B4963aFb70778D6354ad3A41) */\n      jump\t// in\n    tag_161:\n        /* \"github.com/provable-things/ethereum-api/contracts/solc-v0.5.x/provableAPI.sol\":14547:14606  getCodeSize(0xa2998EFD205FB9D4B4963aFb70778D6354ad3A41) > 0 */\n      gt\n        /* \"github.com/provable-things/ethereum-api/contracts/solc-v0.5.x/provableAPI.sol\":14543:14799  if (getCodeSize(0xa2998EFD205FB9D4B4963aFb70778D6354ad3A41) > 0) { //goerli testnet\r... */\n      iszero\n      tag_162\n      jumpi\n        /* \"github.com/provable-things/ethereum-api/contracts/solc-v0.5.x/provableAPI.sol\":14666:14708  0xa2998EFD205FB9D4B4963aFb70778D6354ad3A41 */\n      0xa2998efd205fb9d4b4963afb70778d6354ad3a41\n        /* \"github.com/provable-things/ethereum-api/contracts/solc-v0.5.x/provableAPI.sol\":14640:14643  OAR */\n      0x01\n      0x00\n        /* \"github.com/provable-things/ethereum-api/contracts/solc-v0.5.x/provableAPI.sol\":14640:14709  OAR = OracleAddrResolverI(0xa2998EFD205FB9D4B4963aFb70778D6354ad3A41) */\n      0x0100\n      exp\n      dup2\n      sload\n      dup2\n      0xffffffffffffffffffffffffffffffffffffffff\n      mul\n      not\n      and\n      swap1\n      dup4\n      0xffffffffffffffffffffffffffffffffffffffff\n      and\n      mul\n      or\n      swap1\n      sstore\n      pop\n        /* \"github.com/provable-things/ethereum-api/contracts/solc-v0.5.x/provableAPI.sol\":14724:14761  provable_setNetworkName(\"eth_goerli\") */\n      tag_163\n      mload(0x40)\n      dup1\n      0x40\n      add\n      0x40\n      mstore\n      dup1\n      0x0a\n      dup2\n      mstore\n      0x20\n      add\n      0x6574685f676f65726c6900000000000000000000000000000000000000000000\n      dup2\n      mstore\n      pop\n        /* \"github.com/provable-things/ethereum-api/contracts/solc-v0.5.x/provableAPI.sol\":14724:14747  provable_setNetworkName */\n      tag_151\n        /* \"github.com/provable-things/ethereum-api/contracts/solc-v0.5.x/provableAPI.sol\":14724:14761  provable_setNetworkName(\"eth_goerli\") */\n      jump\t// in\n    tag_163:\n        /* \"github.com/provable-things/ethereum-api/contracts/solc-v0.5.x/provableAPI.sol\":14783:14787  true */\n      0x01\n        /* \"github.com/provable-things/ethereum-api/contracts/solc-v0.5.x/provableAPI.sol\":14776:14787  return true */\n      swap1\n      pop\n      jump(tag_147)\n        /* \"github.com/provable-things/ethereum-api/contracts/solc-v0.5.x/provableAPI.sol\":14543:14799  if (getCodeSize(0xa2998EFD205FB9D4B4963aFb70778D6354ad3A41) > 0) { //goerli testnet\r... */\n    tag_162:\n        /* \"github.com/provable-things/ethereum-api/contracts/solc-v0.5.x/provableAPI.sol\":14871:14872  0 */\n      0x00\n        /* \"github.com/provable-things/ethereum-api/contracts/solc-v0.5.x/provableAPI.sol\":14813:14868  getCodeSize(0x90A0F94702c9630036FB9846B52bf31A1C991a84) */\n      tag_164\n        /* \"github.com/provable-things/ethereum-api/contracts/solc-v0.5.x/provableAPI.sol\":14825:14867  0x90A0F94702c9630036FB9846B52bf31A1C991a84 */\n      0x90a0f94702c9630036fb9846b52bf31a1c991a84\n        /* \"github.com/provable-things/ethereum-api/contracts/solc-v0.5.x/provableAPI.sol\":14813:14824  getCodeSize */\n      tag_76\n        /* \"github.com/provable-things/ethereum-api/contracts/solc-v0.5.x/provableAPI.sol\":14813:14868  getCodeSize(0x90A0F94702c9630036FB9846B52bf31A1C991a84) */\n      jump\t// in\n    tag_164:\n        /* \"github.com/provable-things/ethereum-api/contracts/solc-v0.5.x/provableAPI.sol\":14813:14872  getCodeSize(0x90A0F94702c9630036FB9846B52bf31A1C991a84) > 0 */\n      gt\n        /* \"github.com/provable-things/ethereum-api/contracts/solc-v0.5.x/provableAPI.sol\":14809:15062  if (getCodeSize(0x90A0F94702c9630036FB9846B52bf31A1C991a84) > 0){ //bsc mainnet\r... */\n      iszero\n      tag_165\n      jumpi\n        /* \"github.com/provable-things/ethereum-api/contracts/solc-v0.5.x/provableAPI.sol\":14928:14970  0x90A0F94702c9630036FB9846B52bf31A1C991a84 */\n      0x90a0f94702c9630036fb9846b52bf31a1c991a84\n        /* \"github.com/provable-things/ethereum-api/contracts/solc-v0.5.x/provableAPI.sol\":14902:14905  OAR */\n      0x01\n      0x00\n        /* \"github.com/provable-things/ethereum-api/contracts/solc-v0.5.x/provableAPI.sol\":14902:14971  OAR = OracleAddrResolverI(0x90A0F94702c9630036FB9846B52bf31A1C991a84) */\n      0x0100\n      exp\n      dup2\n      sload\n      dup2\n      0xffffffffffffffffffffffffffffffffffffffff\n      mul\n      not\n      and\n      swap1\n      dup4\n      0xffffffffffffffffffffffffffffffffffffffff\n      and\n      mul\n      or\n      swap1\n      sstore\n      pop\n        /* \"github.com/provable-things/ethereum-api/contracts/solc-v0.5.x/provableAPI.sol\":14986:15024  provable_setNetworkName(\"bsc_mainnet\") */\n      tag_166\n      mload(0x40)\n      dup1\n      0x40\n      add\n      0x40\n      mstore\n      dup1\n      0x0b\n      dup2\n      mstore\n      0x20\n      add\n      0x6273635f6d61696e6e6574000000000000000000000000000000000000000000\n      dup2\n      mstore\n      pop\n        /* \"github.com/provable-things/ethereum-api/contracts/solc-v0.5.x/provableAPI.sol\":14986:15009  provable_setNetworkName */\n      tag_151\n        /* \"github.com/provable-things/ethereum-api/contracts/solc-v0.5.x/provableAPI.sol\":14986:15024  provable_setNetworkName(\"bsc_mainnet\") */\n      jump\t// in\n    tag_166:\n        /* \"github.com/provable-things/ethereum-api/contracts/solc-v0.5.x/provableAPI.sol\":15046:15050  true */\n      0x01\n        /* \"github.com/provable-things/ethereum-api/contracts/solc-v0.5.x/provableAPI.sol\":15039:15050  return true */\n      swap1\n      pop\n      jump(tag_147)\n        /* \"github.com/provable-things/ethereum-api/contracts/solc-v0.5.x/provableAPI.sol\":14809:15062  if (getCodeSize(0x90A0F94702c9630036FB9846B52bf31A1C991a84) > 0){ //bsc mainnet\r... */\n    tag_165:\n        /* \"github.com/provable-things/ethereum-api/contracts/solc-v0.5.x/provableAPI.sol\":15134:15135  0 */\n      0x00\n        /* \"github.com/provable-things/ethereum-api/contracts/solc-v0.5.x/provableAPI.sol\":15076:15131  getCodeSize(0x816ec2AF1b56183F82f8C05759E99FEc3c3De609) */\n      tag_167\n        /* \"github.com/provable-things/ethereum-api/contracts/solc-v0.5.x/provableAPI.sol\":15088:15130  0x816ec2AF1b56183F82f8C05759E99FEc3c3De609 */\n      0x816ec2af1b56183f82f8c05759e99fec3c3de609\n        /* \"github.com/provable-things/ethereum-api/contracts/solc-v0.5.x/provableAPI.sol\":15076:15087  getCodeSize */\n      tag_76\n        /* \"github.com/provable-things/ethereum-api/contracts/solc-v0.5.x/provableAPI.sol\":15076:15131  getCodeSize(0x816ec2AF1b56183F82f8C05759E99FEc3c3De609) */\n      jump\t// in\n    tag_167:\n        /* \"github.com/provable-things/ethereum-api/contracts/solc-v0.5.x/provableAPI.sol\":15076:15135  getCodeSize(0x816ec2AF1b56183F82f8C05759E99FEc3c3De609) > 0 */\n      gt\n        /* \"github.com/provable-things/ethereum-api/contracts/solc-v0.5.x/provableAPI.sol\":15072:15333  if (getCodeSize(0x816ec2AF1b56183F82f8C05759E99FEc3c3De609) > 0){ //polygon mainnet\r... */\n      iszero\n      tag_168\n      jumpi\n        /* \"github.com/provable-things/ethereum-api/contracts/solc-v0.5.x/provableAPI.sol\":15195:15237  0x816ec2AF1b56183F82f8C05759E99FEc3c3De609 */\n      0x816ec2af1b56183f82f8c05759e99fec3c3de609\n        /* \"github.com/provable-things/ethereum-api/contracts/solc-v0.5.x/provableAPI.sol\":15169:15172  OAR */\n      0x01\n      0x00\n        /* \"github.com/provable-things/ethereum-api/contracts/solc-v0.5.x/provableAPI.sol\":15169:15238  OAR = OracleAddrResolverI(0x816ec2AF1b56183F82f8C05759E99FEc3c3De609) */\n      0x0100\n      exp\n      dup2\n      sload\n      dup2\n      0xffffffffffffffffffffffffffffffffffffffff\n      mul\n      not\n      and\n      swap1\n      dup4\n      0xffffffffffffffffffffffffffffffffffffffff\n      and\n      mul\n      or\n      swap1\n      sstore\n      pop\n        /* \"github.com/provable-things/ethereum-api/contracts/solc-v0.5.x/provableAPI.sol\":15253:15295  provable_setNetworkName(\"polygon_mainnet\") */\n      tag_169\n      mload(0x40)\n      dup1\n      0x40\n      add\n      0x40\n      mstore\n      dup1\n      0x0f\n      dup2\n      mstore\n      0x20\n      add\n      0x706f6c79676f6e5f6d61696e6e65740000000000000000000000000000000000\n      dup2\n      mstore\n      pop\n        /* \"github.com/provable-things/ethereum-api/contracts/solc-v0.5.x/provableAPI.sol\":15253:15276  provable_setNetworkName */\n      tag_151\n        /* \"github.com/provable-things/ethereum-api/contracts/solc-v0.5.x/provableAPI.sol\":15253:15295  provable_setNetworkName(\"polygon_mainnet\") */\n      jump\t// in\n    tag_169:\n        /* \"github.com/provable-things/ethereum-api/contracts/solc-v0.5.x/provableAPI.sol\":15317:15321  true */\n      0x01\n        /* \"github.com/provable-things/ethereum-api/contracts/solc-v0.5.x/provableAPI.sol\":15310:15321  return true */\n      swap1\n      pop\n      jump(tag_147)\n        /* \"github.com/provable-things/ethereum-api/contracts/solc-v0.5.x/provableAPI.sol\":15072:15333  if (getCodeSize(0x816ec2AF1b56183F82f8C05759E99FEc3c3De609) > 0){ //polygon mainnet\r... */\n    tag_168:\n        /* \"github.com/provable-things/ethereum-api/contracts/solc-v0.5.x/provableAPI.sol\":15405:15406  0 */\n      0x00\n        /* \"github.com/provable-things/ethereum-api/contracts/solc-v0.5.x/provableAPI.sol\":15347:15402  getCodeSize(0x6f485C8BF6fc43eA212E93BBF8ce046C7f1cb475) */\n      tag_170\n        /* \"github.com/provable-things/ethereum-api/contracts/solc-v0.5.x/provableAPI.sol\":15359:15401  0x6f485C8BF6fc43eA212E93BBF8ce046C7f1cb475 */\n      0x6f485c8bf6fc43ea212e93bbf8ce046c7f1cb475\n        /* \"github.com/provable-things/ethereum-api/contracts/solc-v0.5.x/provableAPI.sol\":15347:15358  getCodeSize */\n      tag_76\n        /* \"github.com/provable-things/ethereum-api/contracts/solc-v0.5.x/provableAPI.sol\":15347:15402  getCodeSize(0x6f485C8BF6fc43eA212E93BBF8ce046C7f1cb475) */\n      jump\t// in\n    tag_170:\n        /* \"github.com/provable-things/ethereum-api/contracts/solc-v0.5.x/provableAPI.sol\":15347:15406  getCodeSize(0x6f485C8BF6fc43eA212E93BBF8ce046C7f1cb475) > 0 */\n      gt\n        /* \"github.com/provable-things/ethereum-api/contracts/solc-v0.5.x/provableAPI.sol\":15343:15548  if (getCodeSize(0x6f485C8BF6fc43eA212E93BBF8ce046C7f1cb475) > 0) { //ethereum-bridge\r... */\n      iszero\n      tag_171\n      jumpi\n        /* \"github.com/provable-things/ethereum-api/contracts/solc-v0.5.x/provableAPI.sol\":15467:15509  0x6f485C8BF6fc43eA212E93BBF8ce046C7f1cb475 */\n      0x6f485c8bf6fc43ea212e93bbf8ce046c7f1cb475\n        /* \"github.com/provable-things/ethereum-api/contracts/solc-v0.5.x/provableAPI.sol\":15441:15444  OAR */\n      0x01\n      0x00\n        /* \"github.com/provable-things/ethereum-api/contracts/solc-v0.5.x/provableAPI.sol\":15441:15510  OAR = OracleAddrResolverI(0x6f485C8BF6fc43eA212E93BBF8ce046C7f1cb475) */\n      0x0100\n      exp\n      dup2\n      sload\n      dup2\n      0xffffffffffffffffffffffffffffffffffffffff\n      mul\n      not\n      and\n      swap1\n      dup4\n      0xffffffffffffffffffffffffffffffffffffffff\n      and\n      mul\n      or\n      swap1\n      sstore\n      pop\n        /* \"github.com/provable-things/ethereum-api/contracts/solc-v0.5.x/provableAPI.sol\":15532:15536  true */\n      0x01\n        /* \"github.com/provable-things/ethereum-api/contracts/solc-v0.5.x/provableAPI.sol\":15525:15536  return true */\n      swap1\n      pop\n      jump(tag_147)\n        /* \"github.com/provable-things/ethereum-api/contracts/solc-v0.5.x/provableAPI.sol\":15343:15548  if (getCodeSize(0x6f485C8BF6fc43eA212E93BBF8ce046C7f1cb475) > 0) { //ethereum-bridge\r... */\n    tag_171:\n        /* \"github.com/provable-things/ethereum-api/contracts/solc-v0.5.x/provableAPI.sol\":15620:15621  0 */\n      0x00\n        /* \"github.com/provable-things/ethereum-api/contracts/solc-v0.5.x/provableAPI.sol\":15562:15617  getCodeSize(0x20e12A1F859B3FeaE5Fb2A0A32C18F5a65555bBF) */\n      tag_172\n        /* \"github.com/provable-things/ethereum-api/contracts/solc-v0.5.x/provableAPI.sol\":15574:15616  0x20e12A1F859B3FeaE5Fb2A0A32C18F5a65555bBF */\n      0x20e12a1f859b3feae5fb2a0a32c18f5a65555bbf\n        /* \"github.com/provable-things/ethereum-api/contracts/solc-v0.5.x/provableAPI.sol\":15562:15573  getCodeSize */\n      tag_76\n        /* \"github.com/provable-things/ethereum-api/contracts/solc-v0.5.x/provableAPI.sol\":15562:15617  getCodeSize(0x20e12A1F859B3FeaE5Fb2A0A32C18F5a65555bBF) */\n      jump\t// in\n    tag_172:\n        /* \"github.com/provable-things/ethereum-api/contracts/solc-v0.5.x/provableAPI.sol\":15562:15621  getCodeSize(0x20e12A1F859B3FeaE5Fb2A0A32C18F5a65555bBF) > 0 */\n      gt\n        /* \"github.com/provable-things/ethereum-api/contracts/solc-v0.5.x/provableAPI.sol\":15558:15762  if (getCodeSize(0x20e12A1F859B3FeaE5Fb2A0A32C18F5a65555bBF) > 0) { //ether.camp ide\r... */\n      iszero\n      tag_173\n      jumpi\n        /* \"github.com/provable-things/ethereum-api/contracts/solc-v0.5.x/provableAPI.sol\":15681:15723  0x20e12A1F859B3FeaE5Fb2A0A32C18F5a65555bBF */\n      0x20e12a1f859b3feae5fb2a0a32c18f5a65555bbf\n        /* \"github.com/provable-things/ethereum-api/contracts/solc-v0.5.x/provableAPI.sol\":15655:15658  OAR */\n      0x01\n      0x00\n        /* \"github.com/provable-things/ethereum-api/contracts/solc-v0.5.x/provableAPI.sol\":15655:15724  OAR = OracleAddrResolverI(0x20e12A1F859B3FeaE5Fb2A0A32C18F5a65555bBF) */\n      0x0100\n      exp\n      dup2\n      sload\n      dup2\n      0xffffffffffffffffffffffffffffffffffffffff\n      mul\n      not\n      and\n      swap1\n      dup4\n      0xffffffffffffffffffffffffffffffffffffffff\n      and\n      mul\n      or\n      swap1\n      sstore\n      pop\n        /* \"github.com/provable-things/ethereum-api/contracts/solc-v0.5.x/provableAPI.sol\":15746:15750  true */\n      0x01\n        /* \"github.com/provable-things/ethereum-api/contracts/solc-v0.5.x/provableAPI.sol\":15739:15750  return true */\n      swap1\n      pop\n      jump(tag_147)\n        /* \"github.com/provable-things/ethereum-api/contracts/solc-v0.5.x/provableAPI.sol\":15558:15762  if (getCodeSize(0x20e12A1F859B3FeaE5Fb2A0A32C18F5a65555bBF) > 0) { //ether.camp ide\r... */\n    tag_173:\n        /* \"github.com/provable-things/ethereum-api/contracts/solc-v0.5.x/provableAPI.sol\":15834:15835  0 */\n      0x00\n        /* \"github.com/provable-things/ethereum-api/contracts/solc-v0.5.x/provableAPI.sol\":15776:15831  getCodeSize(0x51efaF4c8B3C9AfBD5aB9F4bbC82784Ab6ef8fAA) */\n      tag_174\n        /* \"github.com/provable-things/ethereum-api/contracts/solc-v0.5.x/provableAPI.sol\":15788:15830  0x51efaF4c8B3C9AfBD5aB9F4bbC82784Ab6ef8fAA */\n      0x51efaf4c8b3c9afbd5ab9f4bbc82784ab6ef8faa\n        /* \"github.com/provable-things/ethereum-api/contracts/solc-v0.5.x/provableAPI.sol\":15776:15787  getCodeSize */\n      tag_76\n        /* \"github.com/provable-things/ethereum-api/contracts/solc-v0.5.x/provableAPI.sol\":15776:15831  getCodeSize(0x51efaF4c8B3C9AfBD5aB9F4bbC82784Ab6ef8fAA) */\n      jump\t// in\n    tag_174:\n        /* \"github.com/provable-things/ethereum-api/contracts/solc-v0.5.x/provableAPI.sol\":15776:15835  getCodeSize(0x51efaF4c8B3C9AfBD5aB9F4bbC82784Ab6ef8fAA) > 0 */\n      gt\n        /* \"github.com/provable-things/ethereum-api/contracts/solc-v0.5.x/provableAPI.sol\":15772:15978  if (getCodeSize(0x51efaF4c8B3C9AfBD5aB9F4bbC82784Ab6ef8fAA) > 0) { //browser-solidity\r... */\n      iszero\n      tag_175\n      jumpi\n        /* \"github.com/provable-things/ethereum-api/contracts/solc-v0.5.x/provableAPI.sol\":15897:15939  0x51efaF4c8B3C9AfBD5aB9F4bbC82784Ab6ef8fAA */\n      0x51efaf4c8b3c9afbd5ab9f4bbc82784ab6ef8faa\n        /* \"github.com/provable-things/ethereum-api/contracts/solc-v0.5.x/provableAPI.sol\":15871:15874  OAR */\n      0x01\n      0x00\n        /* \"github.com/provable-things/ethereum-api/contracts/solc-v0.5.x/provableAPI.sol\":15871:15940  OAR = OracleAddrResolverI(0x51efaF4c8B3C9AfBD5aB9F4bbC82784Ab6ef8fAA) */\n      0x0100\n      exp\n      dup2\n      sload\n      dup2\n      0xffffffffffffffffffffffffffffffffffffffff\n      mul\n      not\n      and\n      swap1\n      dup4\n      0xffffffffffffffffffffffffffffffffffffffff\n      and\n      mul\n      or\n      swap1\n      sstore\n      pop\n        /* \"github.com/provable-things/ethereum-api/contracts/solc-v0.5.x/provableAPI.sol\":15962:15966  true */\n      0x01\n        /* \"github.com/provable-things/ethereum-api/contracts/solc-v0.5.x/provableAPI.sol\":15955:15966  return true */\n      swap1\n      pop\n      jump(tag_147)\n        /* \"github.com/provable-things/ethereum-api/contracts/solc-v0.5.x/provableAPI.sol\":15772:15978  if (getCodeSize(0x51efaF4c8B3C9AfBD5aB9F4bbC82784Ab6ef8fAA) > 0) { //browser-solidity\r... */\n    tag_175:\n        /* \"github.com/provable-things/ethereum-api/contracts/solc-v0.5.x/provableAPI.sol\":15995:16000  false */\n      0x00\n        /* \"github.com/provable-things/ethereum-api/contracts/solc-v0.5.x/provableAPI.sol\":15988:16000  return false */\n      swap1\n      pop\n        /* \"github.com/provable-things/ethereum-api/contracts/solc-v0.5.x/provableAPI.sol\":13404:16008  function provable_setNetwork() internal returns (bool _networkSet) {\r... */\n    tag_147:\n      swap1\n      jump\t// out\n        /* \"github.com/provable-things/ethereum-api/contracts/solc-v0.5.x/provableAPI.sol\":13128:13255  function provable_setNetworkName(string memory _network_name) internal {\r... */\n    tag_151:\n        /* \"github.com/provable-things/ethereum-api/contracts/solc-v0.5.x/provableAPI.sol\":13234:13247  _network_name */\n      dup1\n        /* \"github.com/provable-things/ethereum-api/contracts/solc-v0.5.x/provableAPI.sol\":13210:13231  provable_network_name */\n      0x02\n        /* \"github.com/provable-things/ethereum-api/contracts/solc-v0.5.x/provableAPI.sol\":13210:13247  provable_network_name = _network_name */\n      swap1\n      dup1\n      mload\n      swap1\n      0x20\n      add\n      swap1\n      tag_177\n      swap3\n      swap2\n      swap1\n      tag_51\n      jump\t// in\n    tag_177:\n      pop\n        /* \"github.com/provable-things/ethereum-api/contracts/solc-v0.5.x/provableAPI.sol\":13128:13255  function provable_setNetworkName(string memory _network_name) internal {\r... */\n      pop\n      jump\t// out\n        /* \"contracts/BitcoinPrice.sol\":118:1347  contract BitcoinPrice is usingProvable {\r... */\n    tag_51:\n      dup3\n      dup1\n      sload\n      0x01\n      dup2\n      0x01\n      and\n      iszero\n      0x0100\n      mul\n      sub\n      and\n      0x02\n      swap1\n      div\n      swap1\n      0x00\n      mstore\n      keccak256(0x00, 0x20)\n      swap1\n      0x1f\n      add\n      0x20\n      swap1\n      div\n      dup2\n      add\n      swap3\n      dup3\n      0x1f\n      lt\n      tag_179\n      jumpi\n      dup1\n      mload\n      not(0xff)\n      and\n      dup4\n      dup1\n      add\n      or\n      dup6\n      sstore\n      jump(tag_178)\n    tag_179:\n      dup3\n      dup1\n      add\n      0x01\n      add\n      dup6\n      sstore\n      dup3\n      iszero\n      tag_178\n      jumpi\n      swap2\n      dup3\n      add\n    tag_180:\n      dup3\n      dup2\n      gt\n      iszero\n      tag_181\n      jumpi\n      dup3\n      mload\n      dup3\n      sstore\n      swap2\n      0x20\n      add\n      swap2\n      swap1\n      0x01\n      add\n      swap1\n      jump(tag_180)\n    tag_181:\n    tag_178:\n      pop\n      swap1\n      pop\n      tag_182\n      swap2\n      swap1\n      tag_183\n      jump\t// in\n    tag_182:\n      pop\n      swap1\n      jump\t// out\n    tag_183:\n      tag_184\n      swap2\n      swap1\n    tag_185:\n      dup1\n      dup3\n      gt\n      iszero\n      tag_186\n      jumpi\n      0x00\n      dup2\n      0x00\n      swap1\n      sstore\n      pop\n      0x01\n      add\n      jump(tag_185)\n    tag_186:\n      pop\n      swap1\n      jump\n    tag_184:\n      swap1\n      jump\t// out\n    stop\n    data_02fa47ce39d2d0fa6e29aead92a30e937a41327dbf96d559c775a839ad4f510e 50726f7661626c6520717565727920776173204e4f542073656e742c20706c656173652061646420736f6d652045544820746f20636f76657220666f72207468652071756572792066656521\n    data_c6f2f0f13c6598abf8ee9fb17c87715e017f2ad977035fd635642d8acb7e90c5 50726f7661626c65207175657279207761732073656e742c207374616e64696e6720627920666f722074686520616e737765722e2e2e\n\n    auxdata: 0xa265627a7a7231582077839cc0340204e4a2753a1102a7aaec9fabbacf2e08ab432a581ba3514474eb64736f6c63430005110032\n}\n",
				"bytecode": {
					"linkReferences": {},
					"object": "60806040526040518060c00160405280608c815260200162001e22608c913960059080519060200190620000359291906200003c565b50620000eb565b828054600181600116156101000203166002900490600052602060002090601f016020900481019282601f106200007f57805160ff1916838001178555620000b0565b82800160010185558215620000b0579182015b82811115620000af57825182559160200191906001019062000092565b5b509050620000bf9190620000c3565b5090565b620000e891905b80821115620000e4576000816000905550600101620000ca565b5090565b90565b611d2780620000fb6000396000f3fe6080604052600436106100555760003560e01c806327dc297e1461005a57806332b393271461012c57806338bbfa5014610136578063653721471461029f57806389a2cdcb1461032f578063dbab89b614610382575b600080fd5b34801561006657600080fd5b5061012a6004803603604081101561007d57600080fd5b8101908080359060200190929190803590602001906401000000008111156100a457600080fd5b8201836020820111156100b657600080fd5b803590602001918460018302840111640100000000831117156100d857600080fd5b91908080601f016020809104026020016040519081016040528093929190818152602001838380828437600081840152601f19601f820116905080830192505050505050509192919290505050610412565b005b61013461055c565b005b34801561014257600080fd5b5061029d6004803603606081101561015957600080fd5b81019080803590602001909291908035906020019064010000000081111561018057600080fd5b82018360208201111561019257600080fd5b803590602001918460018302840111640100000000831117156101b457600080fd5b91908080601f016020809104026020016040519081016040528093929190818152602001838380828437600081840152601f19601f8201169050808301925050505050505091929192908035906020019064010000000081111561021757600080fd5b82018360208201111561022957600080fd5b8035906020019184600183028401116401000000008311171561024b57600080fd5b91908080601f016020809104026020016040519081016040528093929190818152602001838380828437600081840152601f19601f820116905080830192505050505050509192919290505050610749565b005b3480156102ab57600080fd5b506102b461076c565b6040518080602001828103825283818151815260200191508051906020019080838360005b838110156102f45780820151818401526020810190506102d9565b50505050905090810190601f1680156103215780820380516001836020036101000a031916815260200191505b509250505060405180910390f35b34801561033b57600080fd5b506103686004803603602081101561035257600080fd5b810190808035906020019092919050505061080a565b604051808215151515815260200191505060405180910390f35b34801561038e57600080fd5b5061039761082a565b6040518080602001828103825283818151815260200191508051906020019080838360005b838110156103d75780820151818401526020810190506103bc565b50505050905090810190601f1680156104045780820380516001836020036101000a031916815260200191505b509250505060405180910390f35b61041a6108c8565b73ffffffffffffffffffffffffffffffffffffffff163373ffffffffffffffffffffffffffffffffffffffff161461045157600080fd5b600115156006600084815260200190815260200160002060009054906101000a900460ff1615151461048257600080fd5b8060079080519060200190610498929190611bcb565b507fcac2586df91c62ddda7f015012690c8634c9c91408cae421456c6352cf8aa42e816040518080602001828103825283818151815260200191508051906020019080838360005b838110156104fb5780820151818401526020810190506104e0565b50505050905090810190601f1680156105285780820380516001836020036101000a031916815260200191505b509250505060405180910390a16006600083815260200190815260200160002060006101000a81549060ff02191690555050565b3461059b6040518060400160405280600381526020017f55524c0000000000000000000000000000000000000000000000000000000000815250610be5565b11156105f2576040517f08c379a000000000000000000000000000000000000000000000000000000000815260040180806020018281038252604c815260200180611c71604c913960600191505060405180910390fd5b7fc4dc360d0a9c0677a3379ae0a3d81e887f761e65fdf3d7e00859d1bcd3c47389604051808060200182810382526036815260200180611cbd6036913960400191505060405180910390a160006107186040518060400160405280600381526020017f55524c000000000000000000000000000000000000000000000000000000000081525060058054600181600116156101000203166002900480601f01602080910402602001604051908101604052809291908181526020018280546001816001161561010002031660029004801561070e5780601f106106e35761010080835404028352916020019161070e565b820191906000526020600020905b8154815290600101906020018083116106f157829003601f168201915b5050505050610f76565b905060016006600083815260200190815260200160002060006101000a81548160ff02191690831515021790555050565b6000801b600360008060001b815260200190815260200160002081905550505050565b60078054600181600116156101000203166002900480601f0160208091040260200160405190810160405280929190818152602001828054600181600116156101000203166002900480156108025780601f106107d757610100808354040283529160200191610802565b820191906000526020600020905b8154815290600101906020018083116107e557829003601f168201915b505050505081565b60066020528060005260406000206000915054906101000a900460ff1681565b60058054600181600116156101000203166002900480601f0160208091040260200160405190810160405280929190818152602001828054600181600116156101000203166002900480156108c05780601f10610895576101008083540402835291602001916108c0565b820191906000526020600020905b8154815290600101906020018083116108a357829003601f168201915b505050505081565b60008073ffffffffffffffffffffffffffffffffffffffff16600160009054906101000a900473ffffffffffffffffffffffffffffffffffffffff1673ffffffffffffffffffffffffffffffffffffffff1614806109505750600061094e600160009054906101000a900473ffffffffffffffffffffffffffffffffffffffff166114bc565b145b156109615761095f60006114c7565b505b600160009054906101000a900473ffffffffffffffffffffffffffffffffffffffff1673ffffffffffffffffffffffffffffffffffffffff166338cc48316040518163ffffffff1660e01b8152600401602060405180830381600087803b1580156109cb57600080fd5b505af11580156109df573d6000803e3d6000fd5b505050506040513d60208110156109f557600080fd5b810190808051906020019092919050505073ffffffffffffffffffffffffffffffffffffffff166000809054906101000a900473ffffffffffffffffffffffffffffffffffffffff1673ffffffffffffffffffffffffffffffffffffffff1614610b3e57600160009054906101000a900473ffffffffffffffffffffffffffffffffffffffff1673ffffffffffffffffffffffffffffffffffffffff166338cc48316040518163ffffffff1660e01b8152600401602060405180830381600087803b158015610ac357600080fd5b505af1158015610ad7573d6000803e3d6000fd5b505050506040513d6020811015610aed57600080fd5b81019080805190602001909291905050506000806101000a81548173ffffffffffffffffffffffffffffffffffffffff021916908373ffffffffffffffffffffffffffffffffffffffff1602179055505b6000809054906101000a900473ffffffffffffffffffffffffffffffffffffffff1673ffffffffffffffffffffffffffffffffffffffff1663c281d19e6040518163ffffffff1660e01b815260040160206040518083038186803b158015610ba557600080fd5b505afa158015610bb9573d6000803e3d6000fd5b505050506040513d6020811015610bcf57600080fd5b8101908080519060200190929190505050905090565b60008073ffffffffffffffffffffffffffffffffffffffff16600160009054906101000a900473ffffffffffffffffffffffffffffffffffffffff1673ffffffffffffffffffffffffffffffffffffffff161480610c6d57506000610c6b600160009054906101000a900473ffffffffffffffffffffffffffffffffffffffff166114bc565b145b15610c7e57610c7c60006114c7565b505b600160009054906101000a900473ffffffffffffffffffffffffffffffffffffffff1673ffffffffffffffffffffffffffffffffffffffff166338cc48316040518163ffffffff1660e01b8152600401602060405180830381600087803b158015610ce857600080fd5b505af1158015610cfc573d6000803e3d6000fd5b505050506040513d6020811015610d1257600080fd5b810190808051906020019092919050505073ffffffffffffffffffffffffffffffffffffffff166000809054906101000a900473ffffffffffffffffffffffffffffffffffffffff1673ffffffffffffffffffffffffffffffffffffffff1614610e5b57600160009054906101000a900473ffffffffffffffffffffffffffffffffffffffff1673ffffffffffffffffffffffffffffffffffffffff166338cc48316040518163ffffffff1660e01b8152600401602060405180830381600087803b158015610de057600080fd5b505af1158015610df4573d6000803e3d6000fd5b505050506040513d6020811015610e0a57600080fd5b81019080805190602001909291905050506000806101000a81548173ffffffffffffffffffffffffffffffffffffffff021916908373ffffffffffffffffffffffffffffffffffffffff1602179055505b6000809054906101000a900473ffffffffffffffffffffffffffffffffffffffff1673ffffffffffffffffffffffffffffffffffffffff1663524f3889836040518263ffffffff1660e01b81526004018080602001828103825283818151815260200191508051906020019080838360005b83811015610ee8578082015181840152602081019050610ecd565b50505050905090810190601f168015610f155780820380516001836020036101000a031916815260200191505b5092505050602060405180830381600087803b158015610f3457600080fd5b505af1158015610f48573d6000803e3d6000fd5b505050506040513d6020811015610f5e57600080fd5b81019080805190602001909291905050509050919050565b60008073ffffffffffffffffffffffffffffffffffffffff16600160009054906101000a900473ffffffffffffffffffffffffffffffffffffffff1673ffffffffffffffffffffffffffffffffffffffff161480610ffe57506000610ffc600160009054906101000a900473ffffffffffffffffffffffffffffffffffffffff166114bc565b145b1561100f5761100d60006114c7565b505b600160009054906101000a900473ffffffffffffffffffffffffffffffffffffffff1673ffffffffffffffffffffffffffffffffffffffff166338cc48316040518163ffffffff1660e01b8152600401602060405180830381600087803b15801561107957600080fd5b505af115801561108d573d6000803e3d6000fd5b505050506040513d60208110156110a357600080fd5b810190808051906020019092919050505073ffffffffffffffffffffffffffffffffffffffff166000809054906101000a900473ffffffffffffffffffffffffffffffffffffffff1673ffffffffffffffffffffffffffffffffffffffff16146111ec57600160009054906101000a900473ffffffffffffffffffffffffffffffffffffffff1673ffffffffffffffffffffffffffffffffffffffff166338cc48316040518163ffffffff1660e01b8152600401602060405180830381600087803b15801561117157600080fd5b505af1158015611185573d6000803e3d6000fd5b505050506040513d602081101561119b57600080fd5b81019080805190602001909291905050506000806101000a81548173ffffffffffffffffffffffffffffffffffffffff021916908373ffffffffffffffffffffffffffffffffffffffff1602179055505b60008060009054906101000a900473ffffffffffffffffffffffffffffffffffffffff1673ffffffffffffffffffffffffffffffffffffffff1663524f3889856040518263ffffffff1660e01b81526004018080602001828103825283818151815260200191508051906020019080838360005b8381101561127b578082015181840152602081019050611260565b50505050905090810190601f1680156112a85780820380516001836020036101000a031916815260200191505b5092505050602060405180830381600087803b1580156112c757600080fd5b505af11580156112db573d6000803e3d6000fd5b505050506040513d60208110156112f157600080fd5b8101908080519060200190929190505050905062030d403a02670de0b6b3a764000001811115611327576000801b9150506114b6565b6000809054906101000a900473ffffffffffffffffffffffffffffffffffffffff1673ffffffffffffffffffffffffffffffffffffffff1663adf59f9982600087876040518563ffffffff1660e01b8152600401808481526020018060200180602001838103835285818151815260200191508051906020019080838360005b838110156113c25780820151818401526020810190506113a7565b50505050905090810190601f1680156113ef5780820380516001836020036101000a031916815260200191505b50838103825284818151815260200191508051906020019080838360005b8381101561142857808201518184015260208101905061140d565b50505050905090810190601f1680156114555780820380516001836020036101000a031916815260200191505b50955050505050506020604051808303818588803b15801561147657600080fd5b505af115801561148a573d6000803e3d6000fd5b50505050506040513d60208110156114a157600080fd5b81019080805190602001909291905050509150505b92915050565b6000813b9050919050565b60006114d16114d8565b9050919050565b6000806114f8731d3b2638a7cc9f2cb3d298a3da7a90b67e5506ed6114bc565b111561159a57731d3b2638a7cc9f2cb3d298a3da7a90b67e5506ed600160006101000a81548173ffffffffffffffffffffffffffffffffffffffff021916908373ffffffffffffffffffffffffffffffffffffffff1602179055506115916040518060400160405280600b81526020017f6574685f6d61696e6e6574000000000000000000000000000000000000000000815250611bb1565b60019050611bae565b60006115b973c03a2615d5efaf5f49f60b7bb6583eaec212fdf16114bc565b111561165b5773c03a2615d5efaf5f49f60b7bb6583eaec212fdf1600160006101000a81548173ffffffffffffffffffffffffffffffffffffffff021916908373ffffffffffffffffffffffffffffffffffffffff1602179055506116526040518060400160405280600c81526020017f6574685f726f707374656e330000000000000000000000000000000000000000815250611bb1565b60019050611bae565b600061167a73b7a07bcf2ba2f2703b24c0691b5278999c59ac7e6114bc565b111561171c5773b7a07bcf2ba2f2703b24c0691b5278999c59ac7e600160006101000a81548173ffffffffffffffffffffffffffffffffffffffff021916908373ffffffffffffffffffffffffffffffffffffffff1602179055506117136040518060400160405280600981526020017f6574685f6b6f76616e0000000000000000000000000000000000000000000000815250611bb1565b60019050611bae565b600061173b73146500cfd35b22e4a392fe0adc06de1a1368ed486114bc565b11156117dd5773146500cfd35b22e4a392fe0adc06de1a1368ed48600160006101000a81548173ffffffffffffffffffffffffffffffffffffffff021916908373ffffffffffffffffffffffffffffffffffffffff1602179055506117d46040518060400160405280600b81526020017f6574685f72696e6b656279000000000000000000000000000000000000000000815250611bb1565b60019050611bae565b60006117fc73a2998efd205fb9d4b4963afb70778d6354ad3a416114bc565b111561189e5773a2998efd205fb9d4b4963afb70778d6354ad3a41600160006101000a81548173ffffffffffffffffffffffffffffffffffffffff021916908373ffffffffffffffffffffffffffffffffffffffff1602179055506118956040518060400160405280600a81526020017f6574685f676f65726c6900000000000000000000000000000000000000000000815250611bb1565b60019050611bae565b60006118bd7390a0f94702c9630036fb9846b52bf31a1c991a846114bc565b111561195f577390a0f94702c9630036fb9846b52bf31a1c991a84600160006101000a81548173ffffffffffffffffffffffffffffffffffffffff021916908373ffffffffffffffffffffffffffffffffffffffff1602179055506119566040518060400160405280600b81526020017f6273635f6d61696e6e6574000000000000000000000000000000000000000000815250611bb1565b60019050611bae565b600061197e73816ec2af1b56183f82f8c05759e99fec3c3de6096114bc565b1115611a205773816ec2af1b56183f82f8c05759e99fec3c3de609600160006101000a81548173ffffffffffffffffffffffffffffffffffffffff021916908373ffffffffffffffffffffffffffffffffffffffff160217905550611a176040518060400160405280600f81526020017f706f6c79676f6e5f6d61696e6e65740000000000000000000000000000000000815250611bb1565b60019050611bae565b6000611a3f736f485c8bf6fc43ea212e93bbf8ce046c7f1cb4756114bc565b1115611aa357736f485c8bf6fc43ea212e93bbf8ce046c7f1cb475600160006101000a81548173ffffffffffffffffffffffffffffffffffffffff021916908373ffffffffffffffffffffffffffffffffffffffff16021790555060019050611bae565b6000611ac27320e12a1f859b3feae5fb2a0a32c18f5a65555bbf6114bc565b1115611b26577320e12a1f859b3feae5fb2a0a32c18f5a65555bbf600160006101000a81548173ffffffffffffffffffffffffffffffffffffffff021916908373ffffffffffffffffffffffffffffffffffffffff16021790555060019050611bae565b6000611b457351efaf4c8b3c9afbd5ab9f4bbc82784ab6ef8faa6114bc565b1115611ba9577351efaf4c8b3c9afbd5ab9f4bbc82784ab6ef8faa600160006101000a81548173ffffffffffffffffffffffffffffffffffffffff021916908373ffffffffffffffffffffffffffffffffffffffff16021790555060019050611bae565b600090505b90565b8060029080519060200190611bc7929190611bcb565b5050565b828054600181600116156101000203166002900490600052602060002090601f016020900481019282601f10611c0c57805160ff1916838001178555611c3a565b82800160010185558215611c3a579182015b82811115611c39578251825591602001919060010190611c1e565b5b509050611c479190611c4b565b5090565b611c6d91905b80821115611c69576000816000905550600101611c51565b5090565b9056fe50726f7661626c6520717565727920776173204e4f542073656e742c20706c656173652061646420736f6d652045544820746f20636f76657220666f7220746865207175657279206665652150726f7661626c65207175657279207761732073656e742c207374616e64696e6720627920666f722074686520616e737765722e2e2ea265627a7a7231582077839cc0340204e4a2753a1102a7aaec9fabbacf2e08ab432a581ba3514474eb64736f6c634300051100326a736f6e2868747470733a2f2f6170692e636f696e6765636b6f2e636f6d2f6170692f76332f636f696e732f6d61726b6574733f76735f63757272656e63793d757364266f726465723d6d61726b65745f6361705f64657363267065725f706167653d3126706167653d3126737061726b6c696e653d66616c7365292e302e63757272656e745f7072696365",
					"opcodes": "PUSH1 0x80 PUSH1 0x40 MSTORE PUSH1 0x40 MLOAD DUP1 PUSH1 0xC0 ADD PUSH1 0x40 MSTORE DUP1 PUSH1 0x8C DUP2 MSTORE PUSH1 0x20 ADD PUSH3 0x1E22 PUSH1 0x8C SWAP2 CODECOPY PUSH1 0x5 SWAP1 DUP1 MLOAD SWAP1 PUSH1 0x20 ADD SWAP1 PUSH3 0x35 SWAP3 SWAP2 SWAP1 PUSH3 0x3C JUMP JUMPDEST POP PUSH3 0xEB JUMP JUMPDEST DUP3 DUP1 SLOAD PUSH1 0x1 DUP2 PUSH1 0x1 AND ISZERO PUSH2 0x100 MUL SUB AND PUSH1 0x2 SWAP1 DIV SWAP1 PUSH1 0x0 MSTORE PUSH1 0x20 PUSH1 0x0 KECCAK256 SWAP1 PUSH1 0x1F ADD PUSH1 0x20 SWAP1 DIV DUP2 ADD SWAP3 DUP3 PUSH1 0x1F LT PUSH3 0x7F JUMPI DUP1 MLOAD PUSH1 0xFF NOT AND DUP4 DUP1 ADD OR DUP6 SSTORE PUSH3 0xB0 JUMP JUMPDEST DUP3 DUP1 ADD PUSH1 0x1 ADD DUP6 SSTORE DUP3 ISZERO PUSH3 0xB0 JUMPI SWAP2 DUP3 ADD JUMPDEST DUP3 DUP2 GT ISZERO PUSH3 0xAF JUMPI DUP3 MLOAD DUP3 SSTORE SWAP2 PUSH1 0x20 ADD SWAP2 SWAP1 PUSH1 0x1 ADD SWAP1 PUSH3 0x92 JUMP JUMPDEST JUMPDEST POP SWAP1 POP PUSH3 0xBF SWAP2 SWAP1 PUSH3 0xC3 JUMP JUMPDEST POP SWAP1 JUMP JUMPDEST PUSH3 0xE8 SWAP2 SWAP1 JUMPDEST DUP1 DUP3 GT ISZERO PUSH3 0xE4 JUMPI PUSH1 0x0 DUP2 PUSH1 0x0 SWAP1 SSTORE POP PUSH1 0x1 ADD PUSH3 0xCA JUMP JUMPDEST POP SWAP1 JUMP JUMPDEST SWAP1 JUMP JUMPDEST PUSH2 0x1D27 DUP1 PUSH3 0xFB PUSH1 0x0 CODECOPY PUSH1 0x0 RETURN INVALID PUSH1 0x80 PUSH1 0x40 MSTORE PUSH1 0x4 CALLDATASIZE LT PUSH2 0x55 JUMPI PUSH1 0x0 CALLDATALOAD PUSH1 0xE0 SHR DUP1 PUSH4 0x27DC297E EQ PUSH2 0x5A JUMPI DUP1 PUSH4 0x32B39327 EQ PUSH2 0x12C JUMPI DUP1 PUSH4 0x38BBFA50 EQ PUSH2 0x136 JUMPI DUP1 PUSH4 0x65372147 EQ PUSH2 0x29F JUMPI DUP1 PUSH4 0x89A2CDCB EQ PUSH2 0x32F JUMPI DUP1 PUSH4 0xDBAB89B6 EQ PUSH2 0x382 JUMPI JUMPDEST PUSH1 0x0 DUP1 REVERT JUMPDEST CALLVALUE DUP1 ISZERO PUSH2 0x66 JUMPI PUSH1 0x0 DUP1 REVERT JUMPDEST POP PUSH2 0x12A PUSH1 0x4 DUP1 CALLDATASIZE SUB PUSH1 0x40 DUP2 LT ISZERO PUSH2 0x7D JUMPI PUSH1 0x0 DUP1 REVERT JUMPDEST DUP2 ADD SWAP1 DUP1 DUP1 CALLDATALOAD SWAP1 PUSH1 0x20 ADD SWAP1 SWAP3 SWAP2 SWAP1 DUP1 CALLDATALOAD SWAP1 PUSH1 0x20 ADD SWAP1 PUSH5 0x100000000 DUP2 GT ISZERO PUSH2 0xA4 JUMPI PUSH1 0x0 DUP1 REVERT JUMPDEST DUP3 ADD DUP4 PUSH1 0x20 DUP3 ADD GT ISZERO PUSH2 0xB6 JUMPI PUSH1 0x0 DUP1 REVERT JUMPDEST DUP1 CALLDATALOAD SWAP1 PUSH1 0x20 ADD SWAP2 DUP5 PUSH1 0x1 DUP4 MUL DUP5 ADD GT PUSH5 0x100000000 DUP4 GT OR ISZERO PUSH2 0xD8 JUMPI PUSH1 0x0 DUP1 REVERT JUMPDEST SWAP2 SWAP1 DUP1 DUP1 PUSH1 0x1F ADD PUSH1 0x20 DUP1 SWAP2 DIV MUL PUSH1 0x20 ADD PUSH1 0x40 MLOAD SWAP1 DUP2 ADD PUSH1 0x40 MSTORE DUP1 SWAP4 SWAP3 SWAP2 SWAP1 DUP2 DUP2 MSTORE PUSH1 0x20 ADD DUP4 DUP4 DUP1 DUP3 DUP5 CALLDATACOPY PUSH1 0x0 DUP2 DUP5 ADD MSTORE PUSH1 0x1F NOT PUSH1 0x1F DUP3 ADD AND SWAP1 POP DUP1 DUP4 ADD SWAP3 POP POP POP POP POP POP POP SWAP2 SWAP3 SWAP2 SWAP3 SWAP1 POP POP POP PUSH2 0x412 JUMP JUMPDEST STOP JUMPDEST PUSH2 0x134 PUSH2 0x55C JUMP JUMPDEST STOP JUMPDEST CALLVALUE DUP1 ISZERO PUSH2 0x142 JUMPI PUSH1 0x0 DUP1 REVERT JUMPDEST POP PUSH2 0x29D PUSH1 0x4 DUP1 CALLDATASIZE SUB PUSH1 0x60 DUP2 LT ISZERO PUSH2 0x159 JUMPI PUSH1 0x0 DUP1 REVERT JUMPDEST DUP2 ADD SWAP1 DUP1 DUP1 CALLDATALOAD SWAP1 PUSH1 0x20 ADD SWAP1 SWAP3 SWAP2 SWAP1 DUP1 CALLDATALOAD SWAP1 PUSH1 0x20 ADD SWAP1 PUSH5 0x100000000 DUP2 GT ISZERO PUSH2 0x180 JUMPI PUSH1 0x0 DUP1 REVERT JUMPDEST DUP3 ADD DUP4 PUSH1 0x20 DUP3 ADD GT ISZERO PUSH2 0x192 JUMPI PUSH1 0x0 DUP1 REVERT JUMPDEST DUP1 CALLDATALOAD SWAP1 PUSH1 0x20 ADD SWAP2 DUP5 PUSH1 0x1 DUP4 MUL DUP5 ADD GT PUSH5 0x100000000 DUP4 GT OR ISZERO PUSH2 0x1B4 JUMPI PUSH1 0x0 DUP1 REVERT JUMPDEST SWAP2 SWAP1 DUP1 DUP1 PUSH1 0x1F ADD PUSH1 0x20 DUP1 SWAP2 DIV MUL PUSH1 0x20 ADD PUSH1 0x40 MLOAD SWAP1 DUP2 ADD PUSH1 0x40 MSTORE DUP1 SWAP4 SWAP3 SWAP2 SWAP1 DUP2 DUP2 MSTORE PUSH1 0x20 ADD DUP4 DUP4 DUP1 DUP3 DUP5 CALLDATACOPY PUSH1 0x0 DUP2 DUP5 ADD MSTORE PUSH1 0x1F NOT PUSH1 0x1F DUP3 ADD AND SWAP1 POP DUP1 DUP4 ADD SWAP3 POP POP POP POP POP POP POP SWAP2 SWAP3 SWAP2 SWAP3 SWAP1 DUP1 CALLDATALOAD SWAP1 PUSH1 0x20 ADD SWAP1 PUSH5 0x100000000 DUP2 GT ISZERO PUSH2 0x217 JUMPI PUSH1 0x0 DUP1 REVERT JUMPDEST DUP3 ADD DUP4 PUSH1 0x20 DUP3 ADD GT ISZERO PUSH2 0x229 JUMPI PUSH1 0x0 DUP1 REVERT JUMPDEST DUP1 CALLDATALOAD SWAP1 PUSH1 0x20 ADD SWAP2 DUP5 PUSH1 0x1 DUP4 MUL DUP5 ADD GT PUSH5 0x100000000 DUP4 GT OR ISZERO PUSH2 0x24B JUMPI PUSH1 0x0 DUP1 REVERT JUMPDEST SWAP2 SWAP1 DUP1 DUP1 PUSH1 0x1F ADD PUSH1 0x20 DUP1 SWAP2 DIV MUL PUSH1 0x20 ADD PUSH1 0x40 MLOAD SWAP1 DUP2 ADD PUSH1 0x40 MSTORE DUP1 SWAP4 SWAP3 SWAP2 SWAP1 DUP2 DUP2 MSTORE PUSH1 0x20 ADD DUP4 DUP4 DUP1 DUP3 DUP5 CALLDATACOPY PUSH1 0x0 DUP2 DUP5 ADD MSTORE PUSH1 0x1F NOT PUSH1 0x1F DUP3 ADD AND SWAP1 POP DUP1 DUP4 ADD SWAP3 POP POP POP POP POP POP POP SWAP2 SWAP3 SWAP2 SWAP3 SWAP1 POP POP POP PUSH2 0x749 JUMP JUMPDEST STOP JUMPDEST CALLVALUE DUP1 ISZERO PUSH2 0x2AB JUMPI PUSH1 0x0 DUP1 REVERT JUMPDEST POP PUSH2 0x2B4 PUSH2 0x76C JUMP JUMPDEST PUSH1 0x40 MLOAD DUP1 DUP1 PUSH1 0x20 ADD DUP3 DUP2 SUB DUP3 MSTORE DUP4 DUP2 DUP2 MLOAD DUP2 MSTORE PUSH1 0x20 ADD SWAP2 POP DUP1 MLOAD SWAP1 PUSH1 0x20 ADD SWAP1 DUP1 DUP4 DUP4 PUSH1 0x0 JUMPDEST DUP4 DUP2 LT ISZERO PUSH2 0x2F4 JUMPI DUP1 DUP3 ADD MLOAD DUP2 DUP5 ADD MSTORE PUSH1 0x20 DUP2 ADD SWAP1 POP PUSH2 0x2D9 JUMP JUMPDEST POP POP POP POP SWAP1 POP SWAP1 DUP2 ADD SWAP1 PUSH1 0x1F AND DUP1 ISZERO PUSH2 0x321 JUMPI DUP1 DUP3 SUB DUP1 MLOAD PUSH1 0x1 DUP4 PUSH1 0x20 SUB PUSH2 0x100 EXP SUB NOT AND DUP2 MSTORE PUSH1 0x20 ADD SWAP2 POP JUMPDEST POP SWAP3 POP POP POP PUSH1 0x40 MLOAD DUP1 SWAP2 SUB SWAP1 RETURN JUMPDEST CALLVALUE DUP1 ISZERO PUSH2 0x33B JUMPI PUSH1 0x0 DUP1 REVERT JUMPDEST POP PUSH2 0x368 PUSH1 0x4 DUP1 CALLDATASIZE SUB PUSH1 0x20 DUP2 LT ISZERO PUSH2 0x352 JUMPI PUSH1 0x0 DUP1 REVERT JUMPDEST DUP2 ADD SWAP1 DUP1 DUP1 CALLDATALOAD SWAP1 PUSH1 0x20 ADD SWAP1 SWAP3 SWAP2 SWAP1 POP POP POP PUSH2 0x80A JUMP JUMPDEST PUSH1 0x40 MLOAD DUP1 DUP3 ISZERO ISZERO ISZERO ISZERO DUP2 MSTORE PUSH1 0x20 ADD SWAP2 POP POP PUSH1 0x40 MLOAD DUP1 SWAP2 SUB SWAP1 RETURN JUMPDEST CALLVALUE DUP1 ISZERO PUSH2 0x38E JUMPI PUSH1 0x0 DUP1 REVERT JUMPDEST POP PUSH2 0x397 PUSH2 0x82A JUMP JUMPDEST PUSH1 0x40 MLOAD DUP1 DUP1 PUSH1 0x20 ADD DUP3 DUP2 SUB DUP3 MSTORE DUP4 DUP2 DUP2 MLOAD DUP2 MSTORE PUSH1 0x20 ADD SWAP2 POP DUP1 MLOAD SWAP1 PUSH1 0x20 ADD SWAP1 DUP1 DUP4 DUP4 PUSH1 0x0 JUMPDEST DUP4 DUP2 LT ISZERO PUSH2 0x3D7 JUMPI DUP1 DUP3 ADD MLOAD DUP2 DUP5 ADD MSTORE PUSH1 0x20 DUP2 ADD SWAP1 POP PUSH2 0x3BC JUMP JUMPDEST POP POP POP POP SWAP1 POP SWAP1 DUP2 ADD SWAP1 PUSH1 0x1F AND DUP1 ISZERO PUSH2 0x404 JUMPI DUP1 DUP3 SUB DUP1 MLOAD PUSH1 0x1 DUP4 PUSH1 0x20 SUB PUSH2 0x100 EXP SUB NOT AND DUP2 MSTORE PUSH1 0x20 ADD SWAP2 POP JUMPDEST POP SWAP3 POP POP POP PUSH1 0x40 MLOAD DUP1 SWAP2 SUB SWAP1 RETURN JUMPDEST PUSH2 0x41A PUSH2 0x8C8 JUMP JUMPDEST PUSH20 0xFFFFFFFFFFFFFFFFFFFFFFFFFFFFFFFFFFFFFFFF AND CALLER PUSH20 0xFFFFFFFFFFFFFFFFFFFFFFFFFFFFFFFFFFFFFFFF AND EQ PUSH2 0x451 JUMPI PUSH1 0x0 DUP1 REVERT JUMPDEST PUSH1 0x1 ISZERO ISZERO PUSH1 0x6 PUSH1 0x0 DUP5 DUP2 MSTORE PUSH1 0x20 ADD SWAP1 DUP2 MSTORE PUSH1 0x20 ADD PUSH1 0x0 KECCAK256 PUSH1 0x0 SWAP1 SLOAD SWAP1 PUSH2 0x100 EXP SWAP1 DIV PUSH1 0xFF AND ISZERO ISZERO EQ PUSH2 0x482 JUMPI PUSH1 0x0 DUP1 REVERT JUMPDEST DUP1 PUSH1 0x7 SWAP1 DUP1 MLOAD SWAP1 PUSH1 0x20 ADD SWAP1 PUSH2 0x498 SWAP3 SWAP2 SWAP1 PUSH2 0x1BCB JUMP JUMPDEST POP PUSH32 0xCAC2586DF91C62DDDA7F015012690C8634C9C91408CAE421456C6352CF8AA42E DUP2 PUSH1 0x40 MLOAD DUP1 DUP1 PUSH1 0x20 ADD DUP3 DUP2 SUB DUP3 MSTORE DUP4 DUP2 DUP2 MLOAD DUP2 MSTORE PUSH1 0x20 ADD SWAP2 POP DUP1 MLOAD SWAP1 PUSH1 0x20 ADD SWAP1 DUP1 DUP4 DUP4 PUSH1 0x0 JUMPDEST DUP4 DUP2 LT ISZERO PUSH2 0x4FB JUMPI DUP1 DUP3 ADD MLOAD DUP2 DUP5 ADD MSTORE PUSH1 0x20 DUP2 ADD SWAP1 POP PUSH2 0x4E0 JUMP JUMPDEST POP POP POP POP SWAP1 POP SWAP1 DUP2 ADD SWAP1 PUSH1 0x1F AND DUP1 ISZERO PUSH2 0x528 JUMPI DUP1 DUP3 SUB DUP1 MLOAD PUSH1 0x1 DUP4 PUSH1 0x20 SUB PUSH2 0x100 EXP SUB NOT AND DUP2 MSTORE PUSH1 0x20 ADD SWAP2 POP JUMPDEST POP SWAP3 POP POP POP PUSH1 0x40 MLOAD DUP1 SWAP2 SUB SWAP1 LOG1 PUSH1 0x6 PUSH1 0x0 DUP4 DUP2 MSTORE PUSH1 0x20 ADD SWAP1 DUP2 MSTORE PUSH1 0x20 ADD PUSH1 0x0 KECCAK256 PUSH1 0x0 PUSH2 0x100 EXP DUP2 SLOAD SWAP1 PUSH1 0xFF MUL NOT AND SWAP1 SSTORE POP POP JUMP JUMPDEST CALLVALUE PUSH2 0x59B PUSH1 0x40 MLOAD DUP1 PUSH1 0x40 ADD PUSH1 0x40 MSTORE DUP1 PUSH1 0x3 DUP2 MSTORE PUSH1 0x20 ADD PUSH32 0x55524C0000000000000000000000000000000000000000000000000000000000 DUP2 MSTORE POP PUSH2 0xBE5 JUMP JUMPDEST GT ISZERO PUSH2 0x5F2 JUMPI PUSH1 0x40 MLOAD PUSH32 0x8C379A000000000000000000000000000000000000000000000000000000000 DUP2 MSTORE PUSH1 0x4 ADD DUP1 DUP1 PUSH1 0x20 ADD DUP3 DUP2 SUB DUP3 MSTORE PUSH1 0x4C DUP2 MSTORE PUSH1 0x20 ADD DUP1 PUSH2 0x1C71 PUSH1 0x4C SWAP2 CODECOPY PUSH1 0x60 ADD SWAP2 POP POP PUSH1 0x40 MLOAD DUP1 SWAP2 SUB SWAP1 REVERT JUMPDEST PUSH32 0xC4DC360D0A9C0677A3379AE0A3D81E887F761E65FDF3D7E00859D1BCD3C47389 PUSH1 0x40 MLOAD DUP1 DUP1 PUSH1 0x20 ADD DUP3 DUP2 SUB DUP3 MSTORE PUSH1 0x36 DUP2 MSTORE PUSH1 0x20 ADD DUP1 PUSH2 0x1CBD PUSH1 0x36 SWAP2 CODECOPY PUSH1 0x40 ADD SWAP2 POP POP PUSH1 0x40 MLOAD DUP1 SWAP2 SUB SWAP1 LOG1 PUSH1 0x0 PUSH2 0x718 PUSH1 0x40 MLOAD DUP1 PUSH1 0x40 ADD PUSH1 0x40 MSTORE DUP1 PUSH1 0x3 DUP2 MSTORE PUSH1 0x20 ADD PUSH32 0x55524C0000000000000000000000000000000000000000000000000000000000 DUP2 MSTORE POP PUSH1 0x5 DUP1 SLOAD PUSH1 0x1 DUP2 PUSH1 0x1 AND ISZERO PUSH2 0x100 MUL SUB AND PUSH1 0x2 SWAP1 DIV DUP1 PUSH1 0x1F ADD PUSH1 0x20 DUP1 SWAP2 DIV MUL PUSH1 0x20 ADD PUSH1 0x40 MLOAD SWAP1 DUP2 ADD PUSH1 0x40 MSTORE DUP1 SWAP3 SWAP2 SWAP1 DUP2 DUP2 MSTORE PUSH1 0x20 ADD DUP3 DUP1 SLOAD PUSH1 0x1 DUP2 PUSH1 0x1 AND ISZERO PUSH2 0x100 MUL SUB AND PUSH1 0x2 SWAP1 DIV DUP1 ISZERO PUSH2 0x70E JUMPI DUP1 PUSH1 0x1F LT PUSH2 0x6E3 JUMPI PUSH2 0x100 DUP1 DUP4 SLOAD DIV MUL DUP4 MSTORE SWAP2 PUSH1 0x20 ADD SWAP2 PUSH2 0x70E JUMP JUMPDEST DUP3 ADD SWAP2 SWAP1 PUSH1 0x0 MSTORE PUSH1 0x20 PUSH1 0x0 KECCAK256 SWAP1 JUMPDEST DUP2 SLOAD DUP2 MSTORE SWAP1 PUSH1 0x1 ADD SWAP1 PUSH1 0x20 ADD DUP1 DUP4 GT PUSH2 0x6F1 JUMPI DUP3 SWAP1 SUB PUSH1 0x1F AND DUP3 ADD SWAP2 JUMPDEST POP POP POP POP POP PUSH2 0xF76 JUMP JUMPDEST SWAP1 POP PUSH1 0x1 PUSH1 0x6 PUSH1 0x0 DUP4 DUP2 MSTORE PUSH1 0x20 ADD SWAP1 DUP2 MSTORE PUSH1 0x20 ADD PUSH1 0x0 KECCAK256 PUSH1 0x0 PUSH2 0x100 EXP DUP2 SLOAD DUP2 PUSH1 0xFF MUL NOT AND SWAP1 DUP4 ISZERO ISZERO MUL OR SWAP1 SSTORE POP POP JUMP JUMPDEST PUSH1 0x0 DUP1 SHL PUSH1 0x3 PUSH1 0x0 DUP1 PUSH1 0x0 SHL DUP2 MSTORE PUSH1 0x20 ADD SWAP1 DUP2 MSTORE PUSH1 0x20 ADD PUSH1 0x0 KECCAK256 DUP2 SWAP1 SSTORE POP POP POP POP JUMP JUMPDEST PUSH1 0x7 DUP1 SLOAD PUSH1 0x1 DUP2 PUSH1 0x1 AND ISZERO PUSH2 0x100 MUL SUB AND PUSH1 0x2 SWAP1 DIV DUP1 PUSH1 0x1F ADD PUSH1 0x20 DUP1 SWAP2 DIV MUL PUSH1 0x20 ADD PUSH1 0x40 MLOAD SWAP1 DUP2 ADD PUSH1 0x40 MSTORE DUP1 SWAP3 SWAP2 SWAP1 DUP2 DUP2 MSTORE PUSH1 0x20 ADD DUP3 DUP1 SLOAD PUSH1 0x1 DUP2 PUSH1 0x1 AND ISZERO PUSH2 0x100 MUL SUB AND PUSH1 0x2 SWAP1 DIV DUP1 ISZERO PUSH2 0x802 JUMPI DUP1 PUSH1 0x1F LT PUSH2 0x7D7 JUMPI PUSH2 0x100 DUP1 DUP4 SLOAD DIV MUL DUP4 MSTORE SWAP2 PUSH1 0x20 ADD SWAP2 PUSH2 0x802 JUMP JUMPDEST DUP3 ADD SWAP2 SWAP1 PUSH1 0x0 MSTORE PUSH1 0x20 PUSH1 0x0 KECCAK256 SWAP1 JUMPDEST DUP2 SLOAD DUP2 MSTORE SWAP1 PUSH1 0x1 ADD SWAP1 PUSH1 0x20 ADD DUP1 DUP4 GT PUSH2 0x7E5 JUMPI DUP3 SWAP1 SUB PUSH1 0x1F AND DUP3 ADD SWAP2 JUMPDEST POP POP POP POP POP DUP2 JUMP JUMPDEST PUSH1 0x6 PUSH1 0x20 MSTORE DUP1 PUSH1 0x0 MSTORE PUSH1 0x40 PUSH1 0x0 KECCAK256 PUSH1 0x0 SWAP2 POP SLOAD SWAP1 PUSH2 0x100 EXP SWAP1 DIV PUSH1 0xFF AND DUP2 JUMP JUMPDEST PUSH1 0x5 DUP1 SLOAD PUSH1 0x1 DUP2 PUSH1 0x1 AND ISZERO PUSH2 0x100 MUL SUB AND PUSH1 0x2 SWAP1 DIV DUP1 PUSH1 0x1F ADD PUSH1 0x20 DUP1 SWAP2 DIV MUL PUSH1 0x20 ADD PUSH1 0x40 MLOAD SWAP1 DUP2 ADD PUSH1 0x40 MSTORE DUP1 SWAP3 SWAP2 SWAP1 DUP2 DUP2 MSTORE PUSH1 0x20 ADD DUP3 DUP1 SLOAD PUSH1 0x1 DUP2 PUSH1 0x1 AND ISZERO PUSH2 0x100 MUL SUB AND PUSH1 0x2 SWAP1 DIV DUP1 ISZERO PUSH2 0x8C0 JUMPI DUP1 PUSH1 0x1F LT PUSH2 0x895 JUMPI PUSH2 0x100 DUP1 DUP4 SLOAD DIV MUL DUP4 MSTORE SWAP2 PUSH1 0x20 ADD SWAP2 PUSH2 0x8C0 JUMP JUMPDEST DUP3 ADD SWAP2 SWAP1 PUSH1 0x0 MSTORE PUSH1 0x20 PUSH1 0x0 KECCAK256 SWAP1 JUMPDEST DUP2 SLOAD DUP2 MSTORE SWAP1 PUSH1 0x1 ADD SWAP1 PUSH1 0x20 ADD DUP1 DUP4 GT PUSH2 0x8A3 JUMPI DUP3 SWAP1 SUB PUSH1 0x1F AND DUP3 ADD SWAP2 JUMPDEST POP POP POP POP POP DUP2 JUMP JUMPDEST PUSH1 0x0 DUP1 PUSH20 0xFFFFFFFFFFFFFFFFFFFFFFFFFFFFFFFFFFFFFFFF AND PUSH1 0x1 PUSH1 0x0 SWAP1 SLOAD SWAP1 PUSH2 0x100 EXP SWAP1 DIV PUSH20 0xFFFFFFFFFFFFFFFFFFFFFFFFFFFFFFFFFFFFFFFF AND PUSH20 0xFFFFFFFFFFFFFFFFFFFFFFFFFFFFFFFFFFFFFFFF AND EQ DUP1 PUSH2 0x950 JUMPI POP PUSH1 0x0 PUSH2 0x94E PUSH1 0x1 PUSH1 0x0 SWAP1 SLOAD SWAP1 PUSH2 0x100 EXP SWAP1 DIV PUSH20 0xFFFFFFFFFFFFFFFFFFFFFFFFFFFFFFFFFFFFFFFF AND PUSH2 0x14BC JUMP JUMPDEST EQ JUMPDEST ISZERO PUSH2 0x961 JUMPI PUSH2 0x95F PUSH1 0x0 PUSH2 0x14C7 JUMP JUMPDEST POP JUMPDEST PUSH1 0x1 PUSH1 0x0 SWAP1 SLOAD SWAP1 PUSH2 0x100 EXP SWAP1 DIV PUSH20 0xFFFFFFFFFFFFFFFFFFFFFFFFFFFFFFFFFFFFFFFF AND PUSH20 0xFFFFFFFFFFFFFFFFFFFFFFFFFFFFFFFFFFFFFFFF AND PUSH4 0x38CC4831 PUSH1 0x40 MLOAD DUP2 PUSH4 0xFFFFFFFF AND PUSH1 0xE0 SHL DUP2 MSTORE PUSH1 0x4 ADD PUSH1 0x20 PUSH1 0x40 MLOAD DUP1 DUP4 SUB DUP2 PUSH1 0x0 DUP8 DUP1 EXTCODESIZE ISZERO DUP1 ISZERO PUSH2 0x9CB JUMPI PUSH1 0x0 DUP1 REVERT JUMPDEST POP GAS CALL ISZERO DUP1 ISZERO PUSH2 0x9DF JUMPI RETURNDATASIZE PUSH1 0x0 DUP1 RETURNDATACOPY RETURNDATASIZE PUSH1 0x0 REVERT JUMPDEST POP POP POP POP PUSH1 0x40 MLOAD RETURNDATASIZE PUSH1 0x20 DUP2 LT ISZERO PUSH2 0x9F5 JUMPI PUSH1 0x0 DUP1 REVERT JUMPDEST DUP2 ADD SWAP1 DUP1 DUP1 MLOAD SWAP1 PUSH1 0x20 ADD SWAP1 SWAP3 SWAP2 SWAP1 POP POP POP PUSH20 0xFFFFFFFFFFFFFFFFFFFFFFFFFFFFFFFFFFFFFFFF AND PUSH1 0x0 DUP1 SWAP1 SLOAD SWAP1 PUSH2 0x100 EXP SWAP1 DIV PUSH20 0xFFFFFFFFFFFFFFFFFFFFFFFFFFFFFFFFFFFFFFFF AND PUSH20 0xFFFFFFFFFFFFFFFFFFFFFFFFFFFFFFFFFFFFFFFF AND EQ PUSH2 0xB3E JUMPI PUSH1 0x1 PUSH1 0x0 SWAP1 SLOAD SWAP1 PUSH2 0x100 EXP SWAP1 DIV PUSH20 0xFFFFFFFFFFFFFFFFFFFFFFFFFFFFFFFFFFFFFFFF AND PUSH20 0xFFFFFFFFFFFFFFFFFFFFFFFFFFFFFFFFFFFFFFFF AND PUSH4 0x38CC4831 PUSH1 0x40 MLOAD DUP2 PUSH4 0xFFFFFFFF AND PUSH1 0xE0 SHL DUP2 MSTORE PUSH1 0x4 ADD PUSH1 0x20 PUSH1 0x40 MLOAD DUP1 DUP4 SUB DUP2 PUSH1 0x0 DUP8 DUP1 EXTCODESIZE ISZERO DUP1 ISZERO PUSH2 0xAC3 JUMPI PUSH1 0x0 DUP1 REVERT JUMPDEST POP GAS CALL ISZERO DUP1 ISZERO PUSH2 0xAD7 JUMPI RETURNDATASIZE PUSH1 0x0 DUP1 RETURNDATACOPY RETURNDATASIZE PUSH1 0x0 REVERT JUMPDEST POP POP POP POP PUSH1 0x40 MLOAD RETURNDATASIZE PUSH1 0x20 DUP2 LT ISZERO PUSH2 0xAED JUMPI PUSH1 0x0 DUP1 REVERT JUMPDEST DUP2 ADD SWAP1 DUP1 DUP1 MLOAD SWAP1 PUSH1 0x20 ADD SWAP1 SWAP3 SWAP2 SWAP1 POP POP POP PUSH1 0x0 DUP1 PUSH2 0x100 EXP DUP2 SLOAD DUP2 PUSH20 0xFFFFFFFFFFFFFFFFFFFFFFFFFFFFFFFFFFFFFFFF MUL NOT AND SWAP1 DUP4 PUSH20 0xFFFFFFFFFFFFFFFFFFFFFFFFFFFFFFFFFFFFFFFF AND MUL OR SWAP1 SSTORE POP JUMPDEST PUSH1 0x0 DUP1 SWAP1 SLOAD SWAP1 PUSH2 0x100 EXP SWAP1 DIV PUSH20 0xFFFFFFFFFFFFFFFFFFFFFFFFFFFFFFFFFFFFFFFF AND PUSH20 0xFFFFFFFFFFFFFFFFFFFFFFFFFFFFFFFFFFFFFFFF AND PUSH4 0xC281D19E PUSH1 0x40 MLOAD DUP2 PUSH4 0xFFFFFFFF AND PUSH1 0xE0 SHL DUP2 MSTORE PUSH1 0x4 ADD PUSH1 0x20 PUSH1 0x40 MLOAD DUP1 DUP4 SUB DUP2 DUP7 DUP1 EXTCODESIZE ISZERO DUP1 ISZERO PUSH2 0xBA5 JUMPI PUSH1 0x0 DUP1 REVERT JUMPDEST POP GAS STATICCALL ISZERO DUP1 ISZERO PUSH2 0xBB9 JUMPI RETURNDATASIZE PUSH1 0x0 DUP1 RETURNDATACOPY RETURNDATASIZE PUSH1 0x0 REVERT JUMPDEST POP POP POP POP PUSH1 0x40 MLOAD RETURNDATASIZE PUSH1 0x20 DUP2 LT ISZERO PUSH2 0xBCF JUMPI PUSH1 0x0 DUP1 REVERT JUMPDEST DUP2 ADD SWAP1 DUP1 DUP1 MLOAD SWAP1 PUSH1 0x20 ADD SWAP1 SWAP3 SWAP2 SWAP1 POP POP POP SWAP1 POP SWAP1 JUMP JUMPDEST PUSH1 0x0 DUP1 PUSH20 0xFFFFFFFFFFFFFFFFFFFFFFFFFFFFFFFFFFFFFFFF AND PUSH1 0x1 PUSH1 0x0 SWAP1 SLOAD SWAP1 PUSH2 0x100 EXP SWAP1 DIV PUSH20 0xFFFFFFFFFFFFFFFFFFFFFFFFFFFFFFFFFFFFFFFF AND PUSH20 0xFFFFFFFFFFFFFFFFFFFFFFFFFFFFFFFFFFFFFFFF AND EQ DUP1 PUSH2 0xC6D JUMPI POP PUSH1 0x0 PUSH2 0xC6B PUSH1 0x1 PUSH1 0x0 SWAP1 SLOAD SWAP1 PUSH2 0x100 EXP SWAP1 DIV PUSH20 0xFFFFFFFFFFFFFFFFFFFFFFFFFFFFFFFFFFFFFFFF AND PUSH2 0x14BC JUMP JUMPDEST EQ JUMPDEST ISZERO PUSH2 0xC7E JUMPI PUSH2 0xC7C PUSH1 0x0 PUSH2 0x14C7 JUMP JUMPDEST POP JUMPDEST PUSH1 0x1 PUSH1 0x0 SWAP1 SLOAD SWAP1 PUSH2 0x100 EXP SWAP1 DIV PUSH20 0xFFFFFFFFFFFFFFFFFFFFFFFFFFFFFFFFFFFFFFFF AND PUSH20 0xFFFFFFFFFFFFFFFFFFFFFFFFFFFFFFFFFFFFFFFF AND PUSH4 0x38CC4831 PUSH1 0x40 MLOAD DUP2 PUSH4 0xFFFFFFFF AND PUSH1 0xE0 SHL DUP2 MSTORE PUSH1 0x4 ADD PUSH1 0x20 PUSH1 0x40 MLOAD DUP1 DUP4 SUB DUP2 PUSH1 0x0 DUP8 DUP1 EXTCODESIZE ISZERO DUP1 ISZERO PUSH2 0xCE8 JUMPI PUSH1 0x0 DUP1 REVERT JUMPDEST POP GAS CALL ISZERO DUP1 ISZERO PUSH2 0xCFC JUMPI RETURNDATASIZE PUSH1 0x0 DUP1 RETURNDATACOPY RETURNDATASIZE PUSH1 0x0 REVERT JUMPDEST POP POP POP POP PUSH1 0x40 MLOAD RETURNDATASIZE PUSH1 0x20 DUP2 LT ISZERO PUSH2 0xD12 JUMPI PUSH1 0x0 DUP1 REVERT JUMPDEST DUP2 ADD SWAP1 DUP1 DUP1 MLOAD SWAP1 PUSH1 0x20 ADD SWAP1 SWAP3 SWAP2 SWAP1 POP POP POP PUSH20 0xFFFFFFFFFFFFFFFFFFFFFFFFFFFFFFFFFFFFFFFF AND PUSH1 0x0 DUP1 SWAP1 SLOAD SWAP1 PUSH2 0x100 EXP SWAP1 DIV PUSH20 0xFFFFFFFFFFFFFFFFFFFFFFFFFFFFFFFFFFFFFFFF AND PUSH20 0xFFFFFFFFFFFFFFFFFFFFFFFFFFFFFFFFFFFFFFFF AND EQ PUSH2 0xE5B JUMPI PUSH1 0x1 PUSH1 0x0 SWAP1 SLOAD SWAP1 PUSH2 0x100 EXP SWAP1 DIV PUSH20 0xFFFFFFFFFFFFFFFFFFFFFFFFFFFFFFFFFFFFFFFF AND PUSH20 0xFFFFFFFFFFFFFFFFFFFFFFFFFFFFFFFFFFFFFFFF AND PUSH4 0x38CC4831 PUSH1 0x40 MLOAD DUP2 PUSH4 0xFFFFFFFF AND PUSH1 0xE0 SHL DUP2 MSTORE PUSH1 0x4 ADD PUSH1 0x20 PUSH1 0x40 MLOAD DUP1 DUP4 SUB DUP2 PUSH1 0x0 DUP8 DUP1 EXTCODESIZE ISZERO DUP1 ISZERO PUSH2 0xDE0 JUMPI PUSH1 0x0 DUP1 REVERT JUMPDEST POP GAS CALL ISZERO DUP1 ISZERO PUSH2 0xDF4 JUMPI RETURNDATASIZE PUSH1 0x0 DUP1 RETURNDATACOPY RETURNDATASIZE PUSH1 0x0 REVERT JUMPDEST POP POP POP POP PUSH1 0x40 MLOAD RETURNDATASIZE PUSH1 0x20 DUP2 LT ISZERO PUSH2 0xE0A JUMPI PUSH1 0x0 DUP1 REVERT JUMPDEST DUP2 ADD SWAP1 DUP1 DUP1 MLOAD SWAP1 PUSH1 0x20 ADD SWAP1 SWAP3 SWAP2 SWAP1 POP POP POP PUSH1 0x0 DUP1 PUSH2 0x100 EXP DUP2 SLOAD DUP2 PUSH20 0xFFFFFFFFFFFFFFFFFFFFFFFFFFFFFFFFFFFFFFFF MUL NOT AND SWAP1 DUP4 PUSH20 0xFFFFFFFFFFFFFFFFFFFFFFFFFFFFFFFFFFFFFFFF AND MUL OR SWAP1 SSTORE POP JUMPDEST PUSH1 0x0 DUP1 SWAP1 SLOAD SWAP1 PUSH2 0x100 EXP SWAP1 DIV PUSH20 0xFFFFFFFFFFFFFFFFFFFFFFFFFFFFFFFFFFFFFFFF AND PUSH20 0xFFFFFFFFFFFFFFFFFFFFFFFFFFFFFFFFFFFFFFFF AND PUSH4 0x524F3889 DUP4 PUSH1 0x40 MLOAD DUP3 PUSH4 0xFFFFFFFF AND PUSH1 0xE0 SHL DUP2 MSTORE PUSH1 0x4 ADD DUP1 DUP1 PUSH1 0x20 ADD DUP3 DUP2 SUB DUP3 MSTORE DUP4 DUP2 DUP2 MLOAD DUP2 MSTORE PUSH1 0x20 ADD SWAP2 POP DUP1 MLOAD SWAP1 PUSH1 0x20 ADD SWAP1 DUP1 DUP4 DUP4 PUSH1 0x0 JUMPDEST DUP4 DUP2 LT ISZERO PUSH2 0xEE8 JUMPI DUP1 DUP3 ADD MLOAD DUP2 DUP5 ADD MSTORE PUSH1 0x20 DUP2 ADD SWAP1 POP PUSH2 0xECD JUMP JUMPDEST POP POP POP POP SWAP1 POP SWAP1 DUP2 ADD SWAP1 PUSH1 0x1F AND DUP1 ISZERO PUSH2 0xF15 JUMPI DUP1 DUP3 SUB DUP1 MLOAD PUSH1 0x1 DUP4 PUSH1 0x20 SUB PUSH2 0x100 EXP SUB NOT AND DUP2 MSTORE PUSH1 0x20 ADD SWAP2 POP JUMPDEST POP SWAP3 POP POP POP PUSH1 0x20 PUSH1 0x40 MLOAD DUP1 DUP4 SUB DUP2 PUSH1 0x0 DUP8 DUP1 EXTCODESIZE ISZERO DUP1 ISZERO PUSH2 0xF34 JUMPI PUSH1 0x0 DUP1 REVERT JUMPDEST POP GAS CALL ISZERO DUP1 ISZERO PUSH2 0xF48 JUMPI RETURNDATASIZE PUSH1 0x0 DUP1 RETURNDATACOPY RETURNDATASIZE PUSH1 0x0 REVERT JUMPDEST POP POP POP POP PUSH1 0x40 MLOAD RETURNDATASIZE PUSH1 0x20 DUP2 LT ISZERO PUSH2 0xF5E JUMPI PUSH1 0x0 DUP1 REVERT JUMPDEST DUP2 ADD SWAP1 DUP1 DUP1 MLOAD SWAP1 PUSH1 0x20 ADD SWAP1 SWAP3 SWAP2 SWAP1 POP POP POP SWAP1 POP SWAP2 SWAP1 POP JUMP JUMPDEST PUSH1 0x0 DUP1 PUSH20 0xFFFFFFFFFFFFFFFFFFFFFFFFFFFFFFFFFFFFFFFF AND PUSH1 0x1 PUSH1 0x0 SWAP1 SLOAD SWAP1 PUSH2 0x100 EXP SWAP1 DIV PUSH20 0xFFFFFFFFFFFFFFFFFFFFFFFFFFFFFFFFFFFFFFFF AND PUSH20 0xFFFFFFFFFFFFFFFFFFFFFFFFFFFFFFFFFFFFFFFF AND EQ DUP1 PUSH2 0xFFE JUMPI POP PUSH1 0x0 PUSH2 0xFFC PUSH1 0x1 PUSH1 0x0 SWAP1 SLOAD SWAP1 PUSH2 0x100 EXP SWAP1 DIV PUSH20 0xFFFFFFFFFFFFFFFFFFFFFFFFFFFFFFFFFFFFFFFF AND PUSH2 0x14BC JUMP JUMPDEST EQ JUMPDEST ISZERO PUSH2 0x100F JUMPI PUSH2 0x100D PUSH1 0x0 PUSH2 0x14C7 JUMP JUMPDEST POP JUMPDEST PUSH1 0x1 PUSH1 0x0 SWAP1 SLOAD SWAP1 PUSH2 0x100 EXP SWAP1 DIV PUSH20 0xFFFFFFFFFFFFFFFFFFFFFFFFFFFFFFFFFFFFFFFF AND PUSH20 0xFFFFFFFFFFFFFFFFFFFFFFFFFFFFFFFFFFFFFFFF AND PUSH4 0x38CC4831 PUSH1 0x40 MLOAD DUP2 PUSH4 0xFFFFFFFF AND PUSH1 0xE0 SHL DUP2 MSTORE PUSH1 0x4 ADD PUSH1 0x20 PUSH1 0x40 MLOAD DUP1 DUP4 SUB DUP2 PUSH1 0x0 DUP8 DUP1 EXTCODESIZE ISZERO DUP1 ISZERO PUSH2 0x1079 JUMPI PUSH1 0x0 DUP1 REVERT JUMPDEST POP GAS CALL ISZERO DUP1 ISZERO PUSH2 0x108D JUMPI RETURNDATASIZE PUSH1 0x0 DUP1 RETURNDATACOPY RETURNDATASIZE PUSH1 0x0 REVERT JUMPDEST POP POP POP POP PUSH1 0x40 MLOAD RETURNDATASIZE PUSH1 0x20 DUP2 LT ISZERO PUSH2 0x10A3 JUMPI PUSH1 0x0 DUP1 REVERT JUMPDEST DUP2 ADD SWAP1 DUP1 DUP1 MLOAD SWAP1 PUSH1 0x20 ADD SWAP1 SWAP3 SWAP2 SWAP1 POP POP POP PUSH20 0xFFFFFFFFFFFFFFFFFFFFFFFFFFFFFFFFFFFFFFFF AND PUSH1 0x0 DUP1 SWAP1 SLOAD SWAP1 PUSH2 0x100 EXP SWAP1 DIV PUSH20 0xFFFFFFFFFFFFFFFFFFFFFFFFFFFFFFFFFFFFFFFF AND PUSH20 0xFFFFFFFFFFFFFFFFFFFFFFFFFFFFFFFFFFFFFFFF AND EQ PUSH2 0x11EC JUMPI PUSH1 0x1 PUSH1 0x0 SWAP1 SLOAD SWAP1 PUSH2 0x100 EXP SWAP1 DIV PUSH20 0xFFFFFFFFFFFFFFFFFFFFFFFFFFFFFFFFFFFFFFFF AND PUSH20 0xFFFFFFFFFFFFFFFFFFFFFFFFFFFFFFFFFFFFFFFF AND PUSH4 0x38CC4831 PUSH1 0x40 MLOAD DUP2 PUSH4 0xFFFFFFFF AND PUSH1 0xE0 SHL DUP2 MSTORE PUSH1 0x4 ADD PUSH1 0x20 PUSH1 0x40 MLOAD DUP1 DUP4 SUB DUP2 PUSH1 0x0 DUP8 DUP1 EXTCODESIZE ISZERO DUP1 ISZERO PUSH2 0x1171 JUMPI PUSH1 0x0 DUP1 REVERT JUMPDEST POP GAS CALL ISZERO DUP1 ISZERO PUSH2 0x1185 JUMPI RETURNDATASIZE PUSH1 0x0 DUP1 RETURNDATACOPY RETURNDATASIZE PUSH1 0x0 REVERT JUMPDEST POP POP POP POP PUSH1 0x40 MLOAD RETURNDATASIZE PUSH1 0x20 DUP2 LT ISZERO PUSH2 0x119B JUMPI PUSH1 0x0 DUP1 REVERT JUMPDEST DUP2 ADD SWAP1 DUP1 DUP1 MLOAD SWAP1 PUSH1 0x20 ADD SWAP1 SWAP3 SWAP2 SWAP1 POP POP POP PUSH1 0x0 DUP1 PUSH2 0x100 EXP DUP2 SLOAD DUP2 PUSH20 0xFFFFFFFFFFFFFFFFFFFFFFFFFFFFFFFFFFFFFFFF MUL NOT AND SWAP1 DUP4 PUSH20 0xFFFFFFFFFFFFFFFFFFFFFFFFFFFFFFFFFFFFFFFF AND MUL OR SWAP1 SSTORE POP JUMPDEST PUSH1 0x0 DUP1 PUSH1 0x0 SWAP1 SLOAD SWAP1 PUSH2 0x100 EXP SWAP1 DIV PUSH20 0xFFFFFFFFFFFFFFFFFFFFFFFFFFFFFFFFFFFFFFFF AND PUSH20 0xFFFFFFFFFFFFFFFFFFFFFFFFFFFFFFFFFFFFFFFF AND PUSH4 0x524F3889 DUP6 PUSH1 0x40 MLOAD DUP3 PUSH4 0xFFFFFFFF AND PUSH1 0xE0 SHL DUP2 MSTORE PUSH1 0x4 ADD DUP1 DUP1 PUSH1 0x20 ADD DUP3 DUP2 SUB DUP3 MSTORE DUP4 DUP2 DUP2 MLOAD DUP2 MSTORE PUSH1 0x20 ADD SWAP2 POP DUP1 MLOAD SWAP1 PUSH1 0x20 ADD SWAP1 DUP1 DUP4 DUP4 PUSH1 0x0 JUMPDEST DUP4 DUP2 LT ISZERO PUSH2 0x127B JUMPI DUP1 DUP3 ADD MLOAD DUP2 DUP5 ADD MSTORE PUSH1 0x20 DUP2 ADD SWAP1 POP PUSH2 0x1260 JUMP JUMPDEST POP POP POP POP SWAP1 POP SWAP1 DUP2 ADD SWAP1 PUSH1 0x1F AND DUP1 ISZERO PUSH2 0x12A8 JUMPI DUP1 DUP3 SUB DUP1 MLOAD PUSH1 0x1 DUP4 PUSH1 0x20 SUB PUSH2 0x100 EXP SUB NOT AND DUP2 MSTORE PUSH1 0x20 ADD SWAP2 POP JUMPDEST POP SWAP3 POP POP POP PUSH1 0x20 PUSH1 0x40 MLOAD DUP1 DUP4 SUB DUP2 PUSH1 0x0 DUP8 DUP1 EXTCODESIZE ISZERO DUP1 ISZERO PUSH2 0x12C7 JUMPI PUSH1 0x0 DUP1 REVERT JUMPDEST POP GAS CALL ISZERO DUP1 ISZERO PUSH2 0x12DB JUMPI RETURNDATASIZE PUSH1 0x0 DUP1 RETURNDATACOPY RETURNDATASIZE PUSH1 0x0 REVERT JUMPDEST POP POP POP POP PUSH1 0x40 MLOAD RETURNDATASIZE PUSH1 0x20 DUP2 LT ISZERO PUSH2 0x12F1 JUMPI PUSH1 0x0 DUP1 REVERT JUMPDEST DUP2 ADD SWAP1 DUP1 DUP1 MLOAD SWAP1 PUSH1 0x20 ADD SWAP1 SWAP3 SWAP2 SWAP1 POP POP POP SWAP1 POP PUSH3 0x30D40 GASPRICE MUL PUSH8 0xDE0B6B3A7640000 ADD DUP2 GT ISZERO PUSH2 0x1327 JUMPI PUSH1 0x0 DUP1 SHL SWAP2 POP POP PUSH2 0x14B6 JUMP JUMPDEST PUSH1 0x0 DUP1 SWAP1 SLOAD SWAP1 PUSH2 0x100 EXP SWAP1 DIV PUSH20 0xFFFFFFFFFFFFFFFFFFFFFFFFFFFFFFFFFFFFFFFF AND PUSH20 0xFFFFFFFFFFFFFFFFFFFFFFFFFFFFFFFFFFFFFFFF AND PUSH4 0xADF59F99 DUP3 PUSH1 0x0 DUP8 DUP8 PUSH1 0x40 MLOAD DUP6 PUSH4 0xFFFFFFFF AND PUSH1 0xE0 SHL DUP2 MSTORE PUSH1 0x4 ADD DUP1 DUP5 DUP2 MSTORE PUSH1 0x20 ADD DUP1 PUSH1 0x20 ADD DUP1 PUSH1 0x20 ADD DUP4 DUP2 SUB DUP4 MSTORE DUP6 DUP2 DUP2 MLOAD DUP2 MSTORE PUSH1 0x20 ADD SWAP2 POP DUP1 MLOAD SWAP1 PUSH1 0x20 ADD SWAP1 DUP1 DUP4 DUP4 PUSH1 0x0 JUMPDEST DUP4 DUP2 LT ISZERO PUSH2 0x13C2 JUMPI DUP1 DUP3 ADD MLOAD DUP2 DUP5 ADD MSTORE PUSH1 0x20 DUP2 ADD SWAP1 POP PUSH2 0x13A7 JUMP JUMPDEST POP POP POP POP SWAP1 POP SWAP1 DUP2 ADD SWAP1 PUSH1 0x1F AND DUP1 ISZERO PUSH2 0x13EF JUMPI DUP1 DUP3 SUB DUP1 MLOAD PUSH1 0x1 DUP4 PUSH1 0x20 SUB PUSH2 0x100 EXP SUB NOT AND DUP2 MSTORE PUSH1 0x20 ADD SWAP2 POP JUMPDEST POP DUP4 DUP2 SUB DUP3 MSTORE DUP5 DUP2 DUP2 MLOAD DUP2 MSTORE PUSH1 0x20 ADD SWAP2 POP DUP1 MLOAD SWAP1 PUSH1 0x20 ADD SWAP1 DUP1 DUP4 DUP4 PUSH1 0x0 JUMPDEST DUP4 DUP2 LT ISZERO PUSH2 0x1428 JUMPI DUP1 DUP3 ADD MLOAD DUP2 DUP5 ADD MSTORE PUSH1 0x20 DUP2 ADD SWAP1 POP PUSH2 0x140D JUMP JUMPDEST POP POP POP POP SWAP1 POP SWAP1 DUP2 ADD SWAP1 PUSH1 0x1F AND DUP1 ISZERO PUSH2 0x1455 JUMPI DUP1 DUP3 SUB DUP1 MLOAD PUSH1 0x1 DUP4 PUSH1 0x20 SUB PUSH2 0x100 EXP SUB NOT AND DUP2 MSTORE PUSH1 0x20 ADD SWAP2 POP JUMPDEST POP SWAP6 POP POP POP POP POP POP PUSH1 0x20 PUSH1 0x40 MLOAD DUP1 DUP4 SUB DUP2 DUP6 DUP9 DUP1 EXTCODESIZE ISZERO DUP1 ISZERO PUSH2 0x1476 JUMPI PUSH1 0x0 DUP1 REVERT JUMPDEST POP GAS CALL ISZERO DUP1 ISZERO PUSH2 0x148A JUMPI RETURNDATASIZE PUSH1 0x0 DUP1 RETURNDATACOPY RETURNDATASIZE PUSH1 0x0 REVERT JUMPDEST POP POP POP POP POP PUSH1 0x40 MLOAD RETURNDATASIZE PUSH1 0x20 DUP2 LT ISZERO PUSH2 0x14A1 JUMPI PUSH1 0x0 DUP1 REVERT JUMPDEST DUP2 ADD SWAP1 DUP1 DUP1 MLOAD SWAP1 PUSH1 0x20 ADD SWAP1 SWAP3 SWAP2 SWAP1 POP POP POP SWAP2 POP POP JUMPDEST SWAP3 SWAP2 POP POP JUMP JUMPDEST PUSH1 0x0 DUP2 EXTCODESIZE SWAP1 POP SWAP2 SWAP1 POP JUMP JUMPDEST PUSH1 0x0 PUSH2 0x14D1 PUSH2 0x14D8 JUMP JUMPDEST SWAP1 POP SWAP2 SWAP1 POP JUMP JUMPDEST PUSH1 0x0 DUP1 PUSH2 0x14F8 PUSH20 0x1D3B2638A7CC9F2CB3D298A3DA7A90B67E5506ED PUSH2 0x14BC JUMP JUMPDEST GT ISZERO PUSH2 0x159A JUMPI PUSH20 0x1D3B2638A7CC9F2CB3D298A3DA7A90B67E5506ED PUSH1 0x1 PUSH1 0x0 PUSH2 0x100 EXP DUP2 SLOAD DUP2 PUSH20 0xFFFFFFFFFFFFFFFFFFFFFFFFFFFFFFFFFFFFFFFF MUL NOT AND SWAP1 DUP4 PUSH20 0xFFFFFFFFFFFFFFFFFFFFFFFFFFFFFFFFFFFFFFFF AND MUL OR SWAP1 SSTORE POP PUSH2 0x1591 PUSH1 0x40 MLOAD DUP1 PUSH1 0x40 ADD PUSH1 0x40 MSTORE DUP1 PUSH1 0xB DUP2 MSTORE PUSH1 0x20 ADD PUSH32 0x6574685F6D61696E6E6574000000000000000000000000000000000000000000 DUP2 MSTORE POP PUSH2 0x1BB1 JUMP JUMPDEST PUSH1 0x1 SWAP1 POP PUSH2 0x1BAE JUMP JUMPDEST PUSH1 0x0 PUSH2 0x15B9 PUSH20 0xC03A2615D5EFAF5F49F60B7BB6583EAEC212FDF1 PUSH2 0x14BC JUMP JUMPDEST GT ISZERO PUSH2 0x165B JUMPI PUSH20 0xC03A2615D5EFAF5F49F60B7BB6583EAEC212FDF1 PUSH1 0x1 PUSH1 0x0 PUSH2 0x100 EXP DUP2 SLOAD DUP2 PUSH20 0xFFFFFFFFFFFFFFFFFFFFFFFFFFFFFFFFFFFFFFFF MUL NOT AND SWAP1 DUP4 PUSH20 0xFFFFFFFFFFFFFFFFFFFFFFFFFFFFFFFFFFFFFFFF AND MUL OR SWAP1 SSTORE POP PUSH2 0x1652 PUSH1 0x40 MLOAD DUP1 PUSH1 0x40 ADD PUSH1 0x40 MSTORE DUP1 PUSH1 0xC DUP2 MSTORE PUSH1 0x20 ADD PUSH32 0x6574685F726F707374656E330000000000000000000000000000000000000000 DUP2 MSTORE POP PUSH2 0x1BB1 JUMP JUMPDEST PUSH1 0x1 SWAP1 POP PUSH2 0x1BAE JUMP JUMPDEST PUSH1 0x0 PUSH2 0x167A PUSH20 0xB7A07BCF2BA2F2703B24C0691B5278999C59AC7E PUSH2 0x14BC JUMP JUMPDEST GT ISZERO PUSH2 0x171C JUMPI PUSH20 0xB7A07BCF2BA2F2703B24C0691B5278999C59AC7E PUSH1 0x1 PUSH1 0x0 PUSH2 0x100 EXP DUP2 SLOAD DUP2 PUSH20 0xFFFFFFFFFFFFFFFFFFFFFFFFFFFFFFFFFFFFFFFF MUL NOT AND SWAP1 DUP4 PUSH20 0xFFFFFFFFFFFFFFFFFFFFFFFFFFFFFFFFFFFFFFFF AND MUL OR SWAP1 SSTORE POP PUSH2 0x1713 PUSH1 0x40 MLOAD DUP1 PUSH1 0x40 ADD PUSH1 0x40 MSTORE DUP1 PUSH1 0x9 DUP2 MSTORE PUSH1 0x20 ADD PUSH32 0x6574685F6B6F76616E0000000000000000000000000000000000000000000000 DUP2 MSTORE POP PUSH2 0x1BB1 JUMP JUMPDEST PUSH1 0x1 SWAP1 POP PUSH2 0x1BAE JUMP JUMPDEST PUSH1 0x0 PUSH2 0x173B PUSH20 0x146500CFD35B22E4A392FE0ADC06DE1A1368ED48 PUSH2 0x14BC JUMP JUMPDEST GT ISZERO PUSH2 0x17DD JUMPI PUSH20 0x146500CFD35B22E4A392FE0ADC06DE1A1368ED48 PUSH1 0x1 PUSH1 0x0 PUSH2 0x100 EXP DUP2 SLOAD DUP2 PUSH20 0xFFFFFFFFFFFFFFFFFFFFFFFFFFFFFFFFFFFFFFFF MUL NOT AND SWAP1 DUP4 PUSH20 0xFFFFFFFFFFFFFFFFFFFFFFFFFFFFFFFFFFFFFFFF AND MUL OR SWAP1 SSTORE POP PUSH2 0x17D4 PUSH1 0x40 MLOAD DUP1 PUSH1 0x40 ADD PUSH1 0x40 MSTORE DUP1 PUSH1 0xB DUP2 MSTORE PUSH1 0x20 ADD PUSH32 0x6574685F72696E6B656279000000000000000000000000000000000000000000 DUP2 MSTORE POP PUSH2 0x1BB1 JUMP JUMPDEST PUSH1 0x1 SWAP1 POP PUSH2 0x1BAE JUMP JUMPDEST PUSH1 0x0 PUSH2 0x17FC PUSH20 0xA2998EFD205FB9D4B4963AFB70778D6354AD3A41 PUSH2 0x14BC JUMP JUMPDEST GT ISZERO PUSH2 0x189E JUMPI PUSH20 0xA2998EFD205FB9D4B4963AFB70778D6354AD3A41 PUSH1 0x1 PUSH1 0x0 PUSH2 0x100 EXP DUP2 SLOAD DUP2 PUSH20 0xFFFFFFFFFFFFFFFFFFFFFFFFFFFFFFFFFFFFFFFF MUL NOT AND SWAP1 DUP4 PUSH20 0xFFFFFFFFFFFFFFFFFFFFFFFFFFFFFFFFFFFFFFFF AND MUL OR SWAP1 SSTORE POP PUSH2 0x1895 PUSH1 0x40 MLOAD DUP1 PUSH1 0x40 ADD PUSH1 0x40 MSTORE DUP1 PUSH1 0xA DUP2 MSTORE PUSH1 0x20 ADD PUSH32 0x6574685F676F65726C6900000000000000000000000000000000000000000000 DUP2 MSTORE POP PUSH2 0x1BB1 JUMP JUMPDEST PUSH1 0x1 SWAP1 POP PUSH2 0x1BAE JUMP JUMPDEST PUSH1 0x0 PUSH2 0x18BD PUSH20 0x90A0F94702C9630036FB9846B52BF31A1C991A84 PUSH2 0x14BC JUMP JUMPDEST GT ISZERO PUSH2 0x195F JUMPI PUSH20 0x90A0F94702C9630036FB9846B52BF31A1C991A84 PUSH1 0x1 PUSH1 0x0 PUSH2 0x100 EXP DUP2 SLOAD DUP2 PUSH20 0xFFFFFFFFFFFFFFFFFFFFFFFFFFFFFFFFFFFFFFFF MUL NOT AND SWAP1 DUP4 PUSH20 0xFFFFFFFFFFFFFFFFFFFFFFFFFFFFFFFFFFFFFFFF AND MUL OR SWAP1 SSTORE POP PUSH2 0x1956 PUSH1 0x40 MLOAD DUP1 PUSH1 0x40 ADD PUSH1 0x40 MSTORE DUP1 PUSH1 0xB DUP2 MSTORE PUSH1 0x20 ADD PUSH32 0x6273635F6D61696E6E6574000000000000000000000000000000000000000000 DUP2 MSTORE POP PUSH2 0x1BB1 JUMP JUMPDEST PUSH1 0x1 SWAP1 POP PUSH2 0x1BAE JUMP JUMPDEST PUSH1 0x0 PUSH2 0x197E PUSH20 0x816EC2AF1B56183F82F8C05759E99FEC3C3DE609 PUSH2 0x14BC JUMP JUMPDEST GT ISZERO PUSH2 0x1A20 JUMPI PUSH20 0x816EC2AF1B56183F82F8C05759E99FEC3C3DE609 PUSH1 0x1 PUSH1 0x0 PUSH2 0x100 EXP DUP2 SLOAD DUP2 PUSH20 0xFFFFFFFFFFFFFFFFFFFFFFFFFFFFFFFFFFFFFFFF MUL NOT AND SWAP1 DUP4 PUSH20 0xFFFFFFFFFFFFFFFFFFFFFFFFFFFFFFFFFFFFFFFF AND MUL OR SWAP1 SSTORE POP PUSH2 0x1A17 PUSH1 0x40 MLOAD DUP1 PUSH1 0x40 ADD PUSH1 0x40 MSTORE DUP1 PUSH1 0xF DUP2 MSTORE PUSH1 0x20 ADD PUSH32 0x706F6C79676F6E5F6D61696E6E65740000000000000000000000000000000000 DUP2 MSTORE POP PUSH2 0x1BB1 JUMP JUMPDEST PUSH1 0x1 SWAP1 POP PUSH2 0x1BAE JUMP JUMPDEST PUSH1 0x0 PUSH2 0x1A3F PUSH20 0x6F485C8BF6FC43EA212E93BBF8CE046C7F1CB475 PUSH2 0x14BC JUMP JUMPDEST GT ISZERO PUSH2 0x1AA3 JUMPI PUSH20 0x6F485C8BF6FC43EA212E93BBF8CE046C7F1CB475 PUSH1 0x1 PUSH1 0x0 PUSH2 0x100 EXP DUP2 SLOAD DUP2 PUSH20 0xFFFFFFFFFFFFFFFFFFFFFFFFFFFFFFFFFFFFFFFF MUL NOT AND SWAP1 DUP4 PUSH20 0xFFFFFFFFFFFFFFFFFFFFFFFFFFFFFFFFFFFFFFFF AND MUL OR SWAP1 SSTORE POP PUSH1 0x1 SWAP1 POP PUSH2 0x1BAE JUMP JUMPDEST PUSH1 0x0 PUSH2 0x1AC2 PUSH20 0x20E12A1F859B3FEAE5FB2A0A32C18F5A65555BBF PUSH2 0x14BC JUMP JUMPDEST GT ISZERO PUSH2 0x1B26 JUMPI PUSH20 0x20E12A1F859B3FEAE5FB2A0A32C18F5A65555BBF PUSH1 0x1 PUSH1 0x0 PUSH2 0x100 EXP DUP2 SLOAD DUP2 PUSH20 0xFFFFFFFFFFFFFFFFFFFFFFFFFFFFFFFFFFFFFFFF MUL NOT AND SWAP1 DUP4 PUSH20 0xFFFFFFFFFFFFFFFFFFFFFFFFFFFFFFFFFFFFFFFF AND MUL OR SWAP1 SSTORE POP PUSH1 0x1 SWAP1 POP PUSH2 0x1BAE JUMP JUMPDEST PUSH1 0x0 PUSH2 0x1B45 PUSH20 0x51EFAF4C8B3C9AFBD5AB9F4BBC82784AB6EF8FAA PUSH2 0x14BC JUMP JUMPDEST GT ISZERO PUSH2 0x1BA9 JUMPI PUSH20 0x51EFAF4C8B3C9AFBD5AB9F4BBC82784AB6EF8FAA PUSH1 0x1 PUSH1 0x0 PUSH2 0x100 EXP DUP2 SLOAD DUP2 PUSH20 0xFFFFFFFFFFFFFFFFFFFFFFFFFFFFFFFFFFFFFFFF MUL NOT AND SWAP1 DUP4 PUSH20 0xFFFFFFFFFFFFFFFFFFFFFFFFFFFFFFFFFFFFFFFF AND MUL OR SWAP1 SSTORE POP PUSH1 0x1 SWAP1 POP PUSH2 0x1BAE JUMP JUMPDEST PUSH1 0x0 SWAP1 POP JUMPDEST SWAP1 JUMP JUMPDEST DUP1 PUSH1 0x2 SWAP1 DUP1 MLOAD SWAP1 PUSH1 0x20 ADD SWAP1 PUSH2 0x1BC7 SWAP3 SWAP2 SWAP1 PUSH2 0x1BCB JUMP JUMPDEST POP POP JUMP JUMPDEST DUP3 DUP1 SLOAD PUSH1 0x1 DUP2 PUSH1 0x1 AND ISZERO PUSH2 0x100 MUL SUB AND PUSH1 0x2 SWAP1 DIV SWAP1 PUSH1 0x0 MSTORE PUSH1 0x20 PUSH1 0x0 KECCAK256 SWAP1 PUSH1 0x1F ADD PUSH1 0x20 SWAP1 DIV DUP2 ADD SWAP3 DUP3 PUSH1 0x1F LT PUSH2 0x1C0C JUMPI DUP1 MLOAD PUSH1 0xFF NOT AND DUP4 DUP1 ADD OR DUP6 SSTORE PUSH2 0x1C3A JUMP JUMPDEST DUP3 DUP1 ADD PUSH1 0x1 ADD DUP6 SSTORE DUP3 ISZERO PUSH2 0x1C3A JUMPI SWAP2 DUP3 ADD JUMPDEST DUP3 DUP2 GT ISZERO PUSH2 0x1C39 JUMPI DUP3 MLOAD DUP3 SSTORE SWAP2 PUSH1 0x20 ADD SWAP2 SWAP1 PUSH1 0x1 ADD SWAP1 PUSH2 0x1C1E JUMP JUMPDEST JUMPDEST POP SWAP1 POP PUSH2 0x1C47 SWAP2 SWAP1 PUSH2 0x1C4B JUMP JUMPDEST POP SWAP1 JUMP JUMPDEST PUSH2 0x1C6D SWAP2 SWAP1 JUMPDEST DUP1 DUP3 GT ISZERO PUSH2 0x1C69 JUMPI PUSH1 0x0 DUP2 PUSH1 0x0 SWAP1 SSTORE POP PUSH1 0x1 ADD PUSH2 0x1C51 JUMP JUMPDEST POP SWAP1 JUMP JUMPDEST SWAP1 JUMP INVALID POP PUSH19 0x6F7661626C6520717565727920776173204E4F SLOAD KECCAK256 PUSH20 0x656E742C20706C656173652061646420736F6D65 KECCAK256 GASLIMIT SLOAD 0x48 KECCAK256 PUSH21 0x6F20636F76657220666F7220746865207175657279 KECCAK256 PUSH7 0x65652150726F76 PUSH2 0x626C PUSH6 0x207175657279 KECCAK256 PUSH24 0x61732073656E742C207374616E64696E6720627920666F72 KECCAK256 PUSH21 0x686520616E737765722E2E2EA265627A7A72315820 PUSH24 0x839CC0340204E4A2753A1102A7AAEC9FABBACF2E08AB432A PC SHL LOG3 MLOAD DIFFICULTY PUSH21 0xEB64736F6C634300051100326A736F6E2868747470 PUSH20 0x3A2F2F6170692E636F696E6765636B6F2E636F6D 0x2F PUSH2 0x7069 0x2F PUSH23 0x332F636F696E732F6D61726B6574733F76735F63757272 PUSH6 0x6E63793D7573 PUSH5 0x266F726465 PUSH19 0x3D6D61726B65745F6361705F64657363267065 PUSH19 0x5F706167653D3126706167653D312673706172 PUSH12 0x6C696E653D66616C7365292E ADDRESS 0x2E PUSH4 0x75727265 PUSH15 0x745F70726963650000000000000000 "
				},
				"gasEstimates": {
					"creation": {
						"codeDepositCost": "1492600",
						"executionCost": "infinite",
						"totalCost": "infinite"
					},
					"external": {
						"GET_BITCOIN_PRICE_QUERY()": "infinite",
						"__callback(bytes32,string)": "infinite",
						"__callback(bytes32,string,bytes)": "infinite",
						"pendingQueries(bytes32)": "1266",
						"result()": "infinite",
						"retrieveBitcoinPrice()": "infinite"
					}
				},
				"methodIdentifiers": {
					"GET_BITCOIN_PRICE_QUERY()": "dbab89b6",
					"__callback(bytes32,string)": "27dc297e",
					"__callback(bytes32,string,bytes)": "38bbfa50",
					"pendingQueries(bytes32)": "89a2cdcb",
					"result()": "65372147",
					"retrieveBitcoinPrice()": "32b39327"
				}
			},
			"storageLayout": {
				"storage": [
					{
						"astId": 757,
						"contract": "contracts/BitcoinPrice.sol:BitcoinPrice",
						"label": "provable",
						"offset": 0,
						"slot": "0",
						"type": "t_contract(ProvableI)215"
					},
					{
						"astId": 759,
						"contract": "contracts/BitcoinPrice.sol:BitcoinPrice",
						"label": "OAR",
						"offset": 0,
						"slot": "1",
						"type": "t_contract(OracleAddrResolverI)221"
					},
					{
						"astId": 804,
						"contract": "contracts/BitcoinPrice.sol:BitcoinPrice",
						"label": "provable_network_name",
						"offset": 0,
						"slot": "2",
						"type": "t_string_storage"
					},
					{
						"astId": 823,
						"contract": "contracts/BitcoinPrice.sol:BitcoinPrice",
						"label": "provable_randomDS_args",
						"offset": 0,
						"slot": "3",
						"type": "t_mapping(t_bytes32,t_bytes32)"
					},
					{
						"astId": 827,
						"contract": "contracts/BitcoinPrice.sol:BitcoinPrice",
						"label": "provable_randomDS_sessionKeysHashVerified",
						"offset": 0,
						"slot": "4",
						"type": "t_mapping(t_bytes32,t_bool)"
					},
					{
						"astId": 7,
						"contract": "contracts/BitcoinPrice.sol:BitcoinPrice",
						"label": "GET_BITCOIN_PRICE_QUERY",
						"offset": 0,
						"slot": "5",
						"type": "t_string_storage"
					},
					{
						"astId": 19,
						"contract": "contracts/BitcoinPrice.sol:BitcoinPrice",
						"label": "pendingQueries",
						"offset": 0,
						"slot": "6",
						"type": "t_mapping(t_bytes32,t_bool)"
					},
					{
						"astId": 21,
						"contract": "contracts/BitcoinPrice.sol:BitcoinPrice",
						"label": "result",
						"offset": 0,
						"slot": "7",
						"type": "t_string_storage"
					}
				],
				"types": {
					"t_bool": {
						"encoding": "inplace",
						"label": "bool",
						"numberOfBytes": "1"
					},
					"t_bytes32": {
						"encoding": "inplace",
						"label": "bytes32",
						"numberOfBytes": "32"
					},
					"t_contract(OracleAddrResolverI)221": {
						"encoding": "inplace",
						"label": "contract OracleAddrResolverI",
						"numberOfBytes": "20"
					},
					"t_contract(ProvableI)215": {
						"encoding": "inplace",
						"label": "contract ProvableI",
						"numberOfBytes": "20"
					},
					"t_mapping(t_bytes32,t_bool)": {
						"encoding": "mapping",
						"key": "t_bytes32",
						"label": "mapping(bytes32 => bool)",
						"numberOfBytes": "32",
						"value": "t_bool"
					},
					"t_mapping(t_bytes32,t_bytes32)": {
						"encoding": "mapping",
						"key": "t_bytes32",
						"label": "mapping(bytes32 => bytes32)",
						"numberOfBytes": "32",
						"value": "t_bytes32"
					},
					"t_string_storage": {
						"encoding": "bytes",
						"label": "string",
						"numberOfBytes": "32"
					}
				}
			},
			"userdoc": {
				"methods": {}
			}
		}
	}
}