{
	"contracts/MedicalData.sol": {
		"MedicalData": {
			"abi": [
				{
					"inputs": [],
					"name": "appoint",
					"outputs": [
						{
							"internalType": "string",
							"name": "",
							"type": "string"
						}
					],
					"stateMutability": "view",
					"type": "function"
				},
				{
					"inputs": [],
					"name": "history",
					"outputs": [
						{
							"internalType": "contract MedicalHistory",
							"name": "",
							"type": "address"
						}
					],
					"stateMutability": "view",
					"type": "function"
				},
				{
					"inputs": [],
					"name": "owner",
					"outputs": [
						{
							"internalType": "address",
							"name": "",
							"type": "address"
						}
					],
					"stateMutability": "view",
					"type": "function"
				}
			],
			"devdoc": {
				"kind": "dev",
				"methods": {},
				"title": "A interface with Medical Data",
				"version": 1
			},
			"evm": {
				"assembly": "    /* \"contracts/MedicalData.sol\":142:361  contract MedicalData {\r... */\n  mstore(0x40, 0x80)\n  callvalue\n  dup1\n  iszero\n  tag_1\n  jumpi\n  0x00\n  dup1\n  revert\ntag_1:\n  pop\n  dataSize(sub_0)\n  dup1\n  dataOffset(sub_0)\n  0x00\n  codecopy\n  0x00\n  return\nstop\n\nsub_0: assembly {\n        /* \"contracts/MedicalData.sol\":142:361  contract MedicalData {\r... */\n      mstore(0x40, 0x80)\n      callvalue\n      dup1\n      iszero\n      tag_1\n      jumpi\n      0x00\n      dup1\n      revert\n    tag_1:\n      pop\n      jumpi(tag_2, lt(calldatasize, 0x04))\n      shr(0xe0, calldataload(0x00))\n      dup1\n      0x8da5cb5b\n      eq\n      tag_3\n      jumpi\n      dup1\n      0x98daac83\n      eq\n      tag_4\n      jumpi\n      dup1\n      0x99eb2221\n      eq\n      tag_5\n      jumpi\n    tag_2:\n      0x00\n      dup1\n      revert\n        /* \"contracts/MedicalData.sol\":172:192  address public owner */\n    tag_3:\n      tag_6\n      tag_7\n      jump\t// in\n    tag_6:\n      mload(0x40)\n      tag_8\n      swap2\n      swap1\n      tag_9\n      jump\t// in\n    tag_8:\n      mload(0x40)\n      dup1\n      swap2\n      sub\n      swap1\n      return\n        /* \"contracts/MedicalData.sol\":199:228  MedicalHistory public history */\n    tag_4:\n      tag_10\n      tag_11\n      jump\t// in\n    tag_10:\n      mload(0x40)\n      tag_12\n      swap2\n      swap1\n      tag_13\n      jump\t// in\n    tag_12:\n      mload(0x40)\n      dup1\n      swap2\n      sub\n      swap1\n      return\n        /* \"contracts/MedicalData.sol\":275:296  string public appoint */\n    tag_5:\n      tag_14\n      tag_15\n      jump\t// in\n    tag_14:\n      mload(0x40)\n      tag_16\n      swap2\n      swap1\n      tag_17\n      jump\t// in\n    tag_16:\n      mload(0x40)\n      dup1\n      swap2\n      sub\n      swap1\n      return\n        /* \"contracts/MedicalData.sol\":172:192  address public owner */\n    tag_7:\n      0x00\n      dup1\n      sload\n      swap1\n      0x0100\n      exp\n      swap1\n      div\n      0xffffffffffffffffffffffffffffffffffffffff\n      and\n      dup2\n      jump\t// out\n        /* \"contracts/MedicalData.sol\":199:228  MedicalHistory public history */\n    tag_11:\n      0x01\n      0x00\n      swap1\n      sload\n      swap1\n      0x0100\n      exp\n      swap1\n      div\n      0xffffffffffffffffffffffffffffffffffffffff\n      and\n      dup2\n      jump\t// out\n        /* \"contracts/MedicalData.sol\":275:296  string public appoint */\n    tag_15:\n      0x02\n      dup1\n      sload\n      tag_18\n      swap1\n      tag_19\n      jump\t// in\n    tag_18:\n      dup1\n      0x1f\n      add\n      0x20\n      dup1\n      swap2\n      div\n      mul\n      0x20\n      add\n      mload(0x40)\n      swap1\n      dup2\n      add\n      0x40\n      mstore\n      dup1\n      swap3\n      swap2\n      swap1\n      dup2\n      dup2\n      mstore\n      0x20\n      add\n      dup3\n      dup1\n      sload\n      tag_20\n      swap1\n      tag_19\n      jump\t// in\n    tag_20:\n      dup1\n      iszero\n      tag_21\n      jumpi\n      dup1\n      0x1f\n      lt\n      tag_22\n      jumpi\n      0x0100\n      dup1\n      dup4\n      sload\n      div\n      mul\n      dup4\n      mstore\n      swap2\n      0x20\n      add\n      swap2\n      jump(tag_21)\n    tag_22:\n      dup3\n      add\n      swap2\n      swap1\n      0x00\n      mstore\n      keccak256(0x00, 0x20)\n      swap1\n    tag_23:\n      dup2\n      sload\n      dup2\n      mstore\n      swap1\n      0x01\n      add\n      swap1\n      0x20\n      add\n      dup1\n      dup4\n      gt\n      tag_23\n      jumpi\n      dup3\n      swap1\n      sub\n      0x1f\n      and\n      dup3\n      add\n      swap2\n    tag_21:\n      pop\n      pop\n      pop\n      pop\n      pop\n      dup2\n      jump\t// out\n        /* \"#utility.yul\":7:125   */\n    tag_25:\n        /* \"#utility.yul\":94:118   */\n      tag_27\n        /* \"#utility.yul\":112:117   */\n      dup2\n        /* \"#utility.yul\":94:118   */\n      tag_28\n      jump\t// in\n    tag_27:\n        /* \"#utility.yul\":89:92   */\n      dup3\n        /* \"#utility.yul\":82:119   */\n      mstore\n        /* \"#utility.yul\":7:125   */\n      pop\n      pop\n      jump\t// out\n        /* \"#utility.yul\":131:304   */\n    tag_29:\n        /* \"#utility.yul\":239:297   */\n      tag_31\n        /* \"#utility.yul\":291:296   */\n      dup2\n        /* \"#utility.yul\":239:297   */\n      tag_32\n      jump\t// in\n    tag_31:\n        /* \"#utility.yul\":234:237   */\n      dup3\n        /* \"#utility.yul\":227:298   */\n      mstore\n        /* \"#utility.yul\":131:304   */\n      pop\n      pop\n      jump\t// out\n        /* \"#utility.yul\":310:674   */\n    tag_33:\n        /* \"#utility.yul\":398:401   */\n      0x00\n        /* \"#utility.yul\":426:465   */\n      tag_35\n        /* \"#utility.yul\":459:464   */\n      dup3\n        /* \"#utility.yul\":426:465   */\n      tag_36\n      jump\t// in\n    tag_35:\n        /* \"#utility.yul\":481:552   */\n      tag_37\n        /* \"#utility.yul\":545:551   */\n      dup2\n        /* \"#utility.yul\":540:543   */\n      dup6\n        /* \"#utility.yul\":481:552   */\n      tag_38\n      jump\t// in\n    tag_37:\n        /* \"#utility.yul\":474:552   */\n      swap4\n      pop\n        /* \"#utility.yul\":561:613   */\n      tag_39\n        /* \"#utility.yul\":606:612   */\n      dup2\n        /* \"#utility.yul\":601:604   */\n      dup6\n        /* \"#utility.yul\":594:598   */\n      0x20\n        /* \"#utility.yul\":587:592   */\n      dup7\n        /* \"#utility.yul\":583:599   */\n      add\n        /* \"#utility.yul\":561:613   */\n      tag_40\n      jump\t// in\n    tag_39:\n        /* \"#utility.yul\":638:667   */\n      tag_41\n        /* \"#utility.yul\":660:666   */\n      dup2\n        /* \"#utility.yul\":638:667   */\n      tag_42\n      jump\t// in\n    tag_41:\n        /* \"#utility.yul\":633:636   */\n      dup5\n        /* \"#utility.yul\":629:668   */\n      add\n        /* \"#utility.yul\":622:668   */\n      swap2\n      pop\n        /* \"#utility.yul\":402:674   */\n      pop\n        /* \"#utility.yul\":310:674   */\n      swap3\n      swap2\n      pop\n      pop\n      jump\t// out\n        /* \"#utility.yul\":680:902   */\n    tag_9:\n        /* \"#utility.yul\":773:777   */\n      0x00\n        /* \"#utility.yul\":811:813   */\n      0x20\n        /* \"#utility.yul\":800:809   */\n      dup3\n        /* \"#utility.yul\":796:814   */\n      add\n        /* \"#utility.yul\":788:814   */\n      swap1\n      pop\n        /* \"#utility.yul\":824:895   */\n      tag_44\n        /* \"#utility.yul\":892:893   */\n      0x00\n        /* \"#utility.yul\":881:890   */\n      dup4\n        /* \"#utility.yul\":877:894   */\n      add\n        /* \"#utility.yul\":868:874   */\n      dup5\n        /* \"#utility.yul\":824:895   */\n      tag_25\n      jump\t// in\n    tag_44:\n        /* \"#utility.yul\":680:902   */\n      swap3\n      swap2\n      pop\n      pop\n      jump\t// out\n        /* \"#utility.yul\":908:1172   */\n    tag_13:\n        /* \"#utility.yul\":1022:1026   */\n      0x00\n        /* \"#utility.yul\":1060:1062   */\n      0x20\n        /* \"#utility.yul\":1049:1058   */\n      dup3\n        /* \"#utility.yul\":1045:1063   */\n      add\n        /* \"#utility.yul\":1037:1063   */\n      swap1\n      pop\n        /* \"#utility.yul\":1073:1165   */\n      tag_46\n        /* \"#utility.yul\":1162:1163   */\n      0x00\n        /* \"#utility.yul\":1151:1160   */\n      dup4\n        /* \"#utility.yul\":1147:1164   */\n      add\n        /* \"#utility.yul\":1138:1144   */\n      dup5\n        /* \"#utility.yul\":1073:1165   */\n      tag_29\n      jump\t// in\n    tag_46:\n        /* \"#utility.yul\":908:1172   */\n      swap3\n      swap2\n      pop\n      pop\n      jump\t// out\n        /* \"#utility.yul\":1178:1491   */\n    tag_17:\n        /* \"#utility.yul\":1291:1295   */\n      0x00\n        /* \"#utility.yul\":1329:1331   */\n      0x20\n        /* \"#utility.yul\":1318:1327   */\n      dup3\n        /* \"#utility.yul\":1314:1332   */\n      add\n        /* \"#utility.yul\":1306:1332   */\n      swap1\n      pop\n        /* \"#utility.yul\":1378:1387   */\n      dup2\n        /* \"#utility.yul\":1372:1376   */\n      dup2\n        /* \"#utility.yul\":1368:1388   */\n      sub\n        /* \"#utility.yul\":1364:1365   */\n      0x00\n        /* \"#utility.yul\":1353:1362   */\n      dup4\n        /* \"#utility.yul\":1349:1366   */\n      add\n        /* \"#utility.yul\":1342:1389   */\n      mstore\n        /* \"#utility.yul\":1406:1484   */\n      tag_48\n        /* \"#utility.yul\":1479:1483   */\n      dup2\n        /* \"#utility.yul\":1470:1476   */\n      dup5\n        /* \"#utility.yul\":1406:1484   */\n      tag_33\n      jump\t// in\n    tag_48:\n        /* \"#utility.yul\":1398:1484   */\n      swap1\n      pop\n        /* \"#utility.yul\":1178:1491   */\n      swap3\n      swap2\n      pop\n      pop\n      jump\t// out\n        /* \"#utility.yul\":1497:1596   */\n    tag_36:\n        /* \"#utility.yul\":1549:1555   */\n      0x00\n        /* \"#utility.yul\":1583:1588   */\n      dup2\n        /* \"#utility.yul\":1577:1589   */\n      mload\n        /* \"#utility.yul\":1567:1589   */\n      swap1\n      pop\n        /* \"#utility.yul\":1497:1596   */\n      swap2\n      swap1\n      pop\n      jump\t// out\n        /* \"#utility.yul\":1602:1771   */\n    tag_38:\n        /* \"#utility.yul\":1686:1697   */\n      0x00\n        /* \"#utility.yul\":1720:1726   */\n      dup3\n        /* \"#utility.yul\":1715:1718   */\n      dup3\n        /* \"#utility.yul\":1708:1727   */\n      mstore\n        /* \"#utility.yul\":1760:1764   */\n      0x20\n        /* \"#utility.yul\":1755:1758   */\n      dup3\n        /* \"#utility.yul\":1751:1765   */\n      add\n        /* \"#utility.yul\":1736:1765   */\n      swap1\n      pop\n        /* \"#utility.yul\":1602:1771   */\n      swap3\n      swap2\n      pop\n      pop\n      jump\t// out\n        /* \"#utility.yul\":1777:1873   */\n    tag_28:\n        /* \"#utility.yul\":1814:1821   */\n      0x00\n        /* \"#utility.yul\":1843:1867   */\n      tag_52\n        /* \"#utility.yul\":1861:1866   */\n      dup3\n        /* \"#utility.yul\":1843:1867   */\n      tag_53\n      jump\t// in\n    tag_52:\n        /* \"#utility.yul\":1832:1867   */\n      swap1\n      pop\n        /* \"#utility.yul\":1777:1873   */\n      swap2\n      swap1\n      pop\n      jump\t// out\n        /* \"#utility.yul\":1879:2005   */\n    tag_53:\n        /* \"#utility.yul\":1916:1923   */\n      0x00\n        /* \"#utility.yul\":1956:1998   */\n      0xffffffffffffffffffffffffffffffffffffffff\n        /* \"#utility.yul\":1949:1954   */\n      dup3\n        /* \"#utility.yul\":1945:1999   */\n      and\n        /* \"#utility.yul\":1934:1999   */\n      swap1\n      pop\n        /* \"#utility.yul\":1879:2005   */\n      swap2\n      swap1\n      pop\n      jump\t// out\n        /* \"#utility.yul\":2011:2158   */\n    tag_32:\n        /* \"#utility.yul\":2082:2091   */\n      0x00\n        /* \"#utility.yul\":2115:2152   */\n      tag_56\n        /* \"#utility.yul\":2146:2151   */\n      dup3\n        /* \"#utility.yul\":2115:2152   */\n      tag_57\n      jump\t// in\n    tag_56:\n        /* \"#utility.yul\":2102:2152   */\n      swap1\n      pop\n        /* \"#utility.yul\":2011:2158   */\n      swap2\n      swap1\n      pop\n      jump\t// out\n        /* \"#utility.yul\":2164:2290   */\n    tag_57:\n        /* \"#utility.yul\":2214:2223   */\n      0x00\n        /* \"#utility.yul\":2247:2284   */\n      tag_59\n        /* \"#utility.yul\":2278:2283   */\n      dup3\n        /* \"#utility.yul\":2247:2284   */\n      tag_60\n      jump\t// in\n    tag_59:\n        /* \"#utility.yul\":2234:2284   */\n      swap1\n      pop\n        /* \"#utility.yul\":2164:2290   */\n      swap2\n      swap1\n      pop\n      jump\t// out\n        /* \"#utility.yul\":2296:2409   */\n    tag_60:\n        /* \"#utility.yul\":2346:2355   */\n      0x00\n        /* \"#utility.yul\":2379:2403   */\n      tag_62\n        /* \"#utility.yul\":2397:2402   */\n      dup3\n        /* \"#utility.yul\":2379:2403   */\n      tag_53\n      jump\t// in\n    tag_62:\n        /* \"#utility.yul\":2366:2403   */\n      swap1\n      pop\n        /* \"#utility.yul\":2296:2409   */\n      swap2\n      swap1\n      pop\n      jump\t// out\n        /* \"#utility.yul\":2415:2722   */\n    tag_40:\n        /* \"#utility.yul\":2483:2484   */\n      0x00\n        /* \"#utility.yul\":2493:2606   */\n    tag_64:\n        /* \"#utility.yul\":2507:2513   */\n      dup4\n        /* \"#utility.yul\":2504:2505   */\n      dup2\n        /* \"#utility.yul\":2501:2514   */\n      lt\n        /* \"#utility.yul\":2493:2606   */\n      iszero\n      tag_66\n      jumpi\n        /* \"#utility.yul\":2592:2593   */\n      dup1\n        /* \"#utility.yul\":2587:2590   */\n      dup3\n        /* \"#utility.yul\":2583:2594   */\n      add\n        /* \"#utility.yul\":2577:2595   */\n      mload\n        /* \"#utility.yul\":2573:2574   */\n      dup2\n        /* \"#utility.yul\":2568:2571   */\n      dup5\n        /* \"#utility.yul\":2564:2575   */\n      add\n        /* \"#utility.yul\":2557:2596   */\n      mstore\n        /* \"#utility.yul\":2529:2531   */\n      0x20\n        /* \"#utility.yul\":2526:2527   */\n      dup2\n        /* \"#utility.yul\":2522:2532   */\n      add\n        /* \"#utility.yul\":2517:2532   */\n      swap1\n      pop\n        /* \"#utility.yul\":2493:2606   */\n      jump(tag_64)\n    tag_66:\n        /* \"#utility.yul\":2624:2630   */\n      dup4\n        /* \"#utility.yul\":2621:2622   */\n      dup2\n        /* \"#utility.yul\":2618:2631   */\n      gt\n        /* \"#utility.yul\":2615:2716   */\n      iszero\n      tag_67\n      jumpi\n        /* \"#utility.yul\":2704:2705   */\n      0x00\n        /* \"#utility.yul\":2695:2701   */\n      dup5\n        /* \"#utility.yul\":2690:2693   */\n      dup5\n        /* \"#utility.yul\":2686:2702   */\n      add\n        /* \"#utility.yul\":2679:2706   */\n      mstore\n        /* \"#utility.yul\":2615:2716   */\n    tag_67:\n        /* \"#utility.yul\":2464:2722   */\n      pop\n        /* \"#utility.yul\":2415:2722   */\n      pop\n      pop\n      pop\n      jump\t// out\n        /* \"#utility.yul\":2728:3048   */\n    tag_19:\n        /* \"#utility.yul\":2772:2778   */\n      0x00\n        /* \"#utility.yul\":2809:2810   */\n      0x02\n        /* \"#utility.yul\":2803:2807   */\n      dup3\n        /* \"#utility.yul\":2799:2811   */\n      div\n        /* \"#utility.yul\":2789:2811   */\n      swap1\n      pop\n        /* \"#utility.yul\":2856:2857   */\n      0x01\n        /* \"#utility.yul\":2850:2854   */\n      dup3\n        /* \"#utility.yul\":2846:2858   */\n      and\n        /* \"#utility.yul\":2877:2895   */\n      dup1\n        /* \"#utility.yul\":2867:2948   */\n      tag_69\n      jumpi\n        /* \"#utility.yul\":2933:2937   */\n      0x7f\n        /* \"#utility.yul\":2925:2931   */\n      dup3\n        /* \"#utility.yul\":2921:2938   */\n      and\n        /* \"#utility.yul\":2911:2938   */\n      swap2\n      pop\n        /* \"#utility.yul\":2867:2948   */\n    tag_69:\n        /* \"#utility.yul\":2995:2997   */\n      0x20\n        /* \"#utility.yul\":2987:2993   */\n      dup3\n        /* \"#utility.yul\":2984:2998   */\n      lt\n        /* \"#utility.yul\":2964:2982   */\n      dup2\n        /* \"#utility.yul\":2961:2999   */\n      eq\n        /* \"#utility.yul\":2958:3042   */\n      iszero\n      tag_70\n      jumpi\n        /* \"#utility.yul\":3014:3032   */\n      tag_71\n      tag_72\n      jump\t// in\n    tag_71:\n        /* \"#utility.yul\":2958:3042   */\n    tag_70:\n        /* \"#utility.yul\":2779:3048   */\n      pop\n        /* \"#utility.yul\":2728:3048   */\n      swap2\n      swap1\n      pop\n      jump\t// out\n        /* \"#utility.yul\":3054:3234   */\n    tag_72:\n        /* \"#utility.yul\":3102:3179   */\n      0x4e487b7100000000000000000000000000000000000000000000000000000000\n        /* \"#utility.yul\":3099:3100   */\n      0x00\n        /* \"#utility.yul\":3092:3180   */\n      mstore\n        /* \"#utility.yul\":3199:3203   */\n      0x22\n        /* \"#utility.yul\":3196:3197   */\n      0x04\n        /* \"#utility.yul\":3189:3204   */\n      mstore\n        /* \"#utility.yul\":3223:3227   */\n      0x24\n        /* \"#utility.yul\":3220:3221   */\n      0x00\n        /* \"#utility.yul\":3213:3228   */\n      revert\n        /* \"#utility.yul\":3240:3342   */\n    tag_42:\n        /* \"#utility.yul\":3281:3287   */\n      0x00\n        /* \"#utility.yul\":3332:3334   */\n      0x1f\n        /* \"#utility.yul\":3328:3335   */\n      not\n        /* \"#utility.yul\":3323:3325   */\n      0x1f\n        /* \"#utility.yul\":3316:3321   */\n      dup4\n        /* \"#utility.yul\":3312:3326   */\n      add\n        /* \"#utility.yul\":3308:3336   */\n      and\n        /* \"#utility.yul\":3298:3336   */\n      swap1\n      pop\n        /* \"#utility.yul\":3240:3342   */\n      swap2\n      swap1\n      pop\n      jump\t// out\n\n    auxdata: 0xa2646970667358221220d433176c872bb3b27bdf0a09efeec77bf724e500dd5181889255c481ecb32dc064736f6c63430008070033\n}\n",
				"bytecode": {
					"linkReferences": {},
					"object": "608060405234801561001057600080fd5b50610386806100206000396000f3fe608060405234801561001057600080fd5b50600436106100415760003560e01c80638da5cb5b1461004657806398daac831461006457806399eb222114610082575b600080fd5b61004e6100a0565b60405161005b91906101cf565b60405180910390f35b61006c6100c4565b60405161007991906101ea565b60405180910390f35b61008a6100ea565b6040516100979190610205565b60405180910390f35b60008054906101000a900473ffffffffffffffffffffffffffffffffffffffff1681565b600160009054906101000a900473ffffffffffffffffffffffffffffffffffffffff1681565b600280546100f7906102de565b80601f0160208091040260200160405190810160405280929190818152602001828054610123906102de565b80156101705780601f1061014557610100808354040283529160200191610170565b820191906000526020600020905b81548152906001019060200180831161015357829003601f168201915b505050505081565b61018181610243565b82525050565b61019081610275565b82525050565b60006101a182610227565b6101ab8185610232565b93506101bb8185602086016102ab565b6101c48161033f565b840191505092915050565b60006020820190506101e46000830184610178565b92915050565b60006020820190506101ff6000830184610187565b92915050565b6000602082019050818103600083015261021f8184610196565b905092915050565b600081519050919050565b600082825260208201905092915050565b600061024e82610255565b9050919050565b600073ffffffffffffffffffffffffffffffffffffffff82169050919050565b600061028082610287565b9050919050565b600061029282610299565b9050919050565b60006102a482610255565b9050919050565b60005b838110156102c95780820151818401526020810190506102ae565b838111156102d8576000848401525b50505050565b600060028204905060018216806102f657607f821691505b6020821081141561030a57610309610310565b5b50919050565b7f4e487b7100000000000000000000000000000000000000000000000000000000600052602260045260246000fd5b6000601f19601f830116905091905056fea2646970667358221220d433176c872bb3b27bdf0a09efeec77bf724e500dd5181889255c481ecb32dc064736f6c63430008070033",
					"opcodes": "PUSH1 0x80 PUSH1 0x40 MSTORE CALLVALUE DUP1 ISZERO PUSH2 0x10 JUMPI PUSH1 0x0 DUP1 REVERT JUMPDEST POP PUSH2 0x386 DUP1 PUSH2 0x20 PUSH1 0x0 CODECOPY PUSH1 0x0 RETURN INVALID PUSH1 0x80 PUSH1 0x40 MSTORE CALLVALUE DUP1 ISZERO PUSH2 0x10 JUMPI PUSH1 0x0 DUP1 REVERT JUMPDEST POP PUSH1 0x4 CALLDATASIZE LT PUSH2 0x41 JUMPI PUSH1 0x0 CALLDATALOAD PUSH1 0xE0 SHR DUP1 PUSH4 0x8DA5CB5B EQ PUSH2 0x46 JUMPI DUP1 PUSH4 0x98DAAC83 EQ PUSH2 0x64 JUMPI DUP1 PUSH4 0x99EB2221 EQ PUSH2 0x82 JUMPI JUMPDEST PUSH1 0x0 DUP1 REVERT JUMPDEST PUSH2 0x4E PUSH2 0xA0 JUMP JUMPDEST PUSH1 0x40 MLOAD PUSH2 0x5B SWAP2 SWAP1 PUSH2 0x1CF JUMP JUMPDEST PUSH1 0x40 MLOAD DUP1 SWAP2 SUB SWAP1 RETURN JUMPDEST PUSH2 0x6C PUSH2 0xC4 JUMP JUMPDEST PUSH1 0x40 MLOAD PUSH2 0x79 SWAP2 SWAP1 PUSH2 0x1EA JUMP JUMPDEST PUSH1 0x40 MLOAD DUP1 SWAP2 SUB SWAP1 RETURN JUMPDEST PUSH2 0x8A PUSH2 0xEA JUMP JUMPDEST PUSH1 0x40 MLOAD PUSH2 0x97 SWAP2 SWAP1 PUSH2 0x205 JUMP JUMPDEST PUSH1 0x40 MLOAD DUP1 SWAP2 SUB SWAP1 RETURN JUMPDEST PUSH1 0x0 DUP1 SLOAD SWAP1 PUSH2 0x100 EXP SWAP1 DIV PUSH20 0xFFFFFFFFFFFFFFFFFFFFFFFFFFFFFFFFFFFFFFFF AND DUP2 JUMP JUMPDEST PUSH1 0x1 PUSH1 0x0 SWAP1 SLOAD SWAP1 PUSH2 0x100 EXP SWAP1 DIV PUSH20 0xFFFFFFFFFFFFFFFFFFFFFFFFFFFFFFFFFFFFFFFF AND DUP2 JUMP JUMPDEST PUSH1 0x2 DUP1 SLOAD PUSH2 0xF7 SWAP1 PUSH2 0x2DE JUMP JUMPDEST DUP1 PUSH1 0x1F ADD PUSH1 0x20 DUP1 SWAP2 DIV MUL PUSH1 0x20 ADD PUSH1 0x40 MLOAD SWAP1 DUP2 ADD PUSH1 0x40 MSTORE DUP1 SWAP3 SWAP2 SWAP1 DUP2 DUP2 MSTORE PUSH1 0x20 ADD DUP3 DUP1 SLOAD PUSH2 0x123 SWAP1 PUSH2 0x2DE JUMP JUMPDEST DUP1 ISZERO PUSH2 0x170 JUMPI DUP1 PUSH1 0x1F LT PUSH2 0x145 JUMPI PUSH2 0x100 DUP1 DUP4 SLOAD DIV MUL DUP4 MSTORE SWAP2 PUSH1 0x20 ADD SWAP2 PUSH2 0x170 JUMP JUMPDEST DUP3 ADD SWAP2 SWAP1 PUSH1 0x0 MSTORE PUSH1 0x20 PUSH1 0x0 KECCAK256 SWAP1 JUMPDEST DUP2 SLOAD DUP2 MSTORE SWAP1 PUSH1 0x1 ADD SWAP1 PUSH1 0x20 ADD DUP1 DUP4 GT PUSH2 0x153 JUMPI DUP3 SWAP1 SUB PUSH1 0x1F AND DUP3 ADD SWAP2 JUMPDEST POP POP POP POP POP DUP2 JUMP JUMPDEST PUSH2 0x181 DUP2 PUSH2 0x243 JUMP JUMPDEST DUP3 MSTORE POP POP JUMP JUMPDEST PUSH2 0x190 DUP2 PUSH2 0x275 JUMP JUMPDEST DUP3 MSTORE POP POP JUMP JUMPDEST PUSH1 0x0 PUSH2 0x1A1 DUP3 PUSH2 0x227 JUMP JUMPDEST PUSH2 0x1AB DUP2 DUP6 PUSH2 0x232 JUMP JUMPDEST SWAP4 POP PUSH2 0x1BB DUP2 DUP6 PUSH1 0x20 DUP7 ADD PUSH2 0x2AB JUMP JUMPDEST PUSH2 0x1C4 DUP2 PUSH2 0x33F JUMP JUMPDEST DUP5 ADD SWAP2 POP POP SWAP3 SWAP2 POP POP JUMP JUMPDEST PUSH1 0x0 PUSH1 0x20 DUP3 ADD SWAP1 POP PUSH2 0x1E4 PUSH1 0x0 DUP4 ADD DUP5 PUSH2 0x178 JUMP JUMPDEST SWAP3 SWAP2 POP POP JUMP JUMPDEST PUSH1 0x0 PUSH1 0x20 DUP3 ADD SWAP1 POP PUSH2 0x1FF PUSH1 0x0 DUP4 ADD DUP5 PUSH2 0x187 JUMP JUMPDEST SWAP3 SWAP2 POP POP JUMP JUMPDEST PUSH1 0x0 PUSH1 0x20 DUP3 ADD SWAP1 POP DUP2 DUP2 SUB PUSH1 0x0 DUP4 ADD MSTORE PUSH2 0x21F DUP2 DUP5 PUSH2 0x196 JUMP JUMPDEST SWAP1 POP SWAP3 SWAP2 POP POP JUMP JUMPDEST PUSH1 0x0 DUP2 MLOAD SWAP1 POP SWAP2 SWAP1 POP JUMP JUMPDEST PUSH1 0x0 DUP3 DUP3 MSTORE PUSH1 0x20 DUP3 ADD SWAP1 POP SWAP3 SWAP2 POP POP JUMP JUMPDEST PUSH1 0x0 PUSH2 0x24E DUP3 PUSH2 0x255 JUMP JUMPDEST SWAP1 POP SWAP2 SWAP1 POP JUMP JUMPDEST PUSH1 0x0 PUSH20 0xFFFFFFFFFFFFFFFFFFFFFFFFFFFFFFFFFFFFFFFF DUP3 AND SWAP1 POP SWAP2 SWAP1 POP JUMP JUMPDEST PUSH1 0x0 PUSH2 0x280 DUP3 PUSH2 0x287 JUMP JUMPDEST SWAP1 POP SWAP2 SWAP1 POP JUMP JUMPDEST PUSH1 0x0 PUSH2 0x292 DUP3 PUSH2 0x299 JUMP JUMPDEST SWAP1 POP SWAP2 SWAP1 POP JUMP JUMPDEST PUSH1 0x0 PUSH2 0x2A4 DUP3 PUSH2 0x255 JUMP JUMPDEST SWAP1 POP SWAP2 SWAP1 POP JUMP JUMPDEST PUSH1 0x0 JUMPDEST DUP4 DUP2 LT ISZERO PUSH2 0x2C9 JUMPI DUP1 DUP3 ADD MLOAD DUP2 DUP5 ADD MSTORE PUSH1 0x20 DUP2 ADD SWAP1 POP PUSH2 0x2AE JUMP JUMPDEST DUP4 DUP2 GT ISZERO PUSH2 0x2D8 JUMPI PUSH1 0x0 DUP5 DUP5 ADD MSTORE JUMPDEST POP POP POP POP JUMP JUMPDEST PUSH1 0x0 PUSH1 0x2 DUP3 DIV SWAP1 POP PUSH1 0x1 DUP3 AND DUP1 PUSH2 0x2F6 JUMPI PUSH1 0x7F DUP3 AND SWAP2 POP JUMPDEST PUSH1 0x20 DUP3 LT DUP2 EQ ISZERO PUSH2 0x30A JUMPI PUSH2 0x309 PUSH2 0x310 JUMP JUMPDEST JUMPDEST POP SWAP2 SWAP1 POP JUMP JUMPDEST PUSH32 0x4E487B7100000000000000000000000000000000000000000000000000000000 PUSH1 0x0 MSTORE PUSH1 0x22 PUSH1 0x4 MSTORE PUSH1 0x24 PUSH1 0x0 REVERT JUMPDEST PUSH1 0x0 PUSH1 0x1F NOT PUSH1 0x1F DUP4 ADD AND SWAP1 POP SWAP2 SWAP1 POP JUMP INVALID LOG2 PUSH5 0x6970667358 0x22 SLT KECCAK256 0xD4 CALLER OR PUSH13 0x872BB3B27BDF0A09EFEEC77BF7 0x24 0xE5 STOP 0xDD MLOAD DUP2 DUP9 SWAP3 SSTORE 0xC4 DUP2 0xEC 0xB3 0x2D 0xC0 PUSH5 0x736F6C6343 STOP ADDMOD SMOD STOP CALLER "
				},
				"gasEstimates": {
					"creation": {
						"codeDepositCost": "180400",
						"executionCost": "226",
						"totalCost": "180626"
					},
					"external": {
						"appoint()": "infinite",
						"history()": "2600",
						"owner()": "2489"
					}
				},
				"methodIdentifiers": {
					"appoint()": "99eb2221",
					"history()": "98daac83",
					"owner()": "8da5cb5b"
				}
			},
			"storageLayout": {
				"storage": [
					{
						"astId": 5,
						"contract": "contracts/MedicalData.sol:MedicalData",
						"label": "owner",
						"offset": 0,
						"slot": "0",
						"type": "t_address"
					},
					{
						"astId": 8,
						"contract": "contracts/MedicalData.sol:MedicalData",
						"label": "history",
						"offset": 0,
						"slot": "1",
						"type": "t_contract(MedicalHistory)33"
					},
					{
						"astId": 10,
						"contract": "contracts/MedicalData.sol:MedicalData",
						"label": "appoint",
						"offset": 0,
						"slot": "2",
						"type": "t_string_storage"
					}
				],
				"types": {
					"t_address": {
						"encoding": "inplace",
						"label": "address",
						"numberOfBytes": "20"
					},
					"t_contract(MedicalHistory)33": {
						"encoding": "inplace",
						"label": "contract MedicalHistory",
						"numberOfBytes": "20"
					},
					"t_string_storage": {
						"encoding": "bytes",
						"label": "string",
						"numberOfBytes": "32"
					}
				}
			},
			"userdoc": {
				"kind": "user",
				"methods": {},
				"version": 1
			}
		}
	}
}