{
	"contracts/Histochain.sol": {
		"Histochain": {
			"abi": [
				{
					"inputs": [],
					"stateMutability": "payable",
					"type": "constructor"
				},
				{
					"inputs": [],
					"name": "getOwner",
					"outputs": [
						{
							"internalType": "address",
							"name": "",
							"type": "address"
						}
					],
					"stateMutability": "view",
					"type": "function"
				},
				{
					"inputs": [],
					"name": "pastBlockTime",
					"outputs": [
						{
							"internalType": "uint256",
							"name": "",
							"type": "uint256"
						}
					],
					"stateMutability": "view",
					"type": "function"
				},
				{
					"inputs": [
						{
							"internalType": "string",
							"name": "inputType",
							"type": "string"
						}
					],
					"name": "setTypePermission",
					"outputs": [],
					"stateMutability": "nonpayable",
					"type": "function"
				},
				{
					"inputs": [],
					"name": "spin",
					"outputs": [],
					"stateMutability": "payable",
					"type": "function"
				}
			],
			"devdoc": {
				"kind": "dev",
				"methods": {},
				"version": 1
			},
			"evm": {
				"assembly": "    /* \"contracts/Histochain.sol\":66:935  contract Histochain {\r... */\n  mstore(0x40, 0x80)\n  dataSize(sub_0)\n  dup1\n  dataOffset(sub_0)\n  0x00\n  codecopy\n  0x00\n  return\nstop\n\nsub_0: assembly {\n        /* \"contracts/Histochain.sol\":66:935  contract Histochain {\r... */\n      mstore(0x40, 0x80)\n      jumpi(tag_1, lt(calldatasize, 0x04))\n      shr(0xe0, calldataload(0x00))\n      dup1\n      0x58d02b09\n      eq\n      tag_2\n      jumpi\n      dup1\n      0x893d20e8\n      eq\n      tag_3\n      jumpi\n      dup1\n      0xaeb94c9d\n      eq\n      tag_4\n      jumpi\n      dup1\n      0xf0acd7d5\n      eq\n      tag_5\n      jumpi\n    tag_1:\n      0x00\n      dup1\n      revert\n        /* \"contracts/Histochain.sol\":256:281  uint public pastBlockTime */\n    tag_2:\n      callvalue\n      dup1\n      iszero\n      tag_6\n      jumpi\n      0x00\n      dup1\n      revert\n    tag_6:\n      pop\n      tag_7\n      tag_8\n      jump\t// in\n    tag_7:\n      mload(0x40)\n      tag_9\n      swap2\n      swap1\n      tag_10\n      jump\t// in\n    tag_9:\n      mload(0x40)\n      dup1\n      swap2\n      sub\n      swap1\n      return\n        /* \"contracts/Histochain.sol\":322:405  function getOwner() external view returns(address) {\r... */\n    tag_3:\n      callvalue\n      dup1\n      iszero\n      tag_11\n      jumpi\n      0x00\n      dup1\n      revert\n    tag_11:\n      pop\n      tag_12\n      tag_13\n      jump\t// in\n    tag_12:\n      mload(0x40)\n      tag_14\n      swap2\n      swap1\n      tag_15\n      jump\t// in\n    tag_14:\n      mload(0x40)\n      dup1\n      swap2\n      sub\n      swap1\n      return\n        /* \"contracts/Histochain.sol\":413:508  function setTypePermission(string memory inputType) public {\r... */\n    tag_4:\n      callvalue\n      dup1\n      iszero\n      tag_16\n      jumpi\n      0x00\n      dup1\n      revert\n    tag_16:\n      pop\n      tag_17\n      0x04\n      dup1\n      calldatasize\n      sub\n      dup2\n      add\n      swap1\n      tag_18\n      swap2\n      swap1\n      tag_19\n      jump\t// in\n    tag_18:\n      tag_20\n      jump\t// in\n    tag_17:\n      stop\n        /* \"contracts/Histochain.sol\":516:932  function spin() external payable {\r... */\n    tag_5:\n      tag_21\n      tag_22\n      jump\t// in\n    tag_21:\n      stop\n        /* \"contracts/Histochain.sol\":256:281  uint public pastBlockTime */\n    tag_8:\n      sload(0x02)\n      dup2\n      jump\t// out\n        /* \"contracts/Histochain.sol\":322:405  function getOwner() external view returns(address) {\r... */\n    tag_13:\n        /* \"contracts/Histochain.sol\":364:371  address */\n      0x00\n        /* \"contracts/Histochain.sol\":391:397  _owner */\n      dup1\n      0x00\n      swap1\n      sload\n      swap1\n      0x0100\n      exp\n      swap1\n      div\n      0xffffffffffffffffffffffffffffffffffffffff\n      and\n        /* \"contracts/Histochain.sol\":384:397  return _owner */\n      swap1\n      pop\n        /* \"contracts/Histochain.sol\":322:405  function getOwner() external view returns(address) {\r... */\n      swap1\n      jump\t// out\n        /* \"contracts/Histochain.sol\":413:508  function setTypePermission(string memory inputType) public {\r... */\n    tag_20:\n        /* \"contracts/Histochain.sol\":491:500  inputType */\n      dup1\n        /* \"contracts/Histochain.sol\":483:488  _type */\n      0x01\n        /* \"contracts/Histochain.sol\":483:500  _type = inputType */\n      swap1\n      dup1\n      mload\n      swap1\n      0x20\n      add\n      swap1\n      tag_25\n      swap3\n      swap2\n      swap1\n      tag_26\n      jump\t// in\n    tag_25:\n      pop\n        /* \"contracts/Histochain.sol\":413:508  function setTypePermission(string memory inputType) public {\r... */\n      pop\n      jump\t// out\n        /* \"contracts/Histochain.sol\":516:932  function spin() external payable {\r... */\n    tag_22:\n        /* \"contracts/Histochain.sol\":581:589  10 ether */\n      0x8ac7230489e80000\n        /* \"contracts/Histochain.sol\":568:577  msg.value */\n      callvalue\n        /* \"contracts/Histochain.sol\":568:589  msg.value == 10 ether */\n      eq\n        /* \"contracts/Histochain.sol\":560:590  require(msg.value == 10 ether) */\n      tag_28\n      jumpi\n      0x00\n      dup1\n      revert\n    tag_28:\n        /* \"contracts/Histochain.sol\":647:660  pastBlockTime */\n      sload(0x02)\n        /* \"contracts/Histochain.sol\":628:643  block.timestamp */\n      timestamp\n        /* \"contracts/Histochain.sol\":628:660  block.timestamp != pastBlockTime */\n      eq\n      iszero\n        /* \"contracts/Histochain.sol\":620:661  require(block.timestamp != pastBlockTime) */\n      tag_29\n      jumpi\n      0x00\n      dup1\n      revert\n    tag_29:\n        /* \"contracts/Histochain.sol\":722:737  block.timestamp */\n      timestamp\n        /* \"contracts/Histochain.sol\":706:719  pastBlockTime */\n      0x02\n        /* \"contracts/Histochain.sol\":706:737  pastBlockTime = block.timestamp */\n      dup2\n      swap1\n      sstore\n      pop\n        /* \"contracts/Histochain.sol\":778:779  0 */\n      0x00\n        /* \"contracts/Histochain.sol\":772:774  15 */\n      0x0f\n        /* \"contracts/Histochain.sol\":754:769  block.timestamp */\n      timestamp\n        /* \"contracts/Histochain.sol\":754:774  block.timestamp % 15 */\n      tag_30\n      swap2\n      swap1\n      tag_31\n      jump\t// in\n    tag_30:\n        /* \"contracts/Histochain.sol\":754:779  block.timestamp % 15 == 0 */\n      eq\n        /* \"contracts/Histochain.sol\":750:925  if (block.timestamp % 15 == 0) {\r... */\n      iszero\n      tag_32\n      jumpi\n        /* \"contracts/Histochain.sol\":797:806  bool sent */\n      0x00\n        /* \"contracts/Histochain.sol\":812:822  msg.sender */\n      caller\n        /* \"contracts/Histochain.sol\":812:827  msg.sender.call */\n      0xffffffffffffffffffffffffffffffffffffffff\n      and\n        /* \"contracts/Histochain.sol\":835:856  address(this).balance */\n      selfbalance\n        /* \"contracts/Histochain.sol\":812:861  msg.sender.call{value: address(this).balance}(\"\") */\n      mload(0x40)\n      tag_33\n      swap1\n      tag_34\n      jump\t// in\n    tag_33:\n      0x00\n      mload(0x40)\n      dup1\n      dup4\n      sub\n      dup2\n      dup6\n      dup8\n      gas\n      call\n      swap3\n      pop\n      pop\n      pop\n      returndatasize\n      dup1\n      0x00\n      dup2\n      eq\n      tag_37\n      jumpi\n      mload(0x40)\n      swap2\n      pop\n      and(add(returndatasize, 0x3f), not(0x1f))\n      dup3\n      add\n      0x40\n      mstore\n      returndatasize\n      dup3\n      mstore\n      returndatasize\n      0x00\n      0x20\n      dup5\n      add\n      returndatacopy\n      jump(tag_36)\n    tag_37:\n      0x60\n      swap2\n      pop\n    tag_36:\n      pop\n        /* \"contracts/Histochain.sol\":796:861  (bool sent, ) = msg.sender.call{value: address(this).balance}(\"\") */\n      pop\n      swap1\n      pop\n        /* \"contracts/Histochain.sol\":884:888  sent */\n      dup1\n        /* \"contracts/Histochain.sol\":876:913  require(sent, \"Failed to send Ether\") */\n      tag_38\n      jumpi\n      mload(0x40)\n      0x08c379a000000000000000000000000000000000000000000000000000000000\n      dup2\n      mstore\n      0x04\n      add\n      tag_39\n      swap1\n      tag_40\n      jump\t// in\n    tag_39:\n      mload(0x40)\n      dup1\n      swap2\n      sub\n      swap1\n      revert\n    tag_38:\n        /* \"contracts/Histochain.sol\":781:925  {\r... */\n      pop\n        /* \"contracts/Histochain.sol\":750:925  if (block.timestamp % 15 == 0) {\r... */\n    tag_32:\n        /* \"contracts/Histochain.sol\":516:932  function spin() external payable {\r... */\n      jump\t// out\n    tag_26:\n      dup3\n      dup1\n      sload\n      tag_41\n      swap1\n      tag_42\n      jump\t// in\n    tag_41:\n      swap1\n      0x00\n      mstore\n      keccak256(0x00, 0x20)\n      swap1\n      0x1f\n      add\n      0x20\n      swap1\n      div\n      dup2\n      add\n      swap3\n      dup3\n      tag_44\n      jumpi\n      0x00\n      dup6\n      sstore\n      jump(tag_43)\n    tag_44:\n      dup3\n      0x1f\n      lt\n      tag_45\n      jumpi\n      dup1\n      mload\n      not(0xff)\n      and\n      dup4\n      dup1\n      add\n      or\n      dup6\n      sstore\n      jump(tag_43)\n    tag_45:\n      dup3\n      dup1\n      add\n      0x01\n      add\n      dup6\n      sstore\n      dup3\n      iszero\n      tag_43\n      jumpi\n      swap2\n      dup3\n      add\n    tag_46:\n      dup3\n      dup2\n      gt\n      iszero\n      tag_47\n      jumpi\n      dup3\n      mload\n      dup3\n      sstore\n      swap2\n      0x20\n      add\n      swap2\n      swap1\n      0x01\n      add\n      swap1\n      jump(tag_46)\n    tag_47:\n    tag_43:\n      pop\n      swap1\n      pop\n      tag_48\n      swap2\n      swap1\n      tag_49\n      jump\t// in\n    tag_48:\n      pop\n      swap1\n      jump\t// out\n    tag_49:\n    tag_50:\n      dup1\n      dup3\n      gt\n      iszero\n      tag_51\n      jumpi\n      0x00\n      dup2\n      0x00\n      swap1\n      sstore\n      pop\n      0x01\n      add\n      jump(tag_50)\n    tag_51:\n      pop\n      swap1\n      jump\t// out\n        /* \"#utility.yul\":7:419   */\n    tag_53:\n        /* \"#utility.yul\":85:90   */\n      0x00\n        /* \"#utility.yul\":110:176   */\n      tag_55\n        /* \"#utility.yul\":126:175   */\n      tag_56\n        /* \"#utility.yul\":168:174   */\n      dup5\n        /* \"#utility.yul\":126:175   */\n      tag_57\n      jump\t// in\n    tag_56:\n        /* \"#utility.yul\":110:176   */\n      tag_58\n      jump\t// in\n    tag_55:\n        /* \"#utility.yul\":101:176   */\n      swap1\n      pop\n        /* \"#utility.yul\":199:205   */\n      dup3\n        /* \"#utility.yul\":192:197   */\n      dup2\n        /* \"#utility.yul\":185:206   */\n      mstore\n        /* \"#utility.yul\":237:241   */\n      0x20\n        /* \"#utility.yul\":230:235   */\n      dup2\n        /* \"#utility.yul\":226:242   */\n      add\n        /* \"#utility.yul\":275:278   */\n      dup5\n        /* \"#utility.yul\":266:272   */\n      dup5\n        /* \"#utility.yul\":261:264   */\n      dup5\n        /* \"#utility.yul\":257:273   */\n      add\n        /* \"#utility.yul\":254:279   */\n      gt\n        /* \"#utility.yul\":251:363   */\n      iszero\n      tag_59\n      jumpi\n        /* \"#utility.yul\":282:361   */\n      tag_60\n      tag_61\n      jump\t// in\n    tag_60:\n        /* \"#utility.yul\":251:363   */\n    tag_59:\n        /* \"#utility.yul\":372:413   */\n      tag_62\n        /* \"#utility.yul\":406:412   */\n      dup5\n        /* \"#utility.yul\":401:404   */\n      dup3\n        /* \"#utility.yul\":396:399   */\n      dup6\n        /* \"#utility.yul\":372:413   */\n      tag_63\n      jump\t// in\n    tag_62:\n        /* \"#utility.yul\":91:419   */\n      pop\n        /* \"#utility.yul\":7:419   */\n      swap4\n      swap3\n      pop\n      pop\n      pop\n      jump\t// out\n        /* \"#utility.yul\":439:779   */\n    tag_64:\n        /* \"#utility.yul\":495:500   */\n      0x00\n        /* \"#utility.yul\":544:547   */\n      dup3\n        /* \"#utility.yul\":537:541   */\n      0x1f\n        /* \"#utility.yul\":529:535   */\n      dup4\n        /* \"#utility.yul\":525:542   */\n      add\n        /* \"#utility.yul\":521:548   */\n      slt\n        /* \"#utility.yul\":511:633   */\n      tag_66\n      jumpi\n        /* \"#utility.yul\":552:631   */\n      tag_67\n      tag_68\n      jump\t// in\n    tag_67:\n        /* \"#utility.yul\":511:633   */\n    tag_66:\n        /* \"#utility.yul\":669:675   */\n      dup2\n        /* \"#utility.yul\":656:676   */\n      calldataload\n        /* \"#utility.yul\":694:773   */\n      tag_69\n        /* \"#utility.yul\":769:772   */\n      dup5\n        /* \"#utility.yul\":761:767   */\n      dup3\n        /* \"#utility.yul\":754:758   */\n      0x20\n        /* \"#utility.yul\":746:752   */\n      dup7\n        /* \"#utility.yul\":742:759   */\n      add\n        /* \"#utility.yul\":694:773   */\n      tag_53\n      jump\t// in\n    tag_69:\n        /* \"#utility.yul\":685:773   */\n      swap2\n      pop\n        /* \"#utility.yul\":501:779   */\n      pop\n        /* \"#utility.yul\":439:779   */\n      swap3\n      swap2\n      pop\n      pop\n      jump\t// out\n        /* \"#utility.yul\":785:1294   */\n    tag_19:\n        /* \"#utility.yul\":854:860   */\n      0x00\n        /* \"#utility.yul\":903:905   */\n      0x20\n        /* \"#utility.yul\":891:900   */\n      dup3\n        /* \"#utility.yul\":882:889   */\n      dup5\n        /* \"#utility.yul\":878:901   */\n      sub\n        /* \"#utility.yul\":874:906   */\n      slt\n        /* \"#utility.yul\":871:990   */\n      iszero\n      tag_71\n      jumpi\n        /* \"#utility.yul\":909:988   */\n      tag_72\n      tag_73\n      jump\t// in\n    tag_72:\n        /* \"#utility.yul\":871:990   */\n    tag_71:\n        /* \"#utility.yul\":1057:1058   */\n      0x00\n        /* \"#utility.yul\":1046:1055   */\n      dup3\n        /* \"#utility.yul\":1042:1059   */\n      add\n        /* \"#utility.yul\":1029:1060   */\n      calldataload\n        /* \"#utility.yul\":1087:1105   */\n      0xffffffffffffffff\n        /* \"#utility.yul\":1079:1085   */\n      dup2\n        /* \"#utility.yul\":1076:1106   */\n      gt\n        /* \"#utility.yul\":1073:1190   */\n      iszero\n      tag_74\n      jumpi\n        /* \"#utility.yul\":1109:1188   */\n      tag_75\n      tag_76\n      jump\t// in\n    tag_75:\n        /* \"#utility.yul\":1073:1190   */\n    tag_74:\n        /* \"#utility.yul\":1214:1277   */\n      tag_77\n        /* \"#utility.yul\":1269:1276   */\n      dup5\n        /* \"#utility.yul\":1260:1266   */\n      dup3\n        /* \"#utility.yul\":1249:1258   */\n      dup6\n        /* \"#utility.yul\":1245:1267   */\n      add\n        /* \"#utility.yul\":1214:1277   */\n      tag_64\n      jump\t// in\n    tag_77:\n        /* \"#utility.yul\":1204:1277   */\n      swap2\n      pop\n        /* \"#utility.yul\":1000:1287   */\n      pop\n        /* \"#utility.yul\":785:1294   */\n      swap3\n      swap2\n      pop\n      pop\n      jump\t// out\n        /* \"#utility.yul\":1300:1418   */\n    tag_78:\n        /* \"#utility.yul\":1387:1411   */\n      tag_80\n        /* \"#utility.yul\":1405:1410   */\n      dup2\n        /* \"#utility.yul\":1387:1411   */\n      tag_81\n      jump\t// in\n    tag_80:\n        /* \"#utility.yul\":1382:1385   */\n      dup3\n        /* \"#utility.yul\":1375:1412   */\n      mstore\n        /* \"#utility.yul\":1300:1418   */\n      pop\n      pop\n      jump\t// out\n        /* \"#utility.yul\":1424:1790   */\n    tag_82:\n        /* \"#utility.yul\":1566:1569   */\n      0x00\n        /* \"#utility.yul\":1587:1654   */\n      tag_84\n        /* \"#utility.yul\":1651:1653   */\n      0x14\n        /* \"#utility.yul\":1646:1649   */\n      dup4\n        /* \"#utility.yul\":1587:1654   */\n      tag_85\n      jump\t// in\n    tag_84:\n        /* \"#utility.yul\":1580:1654   */\n      swap2\n      pop\n        /* \"#utility.yul\":1663:1756   */\n      tag_86\n        /* \"#utility.yul\":1752:1755   */\n      dup3\n        /* \"#utility.yul\":1663:1756   */\n      tag_87\n      jump\t// in\n    tag_86:\n        /* \"#utility.yul\":1781:1783   */\n      0x20\n        /* \"#utility.yul\":1776:1779   */\n      dup3\n        /* \"#utility.yul\":1772:1784   */\n      add\n        /* \"#utility.yul\":1765:1784   */\n      swap1\n      pop\n        /* \"#utility.yul\":1424:1790   */\n      swap2\n      swap1\n      pop\n      jump\t// out\n        /* \"#utility.yul\":1796:2194   */\n    tag_88:\n        /* \"#utility.yul\":1955:1958   */\n      0x00\n        /* \"#utility.yul\":1976:2059   */\n      tag_90\n        /* \"#utility.yul\":2057:2058   */\n      0x00\n        /* \"#utility.yul\":2052:2055   */\n      dup4\n        /* \"#utility.yul\":1976:2059   */\n      tag_91\n      jump\t// in\n    tag_90:\n        /* \"#utility.yul\":1969:2059   */\n      swap2\n      pop\n        /* \"#utility.yul\":2068:2161   */\n      tag_92\n        /* \"#utility.yul\":2157:2160   */\n      dup3\n        /* \"#utility.yul\":2068:2161   */\n      tag_93\n      jump\t// in\n    tag_92:\n        /* \"#utility.yul\":2186:2187   */\n      0x00\n        /* \"#utility.yul\":2181:2184   */\n      dup3\n        /* \"#utility.yul\":2177:2188   */\n      add\n        /* \"#utility.yul\":2170:2188   */\n      swap1\n      pop\n        /* \"#utility.yul\":1796:2194   */\n      swap2\n      swap1\n      pop\n      jump\t// out\n        /* \"#utility.yul\":2200:2318   */\n    tag_94:\n        /* \"#utility.yul\":2287:2311   */\n      tag_96\n        /* \"#utility.yul\":2305:2310   */\n      dup2\n        /* \"#utility.yul\":2287:2311   */\n      tag_97\n      jump\t// in\n    tag_96:\n        /* \"#utility.yul\":2282:2285   */\n      dup3\n        /* \"#utility.yul\":2275:2312   */\n      mstore\n        /* \"#utility.yul\":2200:2318   */\n      pop\n      pop\n      jump\t// out\n        /* \"#utility.yul\":2324:2703   */\n    tag_34:\n        /* \"#utility.yul\":2508:2511   */\n      0x00\n        /* \"#utility.yul\":2530:2677   */\n      tag_99\n        /* \"#utility.yul\":2673:2676   */\n      dup3\n        /* \"#utility.yul\":2530:2677   */\n      tag_88\n      jump\t// in\n    tag_99:\n        /* \"#utility.yul\":2523:2677   */\n      swap2\n      pop\n        /* \"#utility.yul\":2694:2697   */\n      dup2\n        /* \"#utility.yul\":2687:2697   */\n      swap1\n      pop\n        /* \"#utility.yul\":2324:2703   */\n      swap2\n      swap1\n      pop\n      jump\t// out\n        /* \"#utility.yul\":2709:2931   */\n    tag_15:\n        /* \"#utility.yul\":2802:2806   */\n      0x00\n        /* \"#utility.yul\":2840:2842   */\n      0x20\n        /* \"#utility.yul\":2829:2838   */\n      dup3\n        /* \"#utility.yul\":2825:2843   */\n      add\n        /* \"#utility.yul\":2817:2843   */\n      swap1\n      pop\n        /* \"#utility.yul\":2853:2924   */\n      tag_101\n        /* \"#utility.yul\":2921:2922   */\n      0x00\n        /* \"#utility.yul\":2910:2919   */\n      dup4\n        /* \"#utility.yul\":2906:2923   */\n      add\n        /* \"#utility.yul\":2897:2903   */\n      dup5\n        /* \"#utility.yul\":2853:2924   */\n      tag_78\n      jump\t// in\n    tag_101:\n        /* \"#utility.yul\":2709:2931   */\n      swap3\n      swap2\n      pop\n      pop\n      jump\t// out\n        /* \"#utility.yul\":2937:3356   */\n    tag_40:\n        /* \"#utility.yul\":3103:3107   */\n      0x00\n        /* \"#utility.yul\":3141:3143   */\n      0x20\n        /* \"#utility.yul\":3130:3139   */\n      dup3\n        /* \"#utility.yul\":3126:3144   */\n      add\n        /* \"#utility.yul\":3118:3144   */\n      swap1\n      pop\n        /* \"#utility.yul\":3190:3199   */\n      dup2\n        /* \"#utility.yul\":3184:3188   */\n      dup2\n        /* \"#utility.yul\":3180:3200   */\n      sub\n        /* \"#utility.yul\":3176:3177   */\n      0x00\n        /* \"#utility.yul\":3165:3174   */\n      dup4\n        /* \"#utility.yul\":3161:3178   */\n      add\n        /* \"#utility.yul\":3154:3201   */\n      mstore\n        /* \"#utility.yul\":3218:3349   */\n      tag_103\n        /* \"#utility.yul\":3344:3348   */\n      dup2\n        /* \"#utility.yul\":3218:3349   */\n      tag_82\n      jump\t// in\n    tag_103:\n        /* \"#utility.yul\":3210:3349   */\n      swap1\n      pop\n        /* \"#utility.yul\":2937:3356   */\n      swap2\n      swap1\n      pop\n      jump\t// out\n        /* \"#utility.yul\":3362:3584   */\n    tag_10:\n        /* \"#utility.yul\":3455:3459   */\n      0x00\n        /* \"#utility.yul\":3493:3495   */\n      0x20\n        /* \"#utility.yul\":3482:3491   */\n      dup3\n        /* \"#utility.yul\":3478:3496   */\n      add\n        /* \"#utility.yul\":3470:3496   */\n      swap1\n      pop\n        /* \"#utility.yul\":3506:3577   */\n      tag_105\n        /* \"#utility.yul\":3574:3575   */\n      0x00\n        /* \"#utility.yul\":3563:3572   */\n      dup4\n        /* \"#utility.yul\":3559:3576   */\n      add\n        /* \"#utility.yul\":3550:3556   */\n      dup5\n        /* \"#utility.yul\":3506:3577   */\n      tag_94\n      jump\t// in\n    tag_105:\n        /* \"#utility.yul\":3362:3584   */\n      swap3\n      swap2\n      pop\n      pop\n      jump\t// out\n        /* \"#utility.yul\":3590:3719   */\n    tag_58:\n        /* \"#utility.yul\":3624:3630   */\n      0x00\n        /* \"#utility.yul\":3651:3671   */\n      tag_107\n      tag_108\n      jump\t// in\n    tag_107:\n        /* \"#utility.yul\":3641:3671   */\n      swap1\n      pop\n        /* \"#utility.yul\":3680:3713   */\n      tag_109\n        /* \"#utility.yul\":3708:3712   */\n      dup3\n        /* \"#utility.yul\":3700:3706   */\n      dup3\n        /* \"#utility.yul\":3680:3713   */\n      tag_110\n      jump\t// in\n    tag_109:\n        /* \"#utility.yul\":3590:3719   */\n      swap2\n      swap1\n      pop\n      jump\t// out\n        /* \"#utility.yul\":3725:3800   */\n    tag_108:\n        /* \"#utility.yul\":3758:3764   */\n      0x00\n        /* \"#utility.yul\":3791:3793   */\n      0x40\n        /* \"#utility.yul\":3785:3794   */\n      mload\n        /* \"#utility.yul\":3775:3794   */\n      swap1\n      pop\n        /* \"#utility.yul\":3725:3800   */\n      swap1\n      jump\t// out\n        /* \"#utility.yul\":3806:4114   */\n    tag_57:\n        /* \"#utility.yul\":3868:3872   */\n      0x00\n        /* \"#utility.yul\":3958:3976   */\n      0xffffffffffffffff\n        /* \"#utility.yul\":3950:3956   */\n      dup3\n        /* \"#utility.yul\":3947:3977   */\n      gt\n        /* \"#utility.yul\":3944:4000   */\n      iszero\n      tag_113\n      jumpi\n        /* \"#utility.yul\":3980:3998   */\n      tag_114\n      tag_115\n      jump\t// in\n    tag_114:\n        /* \"#utility.yul\":3944:4000   */\n    tag_113:\n        /* \"#utility.yul\":4018:4047   */\n      tag_116\n        /* \"#utility.yul\":4040:4046   */\n      dup3\n        /* \"#utility.yul\":4018:4047   */\n      tag_117\n      jump\t// in\n    tag_116:\n        /* \"#utility.yul\":4010:4047   */\n      swap1\n      pop\n        /* \"#utility.yul\":4102:4106   */\n      0x20\n        /* \"#utility.yul\":4096:4100   */\n      dup2\n        /* \"#utility.yul\":4092:4107   */\n      add\n        /* \"#utility.yul\":4084:4107   */\n      swap1\n      pop\n        /* \"#utility.yul\":3806:4114   */\n      swap2\n      swap1\n      pop\n      jump\t// out\n        /* \"#utility.yul\":4120:4267   */\n    tag_91:\n        /* \"#utility.yul\":4221:4232   */\n      0x00\n        /* \"#utility.yul\":4258:4261   */\n      dup2\n        /* \"#utility.yul\":4243:4261   */\n      swap1\n      pop\n        /* \"#utility.yul\":4120:4267   */\n      swap3\n      swap2\n      pop\n      pop\n      jump\t// out\n        /* \"#utility.yul\":4273:4442   */\n    tag_85:\n        /* \"#utility.yul\":4357:4368   */\n      0x00\n        /* \"#utility.yul\":4391:4397   */\n      dup3\n        /* \"#utility.yul\":4386:4389   */\n      dup3\n        /* \"#utility.yul\":4379:4398   */\n      mstore\n        /* \"#utility.yul\":4431:4435   */\n      0x20\n        /* \"#utility.yul\":4426:4429   */\n      dup3\n        /* \"#utility.yul\":4422:4436   */\n      add\n        /* \"#utility.yul\":4407:4436   */\n      swap1\n      pop\n        /* \"#utility.yul\":4273:4442   */\n      swap3\n      swap2\n      pop\n      pop\n      jump\t// out\n        /* \"#utility.yul\":4448:4544   */\n    tag_81:\n        /* \"#utility.yul\":4485:4492   */\n      0x00\n        /* \"#utility.yul\":4514:4538   */\n      tag_121\n        /* \"#utility.yul\":4532:4537   */\n      dup3\n        /* \"#utility.yul\":4514:4538   */\n      tag_122\n      jump\t// in\n    tag_121:\n        /* \"#utility.yul\":4503:4538   */\n      swap1\n      pop\n        /* \"#utility.yul\":4448:4544   */\n      swap2\n      swap1\n      pop\n      jump\t// out\n        /* \"#utility.yul\":4550:4676   */\n    tag_122:\n        /* \"#utility.yul\":4587:4594   */\n      0x00\n        /* \"#utility.yul\":4627:4669   */\n      0xffffffffffffffffffffffffffffffffffffffff\n        /* \"#utility.yul\":4620:4625   */\n      dup3\n        /* \"#utility.yul\":4616:4670   */\n      and\n        /* \"#utility.yul\":4605:4670   */\n      swap1\n      pop\n        /* \"#utility.yul\":4550:4676   */\n      swap2\n      swap1\n      pop\n      jump\t// out\n        /* \"#utility.yul\":4682:4759   */\n    tag_97:\n        /* \"#utility.yul\":4719:4726   */\n      0x00\n        /* \"#utility.yul\":4748:4753   */\n      dup2\n        /* \"#utility.yul\":4737:4753   */\n      swap1\n      pop\n        /* \"#utility.yul\":4682:4759   */\n      swap2\n      swap1\n      pop\n      jump\t// out\n        /* \"#utility.yul\":4765:4919   */\n    tag_63:\n        /* \"#utility.yul\":4849:4855   */\n      dup3\n        /* \"#utility.yul\":4844:4847   */\n      dup2\n        /* \"#utility.yul\":4839:4842   */\n      dup4\n        /* \"#utility.yul\":4826:4856   */\n      calldatacopy\n        /* \"#utility.yul\":4911:4912   */\n      0x00\n        /* \"#utility.yul\":4902:4908   */\n      dup4\n        /* \"#utility.yul\":4897:4900   */\n      dup4\n        /* \"#utility.yul\":4893:4909   */\n      add\n        /* \"#utility.yul\":4886:4913   */\n      mstore\n        /* \"#utility.yul\":4765:4919   */\n      pop\n      pop\n      pop\n      jump\t// out\n        /* \"#utility.yul\":4925:5245   */\n    tag_42:\n        /* \"#utility.yul\":4969:4975   */\n      0x00\n        /* \"#utility.yul\":5006:5007   */\n      0x02\n        /* \"#utility.yul\":5000:5004   */\n      dup3\n        /* \"#utility.yul\":4996:5008   */\n      div\n        /* \"#utility.yul\":4986:5008   */\n      swap1\n      pop\n        /* \"#utility.yul\":5053:5054   */\n      0x01\n        /* \"#utility.yul\":5047:5051   */\n      dup3\n        /* \"#utility.yul\":5043:5055   */\n      and\n        /* \"#utility.yul\":5074:5092   */\n      dup1\n        /* \"#utility.yul\":5064:5145   */\n      tag_127\n      jumpi\n        /* \"#utility.yul\":5130:5134   */\n      0x7f\n        /* \"#utility.yul\":5122:5128   */\n      dup3\n        /* \"#utility.yul\":5118:5135   */\n      and\n        /* \"#utility.yul\":5108:5135   */\n      swap2\n      pop\n        /* \"#utility.yul\":5064:5145   */\n    tag_127:\n        /* \"#utility.yul\":5192:5194   */\n      0x20\n        /* \"#utility.yul\":5184:5190   */\n      dup3\n        /* \"#utility.yul\":5181:5195   */\n      lt\n        /* \"#utility.yul\":5161:5179   */\n      dup2\n        /* \"#utility.yul\":5158:5196   */\n      eq\n        /* \"#utility.yul\":5155:5239   */\n      iszero\n      tag_128\n      jumpi\n        /* \"#utility.yul\":5211:5229   */\n      tag_129\n      tag_130\n      jump\t// in\n    tag_129:\n        /* \"#utility.yul\":5155:5239   */\n    tag_128:\n        /* \"#utility.yul\":4976:5245   */\n      pop\n        /* \"#utility.yul\":4925:5245   */\n      swap2\n      swap1\n      pop\n      jump\t// out\n        /* \"#utility.yul\":5251:5532   */\n    tag_110:\n        /* \"#utility.yul\":5334:5361   */\n      tag_132\n        /* \"#utility.yul\":5356:5360   */\n      dup3\n        /* \"#utility.yul\":5334:5361   */\n      tag_117\n      jump\t// in\n    tag_132:\n        /* \"#utility.yul\":5326:5332   */\n      dup2\n        /* \"#utility.yul\":5322:5362   */\n      add\n        /* \"#utility.yul\":5464:5470   */\n      dup2\n        /* \"#utility.yul\":5452:5462   */\n      dup2\n        /* \"#utility.yul\":5449:5471   */\n      lt\n        /* \"#utility.yul\":5428:5446   */\n      0xffffffffffffffff\n        /* \"#utility.yul\":5416:5426   */\n      dup3\n        /* \"#utility.yul\":5413:5447   */\n      gt\n        /* \"#utility.yul\":5410:5472   */\n      or\n        /* \"#utility.yul\":5407:5495   */\n      iszero\n      tag_133\n      jumpi\n        /* \"#utility.yul\":5475:5493   */\n      tag_134\n      tag_115\n      jump\t// in\n    tag_134:\n        /* \"#utility.yul\":5407:5495   */\n    tag_133:\n        /* \"#utility.yul\":5515:5525   */\n      dup1\n        /* \"#utility.yul\":5511:5513   */\n      0x40\n        /* \"#utility.yul\":5504:5526   */\n      mstore\n        /* \"#utility.yul\":5294:5532   */\n      pop\n        /* \"#utility.yul\":5251:5532   */\n      pop\n      pop\n      jump\t// out\n        /* \"#utility.yul\":5538:5714   */\n    tag_31:\n        /* \"#utility.yul\":5570:5571   */\n      0x00\n        /* \"#utility.yul\":5587:5607   */\n      tag_136\n        /* \"#utility.yul\":5605:5606   */\n      dup3\n        /* \"#utility.yul\":5587:5607   */\n      tag_97\n      jump\t// in\n    tag_136:\n        /* \"#utility.yul\":5582:5607   */\n      swap2\n      pop\n        /* \"#utility.yul\":5621:5641   */\n      tag_137\n        /* \"#utility.yul\":5639:5640   */\n      dup4\n        /* \"#utility.yul\":5621:5641   */\n      tag_97\n      jump\t// in\n    tag_137:\n        /* \"#utility.yul\":5616:5641   */\n      swap3\n      pop\n        /* \"#utility.yul\":5660:5661   */\n      dup3\n        /* \"#utility.yul\":5650:5685   */\n      tag_138\n      jumpi\n        /* \"#utility.yul\":5665:5683   */\n      tag_139\n      tag_140\n      jump\t// in\n    tag_139:\n        /* \"#utility.yul\":5650:5685   */\n    tag_138:\n        /* \"#utility.yul\":5706:5707   */\n      dup3\n        /* \"#utility.yul\":5703:5704   */\n      dup3\n        /* \"#utility.yul\":5699:5708   */\n      mod\n        /* \"#utility.yul\":5694:5708   */\n      swap1\n      pop\n        /* \"#utility.yul\":5538:5714   */\n      swap3\n      swap2\n      pop\n      pop\n      jump\t// out\n        /* \"#utility.yul\":5720:5900   */\n    tag_140:\n        /* \"#utility.yul\":5768:5845   */\n      0x4e487b7100000000000000000000000000000000000000000000000000000000\n        /* \"#utility.yul\":5765:5766   */\n      0x00\n        /* \"#utility.yul\":5758:5846   */\n      mstore\n        /* \"#utility.yul\":5865:5869   */\n      0x12\n        /* \"#utility.yul\":5862:5863   */\n      0x04\n        /* \"#utility.yul\":5855:5870   */\n      mstore\n        /* \"#utility.yul\":5889:5893   */\n      0x24\n        /* \"#utility.yul\":5886:5887   */\n      0x00\n        /* \"#utility.yul\":5879:5894   */\n      revert\n        /* \"#utility.yul\":5906:6086   */\n    tag_130:\n        /* \"#utility.yul\":5954:6031   */\n      0x4e487b7100000000000000000000000000000000000000000000000000000000\n        /* \"#utility.yul\":5951:5952   */\n      0x00\n        /* \"#utility.yul\":5944:6032   */\n      mstore\n        /* \"#utility.yul\":6051:6055   */\n      0x22\n        /* \"#utility.yul\":6048:6049   */\n      0x04\n        /* \"#utility.yul\":6041:6056   */\n      mstore\n        /* \"#utility.yul\":6075:6079   */\n      0x24\n        /* \"#utility.yul\":6072:6073   */\n      0x00\n        /* \"#utility.yul\":6065:6080   */\n      revert\n        /* \"#utility.yul\":6092:6272   */\n    tag_115:\n        /* \"#utility.yul\":6140:6217   */\n      0x4e487b7100000000000000000000000000000000000000000000000000000000\n        /* \"#utility.yul\":6137:6138   */\n      0x00\n        /* \"#utility.yul\":6130:6218   */\n      mstore\n        /* \"#utility.yul\":6237:6241   */\n      0x41\n        /* \"#utility.yul\":6234:6235   */\n      0x04\n        /* \"#utility.yul\":6227:6242   */\n      mstore\n        /* \"#utility.yul\":6261:6265   */\n      0x24\n        /* \"#utility.yul\":6258:6259   */\n      0x00\n        /* \"#utility.yul\":6251:6266   */\n      revert\n        /* \"#utility.yul\":6278:6395   */\n    tag_68:\n        /* \"#utility.yul\":6387:6388   */\n      0x00\n        /* \"#utility.yul\":6384:6385   */\n      dup1\n        /* \"#utility.yul\":6377:6389   */\n      revert\n        /* \"#utility.yul\":6401:6518   */\n    tag_61:\n        /* \"#utility.yul\":6510:6511   */\n      0x00\n        /* \"#utility.yul\":6507:6508   */\n      dup1\n        /* \"#utility.yul\":6500:6512   */\n      revert\n        /* \"#utility.yul\":6524:6641   */\n    tag_76:\n        /* \"#utility.yul\":6633:6634   */\n      0x00\n        /* \"#utility.yul\":6630:6631   */\n      dup1\n        /* \"#utility.yul\":6623:6635   */\n      revert\n        /* \"#utility.yul\":6647:6764   */\n    tag_73:\n        /* \"#utility.yul\":6756:6757   */\n      0x00\n        /* \"#utility.yul\":6753:6754   */\n      dup1\n        /* \"#utility.yul\":6746:6758   */\n      revert\n        /* \"#utility.yul\":6770:6872   */\n    tag_117:\n        /* \"#utility.yul\":6811:6817   */\n      0x00\n        /* \"#utility.yul\":6862:6864   */\n      0x1f\n        /* \"#utility.yul\":6858:6865   */\n      not\n        /* \"#utility.yul\":6853:6855   */\n      0x1f\n        /* \"#utility.yul\":6846:6851   */\n      dup4\n        /* \"#utility.yul\":6842:6856   */\n      add\n        /* \"#utility.yul\":6838:6866   */\n      and\n        /* \"#utility.yul\":6828:6866   */\n      swap1\n      pop\n        /* \"#utility.yul\":6770:6872   */\n      swap2\n      swap1\n      pop\n      jump\t// out\n        /* \"#utility.yul\":6878:7048   */\n    tag_87:\n        /* \"#utility.yul\":7018:7040   */\n      0x4661696c656420746f2073656e64204574686572000000000000000000000000\n        /* \"#utility.yul\":7014:7015   */\n      0x00\n        /* \"#utility.yul\":7006:7012   */\n      dup3\n        /* \"#utility.yul\":7002:7016   */\n      add\n        /* \"#utility.yul\":6995:7041   */\n      mstore\n        /* \"#utility.yul\":6878:7048   */\n      pop\n      jump\t// out\n        /* \"#utility.yul\":7054:7168   */\n    tag_93:\n      pop\n      jump\t// out\n\n    auxdata: 0xa2646970667358221220e79b786c9140353120df2f71076c3d6d55046d22a805f093b5184ae750b9bbae64736f6c63430008070033\n}\n",
				"bytecode": {
					"linkReferences": {},
					"object": "6080604052610695806100136000396000f3fe60806040526004361061003f5760003560e01c806358d02b0914610044578063893d20e81461006f578063aeb94c9d1461009a578063f0acd7d5146100c3575b600080fd5b34801561005057600080fd5b506100596100cd565b6040516100669190610415565b60405180910390f35b34801561007b57600080fd5b506100846100d3565b60405161009191906103da565b60405180910390f35b3480156100a657600080fd5b506100c160048036038101906100bc9190610318565b6100fc565b005b6100cb610116565b005b60025481565b60008060009054906101000a900473ffffffffffffffffffffffffffffffffffffffff16905090565b8060019080519060200190610112929190610205565b5050565b678ac7230489e80000341461012a57600080fd5b60025442141561013957600080fd5b426002819055506000600f4261014f9190610550565b14156102035760003373ffffffffffffffffffffffffffffffffffffffff164760405161017b906103c5565b60006040518083038185875af1925050503d80600081146101b8576040519150601f19603f3d011682016040523d82523d6000602084013e6101bd565b606091505b5050905080610201576040517f08c379a00000000000000000000000000000000000000000000000000000000081526004016101f8906103f5565b60405180910390fd5b505b565b828054610211906104ed565b90600052602060002090601f016020900481019282610233576000855561027a565b82601f1061024c57805160ff191683800117855561027a565b8280016001018555821561027a579182015b8281111561027957825182559160200191906001019061025e565b5b509050610287919061028b565b5090565b5b808211156102a457600081600090555060010161028c565b5090565b60006102bb6102b684610455565b610430565b9050828152602081018484840111156102d7576102d6610613565b5b6102e28482856104de565b509392505050565b600082601f8301126102ff576102fe61060e565b5b813561030f8482602086016102a8565b91505092915050565b60006020828403121561032e5761032d61061d565b5b600082013567ffffffffffffffff81111561034c5761034b610618565b5b610358848285016102ea565b91505092915050565b61036a816104a2565b82525050565b600061037d601483610491565b915061038882610633565b602082019050919050565b60006103a0600083610486565b91506103ab8261065c565b600082019050919050565b6103bf816104d4565b82525050565b60006103d082610393565b9150819050919050565b60006020820190506103ef6000830184610361565b92915050565b6000602082019050818103600083015261040e81610370565b9050919050565b600060208201905061042a60008301846103b6565b92915050565b600061043a61044b565b9050610446828261051f565b919050565b6000604051905090565b600067ffffffffffffffff8211156104705761046f6105df565b5b61047982610622565b9050602081019050919050565b600081905092915050565b600082825260208201905092915050565b60006104ad826104b4565b9050919050565b600073ffffffffffffffffffffffffffffffffffffffff82169050919050565b6000819050919050565b82818337600083830152505050565b6000600282049050600182168061050557607f821691505b60208210811415610519576105186105b0565b5b50919050565b61052882610622565b810181811067ffffffffffffffff82111715610547576105466105df565b5b80604052505050565b600061055b826104d4565b9150610566836104d4565b92508261057657610575610581565b5b828206905092915050565b7f4e487b7100000000000000000000000000000000000000000000000000000000600052601260045260246000fd5b7f4e487b7100000000000000000000000000000000000000000000000000000000600052602260045260246000fd5b7f4e487b7100000000000000000000000000000000000000000000000000000000600052604160045260246000fd5b600080fd5b600080fd5b600080fd5b600080fd5b6000601f19601f8301169050919050565b7f4661696c656420746f2073656e64204574686572000000000000000000000000600082015250565b5056fea2646970667358221220e79b786c9140353120df2f71076c3d6d55046d22a805f093b5184ae750b9bbae64736f6c63430008070033",
					"opcodes": "PUSH1 0x80 PUSH1 0x40 MSTORE PUSH2 0x695 DUP1 PUSH2 0x13 PUSH1 0x0 CODECOPY PUSH1 0x0 RETURN INVALID PUSH1 0x80 PUSH1 0x40 MSTORE PUSH1 0x4 CALLDATASIZE LT PUSH2 0x3F JUMPI PUSH1 0x0 CALLDATALOAD PUSH1 0xE0 SHR DUP1 PUSH4 0x58D02B09 EQ PUSH2 0x44 JUMPI DUP1 PUSH4 0x893D20E8 EQ PUSH2 0x6F JUMPI DUP1 PUSH4 0xAEB94C9D EQ PUSH2 0x9A JUMPI DUP1 PUSH4 0xF0ACD7D5 EQ PUSH2 0xC3 JUMPI JUMPDEST PUSH1 0x0 DUP1 REVERT JUMPDEST CALLVALUE DUP1 ISZERO PUSH2 0x50 JUMPI PUSH1 0x0 DUP1 REVERT JUMPDEST POP PUSH2 0x59 PUSH2 0xCD JUMP JUMPDEST PUSH1 0x40 MLOAD PUSH2 0x66 SWAP2 SWAP1 PUSH2 0x415 JUMP JUMPDEST PUSH1 0x40 MLOAD DUP1 SWAP2 SUB SWAP1 RETURN JUMPDEST CALLVALUE DUP1 ISZERO PUSH2 0x7B JUMPI PUSH1 0x0 DUP1 REVERT JUMPDEST POP PUSH2 0x84 PUSH2 0xD3 JUMP JUMPDEST PUSH1 0x40 MLOAD PUSH2 0x91 SWAP2 SWAP1 PUSH2 0x3DA JUMP JUMPDEST PUSH1 0x40 MLOAD DUP1 SWAP2 SUB SWAP1 RETURN JUMPDEST CALLVALUE DUP1 ISZERO PUSH2 0xA6 JUMPI PUSH1 0x0 DUP1 REVERT JUMPDEST POP PUSH2 0xC1 PUSH1 0x4 DUP1 CALLDATASIZE SUB DUP2 ADD SWAP1 PUSH2 0xBC SWAP2 SWAP1 PUSH2 0x318 JUMP JUMPDEST PUSH2 0xFC JUMP JUMPDEST STOP JUMPDEST PUSH2 0xCB PUSH2 0x116 JUMP JUMPDEST STOP JUMPDEST PUSH1 0x2 SLOAD DUP2 JUMP JUMPDEST PUSH1 0x0 DUP1 PUSH1 0x0 SWAP1 SLOAD SWAP1 PUSH2 0x100 EXP SWAP1 DIV PUSH20 0xFFFFFFFFFFFFFFFFFFFFFFFFFFFFFFFFFFFFFFFF AND SWAP1 POP SWAP1 JUMP JUMPDEST DUP1 PUSH1 0x1 SWAP1 DUP1 MLOAD SWAP1 PUSH1 0x20 ADD SWAP1 PUSH2 0x112 SWAP3 SWAP2 SWAP1 PUSH2 0x205 JUMP JUMPDEST POP POP JUMP JUMPDEST PUSH8 0x8AC7230489E80000 CALLVALUE EQ PUSH2 0x12A JUMPI PUSH1 0x0 DUP1 REVERT JUMPDEST PUSH1 0x2 SLOAD TIMESTAMP EQ ISZERO PUSH2 0x139 JUMPI PUSH1 0x0 DUP1 REVERT JUMPDEST TIMESTAMP PUSH1 0x2 DUP2 SWAP1 SSTORE POP PUSH1 0x0 PUSH1 0xF TIMESTAMP PUSH2 0x14F SWAP2 SWAP1 PUSH2 0x550 JUMP JUMPDEST EQ ISZERO PUSH2 0x203 JUMPI PUSH1 0x0 CALLER PUSH20 0xFFFFFFFFFFFFFFFFFFFFFFFFFFFFFFFFFFFFFFFF AND SELFBALANCE PUSH1 0x40 MLOAD PUSH2 0x17B SWAP1 PUSH2 0x3C5 JUMP JUMPDEST PUSH1 0x0 PUSH1 0x40 MLOAD DUP1 DUP4 SUB DUP2 DUP6 DUP8 GAS CALL SWAP3 POP POP POP RETURNDATASIZE DUP1 PUSH1 0x0 DUP2 EQ PUSH2 0x1B8 JUMPI PUSH1 0x40 MLOAD SWAP2 POP PUSH1 0x1F NOT PUSH1 0x3F RETURNDATASIZE ADD AND DUP3 ADD PUSH1 0x40 MSTORE RETURNDATASIZE DUP3 MSTORE RETURNDATASIZE PUSH1 0x0 PUSH1 0x20 DUP5 ADD RETURNDATACOPY PUSH2 0x1BD JUMP JUMPDEST PUSH1 0x60 SWAP2 POP JUMPDEST POP POP SWAP1 POP DUP1 PUSH2 0x201 JUMPI PUSH1 0x40 MLOAD PUSH32 0x8C379A000000000000000000000000000000000000000000000000000000000 DUP2 MSTORE PUSH1 0x4 ADD PUSH2 0x1F8 SWAP1 PUSH2 0x3F5 JUMP JUMPDEST PUSH1 0x40 MLOAD DUP1 SWAP2 SUB SWAP1 REVERT JUMPDEST POP JUMPDEST JUMP JUMPDEST DUP3 DUP1 SLOAD PUSH2 0x211 SWAP1 PUSH2 0x4ED JUMP JUMPDEST SWAP1 PUSH1 0x0 MSTORE PUSH1 0x20 PUSH1 0x0 KECCAK256 SWAP1 PUSH1 0x1F ADD PUSH1 0x20 SWAP1 DIV DUP2 ADD SWAP3 DUP3 PUSH2 0x233 JUMPI PUSH1 0x0 DUP6 SSTORE PUSH2 0x27A JUMP JUMPDEST DUP3 PUSH1 0x1F LT PUSH2 0x24C JUMPI DUP1 MLOAD PUSH1 0xFF NOT AND DUP4 DUP1 ADD OR DUP6 SSTORE PUSH2 0x27A JUMP JUMPDEST DUP3 DUP1 ADD PUSH1 0x1 ADD DUP6 SSTORE DUP3 ISZERO PUSH2 0x27A JUMPI SWAP2 DUP3 ADD JUMPDEST DUP3 DUP2 GT ISZERO PUSH2 0x279 JUMPI DUP3 MLOAD DUP3 SSTORE SWAP2 PUSH1 0x20 ADD SWAP2 SWAP1 PUSH1 0x1 ADD SWAP1 PUSH2 0x25E JUMP JUMPDEST JUMPDEST POP SWAP1 POP PUSH2 0x287 SWAP2 SWAP1 PUSH2 0x28B JUMP JUMPDEST POP SWAP1 JUMP JUMPDEST JUMPDEST DUP1 DUP3 GT ISZERO PUSH2 0x2A4 JUMPI PUSH1 0x0 DUP2 PUSH1 0x0 SWAP1 SSTORE POP PUSH1 0x1 ADD PUSH2 0x28C JUMP JUMPDEST POP SWAP1 JUMP JUMPDEST PUSH1 0x0 PUSH2 0x2BB PUSH2 0x2B6 DUP5 PUSH2 0x455 JUMP JUMPDEST PUSH2 0x430 JUMP JUMPDEST SWAP1 POP DUP3 DUP2 MSTORE PUSH1 0x20 DUP2 ADD DUP5 DUP5 DUP5 ADD GT ISZERO PUSH2 0x2D7 JUMPI PUSH2 0x2D6 PUSH2 0x613 JUMP JUMPDEST JUMPDEST PUSH2 0x2E2 DUP5 DUP3 DUP6 PUSH2 0x4DE JUMP JUMPDEST POP SWAP4 SWAP3 POP POP POP JUMP JUMPDEST PUSH1 0x0 DUP3 PUSH1 0x1F DUP4 ADD SLT PUSH2 0x2FF JUMPI PUSH2 0x2FE PUSH2 0x60E JUMP JUMPDEST JUMPDEST DUP2 CALLDATALOAD PUSH2 0x30F DUP5 DUP3 PUSH1 0x20 DUP7 ADD PUSH2 0x2A8 JUMP JUMPDEST SWAP2 POP POP SWAP3 SWAP2 POP POP JUMP JUMPDEST PUSH1 0x0 PUSH1 0x20 DUP3 DUP5 SUB SLT ISZERO PUSH2 0x32E JUMPI PUSH2 0x32D PUSH2 0x61D JUMP JUMPDEST JUMPDEST PUSH1 0x0 DUP3 ADD CALLDATALOAD PUSH8 0xFFFFFFFFFFFFFFFF DUP2 GT ISZERO PUSH2 0x34C JUMPI PUSH2 0x34B PUSH2 0x618 JUMP JUMPDEST JUMPDEST PUSH2 0x358 DUP5 DUP3 DUP6 ADD PUSH2 0x2EA JUMP JUMPDEST SWAP2 POP POP SWAP3 SWAP2 POP POP JUMP JUMPDEST PUSH2 0x36A DUP2 PUSH2 0x4A2 JUMP JUMPDEST DUP3 MSTORE POP POP JUMP JUMPDEST PUSH1 0x0 PUSH2 0x37D PUSH1 0x14 DUP4 PUSH2 0x491 JUMP JUMPDEST SWAP2 POP PUSH2 0x388 DUP3 PUSH2 0x633 JUMP JUMPDEST PUSH1 0x20 DUP3 ADD SWAP1 POP SWAP2 SWAP1 POP JUMP JUMPDEST PUSH1 0x0 PUSH2 0x3A0 PUSH1 0x0 DUP4 PUSH2 0x486 JUMP JUMPDEST SWAP2 POP PUSH2 0x3AB DUP3 PUSH2 0x65C JUMP JUMPDEST PUSH1 0x0 DUP3 ADD SWAP1 POP SWAP2 SWAP1 POP JUMP JUMPDEST PUSH2 0x3BF DUP2 PUSH2 0x4D4 JUMP JUMPDEST DUP3 MSTORE POP POP JUMP JUMPDEST PUSH1 0x0 PUSH2 0x3D0 DUP3 PUSH2 0x393 JUMP JUMPDEST SWAP2 POP DUP2 SWAP1 POP SWAP2 SWAP1 POP JUMP JUMPDEST PUSH1 0x0 PUSH1 0x20 DUP3 ADD SWAP1 POP PUSH2 0x3EF PUSH1 0x0 DUP4 ADD DUP5 PUSH2 0x361 JUMP JUMPDEST SWAP3 SWAP2 POP POP JUMP JUMPDEST PUSH1 0x0 PUSH1 0x20 DUP3 ADD SWAP1 POP DUP2 DUP2 SUB PUSH1 0x0 DUP4 ADD MSTORE PUSH2 0x40E DUP2 PUSH2 0x370 JUMP JUMPDEST SWAP1 POP SWAP2 SWAP1 POP JUMP JUMPDEST PUSH1 0x0 PUSH1 0x20 DUP3 ADD SWAP1 POP PUSH2 0x42A PUSH1 0x0 DUP4 ADD DUP5 PUSH2 0x3B6 JUMP JUMPDEST SWAP3 SWAP2 POP POP JUMP JUMPDEST PUSH1 0x0 PUSH2 0x43A PUSH2 0x44B JUMP JUMPDEST SWAP1 POP PUSH2 0x446 DUP3 DUP3 PUSH2 0x51F JUMP JUMPDEST SWAP2 SWAP1 POP JUMP JUMPDEST PUSH1 0x0 PUSH1 0x40 MLOAD SWAP1 POP SWAP1 JUMP JUMPDEST PUSH1 0x0 PUSH8 0xFFFFFFFFFFFFFFFF DUP3 GT ISZERO PUSH2 0x470 JUMPI PUSH2 0x46F PUSH2 0x5DF JUMP JUMPDEST JUMPDEST PUSH2 0x479 DUP3 PUSH2 0x622 JUMP JUMPDEST SWAP1 POP PUSH1 0x20 DUP2 ADD SWAP1 POP SWAP2 SWAP1 POP JUMP JUMPDEST PUSH1 0x0 DUP2 SWAP1 POP SWAP3 SWAP2 POP POP JUMP JUMPDEST PUSH1 0x0 DUP3 DUP3 MSTORE PUSH1 0x20 DUP3 ADD SWAP1 POP SWAP3 SWAP2 POP POP JUMP JUMPDEST PUSH1 0x0 PUSH2 0x4AD DUP3 PUSH2 0x4B4 JUMP JUMPDEST SWAP1 POP SWAP2 SWAP1 POP JUMP JUMPDEST PUSH1 0x0 PUSH20 0xFFFFFFFFFFFFFFFFFFFFFFFFFFFFFFFFFFFFFFFF DUP3 AND SWAP1 POP SWAP2 SWAP1 POP JUMP JUMPDEST PUSH1 0x0 DUP2 SWAP1 POP SWAP2 SWAP1 POP JUMP JUMPDEST DUP3 DUP2 DUP4 CALLDATACOPY PUSH1 0x0 DUP4 DUP4 ADD MSTORE POP POP POP JUMP JUMPDEST PUSH1 0x0 PUSH1 0x2 DUP3 DIV SWAP1 POP PUSH1 0x1 DUP3 AND DUP1 PUSH2 0x505 JUMPI PUSH1 0x7F DUP3 AND SWAP2 POP JUMPDEST PUSH1 0x20 DUP3 LT DUP2 EQ ISZERO PUSH2 0x519 JUMPI PUSH2 0x518 PUSH2 0x5B0 JUMP JUMPDEST JUMPDEST POP SWAP2 SWAP1 POP JUMP JUMPDEST PUSH2 0x528 DUP3 PUSH2 0x622 JUMP JUMPDEST DUP2 ADD DUP2 DUP2 LT PUSH8 0xFFFFFFFFFFFFFFFF DUP3 GT OR ISZERO PUSH2 0x547 JUMPI PUSH2 0x546 PUSH2 0x5DF JUMP JUMPDEST JUMPDEST DUP1 PUSH1 0x40 MSTORE POP POP POP JUMP JUMPDEST PUSH1 0x0 PUSH2 0x55B DUP3 PUSH2 0x4D4 JUMP JUMPDEST SWAP2 POP PUSH2 0x566 DUP4 PUSH2 0x4D4 JUMP JUMPDEST SWAP3 POP DUP3 PUSH2 0x576 JUMPI PUSH2 0x575 PUSH2 0x581 JUMP JUMPDEST JUMPDEST DUP3 DUP3 MOD SWAP1 POP SWAP3 SWAP2 POP POP JUMP JUMPDEST PUSH32 0x4E487B7100000000000000000000000000000000000000000000000000000000 PUSH1 0x0 MSTORE PUSH1 0x12 PUSH1 0x4 MSTORE PUSH1 0x24 PUSH1 0x0 REVERT JUMPDEST PUSH32 0x4E487B7100000000000000000000000000000000000000000000000000000000 PUSH1 0x0 MSTORE PUSH1 0x22 PUSH1 0x4 MSTORE PUSH1 0x24 PUSH1 0x0 REVERT JUMPDEST PUSH32 0x4E487B7100000000000000000000000000000000000000000000000000000000 PUSH1 0x0 MSTORE PUSH1 0x41 PUSH1 0x4 MSTORE PUSH1 0x24 PUSH1 0x0 REVERT JUMPDEST PUSH1 0x0 DUP1 REVERT JUMPDEST PUSH1 0x0 DUP1 REVERT JUMPDEST PUSH1 0x0 DUP1 REVERT JUMPDEST PUSH1 0x0 DUP1 REVERT JUMPDEST PUSH1 0x0 PUSH1 0x1F NOT PUSH1 0x1F DUP4 ADD AND SWAP1 POP SWAP2 SWAP1 POP JUMP JUMPDEST PUSH32 0x4661696C656420746F2073656E64204574686572000000000000000000000000 PUSH1 0x0 DUP3 ADD MSTORE POP JUMP JUMPDEST POP JUMP INVALID LOG2 PUSH5 0x6970667358 0x22 SLT KECCAK256 0xE7 SWAP12 PUSH25 0x6C9140353120DF2F71076C3D6D55046D22A805F093B5184AE7 POP 0xB9 0xBB 0xAE PUSH5 0x736F6C6343 STOP ADDMOD SMOD STOP CALLER "
				},
				"gasEstimates": {
					"creation": {
						"codeDepositCost": "337000",
						"executionCost": "350",
						"totalCost": "337350"
					},
					"external": {
						"getOwner()": "2522",
						"pastBlockTime()": "2407",
						"setTypePermission(string)": "infinite",
						"spin()": "infinite"
					}
				},
				"methodIdentifiers": {
					"getOwner()": "893d20e8",
					"pastBlockTime()": "58d02b09",
					"setTypePermission(string)": "aeb94c9d",
					"spin()": "f0acd7d5"
				}
			},
			"storageLayout": {
				"storage": [
					{
						"astId": 3,
						"contract": "contracts/Histochain.sol:Histochain",
						"label": "_owner",
						"offset": 0,
						"slot": "0",
						"type": "t_address"
					},
					{
						"astId": 5,
						"contract": "contracts/Histochain.sol:Histochain",
						"label": "_type",
						"offset": 0,
						"slot": "1",
						"type": "t_string_storage"
					},
					{
						"astId": 7,
						"contract": "contracts/Histochain.sol:Histochain",
						"label": "pastBlockTime",
						"offset": 0,
						"slot": "2",
						"type": "t_uint256"
					}
				],
				"types": {
					"t_address": {
						"encoding": "inplace",
						"label": "address",
						"numberOfBytes": "20"
					},
					"t_string_storage": {
						"encoding": "bytes",
						"label": "string",
						"numberOfBytes": "32"
					},
					"t_uint256": {
						"encoding": "inplace",
						"label": "uint256",
						"numberOfBytes": "32"
					}
				}
			},
			"userdoc": {
				"kind": "user",
				"methods": {},
				"version": 1
			}
		}
	}
}